:020000040800F2
:10000000881900204501000885140008871400089D
:100010008B1400088F1400089314000800000000DF
:10002000000000000000000000000000971400081D
:1000300099140008000000009B1400089D1400089B
:100040005F0100085F0100085F0100085F01000810
:100050005F0100085F0100085F0100085F01000800
:100060005F0100085F0100085F0100085F010008F0
:100070005F0100085F0100085F0100085F010008E0
:100080005F0100085F0100085F0100085F010008D0
:100090005F0100085F0100085F0100085F010008C0
:1000A0005F0100085F0100085F0100085F010008B0
:1000B0005F0100085F0100085F0100085F010008A0
:1000C0005F0100085F0100085F0100085F01000890
:1000D0005F0100085F0100085F0100085F01000880
:1000E0005F0100085F0100085F0100085F01000870
:1000F0005F0100085F0100085F0100085F01000860
:100100005F0100089F1400085F0100085F010008FC
:100110005F0100085F0100085F0100085F0100083F
:100120005F0100085F0100085F0100085F0100082F
:10013000DFF80CD004F068F90048004755130008B8
:10014000881900200648804706480047FEE7FEE77A
:10015000FEE7FEE7FEE7FEE7FEE7FEE7FEE7FEE777
:1001600047020008310100080CB500200190009002
:100170006C48006840F480306A49086000BF6948F4
:10018000006800F4003000900198401C0190009835
:1001900018B90198B0F5A06FF1D16248006800F479
:1001A000003010B10120009001E000200090009884
:1001B000012843D15C48006840F010005A490860AB
:1001C0000846006820F0030008600846006840F018
:1001D0000200086053484068524948600846406839
:1001E00048600846406840F48060486008464068BF
:1001F00020F47C1048600846406840F4E8104860ED
:100200000846006840F08070086000BF45480068FC
:1002100000F000700028F9D04248406820F0030048
:10022000404948600846406840F00200486000BF0E
:100230003C48406800F00C000828F9D10CBD10B50E
:10024000FFF792FF10BD10B53648006840F001007E
:1002500034490860084640683449084031494860DC
:1002600008460068324908402E4908600846006880
:1002700020F4802008600846406820F4FE004860B2
:100280004FF41F008860FFF7DAFF4FF00060294944
:10029000086010BD10B5002100200022214B5B68D2
:1002A00003F00C0121B1042906D0082928D107E068
:1002B000214B224C236027E01F4B204C236023E07E
:1002C000184B5B6803F47010164B5B6803F48032C4
:1002D000022303EB904022B9194B4343174C236090
:1002E0000DE0104B5B6803F4003323B1144B434320
:1002F000124C236003E0104B4343104C236003E097
:100300000D4B0E4C236000BF00BF064B5B68C3F370
:1003100003130C4CE15C094B1B68CB40074C23607A
:1003200010BD000000100240002002400000FFF855
:10033000FFFFF6FE08ED00E000127A00000000204A
:1003400000093D000400002031490143314A116099
:10035000704770B5002100230F22C47804B32D4CE0
:10036000246804F4E064C4F5E064210AC1F10403E4
:10037000CA40447804FA03F1847814402143090107
:10038000254C0678A155047804F01F050124AC40E3
:1003900005786D11AD0005F1E025C5F8004109E0D3
:1003A000047804F01F050124AC401C4D067876113A
:1003B00045F8264070BD1A4A0A400243154B1B1FE0
:1003C0001A60704739B1134A121D12680243114B6B
:1003D0001B1D1A6006E00F4A121D126882430D4B66
:1003E0001B1D1A607047042808D14FF0E0210969ED
:1003F00041F004014FF0E022116107E04FF0E021ED
:10040000096921F004014FF0E022116170470000FA
:100410000000FA050CED00E000E400E080E100E0FF
:1004200080FFFF1F01684FF6FE721140016000213E
:10043000016041608160C1608D49884208D18C496A
:100440000839496841F00F01894A083A51608AE049
:1004500087491431884208D185490839496841F0F3
:10046000F001834A083A51607DE081492831884291
:1004700008D17F490839496841F470617C4A083ADB
:10048000516070E07A493C31884208D17849083996
:10049000496841F47041764A083A516063E0744912
:1004A0005031884208D172490839496841F47021B5
:1004B0006F4A083A516056E06D496431884208D16C
:1004C0006B490839496841F47001694A083A51603A
:1004D00049E067497831884208D165490839496857
:1004E00041F07061624A083A51603CE061498842DB
:1004F00006D1011F096841F00F01021F116032E0AF
:100500005C491431884208D15A49091F096841F0F1
:10051000F001584A121F116025E0564928318842DF
:1005200008D15449091F096841F47061514A121FEA
:10053000116018E04F493C31884208D14D49091FEC
:10054000096841F470414B4A121F11600BE04949A0
:100550005031884207D14749091F096841F4702189
:10056000444A121F1160704710B50022026847F616
:10057000F0739A430C6A8B6823430C6923434C69DC
:1005800023438C692343CC6923434C6A23438C6AFD
:1005900023431A430260CB6843600B6883604B6857
:1005A000C36010BD0021016041608160C1600161D4
:1005B00041618161C161016241628162704721B123
:1005C000026842F00102026004E002684FF6FE7326
:1005D0001A40026070471AB103680B43036002E0DF
:1005E00003688B4303607047416070470146486869
:1005F00080B2704701460020002201F080531BB1F9
:100600001C4B083B1A6802E0194B083B1A6802EAC7
:1006100001030BB1012000E00020704700F0805181
:1006200019B11449091F086002E0114908394860EE
:10063000704701460020002201F080531BB10D4B92
:10064000083B1A6802E00A4B083B1A6802EA0103F9
:100650000BB1012000E00020704700F0805119B17B
:100660000449091F086002E00149083948607047E1
:10067000080002400804024010B50446CC488442F9
:1006800008D10121042000F02DFB0021042000F0FE
:1006900029FB46E0C748844208D10121082000F028
:1006A00021FB0021082000F01DFB3AE0C2488442F3
:1006B00008D10121102000F015FB0021102000F0CE
:1006C00011FB2EE0BD48844208D10121202000F01A
:1006D00009FB0021202000F005FB22E0B8488442FD
:1006E00008D10121402000F0FDFA0021402000F057
:1006F000F9FA16E0B348844208D10121802000F0C5
:10070000F1FA0021802000F0EDFA0AE0AE488442C0
:1007100007D10121801500F0E5FA0021A01500F0B5
:10072000E1FA10BD10B50121084600F0DBFA002106
:10073000012000F0D7FA10BD2DE9F0410246002556
:100740000026002000230024002791F803C00CF0AD
:100750000F0591F803C00CF0100CBCF1000F03D092
:1007600091F802C04CEA050591F800C0BCF1000FF9
:1007700031D0146800202BE04FF0010C0CFA00F38C
:10078000B1F800C00CEA03069E4220D183004FF06E
:100790000F0C0CFA03F7BC4305FA03FC4CEA040403
:1007A00091F803C0BCF1280F06D14FF0010C0CFAF0
:1007B00000FCC2F814C00AE091F803C0BCF1480F75
:1007C00005D14FF0010C0CFA00FCC2F810C0401C1F
:1007D0000828D1D31460B1F800C0BCF1FF0F34DD9C
:1007E000546800202EE000F1080C4FF0010808FAD0
:1007F0000CF3B1F800C00CEA03069E4221D183003D
:100800004FF00F0C0CFA03F7BC4305FA03FC4CEA5B
:10081000040491F803C0BCF1280F05D100F1080CC5
:1008200008FA0CF8C2F8148091F803C0BCF1480F24
:1008300007D100F1080C4FF0010808FA0CF8C2F8D3
:100840001080401C0828CED35460BDE8F0814FF6DC
:10085000FF710180022181700421C170704702463E
:10086000002093680B400BB1012000E0002070478E
:100870000146886880B2704702460020D3680B406A
:100880000BB1012000E0002070470146C86880B22B
:10089000704701617047416170470AB1016100E032
:1008A00041617047C16070474FF480320A438261F2
:1008B0008161826182698269704702460020434BF0
:1008C00018684FF68073184040EA021008433F4B07
:1008D000186070473E49C8617047F0B50A4600236A
:1008E00000240021002500F00046B6F1004F02D19F
:1008F000364EF16901E0354E7168C0F3034583B2AD
:1009000000F44016B6F5401F08D121F070612F4E5B
:10091000766826F070662D4F7E6012E000F4801637
:10092000B6F5801F06D1032606FA05F4A14341F06F
:10093000706106E0460D360103FA06F6B14341F058
:10094000706122B1460D360103FA06F6314300F01C
:100950000046B6F1004F02D11C4EF16101E01B4E82
:100960007160F0BD30B500228B071C0F0F2303FA16
:1009700004F2164B08338C1053F824309343134C75
:1009800008348D1044F8253023468C1053F8243059
:100990008C07240F00FA04F423430C4C08348D1008
:1009A00044F8253030BD0A49DC310860704700004A
:1009B00000080140000C01400010014000140140FB
:1009C00000180140001C01400020014000000140CF
:1009D00000002042DF48006840F00100DD49086067
:1009E00008464068DC490840DA4948600846006823
:1009F000DA490840D74908600846006820F480209A
:100A000008600846406820F4FE0048604FF41F006C
:100A100088607047CF49096821F48031CD4A116060
:100A20001146096821F480211160B0F5803F03D0A0
:100A3000B0F5802F0ED106E0C649096841F4803137
:100A4000C44A116007E0C349096841F4A021C14AC2
:100A5000116000E000BF00BF704710B501460022E2
:100A6000002300204A11012A02D1BA4C236806E073
:100A7000022A02D1B74C236A01E0B64C636A01F046
:100A80001F02012494401C400CB1012000E0002012
:100A900010BD38B5002000900024002500BF312093
:100AA000FFF7DBFF05460098401C00900098B0F56A
:100AB000A06F01D0002DF2D03120FFF7CEFF08B19A
:100AC000012400E00024204638BD01460020A14A50
:100AD000106820F0F80040EAC10010607047A0499B
:100AE00008607047024600209A4B586820F47C103A
:100AF00042EA01031843974B5860704798490866CB
:100B0000704701460020934A506820F003000843D4
:100B1000506070478F48406800F00C0070470146F5
:100B200000208C4A506820F0F00008435060704765
:100B300001460020874A506820F4E0600843506076
:100B4000704701460020834A506820F4605040EA14
:100B5000C1005060704729B17E4A527A02437D4BF2
:100B60005A7204E07B4A527A82437A4B5A72704737
:100B70007B49D8310860704701460020754A5068AB
:100B800020F440400843506070470021714A2032F1
:100B90001170704A82F82010012802D004280AD16E
:100BA00004E001216B4A2032117005E00521694AF9
:100BB0002032117000E000BF00BF70476949086033
:100BC00070476449096A0143624A11627047654986
:100BD00044390860704730B500210022002400230A
:100BE0005C4D6D6805F00C0121B1042905D0082980
:100BF00023D105E05C4D056022E05B4D05601FE000
:100C0000544D6D6805F47012524D6D6805F48034D2
:100C1000022505EB92421CB9544D554305600BE08B
:100C20004C4D6D6805F400351DB1504D55430560C0
:100C300002E04D4D5543056002E04B4D056000BF9D
:100C400000BF444D6D6805F0F0010909484D6B5C2B
:100C50000568DD4045603F4D6D6805F4E061090AB7
:100C6000434D6B5C4568DD4085603A4D6D6805F429
:100C70006051C90A3E4D6B5C4568DD40C560354D2D
:100C80006D6805F44041890B3A4D6B5CC568B5FB56
:100C9000F3F5056130BD29B12E4A526902432D4B4F
:100CA0005A6104E02B4A526982432A4B5A617047C9
:100CB00029B1284A92690243264B9A6104E0254AE9
:100CC00092698243234B9A61704729B1214AD269C4
:100CD0000243204BDA6104E01E4AD26982431D4B75
:100CE000DA61704729B11B4AD2680243194BDA60B6
:100CF00004E0184AD2688243164BDA60704729B183
:100D0000144A12690243134B1A6104E0114A126932
:100D10008243104B1A61704712494039086070478E
:100D20000F49C86470470B49C87170470948406A49
:100D300040F0807007494862704701460020054A2C
:100D400092680A400AB1012000E000207047014982
:100D500088727047001002400000FFF8FFFFF6FEA7
:100D6000000042428004424200127A0000093D0025
:100D7000140000202400002000206F490860486013
:100D80008860C86048628862C8626C4888630020D6
:100D9000C86370470021684A516847F6FF62914373
:100DA000027D83681A4343681A43C3681A43036881
:100DB0001A4303691A4311435F4A51607047002187
:100DC0000175016041608160C160016170475C49EB
:100DD000086070475849096821F00301564A1160BC
:100DE000114609680143116070475348006800F0DC
:100DF0000300704729B1504AD26B02434E4BDA636D
:100E000004E04D4AD26B82434B4BDA6370474D4945
:100E1000086070470021484B02689A601A46D16802
:100E20006FF30A01D0E901231A43C3681A43036927
:100E30001A431143404AD16070470021016041606C
:100E40008160C160016170473B480069C0B2704772
:100E500008B501460020009037481430084400903F
:100E60000098006808BD0021334B02685A6242684E
:100E70009A621A46D16A21F0F701D0E902231A4397
:100E800003691A4343691A4311432B4AD1627047DD
:100E90004FF0FF310160002141608160C16001615C
:100EA000416170472448006B7047234880300068D8
:100EB000704721498031086070471F48806C704737
:100EC00020491431086070471E4918310860704786
:100ED0001C491C31086070471A492031086070476E
:100EE0001949086070471849091D086070470121B9
:100EF0008143154A08321160704713490C3108606C
:100F00007047014600200C4A526B0A400AB101208A
:100F100000E00020704708498863704701460020C0
:100F2000054A526B0A400AB1012000E000207047D8
:100F3000014988637047000000800140FF07C0003E
:100F4000A00030428C053042AC01304210B504465E
:100F5000FB48844209D101218803FFF7C3FE002129
:100F60004FF48040FFF7BEFE32E0F648844209D1DC
:100F700001214804FFF7C3FE00214FF40030FFF7C2
:100F8000BEFE25E0F048844209D101218804FFF724
:100F9000B6FE00214FF48020FFF7B1FE18E0EB48C9
:100FA000844209D10121C804FFF7A9FE00214FF4B2
:100FB0000020FFF7A4FE0BE0E548844208D10121A0
:100FC0000805FFF79CFE00214FF48010FFF797FE05
:100FD00010BD2DE9F04786B005460E460024A24616
:100FE00000BFA1460027B08900B100BF2F462C8A60
:100FF0004CF6FF700440F08804432C82AC894EF616
:10100000F3100440B08831890843718908430443D0
:10101000AC81AC8A4FF6FF400440B0890443AC82F7
:1010200001A8FFF7D8FDC648874202D1DDF810A01D
:1010300001E0DDF80CA0A88900F4004040B10AEB03
:10104000CA0000EB0A1031684900B0FBF1F807E074
:101050000AEBCA0000EB0A1031688900B0FBF1F816
:101060006420B8FBF0F004012009642101FB108921
:10107000A88900F4004040B1322000EBC900B0FB69
:10108000F1F000F00700044308E0322000EB091003
:101090006421B0FBF1F000F00F0004432C8106B096
:1010A000BDE8F0874FF41651016000218180C180B6
:1010B00001810C21418100218181704710B50246D8
:1010C0000020108A4FF2FF0318400B884C882343FE
:1010D0008C882343CC8823431843108210BD002101
:1010E000018041808180C180704721B1828942F4B2
:1010F0000052828104E082894DF6FF731A4082819A
:101100007047F0B50346002400260025002040F675
:101110006A17B94200D100BF1846C1F3421401F06A
:101120001F06012707FA06F5012C01D10C3004E057
:10113000022C01D1103000E014301AB107682F439F
:10114000076002E00768AF430760F0BD1AB1838A09
:101150000B43838202E0838A8B4383827047028A37
:101160004FF6F0731A400282028A0A4302827047E5
:1011700082894FF2FF731A40828182890A438281F9
:10118000704721B1828942F00202828104E08289A3
:101190004FF6FD731A4082817047028A4FF6DF7363
:1011A0001A400282028A0A430282704721B1028AEF
:1011B00042F48042028204E0028A4BF6FF731A4036
:1011C00002827047C1F30802828070470146888816
:1011D000C0F308007047818941F0010181817047A7
:1011E000028BD2B20283028B42EA01220283704751
:1011F000028B02F47F420283028B0A430283704710
:1012000021B1828A42F02002828204E0828A4FF673
:10121000DF731A408282704721B1828A42F0100245
:10122000828204E0828A4FF6EF731A40828270470E
:1012300021B1828A42F00802828204E0828A4FF65B
:10124000F7731A408282704721B1828942F40042CA
:10125000828103E08289C2F30E028281704721B14C
:10126000828A42F40062828204E0828A4FF2FF7333
:101270001A4082827047828A4FF6FB731A4082823C
:10128000828A0A438282704721B1828A42F0020236
:10129000828204E0828A4FF6FD731A408282704790
:1012A00002460020B1F5007F00D100BF13880B403B
:1012B0000BB1012000E00020704701F40072B2F58C
:1012C000007F00D100BFCA430280704770B502465C
:1012D000002400230025002040F66A16B14200D108
:1012E00000BFC1F3421501F01F03012606FA03F304
:1012F000012D02D19689334006E0022D02D1168AD3
:10130000334001E0968A33400C12012606FA04F4B9
:101310001688344013B10CB1012000E0002070BDEC
:1013200010B50022002340F66A14A14200D100BF8C
:101330000A1201249440A3B2DC43048010BD0000D3
:10134000003801400044004000480040004C00408C
:101350000050004000F0A8F824A003F067F800F067
:101360001EF92B49002002F0ECFB0A2229A12C488F
:1013700002F0FAFB2B4908700846007870B92A4B36
:1013800018222A49264802F096FD2649087028A00E
:1013900003F04CF8224802F0F1FE06E02148007804
:1013A000082802D129A003F041F8012219A11C4804
:1013B00002F0DAFB1B4908702B4B4FF480522B498B
:1013C000174802F087FC1749087029A003F02EF88F
:1013D00026492AA003F02AF8114802F0CFFE002186
:1013E000084602F0AEFB00BFFEE700000D0A2074C5
:1013F0006869732069732061206661746673207464
:101400006573742070726F6A6563742E200D0A0014
:1014100090020020303A746573742E747874000062
:101420006C00002028000020300000203400002044
:101430000D0A2046696C6520637265617465642ECF
:10144000204578636974656421200A0046696C65EB
:101450002068617320616C726561647920657869C8
:1014600073742E0A000000002C000020C00400202D
:101470000D20746573743A0A000000000D0A2025DF
:1014800073200A00704700BFFEE700BFFEE700BF01
:10149000FEE700BFFEE7704770477047704710B522
:1014A00001F05EFB10BD000000B585B0012144F2E3
:1014B0000400FFF7FDFB4FF40070ADF8100018209A
:1014C0008DF8130003208DF8120004A92148FFF7BE
:1014D00033F94FF48060ADF8100004208DF813004C
:1014E00004A91C48FFF728F94FF4E13000900020D0
:1014F000ADF80400ADF80600ADF80800ADF80C003A
:101500000C20ADF80A0069461348FFF762FD01217F
:101510001148FFF7EAFD05B000BD70B504460D4661
:10152000E1B20D48FFF74EFE00BF80210A48FFF7E9
:10153000B7FE0028F9D0204670BD10B5044600BFA4
:1015400020210548FFF7ACFE0028F9D00248FFF73C
:101550003DFE10BD000801400038014008B50020E4
:10156000FFF735FC0020FFF735FCFFF705FC0021F5
:101570004FF48060FFF78FFB4FF4F850ADF8000098
:1015800004208DF803006946FC48FFF7D5F80420D5
:10159000ADF800006946FA48FFF7CEF808BD08B577
:1015A0004FF4C060FEF7D0FE31208DF8000000201F
:1015B0008DF801008DF8020001208DF803006846C7
:1015C000FEF7C7FE08BD10B5EE48FFF713F810BDD3
:1015D00030B58BB005460C46EB48FFF71FF80021ED
:1015E000EA48FEF7ECFFEA480090019500200290DF
:1015F000A0080390002004908020059080000690B1
:1016000080000790002008904FF4005009900020BF
:101610000A906946DD48FEF7A7FF0121DB48FEF787
:10162000CEFF0BB030BD30B58BB005460C46D6486A
:10163000FEF7F4FF0021D548FEF7C1FFD448009023
:10164000019510200290A0080390002004908020B3
:1016500005908000069080000790002008904FF4CD
:101660000050099000200A906946C848FEF77CFFA8
:101670000121C648FEF7A3FF0BB030BD08B501211C
:101680003020FFF715FB4FF4F850ADF800000320B1
:101690008DF8020018208DF803006946B748FFF75F
:1016A0004BF80420ADF800006946B548FFF744F850
:1016B00001218802FFF7EFFA01210220FFF7EBFA80
:1016C00008BD014600BFB2488038406B00F04500BD
:1016D0000028F8D040F2FF50AD4A803A906310469F
:1016E000406908221040C0B270472DE9FC4107460E
:1016F0000D46002600240020009001900820A549F6
:10170000086010204860402088600020C8604FF4C6
:10171000806008610846FFF77DFB1020FFF7D1FFCE
:10172000044614B12046BDE8FC819B4800880004B3
:101730009849086037204860402088600020C860D1
:101740004FF4806008610846FFF764FB3720FFF71D
:10175000B8FF04460CB12046E5E74FF0FF308F4953
:10176000086008204860302088600220C86000209F
:101770000861012048610846FFF775FB0020854994
:10178000086033204860402088600020C8604FF423
:10179000806008610846FFF73DFB3320FFF791FFAB
:1017A00004460CB12046BEE70CE04FF40010FFF7F2
:1017B000A8FB38B1FFF779FB4DF82600761C012E07
:1017C00000D907E072488038406B40F22A61084037
:1017D0000028EAD000BF0820FFF793FB28B10820BB
:1017E000FFF799FB042420469DE70220FFF789FBC1
:1017F00028B10220FFF78FFB0224204693E7202028
:10180000FFF77FFB28B12020FFF785FB0624204649
:1018100089E74FF40070FFF774FB30B14FF40070AC
:10182000FFF779FB072420467DE740F2FF50FFF7E2
:1018300072FB00980006009901F47F4140EA012004
:10184000009901F47F0140EA1120009940EA1160FB
:10185000686001980006019901F47F4140EA012087
:10186000019901F47F0140EA1120019940EA1160D9
:101870002860204657E77CB50546002400200090EC
:101880000190FFF7E5FA00F0007010B10E24204639
:101890007CBD4149098888B26946FFF726FF0446A6
:1018A0000CB12046F4E7012D36D1019800F48020D8
:1018B00000282ED0384800880004364908603720B8
:1018C0004860402088600020C860A802086108467F
:1018D000FFF7A0FA3720FFF7F4FE04460CB12046CC
:1018E000D6E702202B490860062048604020886027
:1018F0000020C8604FF4806008610846FFF78AFA4C
:101900000620FFF7DEFE04460CB12046C0E7204665
:10191000BEE725242046BBE7019800F48030F8B3E9
:101920001D48008800041B4908603720486040209B
:1019300088600020C8604FF4806008610846FFF7A7
:1019400069FA3720FFF7BDFE04460CB120469FE739
:101950000020104908600620486040208860002070
:10196000C8604FF4806008610846FFF753FA06200C
:10197000FFF7A7FE0446A4B1204689E70010014006
:10198000001401400020001000F000104404024048
:101990008080014058150020500000206C15002068
:1019A00001E0204674E72524204671E770B504461F
:1019B0000025FB480068032802D12725284670BD72
:1019C000F748006838B1F6480068012803D0F448A9
:1019D000006802282ED1B4F5805F02D12725284661
:1019E000EDE7B4F5006F14D10120FFF744FF054681
:1019F00005BB0120EB49087500200860486088603D
:101A00004FF40060C860002008610846FFF7C2F983
:101A100010E00020FFF72FFF05465DB90120E149E6
:101A200008750020086048608860C8600861084642
:101A3000FFF7B0F92846C2E770B504460025DA483A
:101A400004600720D8494860402088600020C860B2
:101A50004FF4806008610846FFF7DCF90720FFF7C4
:101A600030FE0546284670BD30B5014600200022F4
:101A7000CB4B1B7881F84E30CC4B1B88A1F84C30F7
:101A8000CB4B1B681A0E93090B70C2F383034B7088
:101A900002F003038B70C64B1B68C3F30742CA7086
:101AA000C34B1B88C3F307220A71C14B1A784A71D2
:101AB0005B681A0E1301CB80BD4B5B68C3F3074212
:101AC000CB8843EA1213CB8002F00F030B72B84BA2
:101AD0009B88C3F30722D3094B72C2F380138B7226
:101AE000C2F34013CB72C2F300130B7300234B738A
:101AF000AB4B1B681BB1AA4B1B68012B3CD1930756
:101B00001B0D0B61AA4B1A790B6943EA82030B6127
:101B1000A74B9B681A0E0B6943EA92130B61C2F341
:101B2000C2030B7502F007034B75A14B9B68C3F30F
:101B3000074253098B75C2F38203CB7593075B0F82
:101B40000B769B4B1B89C3F307220B7E43EAD21310
:101B50000B760B695B1C4B640C7E4B6CA41C012543
:101B6000A5406B434B640C7A0123A3408B64D1E9FD
:101B7000113463434B6421E0894B1B68022B1DD158
:101B80008B4B1A7993069B0A0B61894B9B681A0E43
:101B90000B6943EA02230B61854B9B68C3F3074241
:101BA0000B6913430B61824B1B89C3F307220B693B
:101BB0005B1CDB044B644FF400738B64C2F3801333
:101BC00001F8193F93065B0E4B70794B1A7A4B78EC
:101BD00043EAD2134B7002F07F038B70744BDB68C7
:101BE0001A0ED309CB70C2F341130B71C2F38203F7
:101BF0004B7193071B0F8B716D4BDB68C3F307426F
:101C00008B7943EA92138B71C2F34013CB7100239B
:101C10000B7202F001034B72654B9B89C3F30722E1
:101C2000D3098B72C2F38013CB72C2F340130B73D0
:101C3000C2F300134B73C2F381038B7302F00303EF
:101C4000CB735B4B1A7B53080B7401234B74594BBA
:101C50001B681A0ECA741939564B1B68C3F3074226
:101C60001402CC85534B1B88C3F30722CB8D13433F
:101C7000CB85504B1A7814060C635B681A0E0B6BFD
:101C800043EA02440C634B4B5B68C3F307420B6BA4
:101C900043EA02240C63474B9B88C3F307220B6B78
:101CA00013430B63434B1A7934235A54414B9B68BB
:101CB0001A0E35235A543F4B9B68C3F30742140650
:101CC0008C633C4B1B89C3F307228B6B43EA0244B2
:101CD0008C63384B1A7A8B6B43EA02248C63354B46
:101CE000DB681A0E8B6B13438B63324BDB68C3F3D9
:101CF00007423C235B5C43EA12143C235C54130709
:101D00001C0DCC872B4B9B89C3F30722CB8F13432E
:101D1000CB87284B1A7B540840235C540124412371
:101D20005C5430BD70B500252348446B01E0224867
:101D3000446B04F045000028F9D004F0040028B1F9
:101D400003250420FFF7E7F8284670BD04F00100E2
:101D500028B101250120FFF7DEF82846F5E740F21B
:101D6000FF50FFF7D8F82846EFE72DE9F041064687
:101D70000F464FF000081048456B01E00E48456BD8
:101D800005F045000028F9D005F00400B0B14FF08F
:101D900003080420FFF7BFF84046BDE8F0810000CB
:101DA0004C00002040150020581500205000002055
:101DB000C0140020D01400200080014005F0010074
:101DC00030B14FF001080120FFF7A5F84046E4E7E5
:101DD000FFF73AF8B04203D04FF010084046DCE776
:101DE00040F2FF50FFF797F80020FFF731F8044664
:101DF00004F4604018B9200C38804046CDE704F464
:101E0000005008B11320C8E704F4804008B1102046
:101E1000C3E704F4004008B10F20BEE74046BCE72A
:101E200038B5002401200090FEF7DFFF10B925240B
:101E3000204638BDF7480068042828D00020F6491D
:101E4000086002204860C02088600020C8604FF40D
:101E5000806008610846FEF7DDFFFFF763FF044678
:101E60000CB12046E5E70020FEF7F2FFEB490860E1
:101E70000420FEF7EDFFE94948600820FEF7E8FF7F
:101E8000E64988600C20FEF7E3FFE449C860E148BA
:101E9000006858B1DF480068012807D0DD480068B5
:101EA000062803D0DB480068022816D10020DA4952
:101EB000086003204860402088600020C8604FF41C
:101EC000806008610846FEF7A5FF69460320FFF71A
:101ED0004CFF04460CB12046ABE7CE48006804280E
:101EE0002ED0BDF80000CE490860BDF80000000407
:101EF000C949086009204860C02088600020C86087
:101F00004FF4806008610846FEF784FFFFF70AFF80
:101F100004460CB120468CE70020FEF799FFC1492A
:101F200008600420FEF794FFBE4948600820FEF7D1
:101F30008FFFBC4988600C20FEF78AFFB949C86052
:101F40000024204675E770B50025B748446B01E0D2
:101F5000B548446B04F045000028F9D004F00400B3
:101F600028B103250420FEF7D6FF284670BD40F2B5
:101F7000FF50FEF7D0FF2846F8E770B500264FF473
:101F80008035A948446B02E06D1EA748446B04F0FD
:101F9000450008B9002DF7D115B104F0040028B1AF
:101FA00003260420FEF7B7FF304670BD04F0400062
:101FB00028B100264020FEF7AEFF3046F5E7304658
:101FC000F3E770B500254FF4803400E0641E24B1BF
:101FD0008020FEF796FF0028F8D014B90325284684
:101FE00070BD40F2FF50FEF796FF2846F8E72DE956
:101FF000F0410024002600250027A046B2208B498E
:1020000008750020086048608860C860086108465C
:10201000FEF7C0FE0320FEF7DDFE0120FEF7D7FE2F
:1020200000207D49086048608860C8604FF4806087
:1020300008610846FEF7EEFEFFF7C3FF044614B141
:102040002046BDE8F0814FF4D57073490860082040
:102050004860402088600020C8604FF480600861BC
:102060000846FEF7D7FEFFF788FF04462CB901208B
:10207000684908604FF0804812E000206649086017
:1020800037204860402088600020C8604FF480609E
:1020900008610846FEF7BEFE3720FFF712FB044634
:1020A00000205D490860372048604020886000209B
:1020B000C8604FF4806008610846FEF7ABFE372029
:1020C000FFF7FFFA0446002C4AD136E000205249BF
:1020D000086037204860402088600020C8604FF4C6
:1020E000806008610846FEF795FE3720FFF7E9FAA1
:1020F00004460CB12046A4E74D4848EA0000464992
:10210000086029204860402088600020C8604FF4A3
:10211000806008610846FEF77DFEFFF714FF044665
:102120000CB120468DE70020FEF792FE0646012006
:1021300080EAD67080F001076D1C1FB94FF6FF7062
:102140008542C3D34FF6FF70854202D31B2420463D
:1021500077E706F08040060002D002202D49086093
:1021600020466EE710B50024FFF788FAFEF704FE5C
:10217000FFF73DFF04460CB1204610BDFFF750FEAF
:1021800004460CB12046F8E70120284908750020D4
:10219000086048608860C86008610846FEF7FAFD7C
:1021A0001CB92448FFF760FC044634B92149B1F852
:1021B0004C100804FFF740FC044624B94FF40060BB
:1021C000FFF7F4FB04462046D7E770B50446002528
:1021D0001348008800041449886040F24D40C860EC
:1021E0000D20FFF76EFA05460DB1284670BD0E486A
:1021F000406920602846F9E708B50020009068464D
:10220000FFF7E3FF08B1FF2008BD0098C0F34320AB
:10221000FAE700004C00002058150020D0140020E0
:1022200050000020C0140020008001404015002014
:1022300000001080F014002010B50424FFF7DCFF2C
:102240000446042C01D1002010BDFF2C01D1022036
:10225000FAE70120F8E710B500240020FEF7BAFDE8
:10226000204610BD70B50446002500260020FEF76C
:10227000EFFD00F0007010B10E25284670BD402023
:10228000FC49086010204860402088600020C86039
:102290004FF4806008610846FEF7BCFD1020FFF790
:1022A00010FA05460DB12846E8E7F3480088000417
:1022B000F049086037204860402088600020C860EE
:1022C0004FF4806008610846FEF7A4FD3720FFF751
:1022D000F8F905460DB12846D0E74FF0FF30E74941
:1022E000086040204860602088600220C8600020AC
:1022F0000861012048610846FEF7B5FD0020DD4970
:1023000008600D204860402088600020C8604FF4BD
:10231000806008610846FEF77DFD0D20FFF7D1F9CA
:1023200005460DB12846A9E70EE04FF40040FEF740
:10233000E8FD48B1002604E0FEF7B7FD44F82600AA
:10234000761C082EF8D32034CD48406B40F22A6129
:1023500008400028E9D00820FEF7D3FD28B1082066
:10236000FEF7D9FD0425284688E70220FEF7C9FDBF
:1023700028B10220FEF7CFFD022528467EE7202067
:10238000FEF7BFFD28B12020FEF7C5FD0625284633
:1023900074E74FF40070FEF7B4FD30B14FF40070F5
:1023A000FEF7B9FD0725284668E703E0FEF77DFD47
:1023B0002060241D4FF40010FEF7A3FD0028F5D186
:1023C00040F2FF50FEF7A7FD284657E770B50446D8
:1023D00000260025AB48FFF745FF06460EB1304604
:1023E00070BDA848007885092570A6480078C0F31C
:1023F00040156570A348857828026080A148C5789B
:102400006088284360809F480579280660609D4861
:102410004579606840EA054060609A48857960685F
:1024200040EA052060609748C5796068284360608D
:102430009448057A2572457A6572807A0509A572F5
:102440009048C57A2802A0818E48057BA089284340
:10245000A0818C48407B8508A5738A48407B00F0AA
:102460000305E5733046BBE72DE9F04107460D460D
:102470001446002600208449087084490860844975
:1024800008607F49C86283480068022801D10402BD
:102490006D0A7848046010207649486040208860C2
:1024A0000020C8604FF4806008610846FEF7B2FC67
:1024B0001020FFF706F9064616B13046BDE8F08158
:1024C0004FF0FF306D4908600846446090208860F6
:1024D0000220C86000200861012048610846FEF71C
:1024E000C2FC644805601120624948604020886051
:1024F0000020C8604FF4806008610846FEF78AFC3F
:102500001120FFF7DEF806460EB13046D6E701216E
:102510000802FEF76FFC0120FEF779FC21463846E1
:10252000FFF756F83046C9E72DE9F04180460D46E1
:1025300014461E460027002053490870534908607E
:1025400001205349086000204D49C8625148006885
:10255000022801D104026D0A464804601020454952
:102560004860402088600020C8604FF480600861A7
:102570000846FEF74FFC1020FFF7A3F8074617B1F7
:102580003846BDE8F0814FF0FF303C49086006FB5B
:1025900004F04860902088600220C8600020086134
:1025A000012048610846FEF75EFC324805601220B3
:1025B00030494860402088600020C8604FF4806047
:1025C00008610846FEF726FC1220FFF77AF8074656
:1025D0000FB13846D5E701210802FEF70BFC0120B8
:1025E000FEF715FC06FB04F14046FEF7F1FF384606
:1025F000C7E710B5002400BFFEF7E5FF30B9234858
:10260000006818B9204800780028F5D01E480078E6
:1026100010B11D48007810BD2046FCE72DE9F041BF
:1026200007460D4614460026002017490870174932
:102630000860174908601249C862164800680228F5
:1026400001D104026D0A0B4804601020094948605A
:10265000402088600020C8604FF480600861084610
:10266000FEF7D8FB1020FFF72CF80646A6B130463F
:10267000BDE8F08158150020500000206C150020A6
:1026800000800140E0140020580000205C00002081
:10269000540000204C000020FE4805601820FD4931
:1026A0004860402088600020C8604FF48060086166
:1026B0000846FEF7AFFB1820FFF703F806460EB1F9
:1026C0003046D5E74FF0FF30F349086008464460D4
:1026D000902088600020C860086101204861084699
:1026E000FEF7C1FB01210802FEF784FB21463846B4
:1026F000FEF799FF0120FEF78AFB3046B8E72DE987
:10270000F84380460F4615461E46002400200090E0
:10271000E2490870E24908600120E24908600020AF
:10272000E149C862E1480068022801D105027F0A38
:10273000D84805601020D7494860402088600020B4
:10274000C8604FF4806008610846FEF763FB102004
:10275000FEF7B7FF044614B12046BDE8F883D4481D
:1027600000880004CB49086037204860402088601A
:102770000020C8604FF4806008610846FEF74AFBFD
:102780003720FEF79EFF04460CB12046E5E7C1481E
:1027900006601720BF494860402088600020C8605C
:1027A0004FF4806008610846FEF734FB1720FEF7FF
:1027B00088FF04460CB12046CFE7B64807601920D1
:1027C000B4494860402088600020C8604FF48060B1
:1027D00008610846FEF71EFB1920FEF772FF04464B
:1027E0000CB12046B9E74FF0FF30AB49086006FB5B
:1027F00005F04860902088600020C86008610120D2
:1028000048610846FEF72FFB01210802FEF7F2FAA5
:102810000120FEF7FCFA06FB05F14046FEF703FF38
:1028200020469AE710B5002400BFFEF7CCFE30B971
:102830009B48006818B9994800780028F5D0974857
:10284000007810B19548007810BD40F2FF50FEF7B7
:1028500062FB2046F8E79448406B00F4405008B112
:10286000012070470020FCE710B5002400208E49AD
:10287000886040F24C40C8600C20FEF722FF0446FE
:10288000204610BD7CB50446002500200190009034
:102890008748008800047F4908600D204860402078
:1028A00088600020C8604FF4806008610846FEF729
:1028B000B1FA7D48406B009002E07B48406B00908D
:1028C000009800F045000028F7D0009800F00400C0
:1028D00028B103250420FEF71EFB28467CBD009886
:1028E00000F0010028B101250120FEF714FB284665
:1028F000F4E7FEF7A9FA009000980D2802D0102501
:102900002846EBE740F2FF50FEF705FB0020FEF7FC
:102910009FFA01900198C0F3432020706549019807
:10292000084008B92846D9E7019800F0004008B1EE
:102930001C20D3E7019800F0804008B10920CDE7C2
:10294000019800F0005008B10A20C7E7019800F094
:10295000805008B10B20C1E7019800F0006008B179
:102960000C20BBE7019800F0806008B10D20B5E7AE
:10297000019800F0807008B10E20AFE7019800F4D4
:10298000000008B10F20A9E7019800F4800008B109
:102990001020A3E7019800F4001008B111209DE772
:1029A000019800F4801008B1122097E7019800F414
:1029B000002008B1132091E7019800F4802008B1AD
:1029C00014208BE7019800F4003008B1152085E74A
:1029D000019800F4803008B116207FE7019800F4D8
:1029E000004008B1172079E7019800F4804008B151
:1029F000182073E7019800F4005008B119206DE722
:102A0000019800F0080008B11A2067E7284665E73A
:102A10002DE9FC4105460E460024002700200190C8
:102A2000009025484068202101EA105018B925245B
:102A30002046BDE8FC811C484068C0B2801C1F498C
:102A4000B1FBF0F001900020FEF702FA00F00070F8
:102A500010B10E242046ECE714480068022801D18A
:102A60006D0A760A1148006838B1104800680128DC
:102A700003D00E480068022842D106480560202095
:102A800004494860402088600020C8604FF480609E
:102A9000086115E0581500206C1500205800002032
:102AA0005C00002054000020008001404C00002009
:102AB0005000002008E0FFFDC0140020C0D4010039
:102AC0000846FEF7A7F92020FEF7FBFD04460CB1EF
:102AD0002046AEE73848066021203749486040204C
:102AE00088600020C8604FF4806008610846FEF7E7
:102AF00091F92120FEF7E5FD04460CB1204698E748
:102B000000202D4908602620486040208860002071
:102B1000C8604FF4806008610846FEF77BF9262004
:102B2000FEF7CFFD04460CB1204682E7002700E007
:102B30007F1C01988742FBD36846FFF7A3FE04463B
:102B400003E06846FFF79EFE04463CB99DF800008E
:102B50000728F6D09DF800000628F2D0204668E746
:102B600010B51648006801280BD100201449886070
:102B700040F24C40C8600C20FEF7A3FD11490870DC
:102B800002E000200F4908704FF48070FEF7D0F982
:102B900000214FF48070FEF72DF901200A490860EA
:102BA0000848007810BD0146002002E04910421C90
:102BB000D0B20129FAD170475815002054000020E6
:102BC00000800140580000205C00002070B50546E0
:102BD0000DB1012070BDFFF7C5FA04460CB101200C
:102BE000F8E70020F6E70146002070472DE9F041A4
:102BF00007460D4614461E46012E0EDD6102334681
:102C00004FF400722846FFF78FFCFFF7F2FC00BF7D
:102C1000FFF712FB0028FBD10CE061024FF40072B9
:102C20002846FFF721FCFFF7E4FC00BFFFF704FB99
:102C30000028FBD10020BDE8F0812DE9F0410746D6
:102C40000D4614461E46012E0EDD610233464FF43A
:102C500000722846FFF753FDFFF7E4FD00BFFFF7C2
:102C6000EBFA0028FBD10CE061024FF40072284619
:102C7000FFF7D4FCFFF7D6FD00BFFFF7DDFA002811
:102C8000FBD10020BDE8F081034600207047002002
:102C90007047000070B503460C4603E014F8015B72
:102CA00003F8015B1500A2F10102F7D170BD30B548
:102CB000034601E003F8011B1400A2F10102F9D15F
:102CC00030BDF0B503461C460D46002000BF16007F
:102CD000A2F1010207D014F8017B15F801CBA7EB94
:102CE0000C063000F3D0F0BD024600E0521C107814
:102CF00010B110788842F9D1107870472DE9F04171
:102D000004460D46E66AAE422FD0207908B36078BB
:102D10000123324604F13001FFF78FFF10B101208B
:102D2000BDE8F08100202071D4E907100844B042CA
:102D30000FD9E7780AE0E06906446078012332465B
:102D400004F13001FFF779FF781EC7B2012FF2DCE2
:102D500000BF55B1607801232A4604F13001FFF726
:102D600045FF08B10120DBE7E5620020D8E770B538
:102D7000044600212046FFF7C1FF0546002D59D12A
:102D8000207803284FD1607900284CD00020E062E1
:102D90004FF40072002104F13000FFF788FF552145
:102DA00084F82E12AA2184F82F12522084F83000C1
:102DB000522131200155612132200155412133201A
:102DC0000155722184F8141284F81512412184F8F7
:102DD0001612612184F81712217C84F81812208AB7
:102DE000010A84F819122069010C84F81A1220696A
:102DF000010E84F81B12217B84F81C12A089010AA1
:102E000084F81D12E068010C84F81E12E068010EBF
:102E100084F81F126078012304F130016269FFF722
:102E20000CFF00206071607800221146FFF72CFF34
:102E300000B10125284670BD0246891E9069801E9A
:102E4000884201D8002070479378906A01FB030004
:102E5000F9E72DE9F04105460C46022C02D3A8699A
:102E6000A04202D80120BDE8F0812878012804D0D2
:102E700002282CD003285AD13DE0274607EB5707FC
:102E8000286A00EB57212846FFF738FF00B14EE0D3
:102E9000C7F3080105F1300010F801807F1C286A93
:102EA00000EB57212846FFF729FF00B13FE0C7F3A9
:102EB000080105F13000405C48EA002804F00100F8
:102EC00010B14FEA1810CEE7C8F30B00CBE7286A21
:102ED00000EB14212846FFF711FF00B127E040F274
:102EE000FF1000EA440105F130000E1830787178C7
:102EF00040EA0120B7E7286A00EBD4112846FFF723
:102F0000FDFE00B113E040F2FF1000EA840105F17C
:102F100030000E18F0780006B17840EA0140717870
:102F200040EA01203178084320F070409BE700BF61
:102F30004FF0FF3097E72DE9F04705460E4617465C
:102F4000022E02D3A869B04202D84FF002088AE0EC
:102F50002878012804D0022841D003287DD154E0EC
:102F6000B14609EB5909286A00EB59212846FFF7B9
:102F7000C5FE8046B8F1000F00D071E0C9F308012A
:102F800005F130000C1806F0010020B1F9B22078EC
:102F900061F31F1000E03846207009F1010901209B
:102FA0002871286A00EB59212846FFF7A7FE8046C2
:102FB000B8F1000F00D053E0C9F3080105F130006B
:102FC0000C1806F0010010B1C7F3071005E02078D7
:102FD00000F0F000C7F303210843207040E0286AA6
:102FE00000EB16212846FFF789FE8046B8F1000F56
:102FF00000D035E040F2FF1000EA460105F1300054
:103000000C182770380A60702AE0286A00EBD61185
:103010002846FFF773FE8046B8F1000F00D01FE08E
:1030200040F2FF1000EA860105F130000C18E0784C
:103030000006A17840EA0140617840EA0120217849
:10304000084300F0704007432770380A6070380C5E
:10305000A070380EE07003E0FFE74FF0020800BFF9
:1030600000BF012028714046BDE8F0872DE9F041FE
:1030700004460E46022E02D3A069B04201D80227B0
:1030800025E000271FE031462046FFF7E2FE054617
:1030900005B91BE0012D01D1022717E0681C08B912
:1030A000012713E0002231462046FFF744FF074680
:1030B00007B10BE02069401C20B12069401C206151
:1030C000012060712E46A069B042DCD800BF3846AE
:1030D000BDE8F0812DE9F04704468946B9F1000FBB
:1030E00006D1E76817B1A069B84211D801270FE0EF
:1030F00049462046FFF7ADFE0646022E02D20120C9
:10310000BDE8F087A069B04201D93046F8E74F46E4
:103110003D4600BF6D1CA069A84204D80225BD42EF
:1031200001D90020ECE729462046FFF792FE06462B
:1031300006B909E0701C08B1012E01D13046DFE765
:10314000BD42E7D10020DBE700BF6FF070422946A7
:103150002046FFF7F0FE8046B8F1000F08D1B9F124
:10316000000F05D02A4649462046FFF7E4FE804678
:10317000B8F1000F09D1E5602069401C68B12069F1
:10318000401E20610120607107E0B8F1010F02D1FB
:103190004FF0FF3000E0012005462846B0E72DE95A
:1031A000F04104460E46E680A568012D03D0206854
:1031B0008069A84202D80220BDE8F0812DB92068BC
:1031C0000078032801D12068456A65B9E560206868
:1031D0000089B04201DC0220EEE72068406A00EB83
:1031E0001610206120E020688078070112E029464F
:1031F0002068FFF72EFE0546681C08B90120DBE7B2
:10320000022D03D320688069A84201D80220D3E7A9
:10321000F01B86B2BE42EADAE56029462068FFF775
:103220000BFE00EB161020612068303006F00F0115
:1032300000EB411060610020BEE72DE9F04104463B
:10324000884600BFE088401C86B20EB1206910B9E4
:103250000420BDE8F08106F00F0000286FD120693E
:10326000401C2061E06828B920680089B04266DC13
:103270000420EEE720688078401E00EA161000283F
:103280005DD1E1682068FFF7E4FD0546012D01D816
:103290000220DEE7681C08B90120DAE720688069AF
:1032A000A84246D8B8F1000F01D10420D1E7E16867
:1032B0002068FFF70FFF05460DB90720C9E7012D6C
:1032C00001D10220C5E7681C08B90120C1E700212F
:1032D0002068FFF713FD08B10120BAE7216801F16A
:1032E00030004FF400720021FFF7E1FC294620680E
:1032F000FFF7A2FD2168C862002710E001202168C5
:10330000087100212068FFF7F9FC08B10120A0E74F
:103310002068C06A401C2168C862781CC7B2206857
:103320008078B842EADC2068C06AC01B2168C862A5
:1033300000BFE56029462068FFF77EFD2061E6803A
:103340002068303006F00F0100EB41106061002072
:103350007FE72DE9F041044600212046FFF71FFFDB
:10336000054615B12846BDE8F08100BF21692068F7
:10337000FFF7C4FC054605B116E0666937780FB95A
:10338000042511E0F07A00F0080030B90B22304635
:10339000A169FFF796FC00B906E000212046FFF77F
:1033A0004CFF0546002DE1D000BF2846DBE72DE9A4
:1033B000F041044604251BE021692068FFF79EFCCC
:1033C000054605B117E067693E780EB9042512E09D
:1033D000E52E06D02E2E04D0F87A00F0080000B9B1
:1033E00009E000212046FFF728FF054605B102E06D
:1033F00020690028E0D100BF0DB1002020612846DF
:10340000BDE8F0812DE9F041044600212046FFF798
:10341000C6FE0546ADB900BF21692068FFF76EFC06
:10342000054605B10CE060690678E52E00D006B9C6
:1034300006E001212046FFF700FF0546002DEBD0F6
:1034400000BF9DB921692068FFF758FC05466DB99A
:103450006769202200213846FFF729FC0B223846F5
:10346000A169FFF717FC0120216808712846BDE813
:10347000F0812DE9F35F0198D0F8009001E009F1A7
:10348000010999F800002F28F9D099F800005C286C
:10349000F5D0009886690B2220213046FFF707FC03
:1034A00000252F46AB464FF0080A00BF58460BF1E7
:1034B000010B19F80040202C03DD2F2C01D05C2CCF
:1034C00000D153E02E2C01D057450DD3BAF1080F8F
:1034D00001D12E2C02D00620BDE8FC9F08274FF01A
:1034E0000B0AA806050EE1E7802C01DB45F0030579
:1034F000812C20DBFE2C1EDC58460BF1010B19F849
:103500000080B8F1400F02DBB8F17E0F05DDB8F1A5
:10351000800F06DBB8F1FE0F03DCAAF10100B84210
:1035200001D80620D8E738467F1C345438467F1C23
:1035300006F8008019E02146FEA0FFF7D5FB08B190
:103540000620C9E7412C04DB5A2C02DC45F00205B9
:1035500008E0612C06DB7A2C04DC45F00105A4F1BF
:103560002000C4B238467F1C34549FE700BF09EBEB
:103570000B0101980160202C01DC042000E00020F8
:1035800004460FB90620A7E73078E52801D10520C9
:103590003070BAF1080F01D1A806050E05F003003E
:1035A000012801D144F0100405F00C00042801D1D9
:1035B00044F00804F47200208EE7F0B505460B468F
:1035C00003F109022F69002F40D06869067B0021B2
:1035D0000AE0445C202C00D108E0052C00D1E52451
:1035E00000BF02F8014B491C0829F2D300BF077A3B
:1035F000202F0FD02E2702F8017B082107E0445C22
:10360000202C00D105E000BF02F8014B491C0B291A
:10361000F5D300BFC77A1F72C77F4FEA076C877F59
:103620004CEA074C477F4CEA072790F81CC047EA52
:103630000C071F6090F818C0477E4CEA07279F8050
:1036400090F816C0C77D4CEA0727DF800027177067
:10365000F0BD2DE9F3410446019800782F2803D0EE
:10366000019800785C2802D10198401C019000204C
:10367000A06001980078202807D200212046FFF79B
:103680008EFD0646002060612FE000BF01A92046A4
:10369000FFF7EFFE064606B126E02046FFF759FE8B
:1036A0000646A069C77A46B1042E00D01CE000BFD0
:1036B00007F0040000B9052616E007F0040000B189
:1036C00012E06569E87A00F0100008B905260BE001
:1036D000A97EE87E41EA00212A7D687D42EA002039
:1036E00041EA0040A060D1E700BF3046BDE8FC8160
:1036F00070B504460D46607801232A4604F1300176
:10370000FFF774FA08B1032070BD94F82E1294F8F4
:103710002F0241EA00204AF65521884201D00220BA
:10372000F2E794F86900010694F8680041EA004164
:1037300094F8670041EA002094F86610084320F0EE
:103740007F408049884201D10020DDE794F8850060
:10375000010694F8840041EA004194F8830041EAAC
:10376000002094F88210084320F07F407549884279
:1037700001D10020C8E70120C6E72DE9F74F88B046
:1037800008980068019001980078303807900798F1
:1037900009280AD8019840783A2806D10198801C57
:1037A000019008990198086001E0002007900798AF
:1037B00018B10B200BB0BDE8F08F6349079851F8A2
:1037C0002040099804600CB90C20F3E7207878B108
:1037D0006078FFF708FA804608F0010040B90A98BF
:1037E00020B108F0040008B10A20E3E70020E1E777
:1037F00000202070079860706078FFF7E7F9804636
:1038000008F0010008B10320D4E70A9820B108F0BD
:10381000040008B10A20CDE74FF0000B59462046BE
:10382000FFF766FF054600BF012D21D14FF0000ACA
:10383000BAF1000F03D0AAF1010000F0FF0A4FF423
:10384000DF7000EB0A1104F130000F18387978B1FD
:10385000F87A0106B87A41EA0041787A41EA002014
:10386000397A40EA010B59462046FFF741FF0546E9
:10387000032D01D101209DE70DB10D209AE73B20DA
:10388000015D94F83C0041EA0020B0F5007F01D0D2
:103890000D208FE74620015D94F8470041EA00299A
:1038A000B9F1000F0ED194F85700010694F85600B4
:1038B00041EA004194F8550041EA002094F8541080
:1038C00040EA0109C4F81C904020065DE670012E14
:1038D00003D0022E01D00D206CE709FB06F93D2034
:1038E000005D0646A07016B1701E304008B10D2074
:1038F00060E74120015D94F8420041EA0020208108
:10390000207A00F00F0008B10D2053E74320015D3D
:1039100094F8440041EA002006900698E0B994F833
:103920005300010694F8520041EA004194F8510016
:103930000CE00000222A2B2C3A3B3C3D3E3F5B5DD5
:103940007C7F0000464154006000002041EA0020D6
:1039500094F85010084306903E20015D94F83F0013
:1039600041EA00200290029808B90D2022E702984F
:103970004844218900EB11100590DDE905018142E1
:1039800001D20D2016E7DDE90510401AA178B0FB41
:10399000F1F00490049808B90D200BE7012540F6DA
:1039A000F6710498884200D302254FF6F671049808
:1039B000884200D303250498801CA06105985844D0
:1039C000A062029858442062032D16D1208908B1C4
:1039D0000D20EFE694F85F00010694F85E0041EADE
:1039E000004194F85D0041EA002094F85C1008431F
:1039F0006062A0698000039014E0208908B90D205E
:103A0000D8E6206A48446062022D02D1A0694000D5
:103A100007E0207E00F00100A16901EB410100EB0D
:103A200051000390E169039800F2FF10B1EB502FB1
:103A300001D20D20BEE64FF0FF3020610020E06093
:103A4000032D5CD1607194F8601094F8610041EA34
:103A50000020584460616078012304F130016269FC
:103A6000FFF7C4F8F0BB94F82E1294F82F0241EA45
:103A700000204AF65521884241D13320005D0106DD
:103A80003220005D41EA00413120005D41EA002022
:103A900094F830100843FE49884230D194F8170258
:103AA000010694F8160241EA004194F8150241EA31
:103AB000002094F814120843F64988421FD194F864
:103AC0001F02010694F81E0241EA004194F81D020B
:103AD00041EA002094F81C120843E06094F81B02AD
:103AE000010600E00BE094F81A0241EA004194F864
:103AF000190241EA002094F8181208432061257049
:103B0000E5480088401C80B2E3490880E08000203E
:103B1000E062207100BF4DE670B504460D4624B149
:103B2000207810B1E088A84201D0092070BD6078EB
:103B3000FFF759F800F0010008B10320F6E7002074
:103B4000F4E70246012A01DB0B207047D34850F806
:103B500022300BB10020187009B100200870CF4846
:103B600040F822100020F0E72DE9F7438AB005461F
:103B700016460020286006F01F0626F0010203A961
:103B80000BA8FFF7FAFD0746CDF824D027B903A804
:103B90000B99FFF75EFD0746089C0FB904B906278D
:103BA00006F01C00002858D04FB1042F03D103A801
:103BB000FFF728FC074646F00806089C09E0E07A73
:103BC00000F0110008B1072703E006F0040000B17F
:103BD0000827002F40D106F0080000283CD0FFF74E
:103BE00056F8804684F80E804FEA1821E1734FEAB8
:103BF000184121744FEA186161740020E072207747
:103C000000216177A177E177A17EE07E41EA002182
:103C1000227D607D42EA002041EA00490020A07632
:103C20000021E17620756175012003990871B9F1D1
:103C3000000F11D00398D0F82C8049460398FFF765
:103C400015FA074647B9A9F101000399C860414632
:103C50000398FFF753F807460EE06FB9E07A00F0DB
:103C6000100008B1042707E006F0020020B1E07A56
:103C700000F0010000B1072747B906F0080008B1BD
:103C800046F020060398C06AE8612C62F7B9AE716D
:103C9000A17EE07E41EA0021227D607D42EA002093
:103CA00041EA00402861E07F0106A07F41EA00412F
:103CB000607F41EA0020217F0843E8600020A8607F
:103CC000A861039828600398C088A88038460DB082
:103CD000BDE8F0832DE9FF4F83B0044615469A46B0
:103CE000DDF810B00020CAF80000A1882068FFF7B6
:103CF00013FF0290029818B1029807B0BDE8F08F48
:103D0000A07900F0800008B10220F6E7A07900F069
:103D1000010008B90720F0E7D4E90210401A00902A
:103D20000098854200D9009DC0E02089C0F30800BA
:103D300000287DD120688078401EA16800EA5120CB
:103D400000F0FF09B9F1000F1DD1A06810B920697A
:103D5000019004E061692068FFF77BF80190019809
:103D6000022805D2A07940F08000A0710220C4E7AB
:103D70000198401C28B9A07940F08000A071012072
:103D8000BBE70198606161692068FFF755F8064656
:103D90002EB9A07940F08000A0710220ADE74E441A
:103DA0004FEA5528B8F1000F2DD009EB0800216823
:103DB0008978884203D920688078A0EB090808F048
:103DC000FF032168487832465946FEF70FFF28B1B5
:103DD000A07940F08000A07101208EE7A07900F06A
:103DE000400068B1A069801B404509D2A169891BC8
:103DF0000BEB41204FF4007204F12401FEF74AFF5F
:103E00004FEA48273EE0A069B04227D0A07900F0F1
:103E10004000A0B121684878012304F12401A2697F
:103E2000FEF70BFF38B1A07940F08000A07100E0F0
:103E300015E0012061E7A07920F04000A071216821
:103E400048780123324604F12401FEF7CFFE28B161
:103E5000A07940F08000A07101204EE7A661208982
:103E6000C0F30800C0F50077AF4200D92F46208983
:103E7000C0F3080204F1240011183A465846FEF730
:103E800009FF00BFBB44A0683844A06008E0000000
:103E90005252614172724161640000206000002052
:103EA000DAF800003844CAF80000ED1B002D7FF45A
:103EB0003CAF002021E72DE9FF4F83B004461546B3
:103EC0009B46049801900020CBF80000A188206850
:103ED000FFF722FE0290029818B1029807B0BDE8E1
:103EE000F08FA07900F0800008B10220F6E7A079F9
:103EF00000F0020008B90720F0E7E0682844E16814
:103F0000884200D20025CDE02089C0F308000028B7
:103F100077D120688078401EA16800EA512000F027
:103F2000FF0ABAF1000F2AD1A06858B9D4F810805E
:103F3000B8F1000F0BD100212068FFF7CBF88046C5
:103F4000206104E061692068FFF7C4F88046B8F199
:103F5000000F00D1A9E0B8F1010F05D1A07940F020
:103F60008000A0710220B9E708F1010028B9A0790A
:103F700040F08000A0710120B0E7C4F81480A0795F
:103F800000F0400090B121684878012304F1240139
:103F9000A269FEF752FE28B1A07940F08000A0711E
:103FA00001209BE7A07920F04000A07161692068A2
:103FB000FEF742FF06462EB9A07940F08000A071BE
:103FC00002208BE756444FEA5529B9F1000F2FD054
:103FD0000AEB090021688978884203D92068807833
:103FE000A0EB0A0909F0FF032168487832460199DD
:103FF000FEF723FE30B1A07940F08000A0710120CF
:104000006CE72CE0A069801B48450ED2A069801B9C
:10401000019A02EB40214FF4007204F12400FEF7F4
:1040200039FEA07920F04000A0714FEA49272DE029
:10403000A069B04212D0D4E9020188420ED22168B0
:1040400048780123324604F12401FEF7CFFD28B160
:10405000A07940F08000A07101203FE7A66120898F
:10406000C0F30800C0F50077AF4200D92F46218980
:10407000C1F3080204F1240150183A460199FEF7F1
:1040800009FEA07940F04000A07100BF01983844BB
:104090000190A0683844A060DBF800003844CBF8F9
:1040A0000000ED1B002D7FF42FAF00BFD4E902010B
:1040B000884201D9A068E060A07940F02000A0719A
:1040C00000200BE72DE9F0410446A1882068FFF7A6
:1040D00023FD0746002F4FD1A07900F020000028D3
:1040E0004AD0A07900F0400078B1216848780123D7
:1040F00004F12401A269FEF7A0FD10B10120BDE882
:10410000F081A07920F04000A071E1692068FEF7FD
:10411000F5FD0746002F2FD1256AE87A40F02000F0
:10412000E872207B2877A089010A6977E068010C92
:10413000A977E068010EE977207CA876208A010A39
:10414000E9762069000C28752069010E6975FEF773
:104150009EFD0646AE75310AE975310C2976310EA1
:104160006976A07920F02000A071012021680871F3
:104170002068FEF7FCFD07463846C0E770B50446E8
:104180002046FFF79FFF05460DB900202060284616
:1041900070BD2DE9F04704460E46A1882068FFF760
:1041A000BBFC8246BAF1000F02D05046BDE8F08752
:1041B000A07900F0800008B10220F7E7E068B04283
:1041C00004D2A07900F0020000B9E668D4F80890A3
:1041D0004FF00008C4F80880002E77D0206880785F
:1041E0004702B9F1000F11D0701EB0FBF7F1A9F131
:1041F0000100B0FBF7F0814208D3A9F10100791E5C
:104200008843A060A068361A656918E02569ADB9D1
:1042100000212068FEF75EFF0546012D05D1A0793B
:1042200040F08000A0710220C0E7681C28B9A07986
:1042300040F08000A0710120B8E725616561002D84
:1042400044D029E0A07900F0020038B12946206866
:10425000FEF740FF054635B93E461FE02946206877
:10426000FEF7F7FD0546681C28B9A07940F08000EC
:10427000A07101209AE7012D03D920688069A84226
:1042800005D8A07940F08000A07102208EE765611A
:10429000A0683844A060F61BBE42D3D800BFA06817
:1042A0003044A060C6F3080068B129462068FEF7D4
:1042B000C3FD8046B8F1000F06D1A07940F0800020
:1042C000A071022072E701E008EB56282089C0F3B4
:1042D000080050B3A069404527D0A07900F0400005
:1042E00090B121684878012304F12401A269FEF706
:1042F000A4FC28B1A07940F08000A071012055E70E
:10430000A07920F04000A07121684878012342463E
:1043100004F12401FEF76AFC28B1A07940F0800086
:10432000A071012042E7C4F81880D4E90201884254
:1043300005D9A068E060A07940F02000A071504647
:1043400034E733B583B004460022214604A8FFF7C2
:1043500014FA05464DBBC4F818D020460499FFF75F
:1043600078F90546F5B9606998B16069C07A00F0DE
:10437000100068B16069817EC07E41EA00216069F9
:10438000027D407D42EA002041EA0040A06000E05A
:1043900005253DB92068C088A08000212046FEF791
:1043A000FEFE0546042D00D10525284605B030BD8A
:1043B000FEB504460E46A1882068FFF7ADFB054612
:1043C00005BB2EB900212046FEF7E9FE054619E09F
:1043D000C4F818D02046FEF7EAFF0546042D02D1A6
:1043E0000020206100256DB931462046FFF7E5F831
:1043F00000212046FEF721FF0546042D02D10020B2
:10440000206100252846FEBD064C074D06E0E06809
:1044100040F0010394E8070098471034AC42F6D30B
:10442000FBF78AFE40450008604500080FB4054BC5
:1044300010B503A9044A029800F017F810BC5DF803
:1044400014FB00001B1500086800002002E008C8EB
:10445000121F08C1002AFAD170477047002001E0FE
:1044600001C1121F002AFBD170472DE9F84F994670
:10447000924688460546002706E025280AD0514680
:104480004A4690476D1C7F1C28780028F5D1384695
:10449000BDE8F88F002315F8011F18462E2915D105
:1044A00015F8011F04232A290DD06FF02F02297857
:1044B000A1F13004092C09D800EB800002EB400088
:1044C00008446D1CF3E758F8040B6D1C2A78002A89
:1044D000DDD0632A07D0732A0FD0104651464A46D2
:1044E00090477F1C2AE018F8042B8DF8002000214B
:1044F0008DF801106E46012103E058F8046B4FF06F
:10450000FF315A074FF0000401D409E0641C8442D3
:104510000BDA8C42FADB325D002AF7D105E0641C2D
:104520008C42FCDB305D0028F9D1274404E016F80A
:10453000010B51464A469047641EF8D26D1CA3E712
:1045400060450008000000206C0000004C4400089A
:10455000CC4500086C0000201C1900005C440008D9
:1045600000A24A0400000000000000000102030451
:104570000607080900000000010203040102030409
:1045800006070809020406080000000000000000F9
:10459000000000002048656C6C6F20576F726C64DF
:1045A0003BC4E3BAC32CCAC0BDE72E000000000024
:1045B00000000000000000000000000000000000FB
:0C45C000000000000000000000000000EF
:0400000508000131BD
:00000001FF
