:020000040800F2
:1000000000C9002045010008591E00085B1E0008B9
:10001000651E0008691E00086D1E00080000000033
:10002000000000000000000000000000711E000839
:10003000731E000800000000751E0008771E0008EF
:100040005F0100085F0100085F0100085F01000810
:100050005F0100085F0100085F0100085F01000800
:100060005F0100085F0100085F0100085F010008F0
:100070005F0100085F0100085F0100085F010008E0
:100080005F0100085F0100085F0100085F010008D0
:100090005F0100085F0100085F010008791E000889
:1000A0005F0100085F0100085F0100085F010008B0
:1000B0005F0100085F0100085F0100085F010008A0
:1000C0005F0100085F0100085F0100085F01000890
:1000D0005F010008991E00085F0100085F01000829
:1000E0005F0100085F0100085F0100085F01000870
:1000F0005F0100085F0100085F0100085F01000860
:100100005F010008A11E00085F0100085F010008F0
:100110005F0100085F0100085F0100085F0100083F
:100120005F0100085F0100085F0100085F0100082F
:10013000DFF80CD00EF02EF800480047891D0008AB
:1001400000C900200648804706480047FEE7FEE752
:10015000FEE7FEE7FEE7FEE7FEE7FEE7FEE7FEE777
:1001600047020008310100080CB500200190009002
:100170006C48006840F480306A49086000BF6948F4
:10018000006800F4003000900198401C0190009835
:1001900018B90198B0F5A06FF1D16248006800F479
:1001A000003010B10120009001E000200090009884
:1001B000012843D15C48006840F010005A490860AB
:1001C0000846006820F0030008600846006840F018
:1001D0000200086053484068524948600846406839
:1001E00048600846406840F48060486008464068BF
:1001F00020F47C1048600846406840F4E8104860ED
:100200000846006840F08070086000BF45480068FC
:1002100000F000700028F9D04248406820F0030048
:10022000404948600846406840F00200486000BF0E
:100230003C48406800F00C000828F9D10CBD10B50E
:10024000FFF792FF10BD10B53648006840F001007E
:1002500034490860084640683449084031494860DC
:1002600008460068324908402E4908600846006880
:1002700020F4802008600846406820F4FE004860B2
:100280004FF41F008860FFF7DAFF4FF00060294944
:10029000086010BD10B5002100200022214B5B68D2
:1002A00003F00C0121B1042906D0082928D107E068
:1002B000214B224C236027E01F4B204C236023E07E
:1002C000184B5B6803F47010164B5B6803F48032C4
:1002D000022303EB904022B9194B4343174C236090
:1002E0000DE0104B5B6803F4003323B1144B434320
:1002F000124C236003E0104B4343104C236003E097
:100300000D4B0E4C236000BF00BF064B5B68C3F370
:1003100003130C4CE15C094B1B68CB40074C23607A
:1003200010BD000000100240002002400000FFF855
:10033000FFFFF6FE08ED00E000127A00000000204A
:1003400000093D000400002031490143314A116099
:10035000704770B5002100230F22C47804B32D4CE0
:10036000246804F4E064C4F5E064210AC1F10403E4
:10037000CA40447804FA03F1847814402143090107
:10038000254C0678A155047804F01F050124AC40E3
:1003900005786D11AD0005F1E025C5F8004109E0D3
:1003A000047804F01F050124AC401C4D067876113A
:1003B00045F8264070BD1A4A0A400243154B1B1FE0
:1003C0001A60704739B1134A121D12680243114B6B
:1003D0001B1D1A6006E00F4A121D126882430D4B66
:1003E0001B1D1A607047042808D14FF0E0210969ED
:1003F00041F004014FF0E022116107E04FF0E021ED
:10040000096921F004014FF0E022116170470000FA
:100410000000FA050CED00E000E400E080E100E0FF
:1004200080FFFF1F01684FF6FE721140016000213E
:10043000016041608160C1608D49884208D18C496A
:100440000839496841F00F01894A083A51608AE049
:1004500087491431884208D185490839496841F0F3
:10046000F001834A083A51607DE081492831884291
:1004700008D17F490839496841F470617C4A083ADB
:10048000516070E07A493C31884208D17849083996
:10049000496841F47041764A083A516063E0744912
:1004A0005031884208D172490839496841F47021B5
:1004B0006F4A083A516056E06D496431884208D16C
:1004C0006B490839496841F47001694A083A51603A
:1004D00049E067497831884208D165490839496857
:1004E00041F07061624A083A51603CE061498842DB
:1004F00006D1011F096841F00F01021F116032E0AF
:100500005C491431884208D15A49091F096841F0F1
:10051000F001584A121F116025E0564928318842DF
:1005200008D15449091F096841F47061514A121FEA
:10053000116018E04F493C31884208D14D49091FEC
:10054000096841F470414B4A121F11600BE04949A0
:100550005031884207D14749091F096841F4702189
:10056000444A121F1160704710B50022026847F616
:10057000F0739A430C6A8B6823430C6923434C69DC
:1005800023438C692343CC6923434C6A23438C6AFD
:1005900023431A430260CB6843600B6883604B6857
:1005A000C36010BD0021016041608160C1600161D4
:1005B00041618161C161016241628162704721B123
:1005C000026842F00102026004E002684FF6FE7326
:1005D0001A40026070471AB103680B43036002E0DF
:1005E00003688B4303607047416070470146486869
:1005F00080B2704701460020002201F080531BB1F9
:100600001C4B083B1A6802E0194B083B1A6802EAC7
:1006100001030BB1012000E00020704700F0805181
:1006200019B11449091F086002E0114908394860EE
:10063000704701460020002201F080531BB10D4B92
:10064000083B1A6802E00A4B083B1A6802EA0103F9
:100650000BB1012000E00020704700F0805119B17B
:100660000449091F086002E00149083948607047E1
:100670000800024008040240002044490860091DA7
:100680000860091D0860091D086041483F49143190
:100690000860704700213D498279002A3AD00A4615
:1006A000126803689A430B461A600A1D12680368B1
:1006B0009A430B1D1A60027911440A6803681A43B1
:1006C0000A60324A0832126803689A432F4B083393
:1006D0001A601A1D126803689A432C4B0C331A6077
:1006E0004279102A0ED11A1F126803681A43274B49
:1006F00008331A601A1D126803681A43234B0C331F
:100700001A600DE02149427911440A6803681A43CE
:100710000A6005E0027911440A6803689A430A6096
:1007200070470021016001710C214171002181712C
:1007300070471649103109680143144A103211609C
:10074000704701460020114A143212680A400AB16B
:10075000012000E0002070470C4914310860704708
:10076000014600200022094B1B6803EA0102074BE7
:1007700014331B680B4013B10AB1012000E00020C4
:1007800070470249143108607047000000040140BE
:10079000FFFF0F0030B943F2DB028100A1F1C0413D
:1007A0000A6005E043F2D2028100A1F1C0410A6073
:1007B0006FF07042411C8900A1F1C0410A608100C4
:1007C000A1F1C041C1F80421704710280AD11821B5
:1007D0004FF020421166402151664FF0FC31916686
:1007E000D16610E01821F74A116040214FF02042F5
:1007F000C2F884104FF0FC31F24A083211604FF019
:100800002042C2F88C1070471820EE492031086051
:1008100000200906C1F8A4004FF0FC30E949283156
:100820000860091D0860091D08607047D0E90112C1
:100830001143C2681143026911434269114382693D
:100840001143C2691143026A1143426A1143826A29
:100850001143C26A1143026B114302689200A2F174
:10086000C0421160816808290BD101688900A1F19B
:10087000C041096841F0400201688900A1F1C0410E
:100880000A60416B0968426B526841EA0211426B8F
:10089000926841EA0221426B928941EA0241426B2D
:1008A000128A41EA0251426B127D41EA0261426BB7
:1008B000926911430268521C9200A2F1C042116079
:1008C000C16AB1F5804F1BD1816B0968826B526898
:1008D00041EA0211826B926841EA0221826B128A1C
:1008E00041EA0251826B127D41EA0261826B926998
:1008F000114302689200A2F1C042C2F8041107E05D
:100900006FF0704201688900A1F1C041C1F8042173
:10091000704730B5002100220023446844F00804E9
:1009200085682C43C5682C4305692C43456944EA16
:100930004524856944EA4531C4692468C5696D6800
:1009400044EA0524C5692D8944EA0544C5692D7B1F
:1009500044EA0562046A2468056A6D6844EA05246D
:10096000056A2D8944EA0544056A2D7B44EA05633E
:100970000468102C05D14FF020442166A266E3667E
:1009800008E0904C21604FF02044C4F888208D4C42
:100990000C34236030BD016841F01001426841EA27
:1009A0004221826841EA4231864A20321160C168A0
:1009B0000968C268526841EA0221C268128941EAA4
:1009C0000241C268127B41EA02617E4A283211600C
:1009D000016909680269526841EA022102691289C3
:1009E00041EA02410269127B41EA0261754A2C32F6
:1009F0001160416909684269526841EA022142690D
:100A0000128941EA02414269127B41EA02614FF0D8
:100A10002042C2F8B01070470021016002214160FD
:100A200000218160C160016141618161C161016238
:100A30004FF480514162490081620021C16201632B
:100A40000F21426B1160426B5160FF21426B91603C
:100A50000F21426BD160426B1161426B51610021E9
:100A6000426B91610F21826B1160826B5160FF219B
:100A7000826B91600F21826BD160826B1161826BFE
:100A800051610021826B916170471021016000214A
:100A900041608160C160016141618161FC21C26985
:100AA0001160C2695160C2699160C269D160026A15
:100AB0001160026A5160026A9160026AD1607047F7
:100AC0000021016041608160FC21C2681160C26840
:100AD0005160C2689160C268D160026911600269A8
:100AE0005160026991600269D16042691160426996
:100AF0005160426991604269D160704751B1820092
:100B0000A2F1C042126842F001038200A2F1C04289
:100B1000136009E08200A2F1C04212682A4B1A4019
:100B20008300A3F1C0431A60704799B1102808D11F
:100B30004FF02042126E42F004024FF020431A663A
:100B40001DE0204A126842F004024FF02043C3F82F
:100B5000802014E0102809D14FF02042126E1A4B69
:100B6000DB1E1A404FF020431A6608E0154A12684F
:100B7000154BDB1E1A404FF02043C3F8802070470E
:100B800048B110492031096841F004014FF020427A
:100B9000C2F8A01009E00B49203109680A4AD21EA8
:100BA00011404FF02042C2F8A0107047B9B1102890
:100BB0000CD14FF02042126E42F040024FF0204321
:100BC0001A661FE0800000A0FEFF0F00724A126844
:100BD00042F040024FF02043C3F8802012E010287A
:100BE00008D14FF02042126E6C4B1A404FF0204358
:100BF0001A6607E0684A1268684B1A404FF02043B3
:100C0000C3F88020704701460020102903D14FF01F
:100C10002042506F02E0604A14321068704710B5ED
:100C2000F2B1102807D14FF020435B6E0B434FF019
:100C30002044636632E0B0F5807F08D1564B1B1D1F
:100C40001B680B434FF02044C4F8843026E0524B1D
:100C500024331B680B434FF02044C4F8A4301DE03C
:100C6000102807D14FF020435B6E8B434FF0204498
:100C7000636613E0B0F5807F08D1474B1B1D1B68EE
:100C80008B434FF02044C4F8843007E0424B2433B8
:100C90001B688B434FF02044C4F8A43010BD10B53E
:100CA000024600200023102A03D14FF02044636E37
:100CB00009E0B2F5807F03D1374C241D236802E0A0
:100CC000354C2434236803EA01040CB1012000E010
:100CD000002010BD102807D14FF02042526E8A43E9
:100CE0004FF020435A6613E0B0F5807F08D12A4ABE
:100CF000121D12688A434FF02043C3F8842007E096
:100D0000254A243212688A434FF02043C3F8A420B6
:100D1000704770B502460020002300240025102AE9
:100D200003D14FF02046736E09E0B2F5807F03D106
:100D3000194E361D336802E0174E2436336803EA35
:100D4000010403EAD10514B10DB1012000E0002037
:100D500070BD102808D14FF02042526E22EAD10215
:100D60004FF020435A6615E0B0F5807F09D10A4A5A
:100D7000121D126822EAD1024FF02043C3F88420EA
:100D800008E0054A2432126822EAD1024FF02043DB
:100D9000C3F8A42070470000800000A0BFFF0F0030
:100DA00010B50446CC48844208D10121042000F04B
:100DB0002DFB0021042000F029FB46E0C7488442B7
:100DC00008D10121082000F021FB0021082000F0BB
:100DD0001DFB3AE0C248844208D10121102000F0F6
:100DE00015FB0021102000F011FB2EE0BD488442CD
:100DF00008D10121202000F009FB0021202000F073
:100E000005FB22E0B848844208D10121402000F0CF
:100E1000FDFA0021402000F0F9FA16E0B3488442C0
:100E200008D10121802000F0F1FA0021802000F09B
:100E3000EDFA0AE0AE48844207D10121801500F0A6
:100E4000E5FA0021A01500F0E1FA10BD10B501216E
:100E5000084600F0DBFA0021012000F0D7FA10BDAF
:100E60002DE9F04102460025002600200023002441
:100E7000002791F803C00CF00F0591F803C00CF0A7
:100E8000100CBCF1000F03D091F802C04CEA05052C
:100E900091F800C0BCF1000F31D0146800202BE0A5
:100EA0004FF0010C0CFA00F3B1F800C00CEA030695
:100EB0009E4220D183004FF00F0C0CFA03F7BC4385
:100EC00005FA03FC4CEA040491F803C0BCF1280FB6
:100ED00006D14FF0010C0CFA00FCC2F814C00AE075
:100EE00091F803C0BCF1480F05D14FF0010C0CFA8A
:100EF00000FCC2F810C0401C0828D1D31460B1F81F
:100F000000C0BCF1FF0F34DD546800202EE000F17A
:100F1000080C4FF0010808FA0CF3B1F800C00CEA15
:100F200003069E4221D183004FF00F0C0CFA03F709
:100F3000BC4305FA03FC4CEA040491F803C0BCF17D
:100F4000280F05D100F1080C08FA0CF8C2F814803B
:100F500091F803C0BCF1480F07D100F1080C4FF025
:100F6000010808FA0CF8C2F81080401C0828CED3FB
:100F70005460BDE8F0814FF6FF710180022181705D
:100F80000421C17070470246002093680B400BB1EA
:100F9000012000E0002070470146886880B2704759
:100FA00002460020D3680B400BB1012000E0002076
:100FB00070470146C86880B270470161704741615F
:100FC00070470AB1016100E041617047C16070473C
:100FD0004FF480320A438261816182618269826951
:100FE000704702460020434B18684FF68073184044
:100FF00040EA021008433F4B186070473E49C86101
:101000007047F0B50A46002300240021002500F0B7
:101010000046B6F1004F02D1364EF16901E0354E7F
:101020007168C0F3034583B200F44016B6F5401F63
:1010300008D121F070612F4E766826F070662D4F32
:101040007E6012E000F48016B6F5801F06D10326FC
:1010500006FA05F4A14341F0706106E0460D360141
:1010600003FA06F6B14341F0706122B1460D360134
:1010700003FA06F6314300F00046B6F1004F02D104
:101080001C4EF16101E01B4E7160F0BD30B50022D5
:101090008B071C0F0F2303FA04F2164B08338C1036
:1010A00053F824309343134C08348D1044F8253002
:1010B00023468C1053F824308C07240F00FA04F4D4
:1010C00023430C4C08348D1044F8253030BD0A49B8
:1010D000DC3108607047000000080140000C01404E
:1010E000001001400014014000180140001C0140A4
:1010F000002001400000014000002042DF4800685D
:1011000040F00100DD49086008464068DC490840BD
:10111000DA49486008460068DA490840D74908605B
:101120000846006820F4802008600846406820F4E3
:10113000FE0048604FF41F0088607047CF4909687F
:1011400021F48031CD4A11601146096821F48021D3
:101150001160B0F5803F03D0B0F5802F0ED106E0CE
:10116000C649096841F48031C44A116007E0C349A7
:10117000096841F4A021C14A116000E000BF00BF2E
:10118000704710B501460022002300204A11012AB1
:1011900002D1BA4C236806E0022A02D1B74C236A76
:1011A00001E0B64C636A01F01F02012494401C4028
:1011B0000CB1012000E0002010BD38B500200090E7
:1011C0000024002500BF3120FFF7DBFF0546009813
:1011D000401C00900098B0F5A06F01D0002DF2D017
:1011E0003120FFF7CEFF08B1012400E000242046A3
:1011F00038BD01460020A14A106820F0F80040EAFE
:10120000C10010607047A049086070470246002086
:101210009A4B586820F47C1042EA01031843974B1C
:101220005860704798490866704701460020934A05
:10123000506820F003000843506070478F484068B2
:1012400000F00C007047014600208C4A506820F0E6
:10125000F00008435060704701460020874A5068FC
:1012600020F4E06008435060704701460020834A44
:10127000506820F4605040EAC1005060704729B1C6
:101280007E4A527A02437D4B5A7204E07B4A527A7C
:1012900082437A4B5A7270477B49D8310860704755
:1012A00001460020754A506820F4404008435060D1
:1012B00070470021714A20321170704A82F8201064
:1012C000012802D004280AD104E001216B4A20320F
:1012D000117005E00521694A2032117000E000BF5D
:1012E00000BF70476949086070476449096A014353
:1012F000624A11627047654944390860704730B5E9
:1013000000210022002400235C4D6D6805F00C01D3
:1013100021B1042905D0082923D105E05C4D0560E1
:1013200022E05B4D05601FE0544D6D6805F47012BE
:10133000524D6D6805F48034022505EB92421CB9CC
:10134000544D554305600BE04C4D6D6805F4003578
:101350001DB1504D5543056002E04D4D55430560AC
:1013600002E04B4D056000BF00BF444D6D6805F0C5
:10137000F0010909484D6B5C0568DD4045603F4D53
:101380006D6805F4E061090A434D6B5C4568DD401A
:1013900085603A4D6D6805F46051C90A3E4D6B5C3D
:1013A0004568DD40C560354D6D6805F44041890BE9
:1013B0003A4D6B5CC568B5FBF3F5056130BD29B1ED
:1013C0002E4A526902432D4B5A6104E02B4A52695E
:1013D00082432A4B5A61704729B1284A92690243D5
:1013E000264B9A6104E0254A92698243234B9A6115
:1013F000704729B1214AD2690243204BDA6104E0E7
:101400001E4AD26982431D4BDA61704729B11B4ADB
:10141000D2680243194BDA6004E0184AD26882436A
:10142000164BDA60704729B1144A12690243134B14
:101430001A6104E0114A12698243104B1A61704725
:1014400012494039086070470F49C86470470B491A
:10145000C87170470948406A40F080700749486287
:10146000704701460020054A92680A400AB10120EF
:1014700000E0002070470149887270470010024068
:101480000000FFF8FFFFF6FE0000424280044242E7
:1014900000127A0000093D00140000202400002002
:1014A00000206F49086048608860C86048628862B0
:1014B000C8626C4888630020C86370470021684A8E
:1014C000516847F6FF629143027D83681A4343687F
:1014D0001A43C3681A4303681A4303691A43114342
:1014E0005F4A516070470021017501604160816071
:1014F000C160016170475C490860704758490968DC
:1015000021F00301564A1160114609680143116038
:1015100070475348006800F00300704729B1504AF3
:10152000D26B02434E4BDA6304E04D4AD26B8243E6
:101530004B4BDA6370474D49086070470021484BB8
:1015400002689A601A46D1686FF30A01D0E9012354
:101550001A43C3681A4303691A431143404AD160CE
:1015600070470021016041608160C1600161704786
:101570003B480069C0B2704708B5014600200090A2
:1015800037481430084400900098006808BD0021D6
:10159000334B02685A6242689A621A46D16A21F055
:1015A000F701D0E902231A4303691A4343691A4336
:1015B00011432B4AD16270474FF0FF310160002187
:1015C00041608160C1600161416170472448006BE6
:1015D0007047234880300068704721498031086097
:1015E00070471F48806C704720491431086070476D
:1015F0001E491831086070471C491C31086070474B
:101600001A49203108607047194908607047184925
:10161000091D0860704701218143154A0832116095
:10162000704713490C3108607047014600200C4A8E
:10163000526B0A400AB1012000E0002070470849BF
:101640008863704701460020054A526B0A400AB180
:10165000012000E0002070470149886370470000C6
:1016600000800140FF07C000A00030428C053042DE
:10167000AC01304210B50446BE48844208D1012175
:101680008014FFF7C3FE0021A014FFF7BFFE16E091
:10169000B948844208D101210014FFF7C4FE00219B
:1016A0002014FFF7C0FE0AE0B448844207D10121AC
:1016B000C013FFF7B8FE0021E013FFF7B4FE10BD22
:1016C00010B50022028802F441520B884C88234353
:1016D0008C882343CC8823430C8923434C892343A0
:1016E0008C892343CC8923431A430280838B4FF296
:1016F000FF74234083830B8A038210BD2DE9F04FD2
:1017000085B005460C464FF0000902274FF000084F
:101710004FF0010B0026B246A88B4FF24001084063
:10172000A88302202884B5F81C90A068022801D163
:1017300000BF38E0A08810B94FF0010B01E04FF076
:10174000020B8D48854200D100E000BF6846FFF7DC
:10175000D6FDDDF800A0E088B0F5007F0AD14FEAA1
:101760001A2000EB80004000A168B0FBF1F0401DA2
:1017700086B20BE04FEA4B10BAFBF0F000EB8000B2
:101780004000A168B0FBF1F0401D86B20A20B6FB14
:10179000F0F606F00108A6EB0800C0F34F074FF67D
:1017A000FF7000EA0828022F01DBFF2F02DD02276D
:1017B0004FF00008E08840EA080038432884A088F9
:1017C000A1890843618808432188084340F40060E8
:1017D00040EA0909A5F81C9005B0BDE8F08F00218A
:1017E000018041808180C180018141818181C181ED
:1017F0000721018270470021018041808180C180E2
:101800000221816000218181704721B1028842F06C
:101810004002028004E002884FF6BF731A40028043
:10182000704721B1828B42F48062828304E0828B14
:101830004FF6FF331A408283704730B500240023EF
:101840000C110125A540ABB21AB185881D438580D6
:1018500002E085889D43858030BD1AB183880B43A3
:10186000838002E083888B43838070478181704747
:101870000146888970474FF6FF62914204D0028882
:1018800042F48072028004E002884FF6FF631A403F
:101890000280704721B1828842F00402828004E015
:1018A00082884FF6FB731A408280704702884FF29D
:1018B000FF731A40028002880A4302807047018841
:1018C00041F480510180704721B1028842F40052F6
:1018D000028004E002884DF6FF731A4002807047D0
:1018E00002460020012901D0108B00E0908A704749
:1018F0000146088A7047B1F5804F04D1028842F44E
:101900008042028004E002884BF6FF731A40028096
:1019100070470246002013890B400BB1012000E004
:1019200000207047CA4302817047F0B5024600208C
:1019300000240023002501F00F070126BE40B4B2A9
:101940000B1101269E40B3B2968806EA030516895C
:10195000264016B10DB1012000E00020F0BD10B509
:10196000002201F00F040123A3409AB2D343038164
:1019700010BD00000030014000380040003C004035
:1019800010B50446FB48844209D101218803FFF7C2
:101990003DFD00214FF48040FFF738FD32E0F6486E
:1019A000844209D101214804FFF73DFD00214FF495
:1019B0000030FFF738FD25E0F048844209D10121CD
:1019C0008804FFF730FD00214FF48020FFF72BFD46
:1019D00018E0EB48844209D10121C804FFF723FD38
:1019E00000214FF40020FFF71EFD0BE0E548844284
:1019F00008D101210805FFF716FD00214FF48010E2
:101A0000FFF711FD10BD2DE9F04786B005460E46E3
:101A10000024A24600BFA1460027B08900B100BF44
:101A20002F462C8A4CF6FF700440F08804432C8229
:101A3000AC894EF6F3100440B088318908437189AF
:101A400008430443AC81AC8A4FF6FF400440B089A0
:101A50000443AC8201A8FFF752FCC648874202D17A
:101A6000DDF810A001E0DDF80CA0A88900F400402A
:101A700040B10AEBCA0000EB0A1031684900B0FB24
:101A8000F1F807E00AEBCA0000EB0A1031688900A0
:101A9000B0FBF1F86420B8FBF0F0040120096421E8
:101AA00001FB1089A88900F4004040B1322000EB0E
:101AB000C900B0FBF1F000F00700044308E0322059
:101AC00000EB09106421B0FBF1F000F00F000443BB
:101AD0002C8106B0BDE8F0874FF41651016000215B
:101AE0008180C18001810C21418100218181704769
:101AF00010B502460020108A4FF2FF0318400B88F1
:101B00004C8823438C882343CC882343184310827A
:101B100010BD0021018041808180C180704721B1CA
:101B2000828942F40052828104E082894DF6FF737B
:101B30001A4082817047F0B5034600240026002534
:101B4000002040F66A17B94200D100BF1846C1F321
:101B5000421401F01F06012707FA06F5012C01D1F6
:101B60000C3004E0022C01D1103000E014301AB126
:101B700007682F43076002E00768AF430760F0BDC6
:101B80001AB1838A0B43838202E0838A8B43838268
:101B90007047028A4FF6F0731A400282028A0A43A3
:101BA0000282704782894FF2FF731A4082818289D4
:101BB0000A438281704721B1828942F00202828108
:101BC00004E082894FF6FD731A4082817047028AD1
:101BD0004FF6DF731A400282028A0A43028270477C
:101BE00021B1028A42F48042028204E0028A4BF66A
:101BF000FF731A4002827047C1F308028280704767
:101C000001468888C0F308007047818941F00101CE
:101C100081817047028BD2B20283028B42EA012299
:101C200002837047028B02F47F420283028B0A43D5
:101C30000283704721B1828A42F02002828204E04E
:101C4000828A4FF6DF731A408282704721B1828AFE
:101C500042F01002828204E0828A4FF6EF731A404B
:101C60008282704721B1828A42F00802828204E0B7
:101C7000828A4FF6F7731A408282704721B18289B7
:101C800042F40042828103E08289C2F30E02828123
:101C9000704721B1828A42F40062828204E0828A23
:101CA0004FF2FF731A4082827047828A4FF6FB73AD
:101CB0001A408282828A0A438282704721B1828AD4
:101CC00042F00202828204E0828A4FF6FD731A40DB
:101CD0008282704702460020B1F5007F00D100BF2C
:101CE00013880B400BB1012000E00020704701F485
:101CF0000072B2F5007F00D100BFCA430280704776
:101D000070B50246002400230025002040F66A1624
:101D1000B14200D100BFC1F3421501F01F030126FB
:101D200006FA03F3012D02D19689334006E0022D15
:101D300002D1168A334001E0968A33400C12012604
:101D400006FA04F41688344013B10CB1012000E007
:101D5000002070BD10B50022002340F66A14A14295
:101D600000D100BF0A1201249440A3B2DC430480D6
:101D700010BD000000380140004400400048004011
:101D8000004C00400050004008B501F015FE4FF631
:101D9000FF704FF4A073F02200210090084601F07C
:101DA00090FE02F06BF800F09EF802F0C1FC02F029
:101DB0007FFA02F069FD04F01AFE04F079FC0122BA
:101DC0000021174802F0F8FB15480078452818D183
:101DD00030220121134802F0EFFB10211248FFF7D7
:101DE000ECF800240AE00F4800EBC400D0E90053EF
:101DF0002A460EA00CF00CFA601CC4B2062CF2DBD2
:101E000004E000BF03F045F80028FBD10BA200213D
:101E1000084602F0A7F904F058F900BFFEE70000F9
:101E2000B804002088040020000801400D0A207238
:101E300078203D20254C46200D0A00002F6D703380
:101E4000706C617965722F75695F77696E646F7701
:101E50002E626D7000000000704702E012A00CF0CE
:101E6000D7F9FBE700BFFEE700BFFEE700BFFEE7D4
:101E7000704770477047704710B54FF40070FEF719
:101E80006FFC40B101200C49087004F0CFF94FF409
:101E90000070FEF776FC10BD10B500F065F810BDBF
:101EA00010B501F0ABFB10BD0D0A206861726466CD
:101EB00061756C74000000002800002008B54FF424
:101EC000E060FEF741FA25208DF8000001208DF832
:101ED000010002208DF8020001208DF80300684601
:101EE000FEF737FA08BD00B585B0012144F20400C1
:101EF000FFF772FA4FF40070ADF8100018208DF85B
:101F0000130003208DF8120004A93848FEF7A8FF3B
:101F10004FF48060ADF8100004208DF8130004A980
:101F20003248FEF79DFF4FF4E13000900020ADF8FD
:101F30000400ADF80600ADF80800ADF80C000C2068
:101F4000ADF80A0069462A48FFF75DFD012240F21C
:101F500025512748FFF7EFFDFFF7B0FF0121244887
:101F6000FFF7DDFD05B000BD08B50020009040F290
:101F700025511F48FFF7AEFE012819D128211C4822
:101F8000FFF7B5FE1A48FFF73BFE0090BDF80010C2
:101F900018A00CF03DF9BDF800002B2802D104F088
:101FA0007EFC05E0BDF800002D2801D104F053FCB3
:101FB00008BD70B504460D46E1B20D48FFF71CFEA2
:101FC00000BF80210A48FFF785FE0028F9D020468F
:101FD00070BD10B5044600BF20210548FFF77AFE0A
:101FE0000028F9D00248FFF70BFE10BD00080140A1
:101FF000003801402563000008B50020FFF77BFA98
:102000000020FFF77BFAFFF74BFA00214FF48060C6
:10201000FFF7D5F94FF4F850ADF8000004208DF823
:1020200003006946FC48FEF71BFF0420ADF80000E2
:102030006946FA48FEF714FF08BD08B54FF4C060C2
:10204000FEF782F931208DF8000000208DF80100A4
:102050008DF8020001208DF803006846FEF779F93B
:1020600008BD10B5EE48FEF7C5FA10BD30B58BB00F
:1020700005460C46EB48FEF7D1FA0021EA48FEF788
:102080009EFAEA480090019500200290A008039073
:10209000002004908020059080000690800007902A
:1020A000002008904FF40050099000200A906946E3
:1020B000DD48FEF759FA0121DB48FEF780FA0BB044
:1020C00030BD30B58BB005460C46D648FEF7A6FAB3
:1020D0000021D548FEF773FAD448009001951020EE
:1020E0000290A008039000200490802005908000BA
:1020F000069080000790002008904FF4005009904F
:1021000000200A906946C848FEF72EFA0121C64809
:10211000FEF755FA0BB030BD08B501213020FFF7AE
:102120005BF94FF4F850ADF8000003208DF8020081
:1021300018208DF803006946B748FEF791FE042089
:10214000ADF800006946B548FEF78AFE0121880215
:10215000FFF735F901210220FFF731F908BD0146EB
:1021600000BFB2488038406B00F045000028F8D02E
:1021700040F2FF50AD4A803A906310464069082211
:102180001040C0B270472DE9FC4107460D460026BD
:1021900000240020009001900820A549086010202C
:1021A0004860402088600020C8604FF4806008616B
:1021B0000846FFF7C3F91020FFF7D1FF044614B11A
:1021C0002046BDE8FC819B480088000498490860CF
:1021D00037204860402088600020C8604FF480604D
:1021E00008610846FFF7AAF93720FFF7B8FF044651
:1021F0000CB12046E5E74FF0FF308F49086008201A
:102200004860302088600220C860002008610120FA
:1022100048610846FFF7BBF9002085490860332074
:102220004860402088600020C8604FF480600861EA
:102230000846FFF783F93320FFF791FF04460CB1FE
:102240002046BEE70CE04FF40010FFF7EEF938B17E
:10225000FFF7BFF94DF82600761C012E00D907E0E4
:1022600072488038406B40F22A6108400028EAD06A
:1022700000BF0820FFF7D9F928B10820FFF7DFF9E0
:10228000042420469DE70220FFF7CFF928B1022061
:10229000FFF7D5F90224204693E72020FFF7C5F980
:1022A00028B12020FFF7CBF90624204689E74FF418
:1022B0000070FFF7BAF930B14FF40070FFF7BFF9C3
:1022C000072420467DE740F2FF50FFF7B8F9009859
:1022D0000006009901F47F4140EA0120009901F4D1
:1022E0007F0140EA1120009940EA1160686001987E
:1022F0000006019901F47F4140EA0120019901F4AF
:102300007F0140EA1120019940EA116028602046CF
:1023100057E77CB505460024002000900190FFF7A8
:102320002BF900F0007010B10E2420467CBD41490D
:10233000098888B26946FFF726FF04460CB120469B
:10234000F4E7012D36D1019800F4802000282ED02A
:10235000384800880004364908603720486040202B
:1023600088600020C860A80208610846FFF7E6F808
:102370003720FFF7F4FE04460CB12046D6E70220D2
:102380002B49086006204860402088600020C86013
:102390004FF4806008610846FFF7D0F80620FFF789
:1023A000DEFE04460CB12046C0E72046BEE72524E9
:1023B0002046BBE7019800F48030F8B31D48008840
:1023C00000041B49086037204860402088600020D6
:1023D000C8604FF4806008610846FFF7AFF8372007
:1023E000FFF7BDFE04460CB120469FE700201049D0
:1023F000086006204860402088600020C8604FF4D4
:10240000806008610846FFF799F80620FFF7A7FEED
:102410000446A4B1204689E70010014000140140A1
:102420000020001000F000104404024080800140B1
:1024300088070020300000209C07002001E0204693
:1024400074E72524204671E770B504460025FB4853
:102450000068032802D12725284670BDF748006888
:1024600038B1F6480068012803D0F4480068022813
:102470002ED1B4F5805F02D127252846EDE7B4F5CB
:10248000006F14D10120FFF744FF054605BB012072
:10249000EB49087500200860486088604FF40060D0
:1024A000C860002008610846FFF708F810E0002027
:1024B000FFF72FFF05465DB90120E14908750020AF
:1024C000086048608860C86008610846FEF7F6FF4B
:1024D0002846C2E770B504460025DA4804600720A4
:1024E000D8494860402088600020C8604FF4806070
:1024F00008610846FFF722F80720FFF730FE05467F
:10250000284670BD30B5014600200022CB4B1B7819
:1025100081F84E30CC4B1B88A1F84C30CB4B1B685C
:102520001A0E93090B70C2F383034B7002F003037E
:102530008B70C64B1B68C3F30742CA70C34B1B8822
:10254000C3F307220A71C14B1A784A715B681A0EED
:102550001301CB80BD4B5B68C3F30742CB8843EAD2
:102560001213CB8002F00F030B72B84B9B88C3F39E
:102570000722D3094B72C2F380138B72C2F340134C
:10258000CB72C2F300130B7300234B73AB4B1B686E
:102590001BB1AA4B1B68012B3CD193071B0D0B6190
:1025A000AA4B1A790B6943EA82030B61A74B9B681C
:1025B0001A0E0B6943EA92130B61C2F3C2030B7547
:1025C00002F007034B75A14B9B68C3F30742530905
:1025D0008B75C2F38203CB7593075B0F0B769B4B16
:1025E0001B89C3F307220B7E43EAD2130B760B69D8
:1025F0005B1C4B640C7E4B6CA41C0125A5406B43FB
:102600004B640C7A0123A3408B64D1E911346343FA
:102610004B6421E0894B1B68022B1DD18B4B1A792F
:1026200093069B0A0B61894B9B681A0E0B6943EA60
:1026300002230B61854B9B68C3F307420B6913436D
:102640000B61824B1B89C3F307220B695B1CDB0404
:102650004B644FF400738B64C2F3801301F8193F8D
:1026600093065B0E4B70794B1A7A4B7843EAD21380
:102670004B7002F07F038B70744BDB681A0ED3092A
:10268000CB70C2F341130B71C2F382034B719307FA
:102690001B0F8B716D4BDB68C3F307428B7943EAE9
:1026A00092138B71C2F34013CB7100230B7202F0B3
:1026B00001034B72654B9B89C3F30722D3098B72CD
:1026C000C2F38013CB72C2F340130B73C2F3001337
:1026D0004B73C2F381038B7302F00303CB735B4B29
:1026E0001A7B53080B7401234B74594B1B681A0E49
:1026F000CA741939564B1B68C3F307421402CC85C0
:10270000534B1B88C3F30722CB8D1343CB85504B10
:102710001A7814060C635B681A0E0B6B43EA0244CA
:102720000C634B4B5B68C3F307420B6B43EA022419
:102730000C63474B9B88C3F307220B6B13430B635C
:10274000434B1A7934235A54414B9B681A0E352354
:102750005A543F4B9B68C3F3074214068C633C4BAF
:102760001B89C3F307228B6B43EA02448C63384B0B
:102770001A7A8B6B43EA02248C63354BDB681A0EA2
:102780008B6B13438B63324BDB68C3F307423C23F1
:102790005B5C43EA12143C235C5413071C0DCC878A
:1027A0002B4B9B89C3F30722CB8F1343CB87284B3B
:1027B0001A7B540840235C54012441235C5430BDEF
:1027C00070B500252348446B01E02248446B04F0B7
:1027D00045000028F9D004F0040028B103250420A6
:1027E000FEF72DFF284670BD04F0010028B1012539
:1027F0000120FEF724FF2846F5E740F2FF50FEF7E0
:102800001EFF2846EFE72DE9F04106460F464FF040
:1028100000081048456B01E00E48456B05F0450087
:102820000028F9D005F00400B0B14FF003080420EF
:10283000FEF705FF4046BDE8F08100002C000020B7
:10284000700700208807002030000020F0060020DC
:10285000000700200080014005F0010030B14FF07A
:1028600001080120FEF7EBFE4046E4E7FEF780FE9C
:10287000B04203D04FF010084046DCE740F2FF5072
:10288000FEF7DDFE0020FEF777FE044604F460400C
:1028900018B9200C38804046CDE704F4005008B148
:1028A0001320C8E704F4804008B11020C3E704F403
:1028B000004008B10F20BEE74046BCE738B5002411
:1028C00001200090FEF725FE10B92524204638BDD2
:1028D000F7480068042828D00020F6490860022044
:1028E0004860C02088600020C8604FF480600861A4
:1028F0000846FEF723FEFFF763FF04460CB12046AF
:10290000E5E70020FEF738FEEB4908600420FEF7FB
:1029100033FEE94948600820FEF72EFEE64988604C
:102920000C20FEF729FEE449C860E148006858B170
:10293000DF480068012807D0DD480068062803D07A
:10294000DB480068022816D10020DA49086003201D
:102950004860402088600020C8604FF480600861B3
:102960000846FEF7EBFD69460320FFF74CFF0446DF
:102970000CB12046ABE7CE48006804282ED0BDF845
:102980000000CE490860BDF800000004C949086095
:1029900009204860C02088600020C8604FF4806033
:1029A00008610846FEF7CAFDFFF70AFF04460CB1AE
:1029B00020468CE70020FEF7DFFDC14908600420B7
:1029C000FEF7DAFDBE4948600820FEF7D5FDBC4998
:1029D00088600C20FEF7D0FDB949C860002420466D
:1029E00075E770B50025B748446B01E0B548446B06
:1029F00004F045000028F9D004F0040028B10325B4
:102A00000420FEF71CFE284670BD40F2FF50FEF782
:102A100016FE2846F8E770B500264FF48035A94821
:102A2000446B02E06D1EA748446B04F0450008B9F2
:102A3000002DF7D115B104F0040028B103260420BD
:102A4000FEF7FDFD304670BD04F0400028B10026C1
:102A50004020FEF7F4FD3046F5E73046F3E770B569
:102A600000254FF4803400E0641E24B18020FEF77E
:102A7000DCFD0028F8D014B90325284670BD40F2CB
:102A8000FF50FEF7DCFD2846F8E72DE9F041002471
:102A9000002600250027A046B2208B49087500209B
:102AA000086048608860C86008610846FEF706FD57
:102AB0000320FEF723FD0120FEF71DFD00207D49C8
:102AC000086048608860C8604FF48060086108460C
:102AD000FEF734FDFFF7C3FF044614B12046BDE8FE
:102AE000F0814FF4D5707349086008204860402099
:102AF00088600020C8604FF4806008610846FEF7D7
:102B00001DFDFFF788FF04462CB9012068490860C5
:102B10004FF0804812E00020664908603720486086
:102B2000402088600020C8604FF48060086108463B
:102B3000FEF704FD3720FFF712FB044600205D4935
:102B4000086037204860402088600020C8604FF44B
:102B5000806008610846FEF7F1FC3720FFF7FFFAB6
:102B60000446002C4AD136E0002052490860372044
:102B70004860402088600020C8604FF48060086191
:102B80000846FEF7DBFC3720FFF7E9FA04460CB1F4
:102B90002046A4E74D4848EA00004649086029203D
:102BA0004860402088600020C8604FF48060086161
:102BB0000846FEF7C3FCFFF714FF04460CB120469D
:102BC0008DE70020FEF7D8FC0646012080EAD6708B
:102BD00080F001076D1C1FB94FF6FF708542C3D30B
:102BE0004FF6FF70854202D31B24204677E706F09C
:102BF0008040060002D002202D49086020466EE782
:102C000010B50024FFF788FAFEF74AFCFFF73DFFF6
:102C100004460CB1204610BDFFF750FE04460CB12F
:102C20002046F8E701202849087500200860486020
:102C30008860C86008610846FEF740FC1CB924485B
:102C4000FFF760FC044634B92149B1F84C10080480
:102C5000FFF740FC044624B94FF40060FFF7F4FB93
:102C600004462046D7E770B504460025134800887F
:102C700000041449886040F24D40C8600D20FFF701
:102C80006EFA05460DB1284670BD0E4840692060B9
:102C90002846F9E708B5002000906846FFF7E3FFF3
:102CA00008B1FF2008BD0098C0F34320FAE70000F8
:102CB0002C000020880700200007002030000020A2
:102CC000F006002000800140700700200000108006
:102CD0002007002010B50424FFF7DCFF0446042C75
:102CE00001D1002010BDFF2C01D10220FAE7012004
:102CF000F8E710B500240020FEF700FC204610BDC8
:102D000070B50446002500260020FEF735FC00F0D3
:102D1000007010B10E25284670BD4020FC490860A7
:102D200010204860402088600020C8604FF4806018
:102D300008610846FEF702FC1020FFF710FA05466E
:102D40000DB12846E8E7F34800880004F049086020
:102D500037204860402088600020C8604FF48060C1
:102D600008610846FEF7EAFB3720FFF7F8F9054649
:102D70000DB12846D0E74FF0FF30E749086040200A
:102D80004860602088600220C8600020086101203F
:102D900048610846FEF7FBFB0020DD4908600D2076
:102DA0004860402088600020C8604FF4806008615F
:102DB0000846FEF7C3FB0D20FFF7D1F905460DB11C
:102DC0002846A9E70EE04FF40040FEF72EFC48B17C
:102DD000002604E0FEF7FDFB44F82600761C082ED2
:102DE000F8D32034CD48406B40F22A6108400028D7
:102DF000E9D00820FEF719FC28B10820FEF71FFCD7
:102E00000425284688E70220FEF70FFC28B102209F
:102E1000FEF715FC022528467EE72020FEF705FC7C
:102E200028B12020FEF70BFC0625284674E74FF456
:102E30000070FEF7FAFB30B14FF40070FEF7FFFBB5
:102E40000725284668E703E0FEF7C3FB2060241D42
:102E50004FF40010FEF7E9FB0028F5D140F2FF50D7
:102E6000FEF7EDFB284657E770B50446002600251F
:102E7000AB48FFF745FF06460EB1304670BDA84887
:102E8000007885092570A6480078C0F34015657064
:102E9000A348857828026080A148C57860882843C7
:102EA00060809F480579280660609D484579606884
:102EB00040EA054060609A488579606840EA0520EC
:102EC00060609748C5796068284360609448057AD7
:102ED0002572457A6572807A0509A5729048C57A8F
:102EE0002802A0818E48057BA0892843A0818C48B8
:102EF000407B8508A5738A48407B00F00305E57395
:102F00003046BBE72DE9F04107460D461446002642
:102F100000208449087084490860844908607F491A
:102F2000C86283480068022801D104026D0A78480B
:102F30000460102076494860402088600020C86006
:102F40004FF4806008610846FEF7F8FA1020FFF79A
:102F500006F9064616B13046BDE8F0814FF0FF3065
:102F60006D49086008464460902088600220C8606F
:102F700000200861012048610846FEF708FB64480C
:102F80000560112062494860402088600020C860C8
:102F90004FF4806008610846FEF7D0FA1120FFF771
:102FA000DEF806460EB13046D6E701210802FEF7EC
:102FB000B5FA0120FEF7BFFA21463846FFF756F86A
:102FC0003046C9E72DE9F04180460D4614461E46BD
:102FD00000270020534908705349086001205349D5
:102FE000086000204D49C86251480068022801D19C
:102FF00004026D0A4648046010204549486040209C
:1030000088600020C8604FF4806008610846FEF7C1
:1030100095FA1020FFF7A3F8074617B13846BDE828
:10302000F0814FF0FF303C49086006FB04F0486037
:10303000902088600220C86000200861012048615B
:103040000846FEF7A4FA324805601220304948606D
:10305000402088600020C8604FF480600861084606
:10306000FEF76CFA1220FFF77AF807460FB13846E0
:10307000D5E701210802FEF751FA0120FEF75BFABD
:1030800006FB04F14046FEF7F1FF3846C7E710B5EE
:10309000002400BFFEF7E5FF30B92348006818B9E7
:1030A000204800780028F5D01E48007810B11D484F
:1030B000007810BD2046FCE72DE9F04107460D469B
:1030C0001446002600201749087017490860174960
:1030D00008601249C86216480068022801D104023B
:1030E0006D0A0B4804601020094948604020886040
:1030F0000020C8604FF4806008610846FEF71EFAA1
:103100001020FFF72CF80646A6B13046BDE8F08146
:1031100088070020300000209C070020008001402C
:1031200010070020380000203C0000203400002060
:103130002C000020FE4805601820FD494860402012
:1031400088600020C8604FF4806008610846FEF780
:10315000F5F91820FFF703F806460EB13046D5E71B
:103160004FF0FF30F34908600846446090208860C3
:103170000020C8600861012048610846FEF707FA90
:1031800001210802FEF7CAF921463846FEF799FFE9
:103190000120FEF7D0F93046B8E72DE9F843804624
:1031A0000F4615461E46002400200090E249087094
:1031B000E24908600120E24908600020E149C86254
:1031C000E1480068022801D105027F0AD84805605D
:1031D0001020D7494860402088600020C8604FF424
:1031E000806008610846FEF7A9F91020FEF7B7FFD6
:1031F000044614B12046BDE8F883D4480088000492
:10320000CB49086037204860402088600020C860B3
:103210004FF4806008610846FEF790F93720FEF70A
:103220009EFF04460CB12046E5E7C1480660172022
:10323000BF494860402088600020C8604FF480602B
:1032400008610846FEF77AF91720FEF788FF044662
:103250000CB12046CFE7B64807601920B449486052
:10326000402088600020C8604FF4806008610846F4
:10327000FEF764F91920FEF772FF04460CB12046F0
:10328000B9E74FF0FF30AB49086006FB05F0486036
:10329000902088600020C8600861012048610846CD
:1032A000FEF775F901210802FEF738F90120FEF753
:1032B00042F906FB05F14046FEF703FF20469AE778
:1032C00010B5002400BFFEF7CCFE30B99B48006863
:1032D00018B9994800780028F5D09748007810B1BF
:1032E0009548007810BD40F2FF50FEF7A8F920463F
:1032F000F8E79448406B00F4405008B10120704753
:103300000020FCE710B5002400208E49886040F2C0
:103310004C40C8600C20FEF722FF0446204610BD3A
:103320007CB5044600250020019000908748008865
:1033300000047F4908600D2048604020886000201C
:10334000C8604FF4806008610846FEF7F7F87D48D2
:10335000406B009002E07B48406B0090009800F0CA
:1033600045000028F7D0009800F0040028B103259C
:103370000420FEF764F928467CBD009800F00100A7
:1033800028B101250120FEF75AF92846F4E7FEF797
:10339000EFF8009000980D2802D010252846EBE7A2
:1033A00040F2FF50FEF74BF90020FEF7E5F80190E0
:1033B0000198C0F34320207065490198084008B97E
:1033C0002846D9E7019800F0004008B11C20D3E757
:1033D000019800F0804008B10920CDE7019800F085
:1033E000005008B10A20C7E7019800F0805008B1EA
:1033F0000B20C1E7019800F0006008B10C20BBE78A
:10340000019800F0806008B10D20B5E7019800F048
:10341000807008B10E20AFE7019800F4000008B1F9
:103420000F20A9E7019800F4800008B11020A3E75D
:10343000019800F4001008B111209DE7019800F4F4
:10344000801008B1122097E7019800F4002008B11D
:10345000132091E7019800F4802008B114208BE735
:10346000019800F4003008B1152085E7019800F4B8
:10347000803008B116207FE7019800F4004008B1C1
:10348000172079E7019800F4804008B1182073E70D
:10349000019800F4005008B119206DE7019800F080
:1034A000080008B11A2067E7284665E72DE9FC41C6
:1034B00005460E4600240027002001900090254874
:1034C0004068202101EA105018B925242046BDE8A3
:1034D000FC811C484068C0B2801C1F49B1FBF0F061
:1034E00001900020FEF748F800F0007010B10E24A3
:1034F0002046ECE714480068022801D16D0A760ADC
:103500001148006838B110480068012803D00E48FF
:103510000068022842D1064805602020044948601E
:10352000402088600020C8604FF48060086115E08A
:10353000880700209C070020380000203C00002065
:1035400034000020008001402C00002030000020CA
:1035500008E0FFFDF0060020C0D401000846FDF79A
:10356000EDFF2020FEF7FBFD04460CB12046AEE740
:103570003848066021203749486040208860002094
:10358000C8604FF4806008610846FDF7D7FF21202E
:10359000FEF7E5FD04460CB1204698E700202D49D2
:1035A000086026204860402088600020C8604FF4F2
:1035B000806008610846FDF7C1FF2620FEF7CFFDB9
:1035C00004460CB1204682E7002700E07F1C0198EA
:1035D0008742FBD36846FFF7A3FE044603E0684634
:1035E000FFF79EFE04463CB99DF800000728F6D080
:1035F0009DF800000628F2D0204668E710B516486E
:10360000006801280BD100201449886040F24C402A
:10361000C8600C20FEF7A3FD1149087002E00020ED
:103620000F4908704FF48070FEF716F800214FF430
:103630008070FDF773FF01200A4908600848007890
:1036400010BD0146002002E04910421CD0B2012901
:10365000FAD1704788070020340000200080014024
:10366000380000203C00002001B502E00098401E18
:10367000009000980028F9D108BD08B50121080282
:10368000FDF79DFE01214FF4F470FDF7A5FE10201B
:103690008DF8030003208DF802000220ADF8000031
:1036A0006946FE48FDF7DCFB4FF40060ADF8000012
:1036B0006946FB48FDF7D4FB03208DF80200182073
:1036C0008DF803004CF20370ADF800006946F54830
:1036D000FDF7C6FB4FF68070ADF800006946F24872
:1036E000FDF7BEFB1020ADF800006946ED48FDF780
:1036F000B7FB2020ADF800006946EA48FDF7B0FBB3
:103700004FF48050ADF800006946E548FDF7A8FB8E
:103710000420ADF800006946E348FDF7A1FB022153
:10372000DE48FDF74CFC08BD00B597B002200190C3
:103730000020029005200390002004900590069040
:103740004FF0805007900620089000200990082034
:103750000A9010200B9000200C900E900F9010906B
:103760004FF480501190002012901390149001A8F3
:103770001590169008A8FDF759F801210620FDF7CD
:10378000BDF917B000BD10B54FF40061C448FDF796
:1037900016FCC648FFF768FF4FF40061C048FDF70C
:1037A0000CFCC248FFF760FF10BD00B5CF204FF002
:1037B000D841088000204FF0DA410880812008803D
:1037C00030200880ED204FF0D841088064204FF071
:1037D000DA410880032008801220088081200880B8
:1037E000E8204FF0D841088085204FF0DA4108806A
:1037F0001020088078200880CB204FF0D841088026
:1038000039204FF0DA4108802C2008800020088001
:103810003420088002200880F7204FF0D84108802B
:1038200020204FF0DA410880EA204FF0D84108808C
:1038300000204FF0DA4108800880B1204FF0D841D5
:10384000088000204FF0DA4108801B200880B62055
:10385000410608800A204FF0DA410880A220088043
:10386000C0204FF0D841088035204FF0DA41088061
:10387000C1204FF0D841088011204FF0DA41088074
:10388000C5204FF0D841088045204FF0DA4108802C
:103890000880C7204FF0D8410880A2204FF0DA41BD
:1038A0000880F2204FF0D841088000204FF0DA4124
:1038B000088026204FF0D841088001204FF0DA41DF
:1038C0000880E0204FF0D84108800F204FF0DA4107
:1038D000088026200880242008800B2008800E20E5
:1038E00008800920088054200880A82008804620ED
:1038F00008800C20088017200880092008800F20ED
:1039000008800720088000200880E1204FF0D8417F
:10391000088000204FF0DA410880192008801B2021
:1039200008800420088010200880072008802A20B2
:10393000088047200880392008800320088006205E
:103940000880088030200880382008800F200880F8
:10395000362041060880C8204FF0DA4108802A202E
:103960004FF0D841088000204FF0DA4108800880ED
:103970000880EF2008802B204FF0D84108800020DD
:103980004FF0DA4108800880012008803F2008803D
:103990003A204FF0D841088055204FF0DA41088096
:1039A00011204FF0D84108804048FFF75DFE2920E4
:1039B0004FF0D841088000BD10B5FFF75EFEFFF75D
:1039C000B3FEFFF7E0FEFFF7F0FE10BD012804D0C4
:1039D000022823D003286ED141E036214A06118007
:1039E000C8214FF0DA4211802A214FF0D8421180CD
:1039F00000214FF0DA42118011801180EF211180F7
:103A00002B214FF0D842118000214FF0DA42118073
:103A10001180012111803F2111804CE036214A069E
:103A2000118068214FF0DA4211802A214FF0D842EC
:103A3000118000214FF0DA421180118001211180A4
:103A40003F2111802B214FF0D842118000214FF0EF
:103A5000DA42118011801180EF2111802BE0362194
:103A60004A06118028214FF0DA4211802A214FF0B6
:103A7000D842118000214FF0DA42118011800121DB
:103A800011803F2111802B214FF0D842118000215D
:103A90004FF0DA4211801180118009E0000C0140E2
:103AA000002001400014014000180140FCBF02004A
:103AB000EF21118000BF00BF2C214FF0D8421180B0
:103AC0007047F0B5059D00242A264FF0D8473E8068
:103AD00006124FF0DA473E80C6B23E808618761E48
:103AE000C6F30F263E808618761EF6B23E802B2641
:103AF0004FF0D8473E800E124FF0DA473E80CEB2EC
:103B00003E80CE18761EC6F30F263E80CE18761E57
:103B1000F6B23E802C264FF0D8473E8000BF03E02F
:103B20004FF0DA463580641C02FB03F6A642F7D854
:103B3000F0BD2A224FF0D8431A8002124FF0DA4328
:103B40001A80C2B21A8002121A80C2B21A802B22C4
:103B50004FF0D8431A800A124FF0DA431A80CAB2E3
:103B60001A800A121A80CAB21A80704730B52A2405
:103B70004FF0D8452C8004124FF0DA452C80C4B2A7
:103B80002C808418641EC4F30F242C808418641EB7
:103B9000E4B22C802B244FF0D8452C800C124FF02F
:103BA000DA452C80CCB22C80CC18641EC4F30F24D0
:103BB0002C80CC18641EE4B22C802C244FF0D84505
:103BC0002C8030BD70B505460E4614463146284659
:103BD000FFF7AFFF2C204FF0D84108804FF0DA40BC
:103BE000048070BD10B50021002200234FF0DA40A0
:103BF0000188018803880288C812C002941240EA32
:103C0000441040EAE32010BD70B504460D46294635
:103C10002046FFF78EFF2E204FF0D8410880FFF797
:103C2000E1FF0646304670BD2DE9F04F81468A46D9
:103C300015461E46A5F120001FFA80FB0C23062224
:103C400051464846FFF792FF2C204FF0D84108809C
:103C500000241CE00BEB4B00874901EB800010F8BF
:103C6000048000270FE008F0010018B14FF0DA409F
:103C7000068004E04FF6FF704FF0DA4108804FEA0B
:103C80006808781C87B2062FEDDB601C84B20C2C10
:103C9000E0DBBDE8F08FF0B505460E4614461F4642
:103CA00013E0EA2D03DD002506F10C0086B2B6F51F
:103CB0009A7F01DD0025002622783B4631462846C2
:103CC000FFF7B2FFA81D85B2641C20780028E8D158
:103CD000F0BD2DE9F0470646884614469946002770
:103CE000002525463DB94B46302241463046FFF778
:103CF0009BFFBDE8F08703E00A20B5FBF0F57F1CD1
:103D0000002DF9D115E00A20B4FBF0F100FB1140C1
:103D100000F1300A39467F1E062202FB0161891F2D
:103D200088B24B4652464146FFF77EFF0A20B4FB5D
:103D3000F0F4002CE7D100BFDBE72DE9F04788B0B5
:103D400081468A4616461F46002510231A465146CC
:103D50004846FFF70BFF2C204FF0D8410880314632
:103D6000684600F09FF9002426E01DF814504FF635
:103D7000FF7000EA05256000401C1DF800000543A7
:103D80004FF0000813E005F4004018B14FF0DA409E
:103D9000078004E04FF6FF704FF0DA4108804FF6DD
:103DA000FF7000EA450508F1010000F0FF08B8F1D6
:103DB000100FE8DB601CC4B2102CD6DB08B0BDE8E5
:103DC000F0872DE9F04104460D4616461F4614E0E3
:103DD000E02C03DD002405F1100085B2B5F5987FD5
:103DE00001DD002400253B46324629462046FFF7E8
:103DF000A4FFB61C04F1100084B230780028E7D18B
:103E0000BDE8F0812DE9F04105460E4614461F46F7
:103E10002CE020787E2814DCEA2D03DD002506F155
:103E20000C0086B2B6F59A7F01DD002500262278C7
:103E30003B4631462846FFF7F7FEA81D85B2641CB5
:103E400014E0E02D03DD002506F1100086B2B6F582
:103E5000987F01DD002500263B4622463146284654
:103E6000FFF76BFFA41C05F1100085B22078002835
:103E7000CFD1BDE8F081000014EB000810B5FEF7CB
:103E8000DCF8A249002004F01AF910BD10B5002496
:103E9000FEF7D3F8002002F01BFE9C49002004F03E
:103EA0000EF902229AA19E4804F026F99D49087055
:103EB0000846007860B99C4B4FF400729B499848C3
:103EC00004F0B9FA97490870954804F017FC00E02F
:103ED00000BF01228EA1924804F00EF991490870AA
:103EE00001209149086000209149086000BF00202E
:103EF0008F49086009E000208E498D4A1268885475
:103F00008B480068401C8A49086089480068B0F501
:103F1000007FF0DB844B4FF400728649804804F048
:103F2000A3F980490870844901EB4420814A83A1A8
:103F30000AF07EF9641C7B48007818B97A4800685A
:103F40000028D4D100BF00BF754804F0D7FB10BDD6
:103F500070B58EB004460D461646224678A101A8DB
:103F60000AF066F96949002004F0A9F8062201A9BF
:103F70006B4804F0C1F86B4908700846007868B9CE
:103F8000694B32462946664804F055FA654908707F
:103F9000634804F0B3FB00200EB070BD61480078A8
:103FA000082800D1F8E74FF0FF30F5E770B58EB084
:103FB00004460D461646224661A101A80AF038F9CA
:103FC0005249002004F07BF8022201A9544804F071
:103FD00093F8544908700846007868B9524B324645
:103FE00029464F4804F027FA4E4908704C4804F01F
:103FF00085FB00200EB070BD4A480078042800D12F
:10400000F8E74FF0FF30F5E770B58EB005460E4685
:1040100000242A464AA101A80AF00AF9FFF72EFF58
:104020003A49002004F04BF8012201A93C4804F071
:1040300063F83C4908700846007878BB00BF002050
:104040003B49086009E000203A49394A126888541F
:1040500037480068401C3649086035480068B0F5AC
:10406000007FF0DB304B4FF4007232492C4804F0F3
:10407000FBF82C49087006EB44202E4A2FA10AF0C9
:10408000D7F8641C2748007818B92748006800282A
:10409000D5D100BF00BF00200EB070BDFFE74FF0CC
:1040A000FF30F9E72DE9F04105460C4626786778A0
:1040B000A6F1B000C0EB001101EB401007EB40008F
:1040C000A1384FEA40181149012003F0F8FF0122FE
:1040D0001DA1134804F010F8124908700846007832
:1040E00088B941460E4804F014FB0F4B20222946A4
:1040F0000B4804F0B9F80B490870094804F0FEFABF
:104100000020BDE8F0814FF0FF30FAE7B40700204F
:10411000303A2F6D795F5F44656D6F2E54585400AF
:10412000140C002040000020440200204100002028
:104130004C0200205C1000205C120020257300005F
:10414000303A257300000000303A6D7033706C61B6
:104150007965722F485A4C49422E62696E00000000
:10416000704770472DE9F74F98B04BA101A81A9AF4
:104170000AF05EF84A49032003F0A1FF012201A9D9
:10418000484803F0B9FF484908700846007808BB62
:1041900006AB022207A9434804F066F8BDF81C00EC
:1041A00044F64251884202D01BB0BDE8F08F06AB06
:1041B0000C2212A93B4804F057F812A8FFF7D0FFD1
:1041C00006AB282208A9374804F04EF808A8FFF7E4
:1041D000C8FF00E0E8E7099EDDF82890BDF82E1042
:1041E000714301F11F00C11700EBD16149118C002F
:1041F000B4F5707F00DDD7E70320FFF7E7FB1FFA78
:1042000089F3B2B2DDE91801FFF7B0FCBDF82E006A
:1042100018283BDB002736E0A24604EBDA70421098
:1042200006AB22491F4804F01FF8A34604EBDB70DD
:104230001E4B03EB600104EBDA70421006AB194829
:1042400004F012F84FF000081AE008EB480517498F
:10425000A81C085C1790681C085C16900846405D16
:1042600015901798C010C1021698801041EA4011AD
:10427000159841EAE0004FF0DA41088008F10108A2
:10428000B045E2DB7F1C4F45C6DB00E08CE705480C
:1042900004F034FA00BF87E7303A257300000000CD
:1042A0001C1800207C1C0020500400205C140020FE
:1042B00000B587B001212420FDF78EF80121080305
:1042C000FDF78AF82020ADF8040003208DF80600E1
:1042D00018208DF8070001A9F848FCF7C1FD40201F
:1042E000ADF8040001A9F548FCF7BAFD8020ADF84F
:1042F000040001A9F148FCF7B3FD1020ADF804005B
:104300008DF8070001A9ED48FCF7AAFD1021EB4844
:10431000FCF753FE0020ADF808004FF48270ADF8B2
:104320000A000020ADF80C000220ADF80E000120BC
:10433000ADF810004002ADF812000820ADF81400EE
:104340000020ADF816000720ADF8180002A9DC48DF
:10435000FDF7B6F90121DA48FDF757FA07B000BDBD
:1043600010B5044600BF0221D548FDF7D2FA002857
:10437000F9D02146D248FDF779FA00BF0121D04893
:10438000FDF7C7FA0028F9D0CD48FDF771FAC0B2A1
:1043900010BD10B500241021C848FCF710FE052000
:1043A000FFF7DEFF00BFFF20FFF7DAFF044604F04F
:1043B00001000028F7D11021C048FCF7FEFD10BD18
:1043C00010B51021BD48FCF7FAFD0620FFF7C8FF25
:1043D0001021BA48FCF7F1FD10BD10B50446FFF7F7
:1043E000EFFFFFF7D6FF1021B448FCF7E8FD2020CF
:1043F000FFF7B6FFC4F30740FFF7B2FFC4F307208F
:10440000FFF7AEFFE0B2FFF7ABFF1021AB48FCF7C0
:10441000D4FDFFF7BEFF10BD10B5FFF7D1FF10218F
:10442000A648FCF7CCFDC720FFF79AFF1021A34850
:10443000FCF7C3FDFFF7ADFF10BD70B505460C4698
:104440001646FFF7BDFF10219C48FCF7B8FD02207F
:10445000FFF786FFC4F30740FFF782FFC4F307208E
:10446000FFF77EFFE0B2FFF77BFFB6F5807F01DD4F
:104470004FF4807603E02878FFF772FF6D1C300060
:10448000A6F101018EB2F6D110218C48FCF795FD02
:10449000FFF77FFF70BD2DE9F05F07460E4614461B
:1044A0004FF00008C146C2460025AB4606F0FF0AA1
:1044B000CAF10000C5B22046E11704EB1161C1F357
:1044C0000728E11704EB11610912A4EB012101F0A7
:1044D000FF09BAF1000F20D1B8F1000F05D1224633
:1044E00031463846FFF7A9FF64E009E04FF48072D7
:1044F00031463846FFF7A1FF06F5807607F580774D
:104500005FEA0800A8F1010101F0FF08EED14A4678
:1045100031463846FFF791FF4CE0B8F1000F18D153
:10452000A94510DDA9EB050000F0FF0B2A46314636
:104530003846FFF782FF2E442F445A46314638460C
:10454000FFF77BFF36E0224631463846FFF775FF1E
:1045500030E0601B84B22046E11704EB1161C1F327
:104560000728E11704EB11610912A4EB012101F006
:10457000FF092A4631463846FFF75FFF2E442F4495
:1045800009E04FF4807231463846FFF756FF06F5D2
:10459000807607F580775FEA0800A8F1010101F055
:1045A000FF08EED1B9F1000F04D04A463146384633
:1045B000FFF743FFBDE8F09F70B505460C46164671
:1045C00010213E48FCF7FBFC0320FFF7C9FEC4F3B3
:1045D0000740FFF7C5FEC4F30720FFF7C1FEE0B2B6
:1045E000FFF7BEFE04E0FF20FFF7BAFE28706D1C47
:1045F0003000A6F101018EB2F5D110212F48FCF751
:10460000DCFC70BD2DE9F0410024002500260027C8
:1046100010212A48FCF7D3FC9F20FFF7A1FEFF20C2
:10462000FFF79EFE0546FF20FFF79AFE0646FF2095
:10463000FFF796FE074610212048FCF7BEFC280431
:1046400040EA062040EA07042046BDE8F08110B5A4
:10465000002410211948FCF7B2FCAB20FFF780FEC4
:10466000FF20FFF77DFEFF20FFF77AFEFF20FFF718
:1046700077FEFF20FFF774FE044610210F48FCF779
:104680009CFC204610BD10B5044610210B48FCF7D9
:1046900096FC0320FFF764FEC4F30740FFF760FEBB
:1046A000C4F30720FFF75CFEE0B2FFF759FE10BD30
:1046B00010B5FF20FFF754FE10BD000000080140B8
:1046C0000030014010B5044600BF02211648FDF736
:1046D00020F90028F9D021461348FDF7C7F800BF9C
:1046E00001211148FDF715F90028F9D00E48FDF712
:1046F000BFF810BD10B510210C48FCF760FCB920C4
:10470000FFF72EFE10210948FCF757FC10BD10B52D
:1047100010210648FCF753FCAB20FFF721FE1021C7
:104720000248FCF74AFC10BD00300140000801407F
:1047300008B501218820FCF74FFE0120ADF80000EC
:1047400010208DF8030003208DF8020069460E4802
:10475000FCF786FB8020ADF8000069460B48FCF7AB
:104760007FFB4FF48070ADF8000069460748FCF706
:1047700077FB01210448FCF720FC4FF4C07103488B
:10478000FCF71BFC08BD0000000C0140001C0140B0
:1047900008B54FF4C060FBF7D7FD17208DF8000077
:1047A00001208DF801008DF802008DF803006846A5
:1047B000FBF7CFFD08BD0EB501218120FCF70CFEF3
:1047C000FFF7E6FF4FF40070ADF8080028208DF8E1
:1047D0000B0002A92A48FCF743FB09210520FCF73E
:1047E00055FC4FF40070009000208DF804000C2060
:1047F0008DF8050001208DF806006846FBF74AFF9A
:104800000EBD08B501214FF4C070FCF7E5FD802016
:10481000ADF8000001208DF8020010208DF8030093
:1048200069461848FCF71CFB4FF40060ADF8000027
:1048300069461348FCF714FB4020ADF80000012046
:104840008DF8020048208DF8030069460C48FCF7FB
:1048500007FB4FF48060ADF8000001208DF80200E6
:1048600010208DF8030069460548FCF7F9FA4FF46B
:1048700080610348FCF7A3FBFFF79DFF08BD000024
:10488000001C01400020014010B5FFF7BAFF10BD29
:1048900001B5002007E00C2100BF0A00A1F10103CF
:1048A000D9B2FAD1401C00998842F4D308BD70B542
:1048B00006464FF40061FE48FCF781FB8021FD486D
:1048C000FCF77DFB002421E0C4F1070046FA00F06C
:1048D00000F001052DB14FF40061F548FCF76DFBC8
:1048E00004E04FF40061F248FCF769FB0520FFF794
:1048F000CFFF8021EF48FCF760FB0520FFF7C8FFE2
:104900008021EC48FCF75BFB601CC4B2082CDBDBAD
:1049100070BD70B500244FF40061E548FCF74FFB13
:104920008021E448FCF749FB002518E08021E1489C
:10493000FCF745FB4021DE48FCF725FB08B10120D0
:1049400000E000200646C5F10B0006FA00F0204307
:1049500084B28021D748FCF730FB681CC5B20C2D0F
:10496000E4DBC4F30B04204670BD10B504462046BA
:10497000FFF79DFFFFF7CDFF10BD38B504460D468C
:104980001F2001231422294600902046FFF799F8A2
:104990001F20A5F10A0291B204F10A02009090B220
:1049A00014230122FFF78DF838BD2DE9F0410446AC
:1049B0000D469020FFF7D9FF06460120FFF768FF5C
:1049C000D020FFF7D2FF074626602F60BDE8F081B8
:1049D000F0B597B000274821684609F0D9F800BF24
:1049E00015A916A8FFF7E1FF16984DF8270009A8AA
:1049F000159940F82710781CC7B24FF40071AC48E5
:104A0000FCF7C1FA08B9092FEADB4FF40071A84896
:104A1000FCF7B9FA012802D10020A7490870092F34
:104A20007ED1DDE90001084402990844032190FB8E
:104A3000F1F01290DDE903010844059908440321CF
:104A400090FBF1F01390DDE9060108440899084451
:104A5000032190FBF1F01490DDE91201441ADDE925
:104A60001301451A12991498461A002C01DD2046AC
:104A700000E060420446002D01DD284600E0684267
:104A80000546002E01DD304600E070420646022C4D
:104A900006DD022D04DD022E02DD002017B0F0BD80
:104AA000AC4215DAA64209DA149A1299881800EB7A
:104AB000D071C1F34F01814A11801EE0DDE912126D
:104AC000881800EBD071C1F34F017C4A118014E0CB
:104AD000AE4209DA149A1299881800EBD071C1F32A
:104AE0004F01764A118008E0DDE91312881800EBC7
:104AF000D071C1F34F01714A1180DDE90910014401
:104B00000B980844032190FBF1F01290DDE90C10A2
:104B100001440E980844032190FBF1F0139000E04B
:104B20005AE0DDE90F10014411980844032190FB7D
:104B3000F1F01490DDE91201441ADDE91301451A80
:104B400012991498461A002C01DD204600E06042BC
:104B50000446002D01DD284600E068420546002E8F
:104B600001DD304600E070420646022C05DD022DD4
:104B700003DD022E01DD002090E7AC4215DAA642EB
:104B800009DA149A1299881800EBD071C1F34F0119
:104B90004A4A51801EE0DDE91212881800EBD071FC
:104BA000C1F34F01454A518014E0AE4209DA149A2C
:104BB0001299881800EBD071C1F34F013F4A518020
:104BC00008E0DDE91312881800EBD071C1F34F0142
:104BD0003A4A5180394861E7012F06DD374900988C
:104BE000088009984880084658E7002056E72DE9D4
:104BF000F04397B00025502101A808F0C9FF002418
:104C000000BF15A916A8FFF7D0FE01A9169841F814
:104C100025000BA8159940F82510681CC5B24FF463
:104C200000712348FCF7AFF908B90A2DE9DB4FF40E
:104C300000711F48FCF7A7F910B100201E49087049
:104C40000A2D72D1019E3746DDF82C80C146012421
:104C500011E001A850F82400B04203DA01A850F88E
:104C6000246007E001A850F82400B84202DD01A842
:104C700050F82470641C0A2CEBDB012411E00BA813
:104C800050F82400404503DA0BA850F8248007E0D0
:104C90000BA850F82400484502DD0BA850F82490DA
:104CA000641C0A2CEBDBDDE901010844039907E0F1
:104CB000001C01400020014028000020CE040020FC
:104CC000084404990844059908440699084407993A
:104CD000084408990844099908440A990844801B23
:104CE000C01BC0F3CF00FE490880DDE90B10014472
:104CF0000D9801440E9801440F9801441098014406
:104D000011980144129801441398014414980844DE
:104D1000A0EB0800A0EB0900C0F3CF00F0494880E9
:104D2000084617B0BDE8F083FFE70020F9E72DE95A
:104D3000F04705460C4616464FF0010921882289A6
:104D4000891AE38862899A1A5143A2882389D31A5F
:104D500067886289BA1A03FB121009F0C5F8C6E920
:104D60000C0100221346D6E90C71384609F0F4F81C
:104D700002D14FF0000989E029882A89891AE3883D
:104D800062899A1A5143AA882B89D31A6788628943
:104D9000BA1A03FB121009F0A7F8C6E9000121882E
:104DA0002289891AAA882B89D21A51432A88D21AB1
:104DB000A3882789DB1B02FB131009F095F8C6E9CD
:104DC00002012189AA885143A2882B8902FB131171
:104DD0006288514322885A4323892F8803FB172373
:104DE000E28803FB0212A18879432388AF8803FB82
:104DF0001713618903FB012009F076F8C6E9040165
:104E00006A886989511AE38862899A1A5143EB8842
:104E10006A899B1A67886289BA1A03FB121009F023
:104E200063F8C6E9060121882289891AEB886A8914
:104E30009A1A51436B886A899A1AA3882789DB1BBF
:104E400002FB131009F050F8C6E908012189EA882D
:104E50005143A3886A8903FB121162885143228857
:104E60006B895A4323896F8803FB1723E28803FB6E
:104E70000213A18879432788EA8807FB1212618907
:104E800002FB013009F030F8C6E90A014846BDE8E6
:104E9000F0872DE9F04F8DB04FF00009CA46CB46A0
:104EA00000200C900220FEF791FD002431E04FF627
:104EB000FF70F0234FF4A072002100900846FEF727
:104EC00000FE1F2387A26E210846FEF7E4FE1F2383
:104ED000621C5A21A020FEF7FCFE8848FFF7D8FC90
:104EE000874A02EB84025188854A32F82400FFF792
:104EF00044FD00BFFFF77BFE0546002DFAD0288851
:104F0000804921F82400688801EB84014880601CF6
:104F1000C4B2042CCBDB7C4A7A497948FFF707FFFF
:104F20007849C88908F0F1FFCDE900017648D0E959
:104F300002733A46009808F0F6FECDE90401714983
:104F4000888908F0E2FFCDE900016F49D1E90073DB
:104F50003A46019908F0E7FECDE90201DDE90423B4
:104F600008F03AFECDE906016748D0E904733A46F5
:104F7000069808F031FECDE908016348D0E90C73CA
:104F80003A46089808F041FFCDE90A0108F0CAFF47
:104F90001FFA80F95B49C88908F0B7FFCDE9000125
:104FA0005949D1E908733A46019908F0BCFECDE9A8
:104FB00004015449888908F0A8FFCDE9000152484E
:104FC000D0E906733A46009808F0ADFECDE902013B
:104FD000DDE9042308F000FECDE906014A48D0E9E6
:104FE0000A733A46069808F0F7FDCDE908014649EC
:104FF000D1E90C733A46099908F007FFCDE90A0197
:1050000008F090FF1FFA80FA3D488089484504DA8D
:105010003B488089A9EB000003E039488089A0EB78
:1050200009001FFA80FB3648C089504504DA34482D
:10503000C089AAEB000003E03148C089A0EB0A0058
:105040001FFA80FB4FF6FF70F0234FF4A07200218F
:1050500000900846FEF735FDBBF10A0F02DC0C9804
:105060000A2812DD1F2329A264210846FEF713FE39
:105070001F232AA278216420FEF70DFE2A48FFF79D
:1050800007FC01200DB0BDE8F08F1F480022274B20
:10509000D0E90071384608F046FECDE90A011A4908
:1050A000D1E90C733A460B9908F0AFFE204A03C2CF
:1050B000154800221D4BD0E90271384608F033FE36
:1050C000CDE90A011049D1E90C733A460B9908F071
:1050D0009CFE174AC2E902010B480022134B29E04B
:1050E000D2040020546F7563682043616C6962725A
:1050F0006174652E2E2E2E2E2E000000FFFF030061
:10510000BA040020C8200020D820002043616C6928
:105110006272617465206661696C00007472792046
:10512000616761696E000000FFFF01000000F03F51
:1051300088040020D0E90471384608F0F4FDCDE978
:105140000A01CE49D1E90C733A460B9908F05DFE8D
:10515000CB4AC2E90401C949D1E906710022C94B11
:10516000384608F0E0FDCDE90A01C448D0E90C73E7
:105170003A460A9808F049FEC14AC2E90601BF4909
:10518000D1E908710022BF4B384608F0CCFDCDE9CB
:105190000A01BA48D0E90C733A460A9808F035FE7D
:1051A000B74AC2E90801B549D1E90A710022B54BF5
:1051B000384608F0B8FDCDE90A01B048D0E90C73D3
:1051C0003A460A9808F021FEAD4AC2E90A01452094
:1051D000AD4908700020FFF700F901220021AA481C
:1051E000FFF759F930220121A548FFF754F90026AD
:1051F0000AE0A34800EBC601D1E900733A46A3A038
:1052000009F006F8701CC6B2062EF2DB1F23A3A21B
:1052100064210846FEF73FFDA548FFF739FB002053
:1052200030E708B54FF6FF70F0234FF4A07200216D
:1052300000900846FEF745FC00201E23012201468F
:1052400000902720FEF73DFC0020012328221D218D
:105250000090FEF736FC1F2396A20A210720FEF7D6
:105260001AFD4FF4FC601E232822194600900020EE
:10527000FEF727FC1F201E2328223C21009000203F
:10528000FEF71FFC4FF61F001E2328225A21009014
:105290000020FEF716FC4FF6E0701E23282278212E
:1052A00000900020FEF70DFC40F2FF701E23282224
:1052B000962100900020FEF704FC00201E232822E7
:1052C000B4210090FEF7FDFB4FF478401E23282206
:1052D000D22100900020FEF7F4FB7548FFF7D8FAC2
:1052E00008BD2DE9F04F89B081460C4692464FF03B
:1052F000010B14B94FF0000B66E00022614BDAE9B4
:105300000C51284608F028FE5CD0608808F0FDFDAE
:1053100005465B48D0E902733A46284608F003FD8B
:10532000CDE90201208808F0F0FD07465448D0E995
:1053300000532A46384608F0F6FCCDE90001DDE9C5
:10534000022308F049FCCDE904014D48D0E904539B
:105350002A46049808F040FCCDE9060108F0E2FD79
:10536000A9F80000608808F0D0FD07468846444947
:10537000D1E908532A46414608F0D5FCCDE902019F
:10538000208808F0C2FD074688463D49D1E906530A
:105390002A46414608F0C7FCCDE90001DDE90223B9
:1053A00008F01AFCCDE904013549D1E90A532A462F
:1053B000059908F011FCCDE9060108F0B3FDA9F844
:1053C000020001E04FF0000B584609B0BDE8F08F35
:1053D000F8B506460D462C46282E30DA1E2D24DD63
:1053E0003C2C02DA4FF4FC601CE05A2C01DA1F203E
:1053F00018E0782C02DA4FF61F0013E0962C02DA40
:105400004FF6E0700EE0B42C02DA40F2FF7009E0D3
:10541000D22C01DA002005E0F02C02DA4FF47840BB
:1054200000E01F202449088025E00020F0234FF4ED
:105430008C72014600902820FEF743FBF8BD1E4801
:10544000028829463046FEF7BDFB711C88B21A4916
:105450000A882946FEF7B6FB681C81B21648028806
:105460003046FEF7AFFB6A1C91B2721C90B2124A32
:105470001288FEF7A7FB00BFE0E70000D82000205D
:10548000880400200000F03FB80400200D0A2074BA
:1054900078203D20254C46200D0A000043616C69B0
:1054A0006272617465205375636365640000000077
:1054B000FFFF0100434C5200D604002030B5ADF58B
:1054C000177D05460020FE4908700120FEF77EFA90
:1054D0004FF6FF709123CE22562100900C20FEF74C
:1054E000F0FAF8480378F8480278F8A18AA808F09A
:1054F0009FFE1F238AAAEB211E20FEF783FCF7489C
:105500000278F7A18AA808F093FE1F238AAAEB214C
:105510009B20FEF777FC0122F4A101A802F0ECFD2C
:10552000F849087000242CE0681E082202FB0040A5
:10553000322200FB02F101A803F0EBF8F1490870F8
:10554000F14B182291A901A802F08EFEED490870D6
:1055500000208DF85B02681E082101FB0040421C00
:1055600091ABEAA18AA808F063FE04EBC4005722BD
:1055700002EB40011F238AAA1620FEF743FC601CA1
:10558000C4B2681E082101FB0040E2490968884254
:1055900001D2082CC8DB01A803F0B0F8D949087083
:1055A0000DF5177D30BD08B5DB4800780D2877D2A2
:1055B000DFE800F076132236070DAB4F77D2BBE859
:1055C000FA0001F06CF90020D349087005E101F000
:1055D00042F90020D0490870FFE0D0480078012847
:1055E00003D10220CD49087002E00120CB490870A8
:1055F0000020C9490870F0E0C9480088002803DC91
:105600000020C749088004E0C5480088401EC449FE
:1056100008800020C04908700320C0490870DCE001
:10562000BC480068401EBE490988884205D9BC486C
:105630000088401CBA49088004E0B6480088401E33
:10564000B74908800020B44908700320B3490870A6
:10565000C3E09B480078002804DD99480078401E8C
:10566000974908700120FEF7B1F94FF6FF709123BA
:105670000822582100900C20FEF723FA904909785F
:1056800001EBC101672202EB4101C1F5A07188B2B3
:10569000A4A2DC21FEF766FD00209F4908709CE073
:1056A0009AE087480078072811DA87480078401E7A
:1056B00083490978082202FB001196480068401EC1
:1056C000814204D27E480078401C7D490870012048
:1056D000FEF77CF94FF6FF709123082258210090C5
:1056E0000C20FEF7EEF97649097801EBC10167223B
:1056F00002EB4101C1F5A07188B28AA2DC21FEF75C
:1057000031FD00208449087067E06F480078401E32
:105710006B49097801EBC0008149088003207F496B
:10572000087000207C49087057E067480078654998
:105730000978884209DA64480078401C6249087098
:1057400008460078FFF7BAFE02E001205E490870C3
:1057500000207149087040E05B480078012809DDAD
:1057600059480078401E5849087008460078FFF7ED
:10577000A5FE03E0534800785349087000206649AD
:1057800008702AE050480078401E4D4909780822E8
:1057900002FB00106249088000205F490870032066
:1057A0005E49087019E0FFE76548007840B901F0EC
:1057B000A4F801206249087062A008F029FD07E002
:1057C00001F0B4F800205E49087061A008F020FDE7
:1057D00000205149087000E000BF00BF08BDF8B5C7
:1057E0000646012231465D4802F086FC45490870B4
:1057F00008460078B0B1314659A008F009FD574875
:1058000002F07CFF3F49087045480088401C80B288
:10581000434908803F490968884202D30020404933
:105820000880F8BD0120FEF7D1F84FF6FF709123F4
:105830000822582100900C20FEF743F922490978EC
:10584000491E374A1288A2EBC10101EBC101672250
:1058500002EB4101C1F5A07188B24CA2DC21FEF738
:1058600081FC294B4FF400724F493C4802F0FCFC8C
:10587000244908704C4CA1694CA008F0C9FCA069EF
:10588000022803D3218B88B201F0CEF8E3E023484D
:105890000078022802D1FFF786FEDCE001201F49D4
:1058A00008704148464909784FF4006202FB01053F
:1058B000154B2946294802F0D7FC1249087081E0AF
:1058C000D8040020E5040020E4040020B5DA2025F7
:1058D00030642F25306420D2B3000000E1060020A0
:1058E000D2F4C1BF3A25326400000000303A6D7036
:1058F00033706C617965722F6C63646C6973742E9C
:1059000074787400E6040020E80400202530642E3A
:1059100025730000E0040020DD040020DC040020EA
:10592000DA0400202F6D7033706C617965722F7509
:10593000695F73656C6563742E626D7000000000B2
:10594000D90400200D0A206C6F7564206F6E000072
:105950000D0A206C6F7564206F666600402300207E
:10596000726561642066696C6520257320657272BA
:105970006F72202021206F70656E20616E6F7468D9
:1059800065722066696C650D0A0000002F6D70332A
:10599000706C617965722F75695F706C6179696E81
:1059A000672E626D70000000802500200D0A2073B4
:1059B000616D70726174653A202564487A00000058
:1059C000E00600200846007830B1084602783146EB
:1059D000F4A008F01DFC43E001E0FFF7E4FDF74808
:1059E000806D00F0010028B1F448006800F4003038
:1059F0000028F2D04FF42020FAF710FEF04800689B
:105A00004108284601F02FF8EE480078C0F1010067
:105A1000EC490870EC488068EB49C968884219D1A4
:105A2000EAA008F0F5FBEB480068401EEA49098847
:105A3000884208D9E8480088401CE74908800320CC
:105A4000E649087005E00020E34908800320E349A7
:105A5000087005E000BFE148007803287FF417AF25
:105A600000BFD94802F04AFE00F0CFFF00BFD8E6E1
:105A70002DE9FF5F81460027B8460020039082464B
:105A8000D748029001224946CF4802F035FBD5495C
:105A9000087008460078C0B14946AFF23C1008F0E3
:105AA000B7FBC94802F02AFECE490870CA480088F0
:105AB000401C80B2C8490880C6490968884202D3A0
:105AC0000020C5490880BDE8FF9F03F0BDFA0190A2
:105AD00036E20120FDF77AFF4FF6FF70912308228E
