:020000040800F2
:100000007087002045010008F9010008FB01000885
:1000100005020008090200080D02000800000000A7
:1000200000000000000000000000000011020008B5
:100030001302000800000000150200081702000863
:100040005F0100085F0100085F0100085F01000810
:100050005F0100085F0100085F0100085F01000800
:100060005F0100085F0100085F0100085F010008F0
:100070005F0100085F0100085F0100085F010008E0
:100080005F0100085F0100085F0100085F010008D0
:100090005F0100085F0100085F0100085F010008C0
:1000A0005F0100085F0100085F0100085F010008B0
:1000B0005F0100085F0100085F0100085F010008A0
:1000C0005F0100085F0100085F0100085F01000890
:1000D0005F0100085F0100085F0100085F01000880
:1000E0005F0100085F0100085F0100085F01000870
:1000F0005F0100085F0100085F0100085F01000860
:100100005F0100085F0100085F0100085F0100084F
:100110005F0100085F0100085F0100085F0100083F
:100120005F0100085F0100085F0100085F0100082F
:10013000DFF80CD00AF04EFA0048004769010008C9
:10014000708700200648804706480047FEE7FEE724
:10015000FEE7FEE7FEE7FEE7FEE7FEE7FEE7FEE777
:10016000F71200083101000800F0F2F801F04AFB34
:1001700000F096F800F064F808A00AF0CBFA01F05D
:1001800075FE15A00AF0C6FA01F01DFE01F0CCFCC8
:1001900003E01848006801F097FEFAE70D0A2A2AE2
:1001A0002A2A2A2A2A2A2A2A2A2A2A53544D333228
:1001B0005F656E63386A36302B6C776970D2C6D64D
:1001C000B2CAB5D1E92A2A2A2A2A2A2A2A2A2A2A76
:1001D0002A2A0D0A000000004C574950206D6F7507
:1001E0006E7465642E495020616464722069730ADC
:1001F0000000000000000020704709A00AF08AFA01
:1002000000BFFEE700BFFEE700BFFEE700BFFEE75E
:1002100070477047704710B501F050FE10BD0000E8
:1002200020766F696420486172644661756C745F02
:1002300048616E646C657228766F696429200000DD
:1002400008B50121882000F0F9FB0120ADF800007D
:1002500010208DF8030003208DF8020069460E4837
:1002600000F030F98020ADF8000069460B4800F03E
:1002700029F94FF48070ADF800006946074800F096
:1002800021F90121044800F0CAF94FF4C071034874
:1002900000F0C5F908BD0000000C0140001C014041
:1002A00030B5274800686422B0FBF2F1B1F1807FDD
:1002B00001D301201DE021F07F40401E4FF0E022DD
:1002C000506150170F22002807DA13071D0E1D4B2F
:1002D00000F00F04241F1D5503E013071C0E1A4BDA
:1002E0001C5400BF00204FF0E022906107201061F5
:1002F000002008B100BFFEE74FF0E020006920F0C9
:1003000001004FF0E021086130BD01B50F490098B0
:1003100008604FF0E020006940F001004FF0E0215C
:10032000086100BF094800680028FBD108BD0748E4
:10033000006820B105480068401E04490860704705
:100340001C00002018ED00E000E400E004000020A4
:1003500000B585B0012144F2040000F06FFB4FF4BA
:100360000070ADF8100018208DF8130003208DF8F0
:10037000120004A9214800F0A5F84FF48060ADF800
:10038000100004208DF8130004A91C4800F09AF80E
:100390004FF4E13000900020ADF80400ADF8060005
:1003A000ADF80800ADF80C000C20ADF80A00694665
:1003B000134800F070FD0121114800F0F8FD05B070
:1003C00000BD70B504460D46E1B20D4800F05CFE7C
:1003D00000BF80210A4800F0C5FE0028F9D0204661
:1003E00070BD10B5044600BF2021054800F0BAFEDC
:1003F0000028F9D0024800F04BFE10BD0008014073
:100400000038014010B50446CC48844208D101218F
:10041000042000F02DFB0021042000F029FB46E021
:10042000C748844208D10121082000F021FB0021A7
:10043000082000F01DFB3AE0C248844208D10121A7
:10044000102000F015FB0021102000F011FB2EE021
:10045000BD48844208D10121202000F009FB002181
:10046000202000F005FB22E0B848844208D1012199
:10047000402000F0FDFA0021402000F0F9FA16E0DB
:10048000B348844208D10121802000F0F1FA002114
:10049000802000F0EDFA0AE0AE48844207D1012145
:1004A000801500F0E5FA0021A01500F0E1FA10BD7A
:1004B00010B50121084600F0DBFA0021012000F010
:1004C000D7FA10BD2DE9F041024600250026002094
:1004D00000230024002791F803C00CF00F0591F8C9
:1004E00003C00CF0100CBCF1000F03D091F802C057
:1004F0004CEA050591F800C0BCF1000F31D014683A
:1005000000202BE04FF0010C0CFA00F3B1F800C012
:100510000CEA03069E4220D183004FF00F0C0CFA28
:1005200003F7BC4305FA03FC4CEA040491F803C04A
:10053000BCF1280F06D14FF0010C0CFA00FCC2F8F8
:1005400014C00AE091F803C0BCF1480F05D14FF088
:10055000010C0CFA00FCC2F810C0401C0828D1D3D2
:100560001460B1F800C0BCF1FF0F34DD5468002006
:100570002EE000F1080C4FF0010808FA0CF3B1F876
:1005800000C00CEA03069E4221D183004FF00F0CFD
:100590000CFA03F7BC4305FA03FC4CEA040491F897
:1005A00003C0BCF1280F05D100F1080C08FA0CF8C3
:1005B000C2F8148091F803C0BCF1480F07D100F1D4
:1005C000080C4FF0010808FA0CF8C2F81080401C23
:1005D0000828CED35460BDE8F0814FF6FF7101804A
:1005E000022181700421C170704702460020936887
:1005F0000B400BB1012000E00020704701468868E5
:1006000080B2704702460020D3680B400BB1012036
:1006100000E0002070470146C86880B27047016161
:100620007047416170470AB1016100E04161704764
:10063000C16070474FF480320A43826181618261F8
:1006400082698269704702460020434B18684FF662
:100650008073184040EA021008433F4B186070470F
:100660003E49C8617047F0B50A46002300240021C6
:10067000002500F00046B6F1004F02D1364EF16978
:1006800001E0354E7168C0F3034583B200F44016B3
:10069000B6F5401F08D121F070612F4E766826F024
:1006A00070662D4F7E6012E000F48016B6F5801F54
:1006B00006D1032606FA05F4A14341F0706106E075
:1006C000460D360103FA06F6B14341F0706122B1DE
:1006D000460D360103FA06F6314300F00046B6F146
:1006E000004F02D11C4EF16101E01B4E7160F0BD64
:1006F00030B500228B071C0F0F2303FA04F2164BB0
:1007000008338C1053F824309343134C08348D1065
:1007100044F8253023468C1053F824308C07240FDE
:1007200000FA04F423430C4C08348D1044F82530AF
:1007300030BD0A49DC310860704700000008014004
:10074000000C01400010014000140140001801405D
:10075000001C014000200140000001400000204238
:10076000DF48006840F00100DD4908600846406845
:10077000DC490840DA49486008460068DA49084020
:10078000D74908600846006820F4802008600846C1
:10079000406820F4FE0048604FF41F0088607047F6
:1007A000CF49096821F48031CD4A116011460968AA
:1007B00021F480211160B0F5803F03D0B0F5802F87
:1007C0000ED106E0C649096841F48031C44A11607F
:1007D00007E0C349096841F4A021C14A116000E063
:1007E00000BF00BF704710B5014600220023002063
:1007F0004A11012A02D1BA4C236806E0022A02D12A
:10080000B74C236A01E0B64C636A01F01F02012471
:1008100094401C400CB1012000E0002010BD38B510
:10082000002000900024002500BF3120FFF7DBFFEF
:1008300005460098401C00900098B0F5A06F01D0CC
:10084000002DF2D03120FFF7CEFF08B1012400E0E7
:100850000024204638BD01460020A14A106820F03F
:10086000F80040EAC10010607047A0490860704776
:10087000024600209A4B586820F47C1042EA01039B
:100880001843974B5860704798490866704701466F
:100890000020934A506820F00300084350607047DE
:1008A0008F48406800F00C007047014600208C4AD9
:1008B000506820F0F0000843506070470146002067
:1008C000874A506820F4E060084350607047014652
:1008D0000020834A506820F4605040EAC100506014
:1008E000704729B17E4A527A02437D4B5A7204E026
:1008F0007B4A527A82437A4B5A7270477B49D8318D
:100900000860704701460020754A506820F4404056
:100910000843506070470021714A20321170704ABC
:1009200082F82010012802D004280AD104E0012115
:100930006B4A2032117005E00521694A203211709E
:1009400000E000BF00BF7047694908607047644914
:10095000096A0143624A1162704765494439086077
:10096000704730B500210022002400235C4D6D68E3
:1009700005F00C0121B1042905D0082923D105E097
:100980005C4D056022E05B4D05601FE0544D6D68D5
:1009900005F47012524D6D6805F48034022505EBA4
:1009A00092421CB9544D554305600BE04C4D6D68A7
:1009B00005F400351DB1504D5543056002E04D4D25
:1009C0005543056002E04B4D056000BF00BF444D3C
:1009D0006D6805F0F0010909484D6B5C0568DD4064
:1009E00045603F4D6D6805F4E061090A434D6B5C5D
:1009F0004568DD4085603A4D6D6805F46051C90A6F
:100A00003E4D6B5C4568DD40C560354D6D6805F455
:100A10004041890B3A4D6B5CC568B5FBF3F5056148
:100A200030BD29B12E4A526902432D4B5A6104E070
:100A30002B4A526982432A4B5A61704729B1284A8E
:100A400092690243264B9A6104E0254A92698243E7
:100A5000234B9A61704729B1214AD2690243204B46
:100A6000DA6104E01E4AD26982431D4BDA617047A5
:100A700029B11B4AD2680243194BDA6004E0184AD4
:100A8000D2688243164BDA60704729B1144A126962
:100A90000243134B1A6104E0114A12698243104B5E
:100AA0001A61704712494039086070470F49C8649D
:100AB00070470B49C87170470948406A40F0807020
:100AC00007494862704701460020054A92680A407B
:100AD0000AB1012000E00020704701498872704788
:100AE000001002400000FFF8FFFFF6FE0000424247
:100AF0008004424200127A0000093D0008000020F4
:100B00001800002010B50446BE48844208D10121D7
:100B10008014FFF7ADFF0021A014FFF7A9FF16E036
:100B2000B948844208D101210014FFF7AEFF00212B
:100B30002014FFF7AAFF0AE0B448844207D101213C
:100B4000C013FFF7A2FF0021E013FFF79EFF10BDC7
:100B500010B50022028802F441520B884C882343CE
:100B60008C882343CC8823430C8923434C8923431B
:100B70008C892343CC8923431A430280838B4FF211
:100B8000FF74234083830B8A038210BD2DE9F04F4D
:100B900085B005460C464FF0000902274FF00008CB
:100BA0004FF0010B0026B246A88B4FF240010840DF
:100BB000A88302202884B5F81C90A068022801D1DF
:100BC00000BF38E0A08810B94FF0010B01E04FF0F2
:100BD000020B8D48854200D100E000BF6846FFF758
:100BE000C0FEDDF800A0E088B0F5007F0AD14FEA32
:100BF0001A2000EB80004000A168B0FBF1F0401D1E
:100C000086B20BE04FEA4B10BAFBF0F000EB80002D
:100C10004000A168B0FBF1F0401D86B20A20B6FB8F
:100C2000F0F606F00108A6EB0800C0F34F074FF6F8
:100C3000FF7000EA0828022F01DBFF2F02DD0227E8
:100C40004FF00008E08840EA080038432884A08874
:100C5000A1890843618808432188084340F4006063
:100C600040EA0909A5F81C9005B0BDE8F08F002105
:100C7000018041808180C180018141818181C18168
:100C80000721018270470021018041808180C1805D
:100C90000221816000218181704721B1028842F0E8
:100CA0004002028004E002884FF6BF731A400280BF
:100CB000704721B1828B42F48062828304E0828B90
:100CC0004FF6FF331A408283704730B5002400236B
:100CD0000C110125A540ABB21AB185881D43858052
:100CE00002E085889D43858030BD1AB183880B431F
:100CF000838002E083888B438380704781817047C3
:100D00000146888970474FF6FF62914204D00288FD
:100D100042F48072028004E002884FF6FF631A40BA
:100D20000280704721B1828842F00402828004E090
:100D300082884FF6FB731A408280704702884FF218
:100D4000FF731A40028002880A43028070470188BC
:100D500041F480510180704721B1028842F4005271
:100D6000028004E002884DF6FF731A40028070474B
:100D700002460020012901D0108B00E0908A7047C4
:100D80000146088A7047B1F5804F04D1028842F4C9
:100D90008042028004E002884BF6FF731A40028012
:100DA00070470246002013890B400BB1012000E080
:100DB00000207047CA4302817047F0B50246002008
:100DC00000240023002501F00F070126BE40B4B225
:100DD0000B1101269E40B3B2968806EA03051689D8
:100DE000264016B10DB1012000E00020F0BD10B585
:100DF000002201F00F040123A3409AB2D3430381E0
:100E000010BD00000030014000380040003C0040B0
:100E100010B50446FB48844209D101218803FFF73D
:100E200027FE00214FF48040FFF722FE32E0F64813
:100E3000844209D101214804FFF727FE00214FF425
:100E40000030FFF722FE25E0F048844209D101215D
:100E50008804FFF71AFE00214FF48020FFF715FEEB
:100E600018E0EB48844209D10121C804FFF70DFEC8
:100E700000214FF40020FFF708FE0BE0E548844214
:100E800008D101210805FFF700FE00214FF4801072
:100E9000FFF7FBFD10BD2DE9F04786B005460E4675
:100EA0000024A24600BFA1460027B08900B100BFC0
:100EB0002F462C8A4CF6FF700440F08804432C82A5
:100EC000AC894EF6F3100440B0883189084371892B
:100ED00008430443AC81AC8A4FF6FF400440B0891C
:100EE0000443AC8201A8FFF73CFDC648874202D10B
:100EF000DDF810A001E0DDF80CA0A88900F40040A6
:100F000040B10AEBCA0000EB0A1031684900B0FB9F
:100F1000F1F807E00AEBCA0000EB0A10316889001B
:100F2000B0FBF1F86420B8FBF0F004012009642163
:100F300001FB1089A88900F4004040B1322000EB89
:100F4000C900B0FBF1F000F00700044308E03220D4
:100F500000EB09106421B0FBF1F000F00F00044336
:100F60002C8106B0BDE8F0874FF4165101600021D6
:100F70008180C18001810C214181002181817047E4
:100F800010B502460020108A4FF2FF0318400B886C
:100F90004C8823438C882343CC88234318431082F6
:100FA00010BD0021018041808180C180704721B146
:100FB000828942F40052828104E082894DF6FF73F7
:100FC0001A4082817047F0B50346002400260025B0
:100FD000002040F66A17B94200D100BF1846C1F39D
:100FE000421401F01F06012707FA06F5012C01D172
:100FF0000C3004E0022C01D1103000E014301AB1A2
:1010000007682F43076002E00768AF430760F0BD41
:101010001AB1838A0B43838202E0838A8B438382E3
:101020007047028A4FF6F0731A400282028A0A431E
:101030000282704782894FF2FF731A40828182894F
:101040000A438281704721B1828942F00202828183
:1010500004E082894FF6FD731A4082817047028A4C
:101060004FF6DF731A400282028A0A4302827047F7
:1010700021B1028A42F48042028204E0028A4BF6E5
:10108000FF731A4002827047C1F3080282807047E2
:1010900001468888C0F308007047818941F001014A
:1010A00081817047028BD2B20283028B42EA012215
:1010B00002837047028B02F47F420283028B0A4351
:1010C0000283704721B1828A42F02002828204E0CA
:1010D000828A4FF6DF731A408282704721B1828A7A
:1010E00042F01002828204E0828A4FF6EF731A40C7
:1010F0008282704721B1828A42F00802828204E033
:10110000828A4FF6F7731A408282704721B1828932
:1011100042F40042828103E08289C2F30E0282819E
:10112000704721B1828A42F40062828204E0828A9E
:101130004FF2FF731A4082827047828A4FF6FB7328
:101140001A408282828A0A438282704721B1828A4F
:1011500042F00202828204E0828A4FF6FD731A4056
:101160008282704702460020B1F5007F00D100BFA7
:1011700013880B400BB1012000E00020704701F400
:101180000072B2F5007F00D100BFCA4302807047F1
:1011900070B50246002400230025002040F66A16A0
:1011A000B14200D100BFC1F3421501F01F03012677
:1011B00006FA03F3012D02D19689334006E0022D91
:1011C00002D1168A334001E0968A33400C12012680
:1011D00006FA04F41688344013B10CB1012000E083
:1011E000002070BD10B50022002340F66A14A14211
:1011F00000D100BF0A1201249440A3B2DC43048052
:1012000010BD00000038014000440040004800408C
:10121000004C0040005000400CB5002001900090B0
:101220006C48006840F480306A49086000BF694833
:10123000006800F4003000900198401C0190009874
:1012400018B90198B0F5A06FF1D16248006800F4B8
:10125000003010B10120009001E0002000900098C3
:10126000012843D15C48006840F010005A490860EA
:101270000846006820F0030008600846006840F057
:101280000200086053484068524948600846406878
:1012900048600846406840F48060486008464068FE
:1012A00020F47C1048600846406840F4E81048602C
:1012B0000846006840F08070086000BF454800683C
:1012C00000F000700028F9D04248406820F0030088
:1012D000404948600846406840F00200486000BF4E
:1012E0003C48406800F00C000828F9D10CBD10B54E
:1012F000FFF792FF10BD10B53648006840F00100BE
:10130000344908600846406834490840314948601B
:1013100008460068324908402E49086008460068BF
:1013200020F4802008600846406820F4FE004860F1
:101330004FF41F008860FFF7DAFF4FF00060294983
:10134000086010BD10B5002100200022214B5B6811
:1013500003F00C0121B1042906D0082928D107E0A7
:10136000214B224C236027E01F4B204C236023E0BD
:10137000184B5B6803F47010164B5B6803F4803203
:10138000022303EB904022B9194B4343174C2360CF
:101390000DE0104B5B6803F4003323B1144B43435F
:1013A000124C236003E0104B4343104C236003E0D6
:1013B0000D4B0E4C236000BF00BF064B5B68C3F3B0
:1013C00003130C4CE15C094B1B68CB40074C2360BA
:1013D00010BD000000100240002002400000FFF895
:1013E000FFFFF6FE08ED00E000127A001C0000206E
:1013F00000093D002000002070B505460C4600267F
:10140000FD48006820F48050FB49086004F01F008C
:1014100040EA0506304600F040FAFF2000F03DFAB1
:10142000064604F0800018B1FF2000F036FA0646A8
:10143000F148006840F48050EF490860304670BDC4
:101440002DE9F04104460D4616460027EA4800689B
:1014500020F48050E849086005F01F0040EA0407C6
:10146000384600F01AFA3746384600F016FAE248D5
:10147000006840F48050E0490860BDE8F08170B534
:1014800005460C46DC48006820F48050DA490860C4
:101490003A2000F002FA04E0002000F0FEF904F81F
:1014A000010B2800A5F101018DB2F5D12070D248C1
:1014B000006840F48050D049086070BD70B50546A2
:1014C0000C46CD48006820F48050CB4908607A2053
:1014D00000F0E3F903E014F8010B00F0DEF9280056
:1014E000A5F101018DB2F6D1C348006840F48050E7
:1014F000C149086070BD10B5044604F06000BF49E2
:10150000097888420ED003221F21A020FFF798FF00
:10151000C4F341121F218020FFF792FF04F0600006
:10152000B649087010BD10B504462046FFF7E3FF2A
:1015300021460020FFF760FF10BD70B504460D4640
:101540002046FFF7D8FF2A4621464020FFF778FFC4
:1015500070BD70B505460C462946D420FFF7EDFF57
:10156000E1B2D620FFF7E9FF2112D720FFF7E5FF10
:1015700000BFEA20FFF7D7FF00F001000028F8D1F4
:1015800070BD10B5044604F007017520FFF7D5FFC4
:1015900010BD10B504469848006840F48050964944
:1015A0000860FF2200211046FFF74AFF00209449FF
:1015B000088000210820FFF7C0FF00210920FFF765
:1015C000BCFF00210C20FFF7B8FF00210D20FFF722
:1015D000B4FFFE210A20FFF7B0FF19210B20FFF70F
:1015E000ACFFFF210420FFF7A8FF19210520FFF71A
:1015F000A4FFFF210620FFF7A0FF1F210720FFF710
:101600009CFFB0213820FFF798FF3F212820FFF7EB
:1016100094FF30212920FFF790FFF9213020FFF7B8
:101620008CFFF7213120FFF788FF0D21C020FFF745
:1016300084FF0021C120FFF780FF3322C2218020D8
:10164000FFF7FEFE1221C620FFF777FF0C21C7200F
:10165000FFF773FF1221C420FFF76FFFDC21CA20C0
:10166000FFF76BFF0521CB20FFF767FF2178E42010
:10167000FFF763FF6178E520FFF75FFFA178E220C5
:10168000FFF75BFFE178E320FFF757FF2179E020C8
:10169000FFF753FF6179E120FFF74FFF4FF48071AF
:1016A0000020FFF756FF4FF480711020FFF751FF25
:1016B0001F20FFF720FFC0221B218020FFF7C0FE64
:1016C00004221F218020FFF7BBFE10BD10B5722041
:1016D000FFF729FF10BD70B504460D46FF2102201B
:1016E000FFF72BFF19210320FFF727FFFF202044DE
:1016F000C1B20620FFF721FF41F6FF102044C0F3DE
:1017000007210720FFF719FF002211467A20FFF773
:1017100097FE29462046FFF7D1FE08221F21802090
:10172000FFF78EFE1C20FFF7FEFE00F0020020B146
:1017300008221F21A020FFF783FE70BD2DE9F04194
:1017400005460F463920FFF7EEFE10B90020BDE830
:10175000F0812B4801780020FFF7EFFE2848008831
:1017600001120120FFF7E9FE00213A20FFF744FEB5
:101770002349088000213A20FFF73EFE20490988CE
:1017800041EA00201E49088000213A20FFF734FE7C
:10179000044600213A20FFF72FFE44EA0024201FD0
:1017A00084B200213A20FFF727FE064600213A20A6
:1017B000FFF722FE46EA0026681EA04200DA84B245
:1017C00006F0800008B9002403E039462046FFF700
:1017D00056FE0B4801780C20FFF7AFFE0848008842
:1017E00001120D20FFF7A9FE40221E218020FFF7E5
:1017F00027FE2046ABE700000C0C01403000002023
:101800003200002000B587B001210820FFF716F94B
:1018100001218803FFF71FF94FF48050ADF8040051
:1018200001208DF8060010208DF8070001A9274837
:10183000FEF748FE4FF46040ADF8040001208DF83B
:10184000060018208DF8070001A92048FEF73AFE8F
:101850000020ADF808004FF48270ADF80A000020B7
:10186000ADF80C00ADF80E00ADF810004FF40070AC
:10187000ADF812000820ADF814000020ADF81600F5
:101880000720ADF8180002A91148FFF761F90121FE
:101890000F48FFF702FA07B000BD10B5044600BFBD
:1018A00002210B48FFF77DFA0028F9D021460848AD
:1018B000FFF724FA00BF01210548FFF772FA00285C
:1018C000F9D00348FFF71CFAC0B210BD000C01406C
:1018D000003800402DE9FF5F824615469B4654467E
:1018E000002D7DD02989019802F094FD3CB928464D
:1018F00001F04CF96FF0090004B0BDE8F09F4FF023
:1019000000092E4621E0D6F80480002716E018F8DA
:1019100007000D2803D018F807000A2801D101207C
:1019200000E00020814620680F2806DA18F807102A
:101930002268501C2060201D81547F1C7089B84291
:1019400002DDB9F1000FE2D03668002EDBD1B9F12B
:10195000000F6ED02068801E211D085C0D2804D168
:101960002068401E085C0A2821D02068401E211DE6
:10197000085C0D2804D02068401E085C0A2807D1A6
:101980002068401C0F2803DC2068401C206009E010
:101990002068801C0F2803DC2068801C206001E088
:1019A0000F20206000222068801E211D0A5468A19B
:1019B000694808F0E9FB002861D168A166480F304A
:1019C00008F0E2FB002842D1211D63481E3008F0D8
:1019D000E9FB65A160481E3008F0D6FB90B900E035
:1019E0006FE001216248FEF71CFE01231F2261A166
:1019F000019805F094F90123192266A1019805F0D8
:101A00008EF958E06AA154481E3008F0BDFB88B931
:101A100001215748FEF703FE0123202267A1019808
:101A200005F07DF9012319225AA1019805F077F9F3
:101A300041E042E00123142269A1019805F06FF909
:101A40000123192253A1019805F069F933E043A15C
:101A5000201D08F099FB58B9211D3F480F3008F0B0
:101A6000A1FB012319224BA1019805F058F922E0AE
:101A70000123132260A1019805F051F91BE034A164
:101A8000201D08F081FB50B9211D334808F08AFB66
:101A900001230B225DA1019805F041F90BE0012320
:101AA00011225DA1019805F03AF901230C225FA1F2
:101AB000019805F034F900202060284601F066F80E
:101AC00009E0BBF1000F06D1204600F0D4FA0198DE
:101AD00002F007FC10E700200EE770B504460E4642
:101AE0002546284600F0C7FA70BD2DE9F0410646AC
:101AF0000C4617460121142000F082FD05462946B8
:101B0000204603F09EF84D49204603F0A2F84C49C8
:101B1000204603F098F801230C2244A1204605F04A
:101B2000FEF80020BDE8F08110B503F085F804460A
:101B300017224449204602F0D5FDFF21204602F03D
:101B400055FE04464049204603F086F810BD0000CB
:101B50006C78667900000000F800002031323335DF
:101B600036373839000000004C4544315F4F4E0095
:101B7000000C01400D0A204C4544312073746174FF
:101B80007573206973204F4E2145786369746564CD
:101B90007E0D0A000D0A506C6561736520656E74D8
:101BA000657220636F6D6D616E643A0D0A0000000E
:101BB0004C4544315F4F4646000000000D0A204C62
:101BC00045443120737461747573206973204F46E6
:101BD0004621457863697465647E0D0A0000000043
:101BE0000D0A436F6D6D616E64206E6F7420666FB9
:101BF000756E6421000000000D0A50617373776FE9
:101C000072642077726F6E673A0D0A0050617373C9
:101C1000776F72643A0D0A00557365724E616D6597
:101C20002077726F6E673A0D0A0000004C6F6720D4
:101C3000696E2061733A0D0A00000000DB1A00088B
:101C4000D518000824B90008EB1A00082DE9F05F48
:101C5000884614461D464FF0000A00260027B1466C
:101C6000B346D4F804A0002D7ED1002C7CD00322F2
:101C70005EA1504608F09FFA68B900232D225C4906
:101C8000404605F04CF800234FF412725949404683
:101C900005F045F87FE0042257A1504608F08BFA82
:101CA000002878D156A1504608F052FA814657A133
:101CB000504608F04DFA064657A1304608F048FA5B
:101CC0000746002E36D0002F34D02621304608F0AB
:101CD00051FA834600208BF800000936093751A1DC
:101CE000304608F051FAB8B9062251A1384608F03A
:101CF00062FA88B901215048FEF793FC00232D2297
:101D00003B49404605F00BF8002340F23F324B4977
:101D1000404605F004F83EE000232D2234494046B9
:101D200004F0FDFF00234FF412723249404604F0E4
:101D3000F6FF30E0B9F1000F2DD041A1484608F080
:101D400007FA90B101213C48FEF76BFC00232D22DD
:101D50002749404604F0E3FF002340F23F32374971
:101D6000404604F0DCFF16E018E038A1484608F0D1
:101D7000EFF980B101213048FEF751FC00232D22FC
:101D80001B49404604F0CBFF002340F25132334957
:101D9000404604F0C4FF204600F0F8FE404602F042
:101DA000A0FA00252846BDE8F09F70B505460C4610
:101DB00016460121204602F039FE2949204602F04C
:101DC00042FF002070BD10B502F036FF04465022DD
:101DD0002449204602F086FCFF21204602F006FD41
:101DE00004462149204602F037FF10BD4745540004
:101DF000E6AF000813B00008504F53540000000035
:101E00004C45445F4354524C3D000000557365728D
:101E10004E616D653D00000050617373576F7264D1
:101E20003D00000077696C6466697265000000001F
:101E30003132333435360000000C01405BB200080B
:101E40004C45445F4354524C3D4F4E004C45445F1B
:101E50004354524C3D4F4646000000009AB50008DE
:101E60004D1C000824B90008AB1D000800B587B060
:101E700000F05FF8FEF76CFA254806F0EDF80690E2
:101E80006FF0FF0006F0E8F805902148E83806F00A
:101E9000E3F804901F482049002204ABCDE900215B
:101EA000029005AA06A91D4800F0AFFD1B4800F0EE
:101EB000EAFD1A4800F037FE07B000BD1848006878
:101EC0000A3017490860704701B51649009809683B
:101ED000401A022802D3114808F0D4F81249009899
:101EE0000968401AFA2804D30F490098086002F0E4
:101EF0001BFB0E4900980968401A41F2883188425C
:101F000004D30A490098086007F0BAF908BD000038
:101F1000E9014C0A8B9E0008B7A0000828010020A8
:101F2000000000203C000020340000203800002089
:101F3000704710B5FFF7FCFF00F071F800F0CAFB26
:101F400010BD000070B5044600BFEA480068844236
:101F500007D200BFE8A3E522F1A1F7A008F0DAFB61
:101F600000BF00BF00BFFE480068844207D300BF27
:101F7000E1A3E622FBA1F0A008F0CCFB00BF00BF6C
:101F800000BF207938B100BFDBA3E722FCA1EAA0A3
:101F900008F0C0FB00BF00BF00BF2088B0F5805F25
:101FA00007DD00BFD4A3EA22FCA1E3A008F0B2FB46
:101FB00000BF00BF2088CF4909684518AC4215D042
:101FC000287998B9E648006885420FD0FE48006835
:101FD000A84201D1FC48046028882080C5480088B8
:101FE000201A2988C34A1268114448806088C14970
:101FF00009684618A64211D0307978B9F2480068CD
:10200000A04201D1F048066020883080B94800889D
:10201000301A2188B74A12681144488070BD00BF49
:1020200000BFEA4921F00301B24A11601146086875
:102030004FF48051018000214180017111460968EF
:1020400001F58051C64A116001211268117109031E
:10205000C34A12681180C24A126851800121DC4AC9
:102060001170A4490968D84A11604FF48051D94AC7
:10207000A2F8A810704770B5054615B900BF00BF9B
:1020800070BD00BF05F00300002808D000BF9AA370
:102090004FF49972D0A1A8A008F03CFB00BF00BF8C
:1020A00000BF94480068854203D3AD48006885426C
:1020B00008D300BF90A34FF49A72D0A19EA008F05D
:1020C00029FB00BF00BF8B480068854203D3A448AA
:1020D000006885420AD300BF00BFBE48B0F8B00018
:1020E000401C81B2BB48A0F8B010C9E7A5F10804B4
:1020F00000BF207940B900BF7FA340F24512C5A1BF
:102100008DA008F007FB00BF00BF00202071AE4883
:102110000068844201D2AC4804602088754909886F
:10212000611A411AAB48B0F8AA00401A81B2A94816
:10213000A0F8AA102046FFF705FF00BFA0E72DE991
:10214000F04780460D46E81C20F0030085B20C2DB8
:1021500000DA0C25B5F5805F02DD0020BDE8F087D0
:1021600000BF64480068804503D37D48006880450F
:1021700008D300BF60A34FF4BD72ABA16EA008F0FE
:10218000C9FA00BF00BF5B480068804503D37448AC
:10219000006880450BD300BF00BF8E48B0F8B00088
:1021A000401C81B28B48A0F8B0104046D6E7A8F199
:1021B000080750480088381A1FFA80FA3888A0EBC0
:1021C0000A0008381FFA80F900BF4D4508DD00BF3E
:1021D00049A34FF4C6729BA157A008F09BFA00BF19
:1021E00000BF4D4501DD0020B8E74D4501D1404617
:1021F000B4E77848B0F8AA00A9EB0501401A81B20B
:102200007448A0F8AA1038883A4909684418207917
:1022100000BB20880AF1080129448EB26A49096886
:10222000A14204D1334909683144674A11603149F8
:1022300009688C19002121712080A4F802A03E8039
:102240002188B1F5805F04D021882A4A12681144A0
:102250004E8020E005F1140048451CD80AF1080022
:10226000284486B22348006884195748006884428D
:1022700001D2554804600020207138882080A4F8DD
:1022800002A03E802088B0F5805F04D020881949E4
:10229000096808444680404660E72DE9F04105465C
:1022A00015B90020BDE8F081E81C20F0030085B2DC
:1022B0000C2D00DA0C25B5F5805F01DD0020F1E77B
:1022C000414800880B490988401A86B287E10948CD
:1022D00000688419207900280AD1218806F10800B5
:1022E000081AA84204D3218806F10800091ABBE0A5
:1022F00072E10000500000202E2E5C2E2E5C4C5708
:1023000049505C6C7769702D312E332E325C7372BC
:10231000635C636F72655C6D656D2E630000000029
:10232000706C75675F686F6C65733A206D656D20C2
:102330003E3D2072616D0000417373657274696F78
:102340006E2022257322206661696C6564206174A9
:10235000206C696E6520256420696E2025730A0053
:1023600054000020706C75675F686F6C65733A206D
:102370006D656D203C2072616D5F656E64000000CC
:10238000706C75675F686F6C65733A206D656D2D55
:102390003E75736564203D3D20300000706C7567AC
:1023A0005F686F6C65733A206D656D2D3E6E657864
:1023B00074203C3D204D454D5F53495A455F414C8B
:1023C00049474E4544000000580000205B010020B2
:1023D0005C0000201C5800206D656D5F66726565AD
:1023E0003A2073616E69747920636865636B20615C
:1023F0006C69676E6D656E74000000006D656D5FE1
:10240000667265653A206C6567616C206D656D6FFD
:10241000727900006D656D5F667265653A206D6565
:102420006D2D3E75736564006D656D5F7265616CE1
:102430006C6F633A206C6567616C206D656D6F72BF
:10244000790000006D656D5F7265616C6C6F632073
:1024500063616E206F6E6C7920736872696E6B2099
:102460006D656D6F7279000005F11400814232D301
:1024700006F1080028441FFA80F86A48006800EB5B
:10248000080700203871208838807E80A4F80080FA
:10249000012020713888B0F5805F05D03888614907
:1024A00009680844A0F8028000BF5F48B0F8AA108D
:1024B00005F10800084481B25B48A0F8AA10B0F802
:1024C000AC10B0F8AA00814204DA5748B0F8AA105C
:1024D000A0F8AC101BE00120207100BF20885149FA
:1024E0000988611A411A5048B0F8AA00084481B21C
:1024F0004D48A0F8AA10B0F8AC10B0F8AA0081427C
:1025000004DA4948B0F8AA10A0F8AC1000BF474858
:102510000068844229D107E04448006800884149A6
:10252000096808444149086040480068007928B1BA
:102530003E4800683E4909688842EDD100BF3B48EB
:1025400000683B49096888420ED038480068007925
:1025500050B100BFAFF260234FF4127235A1AFF259
:10256000282008F0D7F800BF00BF00BF04F1080022
:1025700028442F49096888420AD900BFAFF288234E
:102580004FF4137232A1AFF2502008F0C3F800BF2D
:1025900000BF00BF04F0030050B100BFAFF2A8239A
:1025A00040F24E2236A1AFF2702008F0B3F800BF1F
:1025B00000BF00BF04F0030050B100BFAFF2C8235A
:1025C0004FF414723AA1AFF2902008F0A3F800BFC4
:1025D00000BF04F1080065E612480068865BC5F597
:1025E0008050B0423FF773AE00BF00BF0E48B0F856
:1025F000AE00401C81B20C48A0F8AE10002051E69D
:1026000070B504460D4604FB05F188B2FFF745FEA0
:10261000064626B104FB05F1304607F08EFD304634
:1026200070BD0000500000201C5800205800002001
:10263000540000206D656D5F6D616C6C6F633A20B6
:10264000216C667265652D3E75736564000000003F
:102650006D656D5F6D616C6C6F633A20616C6C6F62
:102660006361746564206D656D6F7279206E6F743F
:102670002061626F76652072616D5F656E642E0009
:102680006D656D5F6D616C6C6F633A20616C6C6F32
:102690006361746564206D656D6F72792070726F0F
:1026A0007065726C7920616C69676E65642E0000DC
:1026B0006D656D5F6D616C6C6F633A2073616E69FF
:1026C000747920636865636B20616C69676E6D6502
:1026D0006E74000030B500201CE0002400EB800583
:1026E000674B03EB45035C8000EB8005644B03EB19
:1026F00045039C8000EB8005614B03EB4503DC80C8
:10270000604B33F8104000EB80055D4B23F815401B
:10271000431C98B20928E0DB5B4B23F00301002047
:1027200019E00023594C44F8203000220CE0574BAC
:1027300053F820300B60554B43F82010544B33F8BE
:1027400010301944531C9AB24E4B33F81030934258
:10275000EDDC431C98B20928E3DB30BD70B50446BC
:1027600000BF092C0ADB00BF4AA340F23B1253A171
:102770005AA007F0CFFF00BF002070BD00BF434844
:1027800050F82450002D3DD04049286841F82400DD
:1027900000BF04EB84013A4800EB41004088401C34
:1027A00081B204EB8402364800EB4200418004EB26
:1027B0008401334800EB4100818804EB84023048F7
:1027C00000EB4200408881420BDA04EB84012C4884
:1027D00000EB4100418804EB8402294800EB4200F1
:1027E000818000BF00BF05F00300002808D000BFB3
:1027F00028A34FF4A67243A138A007F08BFF00BFB7
:1028000000BF0FE000BF00BF04EB84011C4800EBD9
:102810004100C088401C81B204EB8402184800EBE0
:102820004200C1802846A8E770B504460D4605B9A8
:1028300070BD00BF05F00300002808D000BF15A33D
:102840004FF4B47238A125A007F064FF00BF00BFA9
:102850002E4604EB84010A4800EB41004088401EEC
:1028600081B204EB8402064800EB42004180074835
:1028700050F824003060054840F8246000BFD7E7D6
:10288000CE580020FEB80008931100206C110020E3
:10289000ECB800082E2E5C2E2E5C4C5749505C6C18
:1028A0007769702D312E332E325C7372635C636FE7
:1028B00072655C6D656D702E630000006D656D70F6
:1028C0005F6D616C6C6F633A2074797065203C2099
:1028D0004D454D505F4D41580000000041737365F8
:1028E0007274696F6E2022257322206661696C659F
:1028F00064206174206C696E6520256420696E20F7
:1029000025730A006D656D705F6D616C6C6F633A65
:10291000206D656D702070726F7065726C792061CA
:102920006C69676E656400006D656D705F667265E9
:10293000653A206D656D2070726F7065726C7920DC
:10294000616C69676E65640009B9002200E00A687D
:10295000C26000BF00BF704709B9002200E00A68EA
:10296000826000BF00BF70472DE9F04107460D4669
:1029700028687968884201D1012000E0002038BB36
:1029800000BF00BF7C4806680EE030687968884266
:1029900009D1D6F80C8000BF00BF0121304601F0FC
:1029A000D2FD464600E0F668002EEED1734804687A
:1029B0000CE054B1206840B120687968884204D1A5
:1029C0000DB9002000E028682060E468002CF0D1F8
:1029D0000DB9002000E02868786000BF00BFBDE8A6
:1029E000F0812DE9F04106460F4614461D46394652
:1029F0003046FFF7B9FF21463046FFF7ADFF2946C5
:102A00003046FFF7A1FFBDE8F0812DE9F04704460D
:102A10000D4616461F46DDE909A9DDF82080002095
:102A20006060A060E06084F82900C4F81C8054480D
:102A3000007884F82C0052480078401C50490870F7
:102A4000C4F810903B46324629462046FFF7C9FF9E
:102A50002046D04710B10020BDE8F0874948006803
:102A600020604848046000BF00BF00BF00BF00BF37
:102A700000BF00BF00BF00BF00BF00BF00BF00BF5E
:102A800000BF2046E8E74049086000BF00BF70472C
:102A900000B5024602B900BD3A480068904203D131
:102AA0003849106808600FE03649086806E0016898
:102AB000914202D11168016002E000680028F6D15D
:102AC00000BF00B9E7E700BF2F480068904202D17D
:102AD0000020FFF7D8FF00BF00BF00BFDBE710B545
:102AE00002460AB9002010BD90783038C3B225489C
:102AF000016812E091F82C0098420DD1107891F8FD
:102B00002A40A04208D154782B20405C844203D153
:102B100000BF00BF0846E6E709680029EAD100BF08
:102B200000BF0020DFE710B5044694F8290000F04C
:102B3000010068B914F8290F40F00100207014F862
:102B4000290900F0200018B1211D204607F01EF8C9
:102B500010BD90F8291001F0010129B190F8291059
:102B600021F0010180F829107047014691F82900F1
:102B700000F0010070470000A8000020A400002021
:102B80006800002060000020640000202DE9F04172
:102B90000446002C10D100BF44B900BFEEA340F2A0
:102BA0001A22F7A1F9A007F0B5FD00BF00BF00BFD2
:102BB00000BF0020BDE8F08100BF00BF00BF207B48
:102BC000002811D0207B01280ED0207B02280BD0BA
:102BD000207B032808D000BFDFA34FF40972F5A1C2
:102BE000EAA007F097FD00BF00BF002635E000BF58
:102BF000E089002808DC00BFD7A340F23322F3A10C
:102C0000E2A007F087FD00BF00BFE089401E1FFA69
:102C100080F8A4F80E80B8F1000F1AD1276800BF21
:102C200000BF257B032D04D121460820FFF7FCFDC2
:102C30000BE0012D01D0022D04D121460720FFF722
:102C4000F3FD02E02046FFF716FA701CC6B23C46C0
:102C500002E000BF00BF002400BF002CC7D13046F7
:102C6000A8E72DE9F05F83460F46914600BF00BFFD
:102C70000026BBF1000F09D0BBF1010F0AD0BBF158
:102C8000020F0BD0BBF1030F0DD10BE006F11400C6
:102C900086B200BF06F1140086B200BF06F10E0036
:102CA00086B20DE00CE000BF00BFABA3CF22CDA1E8
:102CB000B6A007F02FFD00BF00BF0020BDE8F09FC9
:102CC00000BFB9F1000F70D0B9F1010F6ED0B9F1AA
:102CD000020F6CD0B9F1030F6AD10820FFF73EFD57
:102CE000044600BF00BF0CB90020E7E784F80C9051
:102CF0000020206006F110002044C01C20F00300DA
:102D0000606000BF207900F0030038B100BF92A3DB
:102D1000E122BBA19DA007F0FDFC00BF00BF278101
:102D2000F01C20F0030040F2DC51081AB84201DD2B
:102D3000384605E0F01C20F0030040F2DC51081A90
:102D4000608100BF61896068014404F2EC508142F7
:102D500007D900BF80A3E722B5A18CA007F0DAFC59
:102D600000BF00BF00BFF01C20F0030040F2DC51A8
:102D7000081A002807DC00BF77A3EA22B9A183A0C4
:102D800007F0C8FC00BF00BF0120E081A2466089B7
:102D9000A7EB00085BE00820FFF7E0FC054645B91B
:102DA0002046FFF7F3FE002088E754E07FE07FE055
:102DB0008FE085F80C90002068732860CAF80050F6
:102DC00000BF4FF6FF70804508DB00BF62A340F2F2
:102DD0000512B1A16DA007F09DFC00BF00BFA5F8D2
:102DE00008801FFA88F040F2DC51884202DA1FFAAC
:102DF00088F001E040F2DC50688105F11000686065
:102E000000BF287900F0030040B100BF52A34FF487
:102E10008572A6A15DA007F07DFC00BF00BF00BFCA
:102E200061896068014404F2EC50814208D900BF16
:102E300049A34FF486727EA154A007F06BFC00BF3B
:102E400000BF0120E8816889A8EB0008AA46B8F114
:102E5000000FA0DC4AE006F1130121F00302F91C87
:102E600021F00301114488B2FFF717FA04460CB9A8
:102E7000002023E704F110003044C01C20F00300C0
:102E80006060278167810020206084F80C9000BF7B
:102E9000207900F0030040B100BF2FA340F22512BB
:102EA0008EA13AA007F036FC00BF00BF1EE000BFB5
:102EB0000720FFF753FC04461CB900BF00BF0020E9
:102EC000FCE60020606027816781206084F80C9018
:102ED0000CE000BF00BF20A340F23B128AA12BA050
:102EE00007F018FC00BF00BF0020E7E600BF01208C
:102EF000E0810020607300BF00BF2046DEE62DE9C0
:102F0000F04105460F4600BF45B900BF12A340F28D
:102F10005D1284A11DA007F0FDFB00BF00BF00BF34
:102F2000287B032810D0287B01280DD0287B58B19E
:102F3000287B022808D000BF07A34FF4AF727FA1FF
:102F400012A007F0E7FB00BF00BF2889B84201DCF0
:102F5000BDE8F08100E100002E2E5C2E2E5C4C5767
:102F600049505C6C7769702D312E332E325C737250
:102F7000635C636F72655C706275662E630000004F
:102F80007020213D204E554C4C000000417373656C
:102F90007274696F6E2022257322206661696C65E8
:102FA00064206174206C696E6520256420696E2040
:102FB00025730A00706275665F667265653A2073F4
:102FC000616E65207479706500000000706275663E
:102FD0005F667265653A20702D3E726566203E2000
:102FE00030000000706275665F616C6C6F633A2040
:102FF0006261642070627566206C617965720000A0
:10300000706275665F616C6C6F633A2070627566A2
:1030100020702D3E7061796C6F61642070726F70EA
:1030200065726C7920616C69676E656400000000F0
:10303000636865636B20702D3E7061796C6F6164AD
:10304000202B20702D3E6C656E20646F6573206EA2
:103050006F74206F766572666C6F7720706275662C
:1030600000000000504255465F504F4F4C5F4255A4
:103070004653495A45206D75737420626520626914
:1030800067676572207468616E204D454D5F414CE5
:1030900049474E4D454E540072656D5F6C656E201C
:1030A0003C206D61785F7531365F740070627566C3
:1030B0005F616C6C6F633A207062756620712D3EA3
:1030C0007061796C6F61642070726F7065726C7979
:1030D00020616C69676E656400000000706275664F
:1030E0005F616C6C6F633A20706275662D3E706133
:1030F000796C6F61642070726F7065726C79206199
:103100006C69676E65640000706275665F616C6C07
:103110006F633A206572726F6E656F757320747994
:1031200070650000706275665F7265616C6C6F63DC
:103130003A207020213D204E554C4C00706275663F
:103140005F7265616C6C6F633A2073616E652070AD
:103150002D3E7479706500002889A7EB00083E4673
:103160002C4625E06089301A86B200BF4FF6FF700A
:1031700080450ADB00BFAFF2202340F27512FBA1AD
:10318000AFF2F81007F0C6FA00BF00BF2089404434
:103190002081246800BF54B900BFAFF2442340F23D
:1031A0007912F7A1AFF21C2007F0B4FA00BF00BFFC
:1031B0006089B042D6DB207B002818D16089B042FC
:1031C00015D0A088001B304481B22046FEF7B7FF1F
:1031D000044600BF54B900BFAFF2842340F283120B
:1031E000EDA1AFF2582007F095FA00BF00BF66814D
:1031F00060892081206810B12068FFF7C7FC00209B
:10320000206000BFBDE8F0812DE9F04104460D4685
:1032100000BF5CB900BFAFF2C0234FF4D772AFF26A
:10322000A021AFF2982007F075FA00BF00BF05B1EA
:1032300014B90020BDE8F081002D13DA684287B28E
:1032400000BF6089B8420CDA00BFAFF2F42340F24D
:10325000B512D8A1AFF2CC2007F05CFA00BF012074
:10326000E8E700E0AFB2267BD4F804800EB1032E6D
:103270000DD16068401B606004F1100061688142FC
:1032800023D200BF00BFC4F804800120D2E7022E81
:1032900001D0012E0AD1002D06DA6089B84203DB85
:1032A0006068401B606010E00120C3E700BF00BF02
:1032B000AFF25C334FF4F272C6A1AFF2303007F0D8
:1032C00029FA00BF00BF0120B4E76089284460816B
:1032D00020892844208100BF00BF0020AAE70146C2
:1032E000002002E0421CD0B209680029FAD17047E0
:1032F00010B1C189491CC181704770B506460D46A1
:1033000000BF0EB1002D0BD100BFAFF2B4334FF4AC
:103310002372B4A1AFF28C3007F0FCF900BF70BD8E
:1033200000BF344604E020892989084420812468AC
:1033300020680028F7D100BF2089618988420AD01F
:1033400000BFAFF2EC3340F29522B4A1AFF2C4302B
:1033500007F0E0F900BF00BF00BF206850B100BF18
:10336000AFF20C4340F29622B8A1AFF2E03007F082
:10337000D1F900BF00BF2089298908442081256038
:1033800000BFCCE770B505460C4621462846FFF73E
:10339000B4FF2046FFF7ACFF00BF00BF70BD70B5A3
:1033A000044601262568002D24D000BF20896189AC
:1033B000401A298988420AD000BFAFF2644340F224
:1033C000CB22A6A1AFF23C4007F0A4F900BF00BF9A
:1033D00020896189401A288100202060608920812D
:1033E00000BF00BF2846FFF7D1FB0646002E01DDD7
:1033F00000BF00BF00BF2089618988420AD000BF9A
:10340000AFF2AC434FF437729DA1AFF2804007F0AA
:1034100081F900BF00BF002E01DD002070BD2846ED
:10342000FCE72DE9F04104460D460026002700BFC9
:1034300000BF00BF24B11DB12089298988420EDA5E
:1034400000BFAFF2EC4340F2FB2293A1AFF2C440C5
:1034500007F060F900BF6FF00900BDE8F08100BF20
:1034600000BF00BF54B900BFAFF2145340F20132A5
:1034700095A1AFF2E84007F04DF900BF00BF6089A9
:10348000801B6989C91B884204DB6889C01B1FFA3D
:1034900080F803E06089801B1FFA80F86A68D11900
:1034A00062689019424606F02FFE06EB080086B2CD
:1034B00007EB080087B200BF6089B0420ADA00BF9C
:1034C000AFF26C5340F20D3283A1AFF2405007F0DF
:1034D00021F900BF00BF6089B04201D100262468F5
:1034E00000BF6889B8420ADA00BFAFF2945340F2D5
:1034F00013327FA1AFF26C5007F00CF900BF00BF90
:103500006889B84201DC00272D68002D15D0688934
:103510002989884211D100BF286868B100BFAFF285
:10352000C8534FF4477279A1AFF2A05007F0F2F8F8
:1035300000BF6FF0080090E700BF002C15D0608935
:103540002189884211D100BF206868B100BFAFF265
:10355000F85340F221326DA1AFF2D05007F0DAF803
:1035600000BF6FF0080078E7E6E0E6E067726F778B
:10357000203C206D61785F7531365F74000000007B
:10358000706275665F7265616C6C6F633A20712062
:10359000213D204E554C4C006D656D5F7265616C30
:1035A0006C6F6320676976652071203D3D204E5524
:1035B0004C4C0000696E6372656D656E745F6D6181
:1035C000676E6974756465203C3D20702D3E6C65A6
:1035D0006E0000006261642070627566207479700C
:1035E00065000000286820213D204E554C4C2920C4
:1035F000262620287420213D204E554C4C29202879
:1036000070726F6772616D6D65722076696F6C6143
:10361000746573204150492900000000702D3E74EC
:103620006F745F6C656E203D3D20702D3E6C656E45
:1036300020286F66206C6173742070627566206943
:103640006E20636861696E2900000000702D3E6E77
:10365000657874203D3D204E554C4C00702D3E74D5
:103660006F745F6C656E203D3D20702D3E6C656E05
:10367000202B20712D3E746F745F6C656E0000000E
:10368000702D3E746F745F6C656E203D3D20702D13
:103690003E6C656E00000000706275665F636F705F
:1036A000793A20746172676574206E6F7420626964
:1036B0006720656E6F75676820746F20686F6C6433
:1036C00020736F7572636500705F746F20213D20F9
:1036D0004E554C4C000000006F66667365745F7455
:1036E0006F203C3D20705F746F2D3E6C656E000056
:1036F0006F66667365745F66726F6D203C3D207007
:103700005F66726F6D2D3E6C656E0000706275664F
:103710005F636F7079282920646F6573206E6F7402
:1037200020616C6C6F77207061636B6574207175BC
:1037300065756573210A000000BF002D7FF491AE0E
:1037400000BF00BF002088E62DE9F05F8046894673
:1037500016461D464FF0000B00BFB8F1000F0DD10B
:1037600000BFAFF60C034FF44F7271A1AFF2E470DB
:1037700006F0D0FF00BF0020BDE8F09F00BF00BFF3
:10378000B9F1000F0CD100BFAFF6340340F23D3267
:103790006FA1AFF6080006F0BDFF00BF0020EBE709
:1037A00000BF4FF0000AB8F1000F02D0B9F1000FCE
:1037B00001D10020E0E7444620E035B16089A8420D
:1037C00003DC6089281A85B217E06089401B87B244
:1037D000B74200DD37466268511909EB0A003A46E4
:1037E00006F092FC0BEB07001FFA80FB0AEB0700C8
:1037F0001FFA80FAF01B86B2002524680EB1002C57
:10380000DBD15846B8E72DE9F04705460F4690460C
:1038100046464FF0000A00BF002D0DD100BFAFF6A5
:10382000C8034FF45B7253A1AFF6A00006F072FF1D
:1038300000BF0020BDE8F08700BF00BF002F0CD103
:1038400000BFAFF6EC0340F26D3250A1AFF6C400FA
:1038500006F060FF00BF0020ECE700BF1DB117B10C
:103860002889404502DA6FF00900E3E72C4621E0A1
:1038700000BF54B900BFAFF6201340F275324AA121
:10388000AFF6F80006F046FF00BF00BFB146608902
:10389000484501DAB4F80A9007EB0A014A46606825
:1038A00006F032FCA6EB090086B20AEB09001FFA0B
:1038B00080FA2468002EDBD100BF0EB9C2450AD0C1
:1038C00000BFAFF66C134FF460723DA1AFF6441029
:1038D00006F020FF00BF00BF0020ABE72DE9F0415C
:1038E00004460F46206810B92046BDE8F0812189C2
:1038F00000223846FFF7B5F905460DB92046F4E732
:1039000021462846FFF78DFD064600BF56B100BF91
:10391000AFF6BC1340F29E322FA1AFF6901006F026
:10392000F9FE00BF00BF2046FFF730F92846DCE76C
:10393000706275665F636F70795F706172746961E0
:103940006C3A20696E76616C69642062756600006D
:10395000706275665F636F70795F706172746961C0
:103960006C3A20696E76616C696420646174617080
:1039700074720000706275665F74616B653A2069ED
:103980006E76616C696420627566000070627566AF
:103990005F74616B653A20696E76616C696420645E
:1039A0006174617074720000706275665F74616B3F
:1039B000653A20696E76616C696420706275660094
:1039C000646964206E6F7420636F707920616C6C21
:1039D0002064617461000000706275665F636F70DF
:1039E00079206661696C6564000000002DE9F0478C
:1039F00005468A464FF000086F68388904F02BFCB2
:103A000000F0FF0900266948046819E0207C484559
:103A100014D1606990B107F10C032A462146D4E91C
:103A200005C0E04750B100254FF0010836B1E0680D
:103A3000F0605E480068E0605C4804602646E46828
:103A4000B8F1000F01D1002CE0D14046BDE8F0876D
:103A5000024609B9002000E00868106000207047A5
:103A6000024609B9002000E0086850600020704755
:103A70004161826170472DE9FE4F04460E46914632
:103A800000BF00BF14213046FFF7BEFB90B10022FB
:103A900011460120FFF7E5F805462DB900BF00BF2C
:103AA0004FF0FF30BDE8FE8F31462846FFF76AFC35
:103AB00000BF14E035466FF013012846FFF7A4FB62
:103AC00000280CD000BF00BF39A3E82242A14CA0BF
:103AD00006F020FE00BF00BF4FF0FF30E2E748468F
:103AE00004F078FC070009D100BF00BFB54202D046
:103AF0002846FFF74BF86FF00300D3E70CB12068BE
:103B000010B907F1040800E0A046207CA17ACDE9B5
:103B100001070091E37A4A464146284604F0C5FD74
:103B20008246B54202D02846FFF730F85046B9E742
:103B300070B504460D46221D29462046FFF79BFF1F
:103B400070BD70B5054619480068A84205D11748F0
:103B50000068C068154908600CE01448046807E074
:103B6000E06820B1E068A84201D1E868E060E4685C
:103B7000002CF5D129460020FEF756FE70BD70B529
:103B8000054600BF00BF0020FEF7E8FD04465CB11B
:103B90001C21204606F0D1FA2574FF20E07203486C
:103BA0000068E06001480460204670BD6C000020A1
:103BB0002E2E5C2E2E5C4C5749505C6C7769702D14
:103BC000312E332E325C7372635C636F72655C728C
:103BD00061772E630000000043616E2774207265D8
:103BE00073746F7265206865616465722077652003
:103BF0006A7573742072656D6F76656421000000CC
:103C0000417373657274696F6E202225732220667A
:103C100061696C6564206174206C696E652025643F
:103C200020696E2025730A0070B5044600254CB14A
:103C3000606818B16068FEF7A9FF054621460420B8
:103C4000FEF7F2FD284670BD70B50446002506E07B
:103C500026682046FFF7E8FF2844C5B23446002C0A
:103C6000F6D1284670BD10B50446207C08B3207CF0
:103C70000A281ED0207C01281BD000BF00BFE06FA7
:103C800030B100BF00BFE06FFEF780FF0020E067AB
:103C9000606F08B100BF00BFA06F08B100BF00BFD8
:103CA000606FFFF7D1FFA06FFFF7CEFF00206067C6
:103CB000A06710BD2DE9FC474FF0000AE3480068FB
:103CC000401CE24908600026E14804680CB900BFC6
:103CD00000BF78E100BF00BF00BF207C002808D1F2
:103CE00000BFDCA340F25522E4A1EFA006F012FDD4
:103CF00000BF00BF00BF207C012808D100BFD5A3B2
:103D000040F25622F2A1E8A006F004FD00BF00BF79
:103D100000BF207C0A2808D100BFCEA340F2572262
:103D2000F6A1E1A006F0F6FC00BF00BF0025A84602
:103D3000207C022807D194F84A00062803D1681C89
:103D4000C5B200BF6FE094F84A000C2803D1681C8C
:103D5000C5B200BF67E094F89C0000281BDD54F852
:103D6000980F401C206020792168983C401EEF4A43
:103D7000105C814257D30020C4F8980094F89C004E
:103D8000072804D294F89C00401C84F89C0020462C
:103D900003F023FB47E0B4F93600002803DBE08E94
:103DA000401C00B2E086A06FE8B3B4F93600B4F965
:103DB0004810884237DB00BF00BF207C02280CD0AF
:103DC00044346088B4F9001000EBE100A179D84ACE
:103DD000515C884000B2A080443C0020E086B4F8EA
:103DE0005200B4F85C10884202DAB4F8520001E0E4
:103DF000B4F85C0081464FEA6900A4F85400B4F8B6
:103E00005400218F884206DA208F4FF6FF7101EAB5
:103E10004000A4F85400208FA4F8520000BF00BF57
:103E2000204603F009FA207C062809D18749206B37
:103E30000968081A282803D9681CC5B200BF00BF4A
:103E4000207A00F00800B8B3207C042802D0207C3F
:103E5000072831D1B749D4F8940008444FF4FA71D7
:103E6000B0FBF1F0794A216B1268511A884208D2EE
:103E700000BF00BF681CC5B208F1010000F0FF08D8
:103E80001AE094F89D0042F29F425043D4F89410F7
:103E900001EBC0004FF4FA71B0FBF1F06B4A216BFB
:103EA0001268511A884207D2204603F047FA94F864
:103EB0009D00401C84F89D00207C032809D16349A3
:103EC000206B0968081A282803D9681CC5B200BFEE
:103ED00000BF207C092809D15C49206B0968081AB9
:103EE000F02803D9681CC5B200BF00BF002D46D022
:103EF0002046FFF7B8FE8EB100BF554800688442E7
:103F000008D100BF53A340F2E2228BA166A006F0C5
:103F100001FC00BF00BFE068F06011E000BF4C484A
:103F20000068A04208D000BF4AA340F2E6228DA15B
:103F30005DA006F0EFFB00BF00BF4549E0680860E8
:103F400000BFD4F8900028B16FF00401D4F890209D
:103F50006069904700BFB8F1000F09D0208C218B19
:103F6000CDE90010231D2246616AA06D03F0EDF833
:103F7000E76821460220FEF757FC3C4623E014F890
:103F8000340F401C207020786178343C884218DB64
:103F9000002084F8340000BF00BF00BFD4F88C00BC
:103FA00030B12146D4F88C2060699047824601E008
:103FB0004FF0000A00BFBAF1000F02D1204602F014
:103FC00089FF2646E468002C7FF484AE0026704802
:103FD00004681EE100BF207C0A2808D000BF1DA392
:103FE00040F20A326BA130A006F094FB00BF00BF84
:103FF00000251649206B0968081AF02801D9681CA9
:10400000C5B2002D1FD02046FFF72DFE8EB100BF98
:104010005F480068844208D100BF0EA340F2193205
:1040200068A121A006F076FB00BF00BFE068F06049
:10403000E6E000BF56480068A04205D000BF05A3D7
:1040400040F21D32D2E0E2E0D6E000009C00002009
:10405000A80000202E2E5C2E2E5C4C5749505C6C24
:104060007769702D312E332E325C7372635C636F0F
:1040700072655C7463702E63000000007463705F8F
:10408000736C6F77746D723A206163746976652022
:104090007063622D3E737461746520213D20434C32
:1040A0004F5345440A000000417373657274696F91
:1040B0006E2022257322206661696C65642061741C
:1040C000206C696E6520256420696E2025730A00C6
:1040D0007463705F736C6F77746D723A2061637490
:1040E000697665207063622D3E737461746520216A
:1040F0003D204C495354454E0A0000007463705FE4
:10410000736C6F77746D723A2061637469766520A1
:104110007063622D3E737461746520213D205449A3
:104120004D452D574149540A000000001DB90008B3
:1041300010B90008B84C0A007463705F736C6F7735
:10414000746D723A206D6964646C652074637020CC
:10415000213D207463705F6163746976655F70638D
:10416000627300007463705F736C6F77746D723A82
:1041700020666972737420706362203D3D20746311
:10418000705F6163746976655F70636273000000DD
:10419000AC0000207463705F736C6F77746D723A5B
:1041A0002054494D452D57414954207063622D3E9E
:1041B0007374617465203D3D2054494D452D574130
:1041C000495400007463705F736C6F77746D723A5A
:1041D000206D6964646C652074637020213D2074D7
:1041E00063705F74775F706362730000F7A1AFF272
:1041F000481006F08FFA00BF00BFFE49E068086073
:10420000E76821460220FEF70FFB3C4601E0264608
:10421000E468002C7FF4DEAEBDE8FC8770B505468F
:104220000C4600BF2868A04203D12868C0682860F7
:1042300017E0F149286808600EE0EF480068C068A0
:10424000A04204D1EC49E0680968C86008E0EA4887
:104250000068C068E8490860E74800680028ECD1B9
:1042600000BF0020E06000BF2046FFF7FCFC207C80
:104270000A2810D0207C01280DD094F8220000F0EC
:10428000010040B194F8220040F0020084F82200BE
:10429000204602F01FFE207C01281DD000BF606F69
:1042A00050B100BFAFF2542340F2F742D3A1AFF2B6
:1042B000082006F02FFA00BF00BF00BFA06F50B16A
:1042C00000BFAFF270234FF49F62D2A1AFF228205B
:1042D00006F020FA00BF00BF0020207400BF00BF1E
:1042E00070BD70B50546287C082864D2DFE800F070
:1042F00004323D485163635A002400BFCC48006833
:10430000A84205D1CA480068C068C949086018E0D9
:10431000C7480068B84908600EE0B7480068C06840
:10432000A84204D1B449E8680968C86008E0B24806
:104330000068C068B0490860AF4800680028ECD148
:1043400000BF0020E86000BF29460220FEF76CFA9B
:10435000002533E000242946B648FFF75FFF2946D1
:104360000320FEF761FA002528E000242946B24820
:10437000FFF754FF29460220FEF756FA00251DE0FC
:104380000121284602F0BDFC04460CB90520287422
:1043900014E00121284602F0B4FC04460CB90520C3
:1043A00028740BE00121284602F0ABFC04460CB94E
:1043B0000920287402E00024002500BF00BF1DB1C1
:1043C00014B9284602F086FD204670BD10B501469E
:1043D0000B8D486AC218088F40F2B454CB6AA042D1
:1043E00001DD204600E0088F1844101A04D4088D1F
:1043F0004885C86A101A10BDCB6A486AC01A0028DE
:1044000002DD0020488503E0888D8B8CC01A48852A
:104410000020F0E770B504460D4600BF208D4FF632
:10442000FF71081AA8420ADA00BFAFF2D8334FF47E
:10443000DD7282A1AFF2903006F06CF900BF00BFD0
:10444000208D28442085208D40F66831884201DD8A
:10445000084620852046FFF7B9FF064640F2DA20DD
:1044600086420ADB00BF94F8220040F0020084F884
:104470002200204602F02EFD00BF00BF00BF70BD2D
:104480002DE9F04107460D4614461E463CB12189F0
:104490002846FFF7BFFF2046FEF778FB05E026B968
:1044A0002846FFF71EFFBDE8F0810020FBE770B54E
:1044B0006148046835E0E06FD0B100BF00BF00BFC5
:1044C000D4F8840040B100232146D4F88460E26F20
:1044D0006069B047054606E0002321461846E26FB2
:1044E000FFF7CEFF054600BF0DB90020E06700BF13
:1044F00094F8220000F0010090B100BF00BF00BF9F
:1045000094F8220040F0020084F82200204602F0D5
:10451000E1FC00BF94F8220020F0030084F82200A0
:10452000E468002CC7D170BD10B5FFF7C0FF4C4840
:104530000078401CC0B24A49087000F0010008B180
:10454000FFF7B8FB10BD2DE9FF5F04460E46207C47
:104550000A2808D121462748FFF760FE214602209D
:10456000FEF762F988E0A76DD4F824800CB900202A
:1045700000E020680290201D08B9002000E060687B
:104580000390B4F818A0B4F82090D4F89050D4F860
:1045900014B021462848FFF741FEA06F10B1A06F6C
:1045A000FFF752FB606F10B1606FFFF74DFB2146C4
:1045B0000220FEF739F900BF1DB16FF00401584623
:1045C000A84700BF06B14DE056E000007463705F7D
:1045D000736C6F77746D723A2066697273742070B1
:1045E0006362203D3D207463705F74775F70636227
:1045F00073000000AC000020B0000020756E7365F1
:104600006E74207365676D656E7473206C65616B85
:10461000696E6700756E61636B6564207365676DB5
:10462000656E7473206C65616B696E6700000000D5
:10463000A0000020A4000020A80000207463705F88
:104640007265637665643A206C656E20776F756C71
:10465000642077726170207263765F776E640A00FF
:10466000B400002000BF00BF03AB02AA4146384699
:10467000CDE900A902F069FDBDE8FF9F00BFFE483B
:104680000088401C80B2FC4A1080B0F5004F02DB6D
:104690004FF480501080F948016806E0088BF64A14
:1046A0001288904200D1EAE7C9680029F6D1F4489F
:1046B000016806E0088BF04A1288904200D1DEE7DC
:1046C000C9680029F6D1EF48016806E0088BEA4A7C
:1046D0001288904200D1D2E7C9680029F6D1E64895
:1046E000008870472DE9F04107460D46164600BF89
:1046F000387C00280ED000BFAFF2A8634FF48C7254
:10470000E1A1AFF25C6006F005F800BF6FF00C00AD
:10471000BDE8F08100BF16B9FFF7B0FF0646D948E3
:10472000046810E0208BB0420CD144B1206830B155
:104730002DB1286818B120682968884202D16FF02D
:104740000A00E5E7E468002CECD1CC48046810E0EE
:10475000208BB0420CD144B1206830B12DB1286813
:1047600018B120682968884202D16FF00A00CFE7AB
:10477000E468002CECD1CE48046810E0208BB042F5
:104780000CD144B1206830B12DB1286818B120682F
:104790002968884202D16FF00A00B9E7E468002C6A
:1047A000ECD1B74804680AE0208BB04206D12068FB
:1047B0002968884202D16FF00A00A9E7E468002C5A
:1047C000F2D11DB1286808B1286838603E8300BF67
:1047D000B7480068F860B648076000BF00BF00BF78
:1047E000002095E703466FF00400704770B504465B
:1047F0000E4600BF207C00280CD000BFAFF2AC7387
:1048000040F27312ABA1AFF2607005F083FF00BFFE
:10481000002070BD00BF207C012801D12046F8E7B0
:104820000320FDF79BFF05460DB90020F1E7606905
:104830006861208B28830120287420892881288999
:1048400040F002002881E07AE872A07AA8720CB9E0
:10485000002000E02068286000BF95480068A04262
:1048600005D193480068C0689149086018E09048F5
:104870000068994908600EE097480068C068A04247
:1048800004D19549E0680968C86008E0924800686A
:10489000C06891490860904800680028ECD100BFCA
:1048A0000020E06000BF21460220FDF7BDFF8B48DD
:1048B000E86100BF73480068E8607248056000BFA7
:1048C0002846A6E72DE9F04105460E46304603F09E
:1048D00081FD044654B1208C40B1208C283887B229
:1048E000BD4201DA284600E0384605462846BDE8C4
:1048F000F0817B4800687B49096808447849086072
:104900000846006870472DE9FC4704460E4690466D
:10491000994600BF207C00280ED000BFAFF6CC0324
:104920004FF4027270A1AFF6800005F0F3FE00BFF5
:104930006FF00C00BDE8FC8700BF00BF00BF16B1E0
:104940003068606002E06FF00800F3E7A4F82080B0
:10495000208B10B9FFF792FE2083FFF7CAFF0546B0
:1049600000206062A565681EE064A06640F66830BD
:1049700020856085606AE06240F66830A4F85C00DB
:104980004FF406702087208F3146FFF79BFF20876A
:104990000120A4F85200208F00EB80004FF6FF7139
:1049A00001EA4000A4F8540002202074C4F8889062
:1049B00000BF3F480068A04205D13D480068C0687C
:1049C0003B49086018E03A480068434908600EE037
:1049D00041480068C068A04204D13F49E0680968C6
:1049E000C86008E03C480068C0683B4908603A4835
:1049F00000680028ECD100BF0020E06000BF00BFCD
:104A00001E480068E0601D48046000BF01200021CE
:104A100002230A46CDE90010204601F0FAFD0746C0
:104A200017B9204602F056FA384683E741747047BA
:104A30002DE9F04106464FF07F08002700250F487A
:104A4000046813E0607CB0420FDC607C40450CDC05
:104A50002449206B0968081AB84206D32149206B03
:104A600009680F1A254694F81180E468002CE9D1F2
:104A700005B153E058E00000B6000020A800002077
:104A8000AC000020A40000207463705F62696E6453
:104A90003A2063616E206F6E6C792062696E6420CB
:104AA000696E20737461746520434C4F5345440014
:104AB000A00000207463705F6C697374656E3A20A7
:104AC00070636220616C726561647920636F6E6EE1
:104AD0006563746564000000B0000020E5470008CD
:104AE000B80000209C0000207463705F636F6E6EDE
:104AF0006563743A2063616E206F6E6C7920636F1A
:104B00006E6E65637465642066726F6D2073746188
:104B1000746520434C4F53454400000000BF00BF64
:104B200001212846FFF70FFDBDE8F08170B5002692
:104B300000254F4804680BE04E49206B0968081AAD
:104B4000B04204D34B49206B09680E1A2546E4682D
:104B5000002CF1D12DB100BF00BF01212846FFF785
:104B6000F2FC70BD70B506460220FDF7F7FD044665
:104B70001CBB00BF00BFFFF7D9FF0220FDF7EEFD11
:104B800004468CB900BF00BF3046FFF751FF02203A
:104B9000FDF7E4FD04463CB13748B0F8CC00401EB8
:104BA00081B23548A0F8CC103CB13348B0F8CC0005
:104BB000401E81B23048A0F8CC10002C3AD0A02181
:104BC000204605F0BAFA4020183404F8070C40F6E5
:104BD0006830A4F856000020A4F8580040F6683069
:104BE00020826082002004F80E0CFF2004F80D0CD7
:104BF0004FF406702084062020860020A085062021
:104C0000E085C01FE08301206087FFF772FE054644
:104C1000E56425646563256516480068A061002089
:104C20002077AFF2A370E0661448E067002084F8B4
:104C30008500183C204670BD10B54020FFF792FF5C
:104C400010BD41617047C0F884107047C0F88010F3
:104C50007047C0F890107047C1617047C0F88C1061
:104C600080F8352070470146054850F8210070470C
:104C7000AC0000209C0000201C58002000DD6D00CE
:104C8000700000202DE9FC5F044600200190FE48E2
:104C9000007800F01000002874D0B4F85C00616E59
:104CA00000EB0109F949206E0968401A15D4F7494B
:104CB000206E0968884204D1F549606E0968401A7F
:104CC0000BD4F349606E096888421ED1F148006830
:104CD000C089B4F85C10884217DDEE480068C089CE
:104CE000A4F85C00E94800682066E948006860664E
:104CF000B4F85C00002806DD94F89C00002802DD72
:104D0000002084F89C0000BF00BFE149E06C096806
:104D1000081A002844DC0020A4F86C00DE48008853
:104D200078BBB4F85C10606E0844484532D1B4F9E1
:104D3000360000282EDBD649E06C0968884229D16C
:104D40000120019094F85000401C94F850108842C3
:104D500004DD94F85000401C84F8500094F8500092
:104D6000032810DDB4F85200218F084480B2B4F853
:104D7000521088420EDDB4F85200218F0844A4F886
:104D8000520007E07EE194F85000032802D120464B
:104D900002F097FA0198002801D184F85000D5E07C
:104DA000E06C401CBA490968081A7CD4B849A06D67
:104DB0000968081A002876DC94F8220000F0040044
:104DC00038B114F8220F20F004002070608E208685
:104DD000223C00203434A075608AB4F9101000EB36
:104DE000E10000B2A082208BA9490988081A208717
:104DF000608F218F0844608700202077A4480068D6
:104E0000A06114F8240C343C042827DBB4F85200C9
:104E1000B4F85410884210DAB4F85200218F0844D4
:104E200080B2B4F85210884205DDB4F85200218FE8
:104E30000844A4F8520000BF10E034F8381F49437A
:104E4000628B91FBF2F1114488B2618B383C814254
:104E500001DAA4F8520000BF00BF00BF00BF00BFCE
:104E600049E000BF00BFA66FA06F0068A06700BF49
:104E700000BF00BF7068FEF732FAB4F870108842C5
:104E800008DD00BF85A340F2B1328EA197A005F0E6
:104E900041FC00BF00BFB4F86C0068B1316988897B
:104EA00003F0D9F900E04EE000F0010020B1B4F8C1
:104EB0006C00401EA4F86C007068FEF710FAB4F89D
:104EC0007010081AA4F870003046FEF7ADFE00BF5F
:104ED00000BFB4F8700070B100BFA06F50B9606F30
:104EE00040B900BF6DA34FF46F728AA17FA005F097
:104EF00011FC00BF00BFA06FC8B1A16F096948686D
:104F000003F0AFF98346A16F0969888903F0A3F91B
:104F100000F0030008B1012000E00020A16F8989A2
:104F2000084458445A490968401A002899DDA06F7E
:104F300018B94FF0FF30E08601E00020E086002045
:104F400084F8340002E00020A4F86C0047E000BFC1
:104F500000BF666F606F0068606700BF00BF00BF82
:104F60007068FEF7BCF9B4F87010884208DD00BF25
:104F70004AA340F2DE3253A15CA005F0CBFB00BF98
:104F800000BFB4F86C0058B13169888903F063F947
:104F900000F0010020B1B4F86C00401EA4F86C00D1
:104FA0007068FEF79CF9B4F87010081AA4F8700045
:104FB0003046FEF739FE00BF00BFB4F8700070B194
:104FC00000BFA06F50B9606F40B900BF33A340F27B
:104FD000E73250A145A005F09DFB00BF00BF606F08
:104FE000F0B1616F0969486803F03BF98346616F6E
:104FF0000969888903F02FF900F0030008B1012046
:1050000000E00020616F89890844584420490968FC
:10501000081A05D41E49A06D0968081A002896DDF3
:1050200000BF00BFE06B68B31949206C0968401AE3
:1050300028D5A08F3F490988081A0FFA80F800BFC9
:1050400000BF34F9440FA8EBE0000FFA80F8208885
:10505000404400B224F84409B8F1000F03DAC8F163
:1050600000000FFA80F84434B4F90200A8EBA00065
:105070000FFA80F86088404400B260806088B4F91C
:10508000001059E061E00000CC000020C4000020C6
:10509000C8000020BC000020CE0000202E2E5C2E78
:1050A0002E5C4C5749505C6C7769702D312E332E35
:1050B000325C7372635C636F72655C7463705F69AA
:1050C0006E2E63007063622D3E736E645F71756552
:1050D00075656C656E203E3D20706275665F636C21
:1050E000656E286E6578742D3E7029004173736576
:1050F0007274696F6E2022257322206661696C6567
:1051000064206174206C696E6520256420696E20BE
:1051100025730A007463705F726563656976653A2A
:105120002076616C6964207175657565206C656EAB
:10513000677468009C00002000EBE10000B2A080D2
:10514000443C00BF00BF0020E063F948008800280D
:1051500071DDF848616A0068401C081A6CD4F54893
:10516000616A0068F24A12881044401E081A00283A
:1051700062DCF049606A0968451AEF48476800BF79
:10518000406850B900BFAFF2EC0340F24442EBA1DB
:10519000AFF2A80005F0BEFA00BF00BF00BF47F69F
:1051A000FF7085420ADB00BFAFF2101340F24542A8
:1051B000E6A1AFF2C80005F0ADFA00BF00BFDE48BF
:1051C00040684089A84238DA00BFDB48406800895F
:1051D000A8420ADA00BFAFF23C1340F24742DFA117
:1051E000AFF2F80005F096FA00BF00BFD248406861
:1051F0000089401B1FFA80FA06E078892D1AA7F86B
:1052000008A0002078813F687889A842F5DB6842D1
:1052100001B23846FDF7F8FF002822D000BF00BFDA
:10522000AFF2881340F25442D0A1AFF2401005F023
:1052300071FA00BF15E020E126E0BF4948686942E5
:1052400009B2FDF7E1FF60B100BF00BFAFF2B413D8
:1052500040F25942C5A1AFF26C1005F05BFA00BFF5
:1052600000BFB5497868886008468089A18CB14A3A
:105270001288891A401AB0498881AE49606A08606C
:10528000AD490969486011E0AA49606A0968081ACD
:105290000CD500BF00BF00BF94F8220040F0020010
:1052A00084F82200204601F015FE00BFA149606A83
:1052B0000968081A79D4218D606A0844401E9D4906
:1052C0000968081A002870DC9A49606A09688842EF
:1052D0006CD199490969888902F0BDFF00F003008B
:1052E00008B1012000E000209349898908449049D1
:1052F0000880208D0988884260DA00BF00BF8E498F
:105300000969888902F0A7FF00F00100C0B14FF6DB
:10531000C07002F09AFF88490969898900EA010B87
:1053200085490969888902F096FF00F03E000090E7
:1053300002F08BFF4BEA000B7F480069A0F80CB02D
:10534000208D7D4988810969888902F084FF00F0F9
:10535000020020B178488089401E77498881764ACA
:1053600091895068FDF7CBFD73490969888902F07E
:1053700072FF00F0030008B1012000E000206E4938
:10538000898908446A49088000BF218D606A084401
:1053900068490968664A1288114488420DD000BFE6
:1053A000AFF208334FF4916201E062E05DE074A176
:1053B000AFF2C82005F0AEF900BF00BF5D4800683D
:1053C0005B4909880844606200BF208D58490988FC
:1053D00088420ADA00BFAFF23C3340F2CB4276A1FA
:1053E000AFF2F82005F096F900BF00BF208D5049BC
:1053F0000988401A20852046FEF7E8FF4E4840689D
:105400000089002806DD4C48406873490860002088
:105410004949486048490969888902F01CFF00F041
:10542000010038B100BF00BF6C48007840F0200098
:105430006A49087000BF94F8220000F0010068B1CA
:1054400014F8220F20F001002070207840F00200B4
:1054500004F82209204601F03DFD05E094F8220001
:1054600040F0010084F8220020E0204601F07FFC9B
:105470001CE0204601F07BFC18E02E49606A0968B8
:10548000081A08D4218D606A0844401E2949096819
:10549000081A00280ADD00BF94F8220040F002003C
:1054A00084F82200204601F015FD00BFBDE8FC9FF6
:1054B0002DE9F04780464A48006800F11405484944
:1054C0000968888902F0C7FE0521B1EB203F2EDA7A
:1054D00043490968888902F0BEFE0521C1EB2030EE
:1054E0004FF6FF7101EA800600249EE015F8049053
:1054F000B9F1000F06D0B9F1010F07D0B9F1020FD1
:1055000070D108E000BF00BFBDE8F087601C84B226
:1055100000BF00BF88E000BF00BF601C285C0428FB
:1055200002D1201DB0425EDD00BF00BFECE77FE08E
:10553000CE000020C400002028590020696E736549
:10554000672E7020213D204E554C4C00696E7361D2
:105550006E65206F66667365742100007062756603
:1055600020746F6F2073686F7274210070627566AB
:105570005F686561646572206661696C65640000DE
:105580007463705F726563656976653A20736567F9
:105590006D656E74206E6F74207472696D6D6564D4
:1055A00020636F72726563746C7920746F2072630C
:1055B000765F776E640A00007463705F726563657E
:1055C0006976653A207463706C656E203E20726364
:1055D000765F776E640A0000D4000020D0000020BF
:1055E000BC00002013E0E01C295CA01C285C41EA00
:1055F000002740F2B450874200DC17B940F2B450A3
:1056000000E03846A8F83800201D84B20CE000BF46
:1056100000BF601C285C10B900BF00BF74E7601CAD
:10562000285C204484B200BF00BFB442FFF65EAFE6
:1056300000BF69E72DE9FC4104460027B846F94858
:10564000007800F00400002840D0207C022806D119
:10565000F549A06D096888420FD101270DE0F34993
:10566000606A0968081A08D4218D606A0844EF4905
:105670000968081A002800DC0127002F20D000BF8D
:1056800000BF00BF207C50B900BFAFF2F05340F222
:105690002522E7A1AFF2AC5005F03CF800BF00BFF7
:1056A000EB48007840F00800E949087094F82200BF
:1056B00020F0010084F822006FF00500BDE8FC81B5
:1056C00000BF00BF00BF00BF0020F7E7D54800784B
:1056D00000F0020090B1207C02280FD0207C03282B
:1056E0000CD000BF94F8220040F0020084F82200A1
:1056F000204601F0EFFB00BF0020DFE7D54800683F
:105700002063002084F89D002046FFF7D1FE207C16
:10571000801E08286FD2DFE800F004ADFEFDFCFB20
:10572000FAF900BF00BFBF48007800F01000002861
:1057300075D0BC48007800F0020000287ED0A16F30
:105740000969486802F08DFD401CB7490968884224
:1057500074D1B4F86E00401CA4F86E00B348006821
:10576000401C6062606AE062AF480068E064BA486A
:105770000068C089A4F85C00AC480068401E206640
:1057800004202074208F211DFFF79CF82087208F94
:1057900000EB80004FF6FF7101EA4000A4F85400CE
:1057A000B4F85200012802D1208F400000E0208F81
:1057B000A4F8520000BFB4F8700000280ADC00BF53
:1057C000AFF2287340F25722A4A1AFF2E06004F0D8
:1057D000A1FF00BF00BFB4F87000401EA4F8700025
:1057E00000BF00BFA56F2868A067A06F20B94FF069
:1057F000FF30E08604E031E20020E08684F84A00D1
:105800002846FEF711FA00BFD4F8880040B1002204
:105810002146D4F8883060699847804602E00DE060
:105820004FF0000800BF00BF94F8220040F00200D3
:1058300084F82200204601F04DFB1AE079480078F8
:1058400000F01000A8B18448006800888249096807
:105850004988CDE9001075480068864A1288811889
:10586000854803680C33026810326F48006801F005
:105870006CFCF4E16B48007800F0100000287CD04C
:10588000E06C401C68490968081A5ED46649A06D3E
:105890000968081A002858DC0420207400BF00BFE3
:1058A00000BFE06950B900BFAFF610034FF41F729C
:1058B00072A1AFF2C87004F02DFF00BF00BF00BF9F
:1058C000E06930B100222146E3696069984780466B
:1058D00001E04FF0000800BFB8F1000F06D0012131
:1058E0002046FEF730FE6FF00400E7E6B4F85260A1
:1058F0002046FFF7C7F9B4F86C0020B1B4F86C008B
:10590000401EA4F86C00012E09D105E090E14CE1A5
:1059100042E0FFE057E040E0208F400000E0208FB1
:10592000A4F852004A48007800F0200060B100BF9F
:1059300094F8220040F0020084F82200204601F092
:10594000C9FA00BF0720207425E04348006800889A
:10595000414909684988CDE9001034480068454A42
:1059600012888118444803680C33026810322E48AC
:10597000006801F0EAFB0EE0FFE72A48007800F03B
:10598000020040B1606A401E28490968884202D17D
:10599000204601F06EFC62E100BF2046FFF772F97D
:1059A0002B48007800F0200060B100BF94F822007E
:1059B00040F0020084F82200204601F08BFA00BF7C
:1059C000072020744BE12046FFF75CF9204800785F
:1059D00000F0200020B31348007800F0100000B35E
:1059E0001149A06D0968884279D100BF00BF00BF8E
:1059F00094F8220040F0020084F82200204601F0D2
:105A000069FA00BF2046FEF72EF900BF2048006863
:105A1000A0423FD11E480068C0681D49086052E09E
:105A20006BE05CE0CC000020C8000020C400002037
:105A30007463705F696E7075743A207063622D3E96
:105A4000737461746520213D20434C4F53454400DD
:105A5000D00000209C000020BC0000207063622D5C
:105A60003E736E645F71756575656C656E203E2072
:105A700030000000CE000020C00000207063622DC6
:105A80003E61636365707420213D204E554C4C008F
:105A9000A8000020FE480068FE4908600EE0FD48AE
:105AA0000068C068A04204D1FA49E0680968C8608B
:105AB00008E0F8480068C068F6490860F5480068E2
:105AC0000028ECD100BF0020E06000BF0A20207455
:105AD00000BFF1480068E060EF48046019E000BFD3
