:020000040800F2
:10000000D822002045010008F5190008F71900085A
:10001000FB190008FF190008031A0008000000007F
:10002000000000000000000000000000071A0008A7
:10003000091A0008000000000B1A00080D1A000839
:100040005F0100085F0100085F0100085F01000810
:100050005F0100085F0100085F0100085F01000800
:100060005F0100085F0100085F0100085F010008F0
:100070005F0100085F0100085F0100085F010008E0
:100080005F0100085F0100085F0100085F010008D0
:100090005F0100085F0100085F010008151A0008F1
:1000A0005F0100085F0100085F0100085F010008B0
:1000B0005F0100085F0100085F0100085F010008A0
:1000C0005F0100085F0100085F0100085F01000890
:1000D0005F0100085F0100085F0100085F01000880
:1000E0005F0100085F0100085F0100085F01000870
:1000F0005F0100085F0100085F0100085F01000860
:100100005F0100085F0100085F0100085F0100084F
:100110005F0100085F0100085F0100085F0100083F
:100120005F0100085F0100085F0100085F0100082F
:10013000DFF80CD007F052FA004800478119000898
:10014000D82200200648804706480047FEE7FEE721
:10015000FEE7FEE7FEE7FEE7FEE7FEE7FEE7FEE777
:1001600047020008310100080CB500200190009002
:100170006C48006840F480306A49086000BF6948F4
:10018000006800F4003000900198401C0190009835
:1001900018B90198B0F5A06FF1D16248006800F479
:1001A000003010B10120009001E000200090009884
:1001B000012843D15C48006840F010005A490860AB
:1001C0000846006820F0030008600846006840F018
:1001D0000200086053484068524948600846406839
:1001E00048600846406840F48060486008464068BF
:1001F00020F47C1048600846406840F4E8104860ED
:100200000846006840F08070086000BF45480068FC
:1002100000F000700028F9D04248406820F0030048
:10022000404948600846406840F00200486000BF0E
:100230003C48406800F00C000828F9D10CBD10B50E
:10024000FFF792FF10BD10B53648006840F001007E
:1002500034490860084640683449084031494860DC
:1002600008460068324908402E4908600846006880
:1002700020F4802008600846406820F4FE004860B2
:100280004FF41F008860FFF7DAFF4FF00060294944
:10029000086010BD10B5002100200022214B5B68D2
:1002A00003F00C0121B1042906D0082928D107E068
:1002B000214B224C236027E01F4B204C236023E07E
:1002C000184B5B6803F47010164B5B6803F48032C4
:1002D000022303EB904022B9194B4343174C236090
:1002E0000DE0104B5B6803F4003323B1144B434320
:1002F000124C236003E0104B4343104C236003E097
:100300000D4B0E4C236000BF00BF064B5B68C3F370
:1003100003130C4CE15C094B1B68CB40074C23607A
:1003200010BD000000100240002002400000FFF855
:10033000FFFFF6FE08ED00E000127A00000000204A
:1003400000093D000400002031490143314A116099
:10035000704770B5002100230F22C47804B32D4CE0
:10036000246804F4E064C4F5E064210AC1F10403E4
:10037000CA40447804FA03F1847814402143090107
:10038000254C0678A155047804F01F050124AC40E3
:1003900005786D11AD0005F1E025C5F8004109E0D3
:1003A000047804F01F050124AC401C4D067876113A
:1003B00045F8264070BD1A4A0A400243154B1B1FE0
:1003C0001A60704739B1134A121D12680243114B6B
:1003D0001B1D1A6006E00F4A121D126882430D4B66
:1003E0001B1D1A607047042808D14FF0E0210969ED
:1003F00041F004014FF0E022116107E04FF0E021ED
:10040000096921F004014FF0E022116170470000FA
:100410000000FA050CED00E000E400E080E100E0FF
:1004200080FFFF1F01684FF6FE721140016000213E
:10043000016041608160C1608D49884208D18C496A
:100440000839496841F00F01894A083A51608AE049
:1004500087491431884208D185490839496841F0F3
:10046000F001834A083A51607DE081492831884291
:1004700008D17F490839496841F470617C4A083ADB
:10048000516070E07A493C31884208D17849083996
:10049000496841F47041764A083A516063E0744912
:1004A0005031884208D172490839496841F47021B5
:1004B0006F4A083A516056E06D496431884208D16C
:1004C0006B490839496841F47001694A083A51603A
:1004D00049E067497831884208D165490839496857
:1004E00041F07061624A083A51603CE061498842DB
:1004F00006D1011F096841F00F01021F116032E0AF
:100500005C491431884208D15A49091F096841F0F1
:10051000F001584A121F116025E0564928318842DF
:1005200008D15449091F096841F47061514A121FEA
:10053000116018E04F493C31884208D14D49091FEC
:10054000096841F470414B4A121F11600BE04949A0
:100550005031884207D14749091F096841F4702189
:10056000444A121F1160704710B50022026847F616
:10057000F0739A430C6A8B6823430C6923434C69DC
:1005800023438C692343CC6923434C6A23438C6AFD
:1005900023431A430260CB6843600B6883604B6857
:1005A000C36010BD0021016041608160C1600161D4
:1005B00041618161C161016241628162704721B123
:1005C000026842F00102026004E002684FF6FE7326
:1005D0001A40026070471AB103680B43036002E0DF
:1005E00003688B4303607047416070470146486869
:1005F00080B2704701460020002201F080531BB1F9
:100600001C4B083B1A6802E0194B083B1A6802EAC7
:1006100001030BB1012000E00020704700F0805181
:1006200019B11449091F086002E0114908394860EE
:10063000704701460020002201F080531BB10D4B92
:10064000083B1A6802E00A4B083B1A6802EA0103F9
:100650000BB1012000E00020704700F0805119B17B
:100660000449091F086002E00149083948607047E1
:100670000800024008040240002044490860091DA7
:100680000860091D0860091D086041483F49143190
:100690000860704700213D498279002A3AD00A4615
:1006A000126803689A430B461A600A1D12680368B1
:1006B0009A430B1D1A60027911440A6803681A43B1
:1006C0000A60324A0832126803689A432F4B083393
:1006D0001A601A1D126803689A432C4B0C331A6077
:1006E0004279102A0ED11A1F126803681A43274B49
:1006F00008331A601A1D126803681A43234B0C331F
:100700001A600DE02149427911440A6803681A43CE
:100710000A6005E0027911440A6803689A430A6096
:1007200070470021016001710C214171002181712C
:1007300070471649103109680143144A103211609C
:10074000704701460020114A143212680A400AB16B
:10075000012000E0002070470C4914310860704708
:10076000014600200022094B1B6803EA0102074BE7
:1007700014331B680B4013B10AB1012000E00020C4
:1007800070470249143108607047000000040140BE
:10079000FFFF0F0030B943F2DB028100A1F1C0413D
:1007A0000A6005E043F2D2028100A1F1C0410A6073
:1007B0006FF07042411C8900A1F1C0410A608100C4
:1007C000A1F1C041C1F80421704710280AD11821B5
:1007D0004FF020421166402151664FF0FC31916686
:1007E000D16610E01821F74A116040214FF02042F5
:1007F000C2F884104FF0FC31F24A083211604FF019
:100800002042C2F88C1070471820EE492031086051
:1008100000200906C1F8A4004FF0FC30E949283156
:100820000860091D0860091D08607047D0E90112C1
:100830001143C2681143026911434269114382693D
:100840001143C2691143026A1143426A1143826A29
:100850001143C26A1143026B114302689200A2F174
:10086000C0421160816808290BD101688900A1F19B
:10087000C041096841F0400201688900A1F1C0410E
:100880000A60416B0968426B526841EA0211426B8F
:10089000926841EA0221426B928941EA0241426B2D
:1008A000128A41EA0251426B127D41EA0261426BB7
:1008B000926911430268521C9200A2F1C042116079
:1008C000C16AB1F5804F1BD1816B0968826B526898
:1008D00041EA0211826B926841EA0221826B128A1C
:1008E00041EA0251826B127D41EA0261826B926998
:1008F000114302689200A2F1C042C2F8041107E05D
:100900006FF0704201688900A1F1C041C1F8042173
:10091000704730B5002100220023446844F00804E9
:1009200085682C43C5682C4305692C43456944EA16
:100930004524856944EA4531C4692468C5696D6800
:1009400044EA0524C5692D8944EA0544C5692D7B1F
:1009500044EA0562046A2468056A6D6844EA05246D
:10096000056A2D8944EA0544056A2D7B44EA05633E
:100970000468102C05D14FF020442166A266E3667E
:1009800008E0904C21604FF02044C4F888208D4C42
:100990000C34236030BD016841F01001426841EA27
:1009A0004221826841EA4231864A20321160C168A0
:1009B0000968C268526841EA0221C268128941EAA4
:1009C0000241C268127B41EA02617E4A283211600C
:1009D000016909680269526841EA022102691289C3
:1009E00041EA02410269127B41EA0261754A2C32F6
:1009F0001160416909684269526841EA022142690D
:100A0000128941EA02414269127B41EA02614FF0D8
:100A10002042C2F8B01070470021016002214160FD
:100A200000218160C160016141618161C161016238
:100A30004FF480514162490081620021C16201632B
:100A40000F21426B1160426B5160FF21426B91603C
:100A50000F21426BD160426B1161426B51610021E9
:100A6000426B91610F21826B1160826B5160FF219B
:100A7000826B91600F21826BD160826B1161826BFE
:100A800051610021826B916170471021016000214A
:100A900041608160C160016141618161FC21C26985
:100AA0001160C2695160C2699160C269D160026A15
:100AB0001160026A5160026A9160026AD1607047F7
:100AC0000021016041608160FC21C2681160C26840
:100AD0005160C2689160C268D160026911600269A8
:100AE0005160026991600269D16042691160426996
:100AF0005160426991604269D160704751B1820092
:100B0000A2F1C042126842F001038200A2F1C04289
:100B1000136009E08200A2F1C04212682A4B1A4019
:100B20008300A3F1C0431A60704799B1102808D11F
:100B30004FF02042126E42F004024FF020431A663A
:100B40001DE0204A126842F004024FF02043C3F82F
:100B5000802014E0102809D14FF02042126E1A4B69
:100B6000DB1E1A404FF020431A6608E0154A12684F
:100B7000154BDB1E1A404FF02043C3F8802070470E
:100B800048B110492031096841F004014FF020427A
:100B9000C2F8A01009E00B49203109680A4AD21EA8
:100BA00011404FF02042C2F8A0107047B9B1102890
:100BB0000CD14FF02042126E42F040024FF0204321
:100BC0001A661FE0800000A0FEFF0F00724A126844
:100BD00042F040024FF02043C3F8802012E010287A
:100BE00008D14FF02042126E6C4B1A404FF0204358
:100BF0001A6607E0684A1268684B1A404FF02043B3
:100C0000C3F88020704701460020102903D14FF01F
:100C10002042506F02E0604A14321068704710B5ED
:100C2000F2B1102807D14FF020435B6E0B434FF019
:100C30002044636632E0B0F5807F08D1564B1B1D1F
:100C40001B680B434FF02044C4F8843026E0524B1D
:100C500024331B680B434FF02044C4F8A4301DE03C
:100C6000102807D14FF020435B6E8B434FF0204498
:100C7000636613E0B0F5807F08D1474B1B1D1B68EE
:100C80008B434FF02044C4F8843007E0424B2433B8
:100C90001B688B434FF02044C4F8A43010BD10B53E
:100CA000024600200023102A03D14FF02044636E37
:100CB00009E0B2F5807F03D1374C241D236802E0A0
:100CC000354C2434236803EA01040CB1012000E010
:100CD000002010BD102807D14FF02042526E8A43E9
:100CE0004FF020435A6613E0B0F5807F08D12A4ABE
:100CF000121D12688A434FF02043C3F8842007E096
:100D0000254A243212688A434FF02043C3F8A420B6
:100D1000704770B502460020002300240025102AE9
:100D200003D14FF02046736E09E0B2F5807F03D106
:100D3000194E361D336802E0174E2436336803EA35
:100D4000010403EAD10514B10DB1012000E0002037
:100D500070BD102808D14FF02042526E22EAD10215
:100D60004FF020435A6615E0B0F5807F09D10A4A5A
:100D7000121D126822EAD1024FF02043C3F88420EA
:100D800008E0054A2432126822EAD1024FF02043DB
:100D9000C3F8A42070470000800000A0BFFF0F0030
:100DA00010B50446CC48844208D10121042000F04B
:100DB0002DFB0021042000F029FB46E0C7488442B7
:100DC00008D10121082000F021FB0021082000F0BB
:100DD0001DFB3AE0C248844208D10121102000F0F6
:100DE00015FB0021102000F011FB2EE0BD488442CD
:100DF00008D10121202000F009FB0021202000F073
:100E000005FB22E0B848844208D10121402000F0CF
:100E1000FDFA0021402000F0F9FA16E0B3488442C0
:100E200008D10121802000F0F1FA0021802000F09B
:100E3000EDFA0AE0AE48844207D10121801500F0A6
:100E4000E5FA0021A01500F0E1FA10BD10B501216E
:100E5000084600F0DBFA0021012000F0D7FA10BDAF
:100E60002DE9F04102460025002600200023002441
:100E7000002791F803C00CF00F0591F803C00CF0A7
:100E8000100CBCF1000F03D091F802C04CEA05052C
:100E900091F800C0BCF1000F31D0146800202BE0A5
:100EA0004FF0010C0CFA00F3B1F800C00CEA030695
:100EB0009E4220D183004FF00F0C0CFA03F7BC4385
:100EC00005FA03FC4CEA040491F803C0BCF1280FB6
:100ED00006D14FF0010C0CFA00FCC2F814C00AE075
:100EE00091F803C0BCF1480F05D14FF0010C0CFA8A
:100EF00000FCC2F810C0401C0828D1D31460B1F81F
:100F000000C0BCF1FF0F34DD546800202EE000F17A
:100F1000080C4FF0010808FA0CF3B1F800C00CEA15
:100F200003069E4221D183004FF00F0C0CFA03F709
:100F3000BC4305FA03FC4CEA040491F803C0BCF17D
:100F4000280F05D100F1080C08FA0CF8C2F814803B
:100F500091F803C0BCF1480F07D100F1080C4FF025
:100F6000010808FA0CF8C2F81080401C0828CED3FB
:100F70005460BDE8F0814FF6FF710180022181705D
:100F80000421C17070470246002093680B400BB1EA
:100F9000012000E0002070470146886880B2704759
:100FA00002460020D3680B400BB1012000E0002076
:100FB00070470146C86880B270470161704741615F
:100FC00070470AB1016100E041617047C16070473C
:100FD0004FF480320A438261816182618269826951
:100FE000704702460020434B18684FF68073184044
:100FF00040EA021008433F4B186070473E49C86101
:101000007047F0B50A46002300240021002500F0B7
:101010000046B6F1004F02D1364EF16901E0354E7F
:101020007168C0F3034583B200F44016B6F5401F63
:1010300008D121F070612F4E766826F070662D4F32
:101040007E6012E000F48016B6F5801F06D10326FC
:1010500006FA05F4A14341F0706106E0460D360141
:1010600003FA06F6B14341F0706122B1460D360134
:1010700003FA06F6314300F00046B6F1004F02D104
:101080001C4EF16101E01B4E7160F0BD30B50022D5
:101090008B071C0F0F2303FA04F2164B08338C1036
:1010A00053F824309343134C08348D1044F8253002
:1010B00023468C1053F824308C07240F00FA04F4D4
:1010C00023430C4C08348D1044F8253030BD0A49B8
:1010D000DC3108607047000000080140000C01404E
:1010E000001001400014014000180140001C0140A4
:1010F000002001400000014000002042DF4800685D
:1011000040F00100DD49086008464068DC490840BD
:10111000DA49486008460068DA490840D74908605B
:101120000846006820F4802008600846406820F4E3
:10113000FE0048604FF41F0088607047CF4909687F
:1011400021F48031CD4A11601146096821F48021D3
:101150001160B0F5803F03D0B0F5802F0ED106E0CE
:10116000C649096841F48031C44A116007E0C349A7
:10117000096841F4A021C14A116000E000BF00BF2E
:10118000704710B501460022002300204A11012AB1
:1011900002D1BA4C236806E0022A02D1B74C236A76
:1011A00001E0B64C636A01F01F02012494401C4028
:1011B0000CB1012000E0002010BD38B500200090E7
:1011C0000024002500BF3120FFF7DBFF0546009813
:1011D000401C00900098B0F5A06F01D0002DF2D017
:1011E0003120FFF7CEFF08B1012400E000242046A3
:1011F00038BD01460020A14A106820F0F80040EAFE
:10120000C10010607047A049086070470246002086
:101210009A4B586820F47C1042EA01031843974B1C
:101220005860704798490866704701460020934A05
:10123000506820F003000843506070478F484068B2
:1012400000F00C007047014600208C4A506820F0E6
:10125000F00008435060704701460020874A5068FC
:1012600020F4E06008435060704701460020834A44
:10127000506820F4605040EAC1005060704729B1C6
:101280007E4A527A02437D4B5A7204E07B4A527A7C
:1012900082437A4B5A7270477B49D8310860704755
:1012A00001460020754A506820F4404008435060D1
:1012B00070470021714A20321170704A82F8201064
:1012C000012802D004280AD104E001216B4A20320F
:1012D000117005E00521694A2032117000E000BF5D
:1012E00000BF70476949086070476449096A014353
:1012F000624A11627047654944390860704730B5E9
:1013000000210022002400235C4D6D6805F00C01D3
:1013100021B1042905D0082923D105E05C4D0560E1
:1013200022E05B4D05601FE0544D6D6805F47012BE
:10133000524D6D6805F48034022505EB92421CB9CC
:10134000544D554305600BE04C4D6D6805F4003578
:101350001DB1504D5543056002E04D4D55430560AC
:1013600002E04B4D056000BF00BF444D6D6805F0C5
:10137000F0010909484D6B5C0568DD4045603F4D53
:101380006D6805F4E061090A434D6B5C4568DD401A
:1013900085603A4D6D6805F46051C90A3E4D6B5C3D
:1013A0004568DD40C560354D6D6805F44041890BE9
:1013B0003A4D6B5CC568B5FBF3F5056130BD29B1ED
:1013C0002E4A526902432D4B5A6104E02B4A52695E
:1013D00082432A4B5A61704729B1284A92690243D5
:1013E000264B9A6104E0254A92698243234B9A6115
:1013F000704729B1214AD2690243204BDA6104E0E7
:101400001E4AD26982431D4BDA61704729B11B4ADB
:10141000D2680243194BDA6004E0184AD26882436A
:10142000164BDA60704729B1144A12690243134B14
:101430001A6104E0114A12698243104B1A61704725
:1014400012494039086070470F49C86470470B491A
:10145000C87170470948406A40F080700749486287
:10146000704701460020054A92680A400AB10120EF
:1014700000E0002070470149887270470010024068
:101480000000FFF8FFFFF6FE0000424280044242E7
:1014900000127A0000093D00140000202400002002
:1014A00000206F49086048608860C86048628862B0
:1014B000C8626C4888630020C86370470021684A8E
:1014C000516847F6FF629143027D83681A4343687F
:1014D0001A43C3681A4303681A4303691A43114342
:1014E0005F4A516070470021017501604160816071
:1014F000C160016170475C490860704758490968DC
:1015000021F00301564A1160114609680143116038
:1015100070475348006800F00300704729B1504AF3
:10152000D26B02434E4BDA6304E04D4AD26B8243E6
:101530004B4BDA6370474D49086070470021484BB8
:1015400002689A601A46D1686FF30A01D0E9012354
:101550001A43C3681A4303691A431143404AD160CE
:1015600070470021016041608160C1600161704786
:101570003B480069C0B2704708B5014600200090A2
:1015800037481430084400900098006808BD0021D6
:10159000334B02685A6242689A621A46D16A21F055
:1015A000F701D0E902231A4303691A4343691A4336
:1015B00011432B4AD16270474FF0FF310160002187
:1015C00041608160C1600161416170472448006BE6
:1015D0007047234880300068704721498031086097
:1015E00070471F48806C704720491431086070476D
:1015F0001E491831086070471C491C31086070474B
:101600001A49203108607047194908607047184925
:10161000091D0860704701218143154A0832116095
:10162000704713490C3108607047014600200C4A8E
:10163000526B0A400AB1012000E0002070470849BF
:101640008863704701460020054A526B0A400AB180
:10165000012000E0002070470149886370470000C6
:1016600000800140FF07C000A00030428C053042DE
:10167000AC01304210B50446BE48844208D1012175
:101680008014FFF7C3FE0021A014FFF7BFFE16E091
:10169000B948844208D101210014FFF7C4FE00219B
:1016A0002014FFF7C0FE0AE0B448844207D10121AC
:1016B000C013FFF7B8FE0021E013FFF7B4FE10BD22
:1016C00010B50022028802F441520B884C88234353
:1016D0008C882343CC8823430C8923434C892343A0
:1016E0008C892343CC8923431A430280838B4FF296
:1016F000FF74234083830B8A038210BD2DE9F04FD2
:1017000085B005460C464FF0000902274FF000084F
:101710004FF0010B0026B246A88B4FF24001084063
:10172000A88302202884B5F81C90A068022801D163
:1017300000BF38E0A08810B94FF0010B01E04FF076
:10174000020B8D48854200D100E000BF6846FFF7DC
:10175000D6FDDDF800A0E088B0F5007F0AD14FEAA1
:101760001A2000EB80004000A168B0FBF1F0401DA2
:1017700086B20BE04FEA4B10BAFBF0F000EB8000B2
:101780004000A168B0FBF1F0401D86B20A20B6FB14
:10179000F0F606F00108A6EB0800C0F34F074FF67D
:1017A000FF7000EA0828022F01DBFF2F02DD02276D
:1017B0004FF00008E08840EA080038432884A088F9
:1017C000A1890843618808432188084340F40060E8
:1017D00040EA0909A5F81C9005B0BDE8F08F00218A
:1017E000018041808180C180018141818181C181ED
:1017F0000721018270470021018041808180C180E2
:101800000221816000218181704721B1028842F06C
:101810004002028004E002884FF6BF731A40028043
:10182000704721B1828B42F48062828304E0828B14
:101830004FF6FF331A408283704730B500240023EF
:101840000C110125A540ABB21AB185881D438580D6
:1018500002E085889D43858030BD1AB183880B43A3
:10186000838002E083888B43838070478181704747
:101870000146888970474FF6FF62914204D0028882
:1018800042F48072028004E002884FF6FF631A403F
:101890000280704721B1828842F00402828004E015
:1018A00082884FF6FB731A408280704702884FF29D
:1018B000FF731A40028002880A4302807047018841
:1018C00041F480510180704721B1028842F40052F6
:1018D000028004E002884DF6FF731A4002807047D0
:1018E00002460020012901D0108B00E0908A704749
:1018F0000146088A7047B1F5804F04D1028842F44E
:101900008042028004E002884BF6FF731A40028096
:1019100070470246002013890B400BB1012000E004
:1019200000207047CA4302817047F0B5024600208C
:1019300000240023002501F00F070126BE40B4B2A9
:101940000B1101269E40B3B2968806EA030516895C
:10195000264016B10DB1012000E00020F0BD10B509
:10196000002201F00F040123A3409AB2D343038164
:1019700010BD00000030014000380040003C004035
:1019800008B500F0E1FB00F0FDF9022000F004FAD8
:101990004FF6FF70F0234FF4A0720021009008462C
:1019A00000F098FA01F028FB00F0A4FC03F0A4F981
:1019B00000BF00F086FF0028FBD101F02FF911E0F5
:1019C0000948007801280DD100F048FE0446074A76
:1019D0002146074801F0A9F920B1054A518810882D
:1019E00001F01AFAECE7000028000020C8040020EB
:1019F00072000020704700BFFEE700BFFEE700BF97
:101A0000FEE700BFFEE770477047704710B500F073
:101A1000E2FB10BD10B54FF40070FEF7A1FE28B137
:101A20000120034908704002FEF7ABFE10BD000024
:101A30002800002001B502E00098401E00900098A8
:101A40000028F9D108BD08B501210802FFF7B7FC4D
:101A500001214FF4F470FFF7BFFC10208DF8030054
:101A600003208DF802000220ADF800006946FE4810
:101A7000FFF7F6F94FF40060ADF800006946FB4847
:101A8000FFF7EEF903208DF8020018208DF803000F
:101A90004CF20370ADF800006946F548FFF7E0F935
:101AA0004FF68070ADF800006946F248FFF7D8F9AC
:101AB0001020ADF800006946ED48FFF7D1F920206D
:101AC000ADF800006946EA48FFF7CAF94FF48050C4
:101AD000ADF800006946E548FFF7C2F90420ADF80B
:101AE00000006946E348FFF7BBF90221DE48FFF733
:101AF00066FA08BD00B597B0022001900020029060
:101B00000520039000200490059006904FF080502F
:101B10000790062008900020099008200A901020C5
:101B20000B9000200C900E900F9010904FF480506E
:101B30001190002012901390149001A81590169007
:101B400008A8FEF773FE01210620FEF7D7FF17B0A5
:101B500000BD10B54FF40061C448FFF730FAC64825
:101B6000FFF768FF4FF40061C048FFF726FAC2484C
:101B7000FFF760FF10BD00B5CF204FF0D8410880BF
:101B800000204FF0DA410880812008803020088052
:101B9000ED204FF0D841088064204FF0DA410880F2
:101BA000032008801220088081200880E8204FF060
:101BB000D841088085204FF0DA4108801020088045
:101BC00078200880CB204FF0D841088039204FF092
:101BD000DA4108802C20088000200880342008800A
:101BE00002200880F7204FF0D841088020204FF0D5
:101BF000DA410880EA204FF0D841088000204FF0F9
:101C0000DA4108800880B1204FF0D84108800020D8
:101C10004FF0DA4108801B200880B620410608807A
:101C20000A204FF0DA410880A2200880C0204FF03F
:101C3000D841088035204FF0DA410880C1204FF0AC
:101C4000D841088011204FF0DA410880C5204FF0BC
:101C5000D841088045204FF0DA4108800880C7202D
:101C60004FF0D8410880A2204FF0DA410880F220DE
:101C70004FF0D841088000204FF0DA41088026203C
:101C80004FF0D841088001204FF0DA410880E02071
:101C90004FF0D84108800F204FF0DA41088026200D
:101CA0000880242008800B2008800E20088009204E
:101CB000088054200880A8200880462008800C2036
:101CC000088017200880092008800F20088007203E
:101CD000088000200880E1204FF0D84108800020D3
:101CE0004FF0DA410880192008801B20088004206A
:101CF000088010200880072008802A2008804720BC
:101D00000880392008800320088006200880088089
:101D100030200880382008800F20088036204106B7
:101D20000880C8204FF0DA4108802A204FF0D841BF
:101D3000088000204FF0DA41088008800880EF20FA
:101D400008802B204FF0D841088000204FF0DA4166
:101D500008800880012008803F2008803A204FF04A
:101D6000D841088055204FF0DA41088011204FF00B
:101D7000D84108804048FFF75DFE29204FF0D84148
:101D8000088000BD10B5FFF75EFEFFF7B3FEFFF75A
:101D9000E0FEFFF7F0FE10BD012806D0022825D096
:101DA000032844D0042820D16DE036214A06118052
:101DB000C8214FF0DA4211802A214FF0D842118019
:101DC00000214FF0DA42118011801180EF21118043
:101DD0002B214FF0D842118000214FF0DA421180C0
:101DE0001180012111803F2111806DE036214A06CA
:101DF000118068214FF0DA4211802A214FF0D84239
:101E0000118000214FF0DA421180118001211180F0
:101E10003F2111802B214FF0D842118000214FF03B
:101E2000DA42118011801180EF2111804CE03621BF
:101E30004A06118028214FF0DA4211802A214FF002
:101E4000D842118000214FF0DA4211801180012127
:101E500011803F2111802B214FF0D84211800021A9
:101E60004FF0DA42118009E0000C014000200140EF
:101E70000014014000180140FCBF020011801180D5
:101E8000EF21118020E036214A06118048214FF0D1
:101E9000DA4211802A214FF0D842118000214FF000
:101EA000DA42118011801180EF2111802B214FF037
:101EB000D842118000214FF0DA42118011800121B7
:101EC00011803F21118000BF00BF2C214FF0D8426C
:101ED00011807047F0B5059D00242A264FF0D847A1
:101EE0003E8006124FF0DA473E80C6B23E8086182A
:101EF000761EC6F30F263E808618761EF6B23E800A
:101F00002B264FF0D8473E800E124FF0DA473E8026
:101F1000CEB23E80CE18761EC6F30F263E80CE1877
:101F2000761EF6B23E802C264FF0D8473E8000BF8A
:101F300003E04FF0DA463580641C02FB03F6A6424C
:101F4000F7D8F0BD2A224FF0D8431A8002124FF082
:101F5000DA431A80C2B21A8002121A80C2B21A8000
:101F60002B224FF0D8431A800A124FF0DA431A801E
:101F7000CAB21A800A121A80CAB21A80704730B5E3
:101F80002A244FF0D8452C8004124FF0DA452C80DB
:101F9000C4B22C808418641EC4F30F242C808418CF
:101FA000641EE4B22C802B244FF0D8452C800C12F8
:101FB0004FF0DA452C80CCB22C80CC18641EC4F3D0
:101FC0000F242C80CC18641EE4B22C8030BD70B578
:101FD00005460E46144631462846FFF7B3FF2C202F
:101FE0004FF0D84108804FF0DA40048070BD10B542
:101FF0000021002200234FF0DA4001880188038885
:102000000288C812C002941240EA441040EAE32059
:1020100010BD70B504460D4629462046FFF792FFD5
:102020002E204FF0D8410880FFF7E1FF06463046EA
:1020300070BD2DE9F04F81468A4615461E46A5F132
:1020400020001FFA80FB0C23062251464846FFF76A
:1020500096FF2C204FF0D841088000241CE00BEBA9
:102060004B00384901EB800010F8048000270FE096
:1020700008F0010018B14FF0DA40068004E04FF696
:10208000FF704FF0DA4108804FEA6808781C87B289
:10209000062FEDDB601C84B20C2CE0DBBDE8F08F7A
:1020A000F0B505460E4614461F4613E0B5F59D7F74
:1020B00003DD002506F10C0086B2E42E01DD0025CB
:1020C000002622783B4631462846FFF7B2FFA81D7E
:1020D00085B2641C20780028E8D1F0BD2DE9F047D6
:1020E00006468846144699460027002525463DB9F0
:1020F0004B46302241463046FFF79BFFBDE8F08754
:1021000003E00A20B5FBF0F57F1C002DF9D115E0A6
:102110000A20B4FBF0F100FB114000F1300A39460F
:102120007F1E062202FB0161891F88B24B46524680
:102130004146FFF77EFF0A20B4FBF0F4002CE7D104
:1021400000BFDBE76278000830B527480068274AFF
:10215000B0FBF2F1B1F1807F01D301201DE021F04D
:102160007F40401E4FF0E022506150170F220028A0
:1021700007DA13071D0E1E4B00F00F04241F1D5518
:1021800003E013071C0E1B4B1C5400BF00204FF034
:10219000E022906107201061002008B100BFFEE737
:1021A0004FF0E020006920F001004FF0E0210861CD
:1021B00030BD01B51049009808604FF0E02000697B
:1021C00040F001004FF0E021086100BF0A480068BC
:1021D0000028FBD108BD0848006820B10648006807
:1021E000401E0549086070470000002040420F0073
:1021F00018ED00E000E400E02C00002008B54FF4EA
:10220000C060FEF7A1F817208DF8000001208DF8BE
:1022100001008DF802008DF803006846FEF799F87A
:1022200008BD0EB501218120FFF7D6F8FFF7E6FFC4
:102230004FF40070ADF8080028208DF80B0002A9BB
:102240002A48FEF70DFE09210520FEF71FFF4FF477
:102250000070009000208DF804000C208DF805001F
:1022600001208DF806006846FEF714FA0EBD08B589
:1022700001214FF4C070FFF7AFF88020ADF80000E7
:1022800001208DF8020010208DF8030069461848DF
:10229000FEF7E6FD4FF40060ADF800006946134814
:1022A000FEF7DEFD4020ADF8000001208DF80200B1
:1022B00048208DF8030069460C48FEF7D1FD4FF425
:1022C0008060ADF8000001208DF8020010208DF82C
:1022D000030069460548FEF7C3FD4FF480610348DB
:1022E000FEF76DFEFFF79DFF08BD0000001C0140DA
:1022F0000020014010B5FFF7BAFF10BD01B5002066
:1023000008E00C2100BF0A00A1F10103D9B2FAD103
:10231000411C88B200998842F3D308BD70B50646C7
:102320004FF40061FE48FEF74AFE8021FD48FEF7AB
:1023300046FE002421E0C4F1070046FA00F000F058
:1023400001052DB14FF40061F548FEF736FE04E0BB
:102350004FF40061F248FEF732FE0520FFF7CEFF92
:102360008021F048FEF729FE0520FFF7C7FF8021F6
:10237000EC48FEF724FE601CC4B2082CDBDB70BD09
:1023800070B500244FF40061E548FEF718FE802187
:10239000E448FEF712FE002518E08021E148FEF730
:1023A0000EFE4021DE48FEF7EEFD08B1012000E000
:1023B00000200646C5F10B0006FA00F0204384B267
:1023C0008021D848FEF7F9FD681CC5B20C2DE4DB6E
:1023D000C4F30B04204670BD10B504462046FFF739
:1023E0009DFFFFF7CDFF10BD38B504460D461F20F9
:1023F00001231422294600902046FFF76BFD1F2081
:10240000A5F10A0291B204F10A02009090B21423DD
:102410000122FFF75FFD38BD2DE9F04104460D466E
:102420009020FFF7D9FF06460120FFF767FFD02075
:10243000FFF7D2FF074626602F60BDE8F081F0B5B8
:1024400097B000274821684604F041FE00BF15A957
:1024500016A8FFF7E1FF16984DF8270009A815996F
:1024600040F82710781CC7B24FF40071AC48FEF753
:102470008AFD08B9092FEADB4FF40071A848FEF77E
:1024800082FD012802D10020A7490870092F7DD1C3
:10249000DDE90001084402990844032190FBF1F0B2
:1024A0001290DDE90301084405990844032190FBDB
:1024B000F1F01390DDE9060108440899084403216E
:1024C00090FBF1F01490DDE91201441ADDE91301EB
:1024D000451A12991498461A002C01DD204600E096
:1024E00060420446002D01DD284600E068420546B2
:1024F000002E01DD304600E070420646022C06DD6B
:10250000022D04DD022E02DD002017B0F0BDAC422A
:1025100015DAA64209DA149A1299881800EBD071DC
:10252000C1F34F01814A11801EE0DDE912128818C3
:1025300000EBD071C1F34F017C4A118014E0AE4230
:1025400009DA149A1299881800EBD071C1F34F017F
:10255000764A118008E0DDE91312881800EBD0718B
:10256000C1F34F01714A1180DDE9091001440B9854
:102570000844032190FBF1F01290DDE90C100144B6
:102580000E980844032190FBF1F000E05BE013900B
:10259000DDE90F10014411980844032190FBF1F08C
:1025A0001490DDE91201441ADDE91301451A12996C
:1025B0001498461A002C01DD204600E060420446D3
:1025C000002D01DD284600E068420546002E01DDB1
:1025D000304600E070420646022C05DD022D03DD88
:1025E000022E01DD002090E7AC4215DAA64209DA9E
:1025F000149A1299881800EBD071C1F34F014B4A1D
:1026000051801EE0DDE91212881800EBD071C1F391
:102610004F01464A518014E0AE4209DA149A1299E9
:10262000881800EBD071C1F34F01404A518008E097
:10263000DDE91312881800EBD071C1F34F013B4A5A
:1026400051803A4861E7012F06DD3849009808803B
:1026500009984880084658E7002056E72DE9F047DA
:1026600096B000255021684604F031FD0024032671
:1026700000BF14A915A8FFF7CFFE15984DF8250047
:102680000AA8149940F82510681CC5B24FF40071CF
:102690002348FEF778FC08B9B542EADB4FF4007135
:1026A0001F48FEF770FC10B100201F490870B542AA
:1026B00053D1009FB846DDF82890CA4601240DE0AA
:1026C0005DF82400B84202DA5DF8247005E05DF898
:1026D0002400404501DD5DF82480641CB442EFDB3A
:1026E000012411E00AA850F82400484503DA0AA89A
:1026F00050F8249007E00AA850F82400504502DD65
:102700000AA850F824A0641CB442EBDBDDE9000108
:10271000084402990844C01BA0EB080008E0000030
:10272000001C01400020014028000020760000200D
:10273000C0F3CF00FE490880DDE90A1001440C987F
:102740000844A0EB0900A0EB0A00C0F3CF00F84951
:102750004880084616B0BDE8F0870020FAE72DE96A
:10276000F04705460C4616464FF00109218822899C
:10277000891AE38862899A1A5143A2882389D31A55
:1027800067886289BA1A03FB121004F033FEC6E9A7
:102790000C0100221346D6E90C71384604F062FEA3
:1027A00002D14FF0000989E029882A89891AE38833
:1027B00062899A1A5143AA882B89D31A6788628939
:1027C000BA1A03FB121004F015FEC6E900012188B5
:1027D0002289891AAA882B89D21A51432A88D21AA7
:1027E000A3882789DB1B02FB131004F003FEC6E954
:1027F00002012189AA885143A2882B8902FB131167
:102800006288514322885A4323892F8803FB172368
:10281000E28803FB0212A18879432388AF8803FB77
:102820001713618903FB012004F0E4FDC6E90401EC
:102830006A886989511AE38862899A1A5143EB8838
:102840006A899B1A67886289BA1A03FB121004F01E
:10285000D1FDC6E9060121882289891AEB886A8997
:102860009A1A51436B886A899A1AA3882789DB1BB5
:1028700002FB131004F0BEFDC6E908012189EA88B5
:102880005143A3886A8903FB12116288514322884D
:102890006B895A4323896F8803FB1723E28803FB64
:1028A0000213A18879432788EA8807FB12126189FD
:1028B00002FB013004F09EFDC6E90A014846BDE86E
:1028C000F0872DE9F04F8DB00026B14600200B9027
:1028D0000A900220FFF760FA002431E04FF6FF7003
:1028E000F0234FF4A072002100900846FFF7F2FA9F
:1028F0001F2390A26E210846FFF7D2FB1F23621C04
:102900005A21A020FFF7EAFB9048FFF752FC904ABB
:1029100002EB840251888E4A32F82400FFF764FDEE
:1029200000BFFFF79BFE0546002DFAD02888894995
:1029300021F82400688801EB84014880601CC4B23F
:10294000042CCBDB844A83498148FFF708FF814987
:10295000C88904F060FD82467F48D0E902733A4698
:10296000504604F066FCCDE902017A49888904F0FA
:1029700052FD82467848D0E900733A46504604F04A
:1029800058FCCDE90001DDE9022304F0ABFBCDE901
:1029900004017148D0E904733A46049804F0A2FB9C
:1029A000CDE906016C49D1E90C733A46079904F068
:1029B000B2FCCDE9080104F03BFD86B26549C88947
:1029C00004F029FD82466448D0E908733A4650462F
:1029D00004F02FFCCDE902015E49888904F01BFD5B
:1029E00082465D48D0E906733A46504604F021FC21
:1029F000CDE90001DDE9022304F074FBCDE9040117
:102A00005548D0E90A733A46049804F06BFBCDE9C7
:102A100006015148D0E90C733A46069804F07BFC55
:102A2000CDE9080104F004FD1FFA80F948488089C7
:102A3000B04203DA46488089301A02E0444880896F
:102A4000801B80B20B904248C089484504DA404858
:102A5000C089A9EB000003E03D48C089A0EB090054
:102A600080B20B904FF6FF70F0234FF4A07200215C
:102A700000900846FFF72EFA0B980A2802DC0A9805
:102A80000A2812DD1F2335A264210846FFF708FB40
:102A90001F2336A278216420FFF702FB3648FFF798
:102AA00088FB01200DB0BDE8F08F2B480022334B8E
:102AB000D0E90071384604F0BCFB82468B462649BB
:102AC000D1E90C733A46594604F025FC2C4A03C25E
:102AD0002149D1E902710022284B384604F0A9FBB4
:102AE00082461D48D0E90C733A46504604F013FC68
:102AF000234AC2E902011849D1E9047100221F4B9F
:102B0000384604F096FB82468B461349D1E90C7394
:102B10003A46594604F0FFFB194AC2E904010E483F
:102B20000022164BD0E90671384604F082FB29E0FA
:102B30007A000020546F7563682043616C6962728B
:102B40006174652E2E2E2E2E2E00000020A107006F
:102B500062000020B8040020C804002043616C69B2
:102B60006272617465206661696C0000747279201C
:102B7000616761696E00000080841E000000F03F04
:102B8000300000208246E148D0E90C733A465046B6
:102B900004F0C1FBDE4AC2E90601DC480022DD4B3D
:102BA000D0E90871384604F044FB8246D748D0E9A2
:102BB0000C733A46504604F0AEFBD54AC2E9080110
:102BC000D2480022D34BD0E90A71384604F031FBD9
:102BD0008246CE48D0E90C733A46504604F09BFB3F
:102BE000CB4AC2E90A014520CB490870002002F017
:102BF00018F901220021C84802F071F930220121A0
:102C0000C34802F06CF91F23C4A264210846FFF7F1
:102C100047FAC748FFF7CDFA002043E708B54FF65B
:102C2000FF70F0234FF4A072002100900846FFF7D8
:102C300051F94FF6FF701E2301220021009027203A
:102C4000FFF748F94FF6FF70012328221D2100905D
:102C50000020FFF73FF91F23B6A20A210520FFF746
:102C60001FFA00201E23282219460090FFF732F990
:102C70001F23B2A228210520FFF712FA1F201E23CE
:102C800028223C2100900020FFF724F94FF61F0076
:102C90001E2328225A2100900020FFF71BF94FF62F
:102CA000E0701E232822782100900020FFF712F9FF
:102CB00040F2FF701E232822962100900020FFF78B
:102CC00009F94FF4FC601E232822B4210090002053
:102CD000FFF700F94FF478401E232822D2210090FC
:102CE0000020FFF7F7F81F2396A246213C20FFF7AC
:102CF000D7F91F2398A25A213C20FFF7D1F91F23AF
:102D0000A0A26E213C20FFF7CBF91F23A6A28221AF
:102D10003C20FFF7C5F91F23A9A296213C20FFF70D
:102D2000BFF9AD48FFF745FA08BD2DE9F04F89B06E
:102D300081460C4692464FF0010B14B94FF0000B40
:102D400066E000221346DAE90C51284604F08AFBBB
:102D50005CD0608804F05FFB05466D48D0E90273E3
:102D60003A46284604F065FACDE90201208804F0CD
:102D700052FB07466648D0E900532A46384604F01D
:102D800058FACDE90001DDE9022304F0ABF9CDE901
:102D900004015F48D0E904532A46049804F0A2F9DC
:102DA000CDE9060104F044FBA9F80000608804F0B6
:102DB00032FB074688465649D1E908532A46414620
:102DC00004F037FACDE90201208804F024FB07461D
:102DD00088464F49D1E906532A46414604F029FA6C
:102DE000CDE90001DDE9022304F07CF9CDE904011D
:102DF0004749D1E90A532A46059904F073F9CDE908
:102E0000060104F015FBA9F8020001E04FF0000BE9
:102E1000584609B0BDE8F08FF8B506460C46254681
:102E2000282E4EDA3C2C20DD5A2D01DA1F2019E025
:102E3000782D02DA4FF61F0014E0962D02DA4FF6D5
:102E4000E0700FE0B42D02DA40F2FF700AE0D22DFC
:102E500002DA4FF4FC6005E0F02D02DA4FF478401E
:102E600000E01F205D4908804DE01E2C0ADA4FF675
:102E7000FF70F0234FF48C72002100902820FFF7A0
:102E800029F8F8BD1F2356A228210520FFF708F9CD
:102E900055A0F0234FF4A07200210090084600F0E6
:102EA000B5FA1F2352A228210520FFF7F9F8204880
:102EB000FFF77FF91F2321A228210520FFF7F0F853
:102EC00021E04648028821463046FFF780F8711E0F
:102ED00088B242490A882146FFF779F8601E81B21C
:102EE0003E4802883046FFF772F8711C88B23B49B1
:102EF0000A882146FFF76BF8601C81B237480288C8
:102F00003046FFF764F800BFBBE70000C8040020AC
:102F1000300000200000F03F6000002043616C6939
:102F2000627261746520537563636564000000001C
:102F300040420F00434C454152000000534156456A
:102F40000000000057656C636F6D6520746F207022
:102F500061696E742E00000053696D706C656C7948
:102F600020636C69636B206F6E2070616C65747494
:102F70006520746F2073656C65637420636F6C6F7C
:102F800072730000446F6E74206472617720616E0A
:102F900079207374726F6B65207768696C65207334
:102FA0006176696E672E00004861707079207061EB
:102FB000696E74696E672120456E6A6F797E0000C4
:102FC0004C6F76656C79206D616465206279204C68
:102FD0005846592E0000000020A107007E00002066
:102FE00057414954000000002F7061696E74000061
:102FF000444F4E450000000010B500F066FBA249AA
:10300000002003F080FB10BD10B5002400F05DFB34
:10301000002002F0B1F89C49002003F074FB02226A
:103020009AA19E4803F08CFB9D49087008460078E1
:1030300060B99C4B4FF400729B49984803F021FD06
:1030400097490870954803F07FFE00E000BF012219
:103050008EA1924803F074FB9149087001209149B8
:10306000086000209149086000BF00208F49086077
:1030700009E000208E498D4A126888548B48006808
:10308000401C8A49086089480068B0F5007FF0DB81
:10309000844B4FF400728649804803F00BFC804952
:1030A0000870844901EB4420814A83A104F0D4FADA
:1030B000641C7B48007818B97A4800680028D4D18D
:1030C00000BF00BF754803F03FFE10BD70B58EB065
:1030D00004460D461646224678A101A804F0BCFA23
:1030E0006949002003F00FFB062201A96B4803F099
:1030F00027FB6B4908700846007868B9694B32466F
:103100002946664803F0BDFC65490870634803F032
:103110001BFE00200EB070BD61480078082800D169
:10312000F8E74FF0FF30F5E770B58EB004460D4676
:103130001646224661A101A804F08EFA52490020E9
:1031400003F0E1FA022201A9544803F0F9FA5449C4
:1031500008700846007868B9524B324629464F48F5
:1031600003F08FFC4E4908704C4803F0EDFD002041
:103170000EB070BD4A480078042800D1F8E74FF03F
:10318000FF30F5E770B58EB005460E4600242A469E
:103190004AA101A804F060FAFFF72EFF3A49002087
:1031A00003F0B1FA012201A93C4803F0C9FA3C49F5
:1031B00008700846007878BB00BF00203B490860D3
:1031C00009E000203A49394A1268885437480068B3
:1031D000401C3649086035480068B0F5007FF0DBD8
:1031E000304B4FF4007232492C4803F063FB2C49FA
:1031F000087006EB44202E4A2FA104F02DFA641C1F
:103200002748007818B9274800680028D5D100BFA2
:1032100000BF00200EB070BDFFE74FF0FF30F9E7B0
:103220002DE9F04105460C4626786778A6F1B000F6
:10323000C0EB001101EB401007EB4000A1384FEA52
:1032400040181149002003F05EFA01221DA1134825
:1032500003F076FA124908700846007888B94146AA
:103260000E4803F07CFD0F4B202229460B4803F04B
:1032700021FB0B490870094803F066FD0020BDE8FA
:10328000F0814FF0FF30FAE700050020303A2F6D53
:10329000795F5F44656D6F2E5458540060090020BB
:1032A0008000002084020020810000208C02002089
:1032B000A80D0020A80F002025730000303A2573C8
:1032C00000000000303A2F485A4C49422E62696E85
:1032D00000000000704770472DE9F74F98B0D2A169
:1032E00001A81A9A04F0B8F9D149002003F00BFAAA
:1032F000012201A9CF4803F023FACF4908700846FC
:10330000007808BB06AB022207A9CA4803F0D2FA2C
:10331000BDF81C0044F64251884202D01BB0BDE803
:10332000F08F06AB0C2212A9C24803F0C3FA12A810
:10333000FFF7D0FF06AB282208A9BE4803F0BAFA6F
:1033400008A8FFF7C8FF00E0E8E7099EDDF828902D
:10335000BDF82E10714301F11F00C11700EBD161C0
:1033600049118C00B4F5707F00DDD7E70320FEF72C
:1033700013FD1FFA89F3B2B2DDE91801FEF7FFFD74
:10338000BDF82E0018283BDB002736E0A24604EBF0
:10339000DA70421006ABA949A64803F08BFAA3469F
:1033A00004EBDB70A54B03EB600104EBDA70421019
:1033B00006ABA04803F07EFA4FF000081AE008EBD5
:1033C00048059E49A81C085C1790681C085C16906C
:1033D0000846405D15901798C010C10216988010DD
:1033E00041EA4011159841EAE0004FF0DA410880C7
:1033F00008F10108B045E2DB7F1C4F45C6DB00E069
:103400008CE78C4803F0A0FC00BF87E72DE9FF4F55
:103410009DB014461D46382289A10FA803F03EFE38
:10342000002002902046E11704EB91718910A4EB73
:10343000810204FB05F101EB410105FB021101F1E1
:10344000360909F0FF008DF83E004FEA19208DF88B
:103450003F004FEA19408DF840004FEA19608DF89F
:103460004100A2460AF0FF008DF84E004FEA1A20F4
:103470008DF84F004FEA1A408DF850004FEA1A605D
:103480008DF85100AB460BF0FF008DF852004FEA6B
:103490001B208DF853004FEA1B408DF854004FEA73
:1034A0001B608DF855007448036874A104A82A9A1B
:1034B00004F0D2F870480068401C6F4908605C490D
:1034C000002003F020F9062204A95A4803F038F935
:1034D00059490870574803F037FC022204A955489F
:1034E00003F02EF9544908700846007800287CD172
:1034F00003AB36220FA94F4803F0C3FA4E490870B8
:103500004FF000087EE0E11704EB91718910A4EB05
:10351000810191BB00262DE0A5EB08031D9A1A44FA
:1035200091B21E9A324490B2FEF773FD0746F80A34
:10353000C0000E90C7F3451080000D90F806000EF5
:103540000C9003AB01220CA93A4803F09AFA3A49CD
:10355000087003AB01220DA9364803F092FA3649F0
:10356000087003AB01220EA9324803F08AFA3249EF
:103570000870761CA642CFDB42E0FFE700262DE074
:10358000A5EB08031D9A1A4491B21E9A324490B2D8
:10359000FEF73FFD0746F80AC0000E90C7F345103E
:1035A00080000D90F806000E0C9003AB01220CA9D0
:1035B000204803F066FA2049087003AB01220DA9E8
:1035C0001C4803F05EFA1C49087003AB01220EA9E7
:1035D000184803F056FA18490870761CA642CFDB4B
:1035E000E01704EB9070801000E015E0A4EB80027F
:1035F00003AB02A90F48019403F043FA0E49087087
:1036000008F10108A845FFF67EAF0A4803F09CFBCD
:10361000002021B0BDE8F08F07480078082800D1CD
:10362000F7E74FF0FF30F4E7303A25730000000071
:1036300068150020C819002090040020A81100205F
:10364000424D00000000000000003600000028008D
:103650000000000000000000000001001800000051
:10366000000000000000000000000000000000005A
:10367000000000000000000094040020303A257390
:1036800025642E626D70000008B50020FDF733FF41
:103690000020FDF733FFFDF703FF00214FF48060AA
:1036A000FDF78DFE4FF4F850ADF8000004208DF8C2
:1036B00003006946FC48FDF7D3FB0420ADF8000089
:1036C0006946FA48FDF7CCFB08BD08B54FF4C06069
:1036D000FCF73AFE31208DF8000000208DF8010043
:1036E0008DF8020001208DF803006846FCF731FEDA
:1036F00008BD10B5EE48FCF77DFF10BD30B58BB0AE
:1037000005460C46EB48FCF789FF0021EA48FCF728
:1037100056FFEA480090019500200290A00803900F
:103720000020049080200590800006908000079083
:10373000002008904FF40050099000200A9069463C
:10374000DD48FCF711FF0121DB48FCF738FF0BB027
:1037500030BD30B58BB005460C46D648FCF75EFF51
:103760000021D548FCF72BFFD4480090019510208C
:103770000290A00803900020049080200590800013
:10378000069080000790002008904FF400500990A8
:1037900000200A906946C848FCF7E6FE0121C648A9
:1037A000FCF70DFF0BB030BD08B501213020FDF74F
:1037B00013FE4FF4F850ADF8000003208DF802001E
:1037C00018208DF803006946B748FDF749FB04202F
:1037D000ADF800006946B548FDF742FB01218802BB
:1037E000FDF7EDFD01210220FDF7E9FD08BD0146D1
:1037F00000BFB2488038406B00F045000028F8D088
:1038000040F2FF50AD4A803A90631046406908226A
:103810001040C0B270472DE9FC4107460D46002616
:1038200000240020009001900820A5490860102085
:103830004860402088600020C8604FF480600861C4
:103840000846FDF77BFE1020FFF7D1FF044614B1B8
:103850002046BDE8FC819B48008800049849086028
:1038600037204860402088600020C8604FF48060A6
:1038700008610846FDF762FE3720FFF7B8FF0446EF
:103880000CB12046E5E74FF0FF308F490860082073
:103890004860302088600220C86000200861012054
:1038A00048610846FDF773FE002085490860332013
:1038B0004860402088600020C8604FF48060086144
:1038C0000846FDF73BFE3320FFF791FF04460CB19D
:1038D0002046BEE70CE04FF40010FDF7A6FE38B11D
:1038E000FDF777FE4DF82600761C012E00D907E083
:1038F00072488038406B40F22A6108400028EAD0C4
:1039000000BF0820FDF791FE28B10820FDF797FEC3
:10391000042420469DE70220FDF787FE28B10220FF
:10392000FDF78DFE0224204693E72020FDF77DFE63
:1039300028B12020FDF783FE0624204689E74FF4B6
:103940000070FDF772FE30B14FF40070FDF777FEA6
:10395000072420467DE740F2FF50FDF770FE0098F7
:103960000006009901F47F4140EA0120009901F42A
:103970007F0140EA1120009940EA116068600198D7
:103980000006019901F47F4140EA0120019901F408
:103990007F0140EA1120019940EA11602860204629
:1039A00057E77CB505460024002000900190FDF704
:1039B000E3FD00F0007010B10E2420467CBD4149AB
:1039C000098888B26946FFF726FF04460CB12046F5
:1039D000F4E7012D36D1019800F4802000282ED084
:1039E0003848008800043649086037204860402085
:1039F00088600020C860A80208610846FDF79EFDA7
:103A00003720FFF7F4FE04460CB12046D6E702202B
:103A10002B49086006204860402088600020C8606C
:103A20004FF4806008610846FDF788FD0620FFF727
:103A3000DEFE04460CB12046C0E72046BEE7252442
:103A40002046BBE7019800F48030F8B31D48008899
:103A500000041B490860372048604020886000202F
:103A6000C8604FF4806008610846FDF767FD3720A5
:103A7000FFF7BDFE04460CB120469FE70020104929
:103A8000086006204860402088600020C8604FF42D
:103A9000806008610846FDF751FD0620FFF7A7FE8C
:103AA0000446A4B1204689E70010014000140140FB
:103AB0000020001000F0001044040240808001400B
:103AC000A81E00209C040020BC1E002001E020460F
:103AD00074E72524204671E770B504460025FB48AD
:103AE0000068032802D12725284670BDF7480068E2
:103AF00038B1F6480068012803D0F448006802286D
:103B00002ED1B4F5805F02D127252846EDE7B4F524
:103B1000006F14D10120FFF744FF054605BB0120CB
:103B2000EB49087500200860486088604FF4006029
:103B3000C860002008610846FDF7C0FC10E00020C6
:103B4000FFF72FFF05465DB90120E1490875002008
:103B5000086048608860C86008610846FDF7AEFCF0
:103B60002846C2E770B504460025DA4804600720FD
:103B7000D8494860402088600020C8604FF48060C9
:103B800008610846FDF7DAFC0720FFF730FE05461E
:103B9000284670BD30B5014600200022CB4B1B7873
:103BA00081F84E30CC4B1B88A1F84C30CB4B1B68B6
:103BB0001A0E93090B70C2F383034B7002F00303D8
:103BC0008B70C64B1B68C3F30742CA70C34B1B887C
:103BD000C3F307220A71C14B1A784A715B681A0E47
:103BE0001301CB80BD4B5B68C3F30742CB8843EA2C
:103BF0001213CB8002F00F030B72B84B9B88C3F3F8
:103C00000722D3094B72C2F380138B72C2F34013A5
:103C1000CB72C2F300130B7300234B73AB4B1B68C7
:103C20001BB1AA4B1B68012B3CD193071B0D0B61E9
:103C3000AA4B1A790B6943EA82030B61A74B9B6875
:103C40001A0E0B6943EA92130B61C2F3C2030B75A0
:103C500002F007034B75A14B9B68C3F3074253095E
:103C60008B75C2F38203CB7593075B0F0B769B4B6F
:103C70001B89C3F307220B7E43EAD2130B760B6931
:103C80005B1C4B640C7E4B6CA41C0125A5406B4354
:103C90004B640C7A0123A3408B64D1E91134634354
:103CA0004B6421E0894B1B68022B1DD18B4B1A7989
:103CB00093069B0A0B61894B9B681A0E0B6943EABA
:103CC00002230B61854B9B68C3F307420B691343C7
:103CD0000B61824B1B89C3F307220B695B1CDB045E
:103CE0004B644FF400738B64C2F3801301F8193FE7
:103CF00093065B0E4B70794B1A7A4B7843EAD213DA
:103D00004B7002F07F038B70744BDB681A0ED30983
:103D1000CB70C2F341130B71C2F382034B71930753
:103D20001B0F8B716D4BDB68C3F307428B7943EA42
:103D300092138B71C2F34013CB7100230B7202F00C
:103D400001034B72654B9B89C3F30722D3098B7226
:103D5000C2F38013CB72C2F340130B73C2F3001390
:103D60004B73C2F381038B7302F00303CB735B4B82
:103D70001A7B53080B7401234B74594B1B681A0EA2
:103D8000CA741939564B1B68C3F307421402CC8519
:103D9000534B1B88C3F30722CB8D1343CB85504B6A
:103DA0001A7814060C635B681A0E0B6B43EA024424
:103DB0000C634B4B5B68C3F307420B6B43EA022473
:103DC0000C63474B9B88C3F307220B6B13430B63B6
:103DD000434B1A7934235A54414B9B681A0E3523AE
:103DE0005A543F4B9B68C3F3074214068C633C4B09
:103DF0001B89C3F307228B6B43EA02448C63384B65
:103E00001A7A8B6B43EA02248C63354BDB681A0EFB
:103E10008B6B13438B63324BDB68C3F307423C234A
:103E20005B5C43EA12143C235C5413071C0DCC87E3
:103E30002B4B9B89C3F30722CB8F1343CB87284B94
:103E40001A7B540840235C54012441235C5430BD48
:103E500070B500252348446B01E02248446B04F010
:103E600045000028F9D004F0040028B103250420FF
:103E7000FDF7E5FB284670BD04F0010028B10125DF
:103E80000120FDF7DCFB2846F5E740F2FF50FDF787
:103E9000D6FB2846EFE72DE9F04106460F464FF0E6
:103EA00000081048456B01E00E48456B05F04500E1
:103EB0000028F9D005F00400B0B14FF00308042049
:103EC000FDF7BDFB4046BDE8F081000098040020EE
:103ED000901E0020A81E00209C040020101E002020
:103EE000201E00200080014005F0010030B14FF09D
:103EF00001080120FDF7A3FB4046E4E7FDF738FB8E
:103F0000B04203D04FF010084046DCE740F2FF50CB
:103F1000FDF795FB0020FDF72FFB044604F46040FD
:103F200018B9200C38804046CDE704F4005008B1A1
:103F30001320C8E704F4804008B11020C3E704F45C
:103F4000004008B10F20BEE74046BCE738B500246A
:103F500001200090FDF7DDFA10B92524204638BD78
:103F6000F7480068042828D00020F649086002209D
:103F70004860C02088600020C8604FF480600861FD
:103F80000846FDF7DBFAFFF763FF04460CB1204655
:103F9000E5E70020FDF7F0FAEB4908600420FDF7A3
:103FA000EBFAE94948600820FDF7E6FAE64988603F
:103FB0000C20FDF7E1FAE449C860E148006858B117
:103FC000DF480068012807D0DD480068062803D0D4
:103FD000DB480068022816D10020DA490860032077
:103FE0004860402088600020C8604FF4806008610D
:103FF0000846FDF7A3FA69460320FFF74CFF044685
:104000000CB12046ABE7CE48006804282ED0BDF89E
:104010000000CE490860BDF800000004C9490860EE
:1040200009204860C02088600020C8604FF480608C
:1040300008610846FDF782FAFFF70AFF04460CB153
:1040400020468CE70020FDF797FAC149086004205C
:10405000FDF792FABE4948600820FDF78DFABC4989
:1040600088600C20FDF788FAB949C8600024204612
:1040700075E770B50025B748446B01E0B548446B5F
:1040800004F045000028F9D004F0040028B103250D
:104090000420FDF7D4FA284670BD40F2FF50FDF72A
:1040A000CEFA2846F8E770B500264FF48035A948C7
:1040B000446B02E06D1EA748446B04F0450008B94C
:1040C000002DF7D115B104F0040028B10326042017
:1040D000FDF7B5FA304670BD04F0400028B1002667
:1040E0004020FDF7ACFA3046F5E73046F3E770B50F
:1040F00000254FF4803400E0641E24B18020FDF7D9
:1041000094FA0028F8D014B90325284670BD40F26F
:10411000FF50FDF794FA2846F8E72DE9F041002416
:10412000002600250027A046B2208B4908750020F4
:10413000086048608860C86008610846FDF7BEF9FD
:104140000320FDF7DBF90120FDF7D5F900207D49BB
:10415000086048608860C8604FF480600861084665
:10416000FDF7ECF9FFF7C3FF044614B12046BDE8A4
:10417000F0814FF4D57073490860082048604020F2
:1041800088600020C8604FF4806008610846FDF731
:10419000D5F9FFF788FF04462CB90120684908606B
:1041A0004FF0804812E000206649086037204860E0
:1041B000402088600020C8604FF480600861084695
:1041C000FDF7BCF93720FFF712FB044600205D49DC
:1041D000086037204860402088600020C8604FF4A5
:1041E000806008610846FDF7A9F93720FFF7FFFA5C
:1041F0000446002C4AD136E000205249086037209E
:104200004860402088600020C8604FF480600861EA
:104210000846FDF793F93720FFF7E9FA04460CB199
:104220002046A4E74D4848EA000046490860292096
:104230004860402088600020C8604FF480600861BA
:104240000846FDF77BF9FFF714FF04460CB1204642
:104250008DE70020FDF790F90646012080EAD67030
:1042600080F001076D1C1FB94FF6FF708542C3D364
:104270004FF6FF70854202D31B24204677E706F0F5
:104280008040060002D002202D49086020466EE7DB
:1042900010B50024FFF788FAFDF702F9FFF73DFF9C
:1042A00004460CB1204610BDFFF750FE04460CB189
:1042B0002046F8E70120284908750020086048607A
:1042C0008860C86008610846FDF7F8F81CB9244802
:1042D000FFF760FC044634B92149B1F84C100804DA
:1042E000FFF740FC044624B94FF40060FFF7F4FBED
:1042F00004462046D7E770B50446002513480088D9
:1043000000041449886040F24D40C8600D20FFF75A
:104310006EFA05460DB1284670BD0E484069206012
:104320002846F9E708B5002000906846FFF7E3FF4C
:1043300008B1FF2008BD0098C0F34320FAE7000051
:1043400098040020A81E0020201E00209C040020AD
:10435000101E002000800140901E002000001080F0
:10436000401E002010B50424FFF7DCFF0446042C97
:1043700001D1002010BDFF2C01D10220FAE701205D
:10438000F8E710B500240020FDF7B8F8204610BD6E
:1043900070B50446002500260020FDF7EDF800F07A
:1043A000007010B10E25284670BD4020FC49086001
:1043B00010204860402088600020C8604FF4806072
:1043C00008610846FDF7BAF81020FFF710FA054615
:1043D0000DB12846E8E7F34800880004F04908607A
:1043E00037204860402088600020C8604FF480601B
:1043F00008610846FDF7A2F83720FFF7F8F90546EF
:104400000DB12846D0E74FF0FF30E7490860402063
:104410004860602088600220C86000200861012098
:1044200048610846FDF7B3F80020DD4908600D201B
:104430004860402088600020C8604FF480600861B8
:104440000846FDF77BF80D20FFF7D1F905460DB1C1
:104450002846A9E70EE04FF40040FDF7E6F848B122
:10446000002604E0FDF7B5F844F82600761C082E77
:10447000F8D32034CD48406B40F22A610840002830
:10448000E9D00820FDF7D1F828B10820FDF7D7F8CA
:104490000425284688E70220FDF7C7F828B1022046
:1044A000FDF7CDF8022528467EE72020FDF7BDF870
:1044B00028B12020FDF7C3F80625284674E74FF4FD
:1044C0000070FDF7B2F830B14FF40070FDF7B7F8A7
:1044D0000725284668E703E0FDF77BF82060241DE8
:1044E0004FF40010FDF7A1F80028F5D140F2FF507D
:1044F000FDF7A5F8284657E770B5044600260025C5
:10450000AB48FFF745FF06460EB1304670BDA848E0
:10451000007885092570A6480078C0F340156570BD
:10452000A348857828026080A148C5786088284320
:1045300060809F480579280660609D4845796068DD
:1045400040EA054060609A488579606840EA052045
:1045500060609748C5796068284360609448057A30
:104560002572457A6572807A0509A5729048C57AE8
:104570002802A0818E48057BA0892843A0818C4811
:10458000407B8508A5738A48407B00F00305E573EE
:104590003046BBE72DE9F04107460D46144600269C
:1045A00000208449087084490860844908607F4974
:1045B000C86283480068022801D104026D0A784865
:1045C0000460102076494860402088600020C86060
:1045D0004FF4806008610846FCF7B0FF1020FFF739
:1045E00006F9064616B13046BDE8F0814FF0FF30BF
:1045F0006D49086008464460902088600220C860C9
:1046000000200861012048610846FCF7C0FF6448AB
:104610000560112062494860402088600020C86021
:104620004FF4806008610846FCF788FF1120FFF70F
:10463000DEF806460EB13046D6E701210802FCF747
:104640006DFF0120FCF777FF21463846FFF756F84B
:104650003046C9E72DE9F04180460D4614461E4616
:10466000002700205349087053490860012053492E
:10467000086000204D49C86251480068022801D1F5
:1046800004026D0A464804601020454948604020F5
:1046900088600020C8604FF4806008610846FCF71D
:1046A0004DFF1020FFF7A3F8074617B13846BDE8C5
:1046B000F0814FF0FF303C49086006FB04F0486091
:1046C000902088600220C8600020086101204861B5
:1046D0000846FCF75CFF324805601220304948600C
:1046E000402088600020C8604FF480600861084660
:1046F000FCF724FF1220FFF77AF807460FB138467F
:10470000D5E701210802FCF709FF0120FCF713FFA0
:1047100006FB04F14046FEF7F1FF3846C7E710B547
:10472000002400BFFEF7E5FF30B92348006818B940
:10473000204800780028F5D01E48007810B11D48A8
:10474000007810BD2046FCE72DE9F04107460D46F4
:1047500014460026002017490870174908601749B9
:1047600008601249C86216480068022801D1040294
:104770006D0A0B4804601020094948604020886099
:104780000020C8604FF4806008610846FCF7D6FE40
:104790001020FFF72CF80646A6B13046BDE8F081A0
:1047A000A81E00209C040020BC1E002000800140A8
:1047B000301E0020A4040020A8040020A004002033
:1047C00098040020FE4805601820FD4948604020FC
:1047D00088600020C8604FF4806008610846FCF7DC
:1047E000ADFE1820FFF703F806460EB13046D5E7B8
:1047F0004FF0FF30F349086008464460902088601D
:104800000020C8600861012048610846FCF7BFFE2F
:1048100001210802FCF782FE21463846FEF799FF87
:104820000120FCF788FE3046B8E72DE9F8438046C2
:104830000F4615461E46002400200090E2490870ED
:10484000E24908600120E24908600020E149C862AD
:10485000E1480068022801D105027F0AD8480560B6
:104860001020D7494860402088600020C8604FF47D
:10487000806008610846FCF761FE1020FEF7B7FF74
:10488000044614B12046BDE8F883D44800880004EB
:10489000CB49086037204860402088600020C8600D
:1048A0004FF4806008610846FCF748FE3720FEF7A9
:1048B0009EFF04460CB12046E5E7C148066017207C
:1048C000BF494860402088600020C8604FF4806085
:1048D00008610846FCF732FE1720FEF788FF044601
:1048E0000CB12046CFE7B64807601920B4494860AC
:1048F000402088600020C8604FF48060086108464E
:10490000FCF71CFE1920FEF772FF04460CB120468E
:10491000B9E74FF0FF30AB49086006FB05F048608F
:10492000902088600020C860086101204861084626
:10493000FCF72DFE01210802FCF7F0FD0120FCF739
:10494000FAFD06FB05F14046FEF703FF20469AE715
:1049500010B5002400BFFEF7CCFE30B99B480068BC
:1049600018B9994800780028F5D09748007810B118
:104970009548007810BD40F2FF50FCF760FE2046DD
:10498000F8E79448406B00F4405008B101207047AC
:104990000020FCE710B5002400208E49886040F21A
:1049A0004C40C8600C20FEF722FF0446204610BD94
:1049B0007CB50446002500200190009087480088BF
:1049C00000047F4908600D20486040208860002076
:1049D000C8604FF4806008610846FCF7AFFD7D4871
:1049E000406B009002E07B48406B0090009800F024
:1049F00045000028F7D0009800F0040028B10325F6
:104A00000420FCF71CFE28467CBD009800F0010045
:104A100028B101250120FCF712FE2846F4E7FCF737
:104A2000A7FD009000980D2802D010252846EBE73E
:104A300040F2FF50FCF703FE0020FCF79DFD0190C3
:104A40000198C0F34320207065490198084008B9D7
:104A50002846D9E7019800F0004008B11C20D3E7B0
:104A6000019800F0804008B10920CDE7019800F0DE
:104A7000005008B10A20C7E7019800F0805008B143
:104A80000B20C1E7019800F0006008B10C20BBE7E3
:104A9000019800F0806008B10D20B5E7019800F0A2
:104AA000807008B10E20AFE7019800F4000008B153
:104AB0000F20A9E7019800F4800008B11020A3E7B7
:104AC000019800F4001008B111209DE7019800F44E
:104AD000801008B1122097E7019800F4002008B177
:104AE000132091E7019800F4802008B114208BE78F
:104AF000019800F4003008B1152085E7019800F412
:104B0000803008B116207FE7019800F4004008B11A
:104B1000172079E7019800F4804008B1182073E766
:104B2000019800F4005008B119206DE7019800F0D9
:104B3000080008B11A2067E7284665E72DE9FC411F
:104B400005460E46002400270020019000902548CD
:104B50004068202101EA105018B925242046BDE8FC
:104B6000FC811C484068C0B2801C1F49B1FBF0F0BA
:104B700001900020FCF700FD00F0007010B10E2441
:104B80002046ECE714480068022801D16D0A760A35
:104B90001148006838B110480068012803D00E4859
:104BA0000068022842D10648056020200449486078
:104BB000402088600020C8604FF48060086115E0E4
:104BC000A81E0020BC1E0020A4040020A804002071
:104BD000A004002000800140980400209C040020D4
:104BE00008E0FFFD101E0020C0D401000846FCF7BD
:104BF000A5FC2020FEF7FBFD04460CB12046AEE7E5
:104C000038480660212037494860402088600020ED
:104C1000C8604FF4806008610846FCF78FFC2120D3
:104C2000FEF7E5FD04460CB1204698E700202D492B
:104C3000086026204860402088600020C8604FF44B
:104C4000806008610846FCF779FC2620FEF7CFFD5E
:104C500004460CB1204682E7002700E07F1C019843
:104C60008742FBD36846FFF7A3FE044603E068468D
:104C7000FFF79EFE04463CB99DF800000728F6D0D9
:104C80009DF800000628F2D0204668E710B51648C7
:104C9000006801280BD100201449886040F24C4084
:104CA000C8600C20FEF7A3FD1149087002E0002047
:104CB0000F4908704FF48070FCF7CEFC00214FF4D0
:104CC0008070FCF72BFC01200A4908600848007836
:104CD00010BD0146002002E04910421CD0B201295B
:104CE000FAD17047A81E0020A004002000800140D7
:104CF000A4040020A804002000B587B001212420CE
:104D0000FCF76AFB01210803FCF766FB2020ADF8E5
:104D1000040003208DF8060018208DF8070001A973
:104D2000F848FCF79DF84020ADF8040001A9F548CB
:104D3000FCF796F88020ADF8040001A9F148FCF7D3
:104D40008FF81020ADF804008DF8070001A9ED4898
:104D5000FCF786F81021EB48FCF72FF90020ADF89E
:104D600008004FF48270ADF80A000020ADF80C0086
:104D70000220ADF80E000120ADF810004002ADF8A1
:104D800012000820ADF814000020ADF8160007202E
:104D9000ADF8180002A9DC48FCF792FC0121DA48C2
:104DA000FCF733FD07B000BD10B5044600BF02217B
:104DB000D548FCF7AEFD0028F9D02146D248FCF7D3
:104DC00055FD00BF0121D048FCF7A3FD0028F9D014
:104DD000CD48FCF74DFDC0B210BD10B50024102128
:104DE000C848FCF7ECF80520FFF7DEFF00BFFF2006
:104DF000FFF7DAFF044604F001000028F7D1102184
:104E0000C048FCF7DAF810BD10B51021BD48FCF71A
:104E1000D6F80620FFF7C8FF1021BA48FCF7CDF8F6
:104E200010BD10B50446FFF7EFFFFFF7D6FF1021C6
:104E3000B448FCF7C4F82020FFF7B6FFC4F30740DE
:104E4000FFF7B2FFC4F30720FFF7AEFFE0B2FFF7B2
:104E5000ABFF1021AB48FCF7B0F8FFF7BEFF10BD69
:104E600010B5FFF7D1FF1021A648FCF7A8F8C7201E
:104E7000FFF79AFF1021A348FCF79FF8FFF7ADFF5B
:104E800010BD70B505460C461646FFF7BDFF102154
:104E90009C48FCF794F80220FFF786FFC4F3074014
:104EA000FFF782FFC4F30720FFF77EFFE0B2FFF7B2
:104EB0007BFFB6F5807F01DD4FF4807603E0287834
:104EC000FFF772FF6D1C3000A6F101018EB2F6D122
:104ED00010218C48FCF771F8FFF77FFF70BD2DE9BA
:104EE000F05F07460E4614464FF00008C146C24622
:104EF0000025AB4606F0FF0ACAF10000C5B2204605
:104F0000E11704EB1161C1F30728E11704EB11610C
:104F10000912A4EB012101F0FF09BAF1000F20D121
:104F2000B8F1000F05D1224631463846FFF7A9FFF8
:104F300064E009E04FF4807231463846FFF7A1FF84
:104F400006F5807607F580775FEA0800A8F1010191
:104F500001F0FF08EED14A4631463846FFF791FF8F
:104F60004CE0B8F1000F18D1A94510DDA9EB050000
:104F700000F0FF0B2A4631463846FFF782FF2E44E9
:104F80002F445A4631463846FFF77BFF36E022462B
:104F900031463846FFF775FF30E0601B84B220468B
:104FA000E11704EB1161C1F30728E11704EB11616C
:104FB0000912A4EB012101F0FF092A4631463846C7
:104FC000FFF75FFF2E442F4409E04FF48072314613
:104FD0003846FFF756FF06F5807607F580775FEADB
:104FE0000800A8F1010101F0FF08EED1B9F1000FAE
:104FF00004D04A4631463846FFF743FFBDE8F09FEC
:1050000070B505460C46164610213E48FBF7D7FF03
:105010000320FFF7C9FEC4F30740FFF7C5FEC4F342
:105020000720FFF7C1FEE0B2FFF7BEFE04E0FF205D
:10503000FFF7BAFE28706D1C3000A6F101018EB298
:10504000F5D110212F48FBF7B8FF70BD2DE9F041D5
:10505000002400250026002710212A48FBF7AFFF77
:105060009F20FFF7A1FEFF20FFF79EFE0546FF20D1
:10507000FFF79AFE0646FF20FFF796FE074610212F
:105080002048FBF79AFF280440EA062040EA07047C
:105090002046BDE8F08110B5002410211948FBF727
:1050A0008EFFAB20FFF780FEFF20FFF77DFEFF2085
:1050B000FFF77AFEFF20FFF777FEFF20FFF774FE71
:1050C000044610210F48FBF778FF204610BD10B5AD
:1050D000044610210B48FBF772FF0320FFF764FE24
:1050E000C4F30740FFF760FEC4F30720FFF75CFE40
:1050F000E0B2FFF759FE10BD10B5FF20FFF754FED8
:1051000010BD0000000801400030014010B5044609
:1051100000BF02211648FCF7FCFB0028F9D021460D
:105120001348FCF7A3FB00BF01211148FCF7F1FB7A
:105130000028F9D00E48FCF79BFB10BD10B51021DC
:105140000C48FBF73CFFB920FFF72EFE1021094861
:10515000FBF733FF10BD10B510210648FBF72FFFFA
:10516000AB20FFF721FE10210248FBF726FF10BD00
:10517000003001400008014070B505460DB1012026
:1051800070BDFFF785F804460CB10120F8E7002058
:10519000F6E70146002070472DE9F04107460D462D
:1051A00014461E46012E0EDD610233464FF4007296
:1051B0002846FFF74FFAFFF7B2FA00BFFFF7D2F821
:1051C0000028FBD10CE061024FF400722846FFF783
:1051D000E1F9FFF7A4FA00BFFFF7C4F80028FBD1FC
:1051E0000020BDE8F0812DE9F04107460D46144648
:1051F0001E46012E0EDD610233464FF40072284632
:10520000FFF713FBFFF7A4FB00BFFFF7ABF8002885
:10521000FBD10CE061024FF400722846FFF794FACC
:10522000FFF796FB00BFFFF79DF80028FBD1002099
:10523000BDE8F08103460020704700207047000061
:1052400070B503460C4603E014F8015B03F8015BFC
:105250001500A2F10102F7D170BD30B5034601E09F
:1052600003F8011B1400A2F10102F9D130BDF0B521
:1052700003461C460D46002000BF1600A2F10102A5
:1052800007D014F8017B15F801CBA7EB0C06300012
:10529000F3D0F0BD024600E0521C107810B1107837
:1052A0008842F9D1107870472DE9F04104460D4647
:1052B000E66AAE422FD0207908B3607801233246E7
:1052C00004F13001FFF78FFF10B10120BDE8F0813C
:1052D00000202071D4E907100844B0420FD9E778C4
:1052E0000AE0E069064460780123324604F13001A7
:1052F000FFF779FF781EC7B2012FF2DC00BF55B16E
:10530000607801232A4604F13001FFF745FF08B118
:105310000120DBE7E5620020D8E770B504460021F4
:105320002046FFF7C1FF0546002D59D120780328FC
:105330004FD1607900284CD00020E0624FF4007219
:10534000002104F13000FFF788FF552184F82E1268
:10535000AA2184F82F12522084F8300052213120E3
:10536000015561213220015541213320015572211F
:1053700084F8141284F81512412184F81612612160
:1053800084F81712217C84F81812208A010A84F804
:1053900019122069010C84F81A122069010E84F890
:1053A0001B12217B84F81C12A089010A84F81D12AB
:1053B000E068010C84F81E12E068010E84F81F12E8
:1053C0006078012304F130016269FFF70CFF0020CF
:1053D0006071607800221146FFF72CFF00B10125B3
:1053E000284670BD0246891E9069801E884201D8F9
:1053F000002070479378906A01FB0300F9E72DE9DC
:10540000F04105460C46022C02D3A869A04202D8FE
:105410000120BDE8F0812878012804D002282CD092
:1054200003285AD13DE0274607EB5707286A00EBCF
:1054300057212846FFF738FF00B14EE0C7F30801B7
:1054400005F1300010F801807F1C286A00EB57211D
:105450002846FFF729FF00B13FE0C7F3080105F137
:105460003000405C48EA002804F0010010B14FEA27
:105470001810CEE7C8F30B00CBE7286A00EB142125
:105480002846FFF711FF00B127E040F2FF1000EAC5
:10549000440105F130000E183078717840EA01209F
:1054A000B7E7286A00EBD4112846FFF7FDFE00B1EC
:1054B00013E040F2FF1000EA840105F130000E18FD
:1054C000F0780006B17840EA0140717840EA0120A6
:1054D0003178084320F070409BE700BF4FF0FF3069
:1054E00097E72DE9F04705460E461746022E02D3F0
:1054F000A869B04202D84FF002088AE02878012853
:1055000004D0022841D003287DD154E0B14609EBF4
:105510005909286A00EB59212846FFF7C5FE804645
:10552000B8F1000F00D071E0C9F3080105F13000B7
:105530000C1806F0010020B1F9B2207861F31F10B9
:1055400000E03846207009F1010901202871286A1D
:1055500000EB59212846FFF7A7FE8046B8F1000F5F
:1055600000D053E0C9F3080105F130000C1806F033
:10557000010010B1C7F3071005E0207800F0F0003B
:10558000C7F303210843207040E0286A00EB16218E
:105590002846FFF789FE8046B8F1000F00D035E0BD
:1055A00040F2FF1000EA460105F130000C182770A8
:1055B000380A60702AE0286A00EBD6112846FFF707
:1055C00073FE8046B8F1000F00D01FE040F2FF10DC
:1055D00000EA860105F130000C18E0780006A17899
:1055E00040EA0140617840EA01202178084300F058
:1055F000704007432770380A6070380CA070380E6E
:10560000E07003E0FFE74FF0020800BF00BF012099
:1056100028714046BDE8F0872DE9F04104460E466A
:10562000022E02D3A069B04201D8022725E000274C
:105630001FE031462046FFF7E2FE054605B91BE0B4
:10564000012D01D1022717E0681C08B9012713E0DA
:10565000002231462046FFF744FF074607B10BE022
:105660002069401C20B12069401C2061012060712C
:105670002E46A069B042DCD800BF3846BDE8F081B4
:105680002DE9F04704468946B9F1000F06D1E768D5
:1056900017B1A069B84211D801270FE0494620464A
:1056A000FFF7ADFE0646022E02D20120BDE8F087CC
:1056B000A069B04201D93046F8E74F463D4600BFE9
:1056C0006D1CA069A84204D80225BD4201D9002062
:1056D000ECE729462046FFF792FE064606B909E0A8
:1056E000701C08B1012E01D13046DFE7BD42E7D181
:1056F0000020DBE700BF6FF0704229462046FFF72D
:10570000F0FE8046B8F1000F08D1B9F1000F05D0C6
:105710002A4649462046FFF7E4FE8046B8F1000FCE
:1057200009D1E5602069401C68B12069401E2061F4
:105730000120607107E0B8F1010F02D14FF0FF3096
:1057400000E0012005462846B0E72DE9F041044677
:105750000E46E680A568012D03D020688069A84226
:1057600002D80220BDE8F0812DB920680078032816
:1057700001D12068456A65B9E56020680089B042BA
:1057800001DC0220EEE72068406A00EB1610206181
:1057900020E020688078070112E029462068FFF7A2
:1057A0002EFE0546681C08B90120DBE7022D03D355
:1057B00020688069A84201D80220D3E7F01B86B296
:1057C000BE42EADAE56029462068FFF70BFE00EBEF
:1057D000161020612068303006F00F0100EB4110F8
:1057E00060610020BEE72DE9F0410446884600BF15
:1057F000E088401C86B20EB1206910B90420BDE8D3
:10580000F08106F00F0000286FD12069401C206154
:10581000E06828B920680089B04266DC0420EEE721
:1058200020688078401E00EA161000285DD1E168EB
:105830002068FFF7E4FD0546012D01D80220DEE7D0
:10584000681C08B90120DAE720688069A84246D8B8
:10585000B8F1000F01D10420D1E7E1682068FFF71B
:105860000FFF05460DB90720C9E7012D01D1022020
:10587000C5E7681C08B90120C1E700212068FFF7CF
:1058800013FD08B10120BAE7216801F130004FF49F
:1058900000720021FFF7E1FC29462068FFF7A2FD16
:1058A0002168C862002710E00120216808710021EA
:1058B0002068FFF7F9FC08B10120A0E72068C06A62
:1058C000401C2168C862781CC7B220688078B84242
:1058D000EADC2068C06AC01B2168C86200BFE560BE
:1058E00029462068FFF77EFD2061E6802068303081
:1058F00006F00F0100EB4110606100207FE72DE909
:10590000F04705460C46207820F04000401E00EB92
:10591000800101EBC00600274FF0010800BFFE48E0
:10592000C05D205CFC49C95D2144497840EA0129F9
:10593000B8F1000F10D0484601F090FB8046FF2ED2
:1059400007D23146761C35F8110001F087FB40453F
:1059500008D00020BDE8F0874FF6FF70814501D0E8
:105960000020F7E7781C07460D28D8D3207800F0F0
:10597000400038B1B8F1000F04D035F8160008B176
:105980000020E7E70120E5E7F0B50346087800F0DE
:105990003F00401E00EB800707EBC00200250126F8
:1059A00000BFDD48405D085CDB4F7F5D0F447F78C2
:1059B00040EA07244EB1FF2A01D30020F0BD26465D
:1059C0001046521C23F8104005E04FF6FF70844249
:1059D00001D00020F2E7681C05460D28E1D30878C5
:1059E00000F0400030B1FF2A01D30020E6E700209C
:1059F00023F812000120E1E7F0B504461D464D737F
:105A00000F27CF7200270F738F76BC4681F81BC01B
:105A1000571E07EB870C0CEBC706002738463B46A2
:105A200000BF4FF6FF77B84203D03746761C34F8F4
:105A30001700DFF8E4C21CF803C001F80C000712DD
:105A4000DFF8D4C21CF803C08C448CF8017008B98C
:105A50004FF6FF705F1C3B460D2FE2D34FF6FF77EA
:105A6000B84202D034F816700FB942F040020A7002
:105A7000F0BD2DE9FC4707468A4690461C460B229E
:105A800051463846FFF7DCFB052C0BDD00BF6010EC
:105A900000EBC43138F8022B881884B2B8F8000043
:105AA0000028F4D1072600BF2046E11704EB11714E
:105AB0000911A4EB0111303101F0FF09B9F1390FDF
:105AC00003DD09F1070000F0FF093046761E0DF8EE
:105AD00000902046E11704EB1171C1F30F14002C64
