:020000040800F2
:100000002012002045010008E1160008E316000850
:10001000E7160008EB160008EF16000800000000C5
:10002000000000000000000000000000F3160008BF
:10003000F516000800000000F7160008F916000881
:100040005F0100085F0100085F0100085F01000810
:100050005F0100085F0100085F0100085F01000800
:100060005F0100085F0100085F0100085F010008F0
:100070005F0100085F0100085F0100085F010008E0
:100080005F0100085F0100085F0100085F010008D0
:100090005F0100085F0100085F0100080117000808
:1000A0005F0100085F0100085F0100085F010008B0
:1000B0005F0100085F0100085F0100085F010008A0
:1000C0005F0100085F0100085F0100085F01000890
:1000D0005F0100085F0100085F0100085F01000880
:1000E0005F0100085F0100085F0100085F01000870
:1000F0005F0100085F0100085F0100085F01000860
:100100005F0100085F0100085F0100085F0100084F
:100110005F0100085F0100085F0100085F0100083F
:100120005F0100085F0100085F0100085F0100082F
:10013000DFF80CD006F028FD0048004775160008CF
:10014000201200200648804706480047FEE7FEE7E9
:10015000FEE7FEE7FEE7FEE7FEE7FEE7FEE7FEE777
:1001600047020008310100080CB500200190009002
:100170006C48006840F480306A49086000BF6948F4
:10018000006800F4003000900198401C0190009835
:1001900018B90198B0F5A06FF1D16248006800F479
:1001A000003010B10120009001E000200090009884
:1001B000012843D15C48006840F010005A490860AB
:1001C0000846006820F0030008600846006840F018
:1001D0000200086053484068524948600846406839
:1001E00048600846406840F48060486008464068BF
:1001F00020F47C1048600846406840F4E8104860ED
:100200000846006840F08070086000BF45480068FC
:1002100000F000700028F9D04248406820F0030048
:10022000404948600846406840F00200486000BF0E
:100230003C48406800F00C000828F9D10CBD10B50E
:10024000FFF792FF10BD10B53648006840F001007E
:1002500034490860084640683449084031494860DC
:1002600008460068324908402E4908600846006880
:1002700020F4802008600846406820F4FE004860B2
:100280004FF41F008860FFF7DAFF4FF00060294944
:10029000086010BD10B5002100200022214B5B68D2
:1002A00003F00C0121B1042906D0082928D107E068
:1002B000214B224C236027E01F4B204C236023E07E
:1002C000184B5B6803F47010164B5B6803F48032C4
:1002D000022303EB904022B9194B4343174C236090
:1002E0000DE0104B5B6803F4003323B1144B434320
:1002F000124C236003E0104B4343104C236003E097
:100300000D4B0E4C236000BF00BF064B5B68C3F370
:1003100003130C4CE15C094B1B68CB40074C23607A
:1003200010BD000000100240002002400000FFF855
:10033000FFFFF6FE08ED00E000127A00000000204A
:1003400000093D000400002031490143314A116099
:10035000704770B5002100230F22C47804B32D4CE0
:10036000246804F4E064C4F5E064210AC1F10403E4
:10037000CA40447804FA03F1847814402143090107
:10038000254C0678A155047804F01F050124AC40E3
:1003900005786D11AD0005F1E025C5F8004109E0D3
:1003A000047804F01F050124AC401C4D067876113A
:1003B00045F8264070BD1A4A0A400243154B1B1FE0
:1003C0001A60704739B1134A121D12680243114B6B
:1003D0001B1D1A6006E00F4A121D126882430D4B66
:1003E0001B1D1A607047042808D14FF0E0210969ED
:1003F00041F004014FF0E022116107E04FF0E021ED
:10040000096921F004014FF0E022116170470000FA
:100410000000FA050CED00E000E400E080E100E0FF
:1004200080FFFF1F01684FF6FE721140016000213E
:10043000016041608160C1608D49884208D18C496A
:100440000839496841F00F01894A083A51608AE049
:1004500087491431884208D185490839496841F0F3
:10046000F001834A083A51607DE081492831884291
:1004700008D17F490839496841F470617C4A083ADB
:10048000516070E07A493C31884208D17849083996
:10049000496841F47041764A083A516063E0744912
:1004A0005031884208D172490839496841F47021B5
:1004B0006F4A083A516056E06D496431884208D16C
:1004C0006B490839496841F47001694A083A51603A
:1004D00049E067497831884208D165490839496857
:1004E00041F07061624A083A51603CE061498842DB
:1004F00006D1011F096841F00F01021F116032E0AF
:100500005C491431884208D15A49091F096841F0F1
:10051000F001584A121F116025E0564928318842DF
:1005200008D15449091F096841F47061514A121FEA
:10053000116018E04F493C31884208D14D49091FEC
:10054000096841F470414B4A121F11600BE04949A0
:100550005031884207D14749091F096841F4702189
:10056000444A121F1160704710B50022026847F616
:10057000F0739A430C6A8B6823430C6923434C69DC
:1005800023438C692343CC6923434C6A23438C6AFD
:1005900023431A430260CB6843600B6883604B6857
:1005A000C36010BD0021016041608160C1600161D4
:1005B00041618161C161016241628162704721B123
:1005C000026842F00102026004E002684FF6FE7326
:1005D0001A40026070471AB103680B43036002E0DF
:1005E00003688B4303607047416070470146486869
:1005F00080B2704701460020002201F080531BB1F9
:100600001C4B083B1A6802E0194B083B1A6802EAC7
:1006100001030BB1012000E00020704700F0805181
:1006200019B11449091F086002E0114908394860EE
:10063000704701460020002201F080531BB10D4B92
:10064000083B1A6802E00A4B083B1A6802EA0103F9
:100650000BB1012000E00020704700F0805119B17B
:100660000449091F086002E00149083948607047E1
:100670000800024008040240002044490860091DA7
:100680000860091D0860091D086041483F49143190
:100690000860704700213D498279002A3AD00A4615
:1006A000126803689A430B461A600A1D12680368B1
:1006B0009A430B1D1A60027911440A6803681A43B1
:1006C0000A60324A0832126803689A432F4B083393
:1006D0001A601A1D126803689A432C4B0C331A6077
:1006E0004279102A0ED11A1F126803681A43274B49
:1006F00008331A601A1D126803681A43234B0C331F
:100700001A600DE02149427911440A6803681A43CE
:100710000A6005E0027911440A6803689A430A6096
:1007200070470021016001710C214171002181712C
:1007300070471649103109680143144A103211609C
:10074000704701460020114A143212680A400AB16B
:10075000012000E0002070470C4914310860704708
:10076000014600200022094B1B6803EA0102074BE7
:1007700014331B680B4013B10AB1012000E00020C4
:1007800070470249143108607047000000040140BE
:10079000FFFF0F0030B943F2DB028100A1F1C0413D
:1007A0000A6005E043F2D2028100A1F1C0410A6073
:1007B0006FF07042411C8900A1F1C0410A608100C4
:1007C000A1F1C041C1F80421704710280AD11821B5
:1007D0004FF020421166402151664FF0FC31916686
:1007E000D16610E01821F74A116040214FF02042F5
:1007F000C2F884104FF0FC31F24A083211604FF019
:100800002042C2F88C1070471820EE492031086051
:1008100000200906C1F8A4004FF0FC30E949283156
:100820000860091D0860091D08607047D0E90112C1
:100830001143C2681143026911434269114382693D
:100840001143C2691143026A1143426A1143826A29
:100850001143C26A1143026B114302689200A2F174
:10086000C0421160816808290BD101688900A1F19B
:10087000C041096841F0400201688900A1F1C0410E
:100880000A60416B0968426B526841EA0211426B8F
:10089000926841EA0221426B928941EA0241426B2D
:1008A000128A41EA0251426B127D41EA0261426BB7
:1008B000926911430268521C9200A2F1C042116079
:1008C000C16AB1F5804F1BD1816B0968826B526898
:1008D00041EA0211826B926841EA0221826B128A1C
:1008E00041EA0251826B127D41EA0261826B926998
:1008F000114302689200A2F1C042C2F8041107E05D
:100900006FF0704201688900A1F1C041C1F8042173
:10091000704730B5002100220023446844F00804E9
:1009200085682C43C5682C4305692C43456944EA16
:100930004524856944EA4531C4692468C5696D6800
:1009400044EA0524C5692D8944EA0544C5692D7B1F
:1009500044EA0562046A2468056A6D6844EA05246D
:10096000056A2D8944EA0544056A2D7B44EA05633E
:100970000468102C05D14FF020442166A266E3667E
:1009800008E0904C21604FF02044C4F888208D4C42
:100990000C34236030BD016841F01001426841EA27
:1009A0004221826841EA4231864A20321160C168A0
:1009B0000968C268526841EA0221C268128941EAA4
:1009C0000241C268127B41EA02617E4A283211600C
:1009D000016909680269526841EA022102691289C3
:1009E00041EA02410269127B41EA0261754A2C32F6
:1009F0001160416909684269526841EA022142690D
:100A0000128941EA02414269127B41EA02614FF0D8
:100A10002042C2F8B01070470021016002214160FD
:100A200000218160C160016141618161C161016238
:100A30004FF480514162490081620021C16201632B
:100A40000F21426B1160426B5160FF21426B91603C
:100A50000F21426BD160426B1161426B51610021E9
:100A6000426B91610F21826B1160826B5160FF219B
:100A7000826B91600F21826BD160826B1161826BFE
:100A800051610021826B916170471021016000214A
:100A900041608160C160016141618161FC21C26985
:100AA0001160C2695160C2699160C269D160026A15
:100AB0001160026A5160026A9160026AD1607047F7
:100AC0000021016041608160FC21C2681160C26840
:100AD0005160C2689160C268D160026911600269A8
:100AE0005160026991600269D16042691160426996
:100AF0005160426991604269D160704751B1820092
:100B0000A2F1C042126842F001038200A2F1C04289
:100B1000136009E08200A2F1C04212682A4B1A4019
:100B20008300A3F1C0431A60704799B1102808D11F
:100B30004FF02042126E42F004024FF020431A663A
:100B40001DE0204A126842F004024FF02043C3F82F
:100B5000802014E0102809D14FF02042126E1A4B69
:100B6000DB1E1A404FF020431A6608E0154A12684F
:100B7000154BDB1E1A404FF02043C3F8802070470E
:100B800048B110492031096841F004014FF020427A
:100B9000C2F8A01009E00B49203109680A4AD21EA8
:100BA00011404FF02042C2F8A0107047B9B1102890
:100BB0000CD14FF02042126E42F040024FF0204321
:100BC0001A661FE0800000A0FEFF0F00724A126844
:100BD00042F040024FF02043C3F8802012E010287A
:100BE00008D14FF02042126E6C4B1A404FF0204358
:100BF0001A6607E0684A1268684B1A404FF02043B3
:100C0000C3F88020704701460020102903D14FF01F
:100C10002042506F02E0604A14321068704710B5ED
:100C2000F2B1102807D14FF020435B6E0B434FF019
:100C30002044636632E0B0F5807F08D1564B1B1D1F
:100C40001B680B434FF02044C4F8843026E0524B1D
:100C500024331B680B434FF02044C4F8A4301DE03C
:100C6000102807D14FF020435B6E8B434FF0204498
:100C7000636613E0B0F5807F08D1474B1B1D1B68EE
:100C80008B434FF02044C4F8843007E0424B2433B8
:100C90001B688B434FF02044C4F8A43010BD10B53E
:100CA000024600200023102A03D14FF02044636E37
:100CB00009E0B2F5807F03D1374C241D236802E0A0
:100CC000354C2434236803EA01040CB1012000E010
:100CD000002010BD102807D14FF02042526E8A43E9
:100CE0004FF020435A6613E0B0F5807F08D12A4ABE
:100CF000121D12688A434FF02043C3F8842007E096
:100D0000254A243212688A434FF02043C3F8A420B6
:100D1000704770B502460020002300240025102AE9
:100D200003D14FF02046736E09E0B2F5807F03D106
:100D3000194E361D336802E0174E2436336803EA35
:100D4000010403EAD10514B10DB1012000E0002037
:100D500070BD102808D14FF02042526E22EAD10215
:100D60004FF020435A6615E0B0F5807F09D10A4A5A
:100D7000121D126822EAD1024FF02043C3F88420EA
:100D800008E0054A2432126822EAD1024FF02043DB
:100D9000C3F8A42070470000800000A0BFFF0F0030
:100DA00010B50446CC48844208D10121042000F04B
:100DB0002DFB0021042000F029FB46E0C7488442B7
:100DC00008D10121082000F021FB0021082000F0BB
:100DD0001DFB3AE0C248844208D10121102000F0F6
:100DE00015FB0021102000F011FB2EE0BD488442CD
:100DF00008D10121202000F009FB0021202000F073
:100E000005FB22E0B848844208D10121402000F0CF
:100E1000FDFA0021402000F0F9FA16E0B3488442C0
:100E200008D10121802000F0F1FA0021802000F09B
:100E3000EDFA0AE0AE48844207D10121801500F0A6
:100E4000E5FA0021A01500F0E1FA10BD10B501216E
:100E5000084600F0DBFA0021012000F0D7FA10BDAF
:100E60002DE9F04102460025002600200023002441
:100E7000002791F803C00CF00F0591F803C00CF0A7
:100E8000100CBCF1000F03D091F802C04CEA05052C
:100E900091F800C0BCF1000F31D0146800202BE0A5
:100EA0004FF0010C0CFA00F3B1F800C00CEA030695
:100EB0009E4220D183004FF00F0C0CFA03F7BC4385
:100EC00005FA03FC4CEA040491F803C0BCF1280FB6
:100ED00006D14FF0010C0CFA00FCC2F814C00AE075
:100EE00091F803C0BCF1480F05D14FF0010C0CFA8A
:100EF00000FCC2F810C0401C0828D1D31460B1F81F
:100F000000C0BCF1FF0F34DD546800202EE000F17A
:100F1000080C4FF0010808FA0CF3B1F800C00CEA15
:100F200003069E4221D183004FF00F0C0CFA03F709
:100F3000BC4305FA03FC4CEA040491F803C0BCF17D
:100F4000280F05D100F1080C08FA0CF8C2F814803B
:100F500091F803C0BCF1480F07D100F1080C4FF025
:100F6000010808FA0CF8C2F81080401C0828CED3FB
:100F70005460BDE8F0814FF6FF710180022181705D
:100F80000421C17070470246002093680B400BB1EA
:100F9000012000E0002070470146886880B2704759
:100FA00002460020D3680B400BB1012000E0002076
:100FB00070470146C86880B270470161704741615F
:100FC00070470AB1016100E041617047C16070473C
:100FD0004FF480320A438261816182618269826951
:100FE000704702460020434B18684FF68073184044
:100FF00040EA021008433F4B186070473E49C86101
:101000007047F0B50A46002300240021002500F0B7
:101010000046B6F1004F02D1364EF16901E0354E7F
:101020007168C0F3034583B200F44016B6F5401F63
:1010300008D121F070612F4E766826F070662D4F32
:101040007E6012E000F48016B6F5801F06D10326FC
:1010500006FA05F4A14341F0706106E0460D360141
:1010600003FA06F6B14341F0706122B1460D360134
:1010700003FA06F6314300F00046B6F1004F02D104
:101080001C4EF16101E01B4E7160F0BD30B50022D5
:101090008B071C0F0F2303FA04F2164B08338C1036
:1010A00053F824309343134C08348D1044F8253002
:1010B00023468C1053F824308C07240F00FA04F4D4
:1010C00023430C4C08348D1044F8253030BD0A49B8
:1010D000DC3108607047000000080140000C01404E
:1010E000001001400014014000180140001C0140A4
:1010F000002001400000014000002042DF4800685D
:1011000040F00100DD49086008464068DC490840BD
:10111000DA49486008460068DA490840D74908605B
:101120000846006820F4802008600846406820F4E3
:10113000FE0048604FF41F0088607047CF4909687F
:1011400021F48031CD4A11601146096821F48021D3
:101150001160B0F5803F03D0B0F5802F0ED106E0CE
:10116000C649096841F48031C44A116007E0C349A7
:10117000096841F4A021C14A116000E000BF00BF2E
:10118000704710B501460022002300204A11012AB1
:1011900002D1BA4C236806E0022A02D1B74C236A76
:1011A00001E0B64C636A01F01F02012494401C4028
:1011B0000CB1012000E0002010BD38B500200090E7
:1011C0000024002500BF3120FFF7DBFF0546009813
:1011D000401C00900098B0F5A06F01D0002DF2D017
:1011E0003120FFF7CEFF08B1012400E000242046A3
:1011F00038BD01460020A14A106820F0F80040EAFE
:10120000C10010607047A049086070470246002086
:101210009A4B586820F47C1042EA01031843974B1C
:101220005860704798490866704701460020934A05
:10123000506820F003000843506070478F484068B2
:1012400000F00C007047014600208C4A506820F0E6
:10125000F00008435060704701460020874A5068FC
:1012600020F4E06008435060704701460020834A44
:10127000506820F4605040EAC1005060704729B1C6
:101280007E4A527A02437D4B5A7204E07B4A527A7C
:1012900082437A4B5A7270477B49D8310860704755
:1012A00001460020754A506820F4404008435060D1
:1012B00070470021714A20321170704A82F8201064
:1012C000012802D004280AD104E001216B4A20320F
:1012D000117005E00521694A2032117000E000BF5D
:1012E00000BF70476949086070476449096A014353
:1012F000624A11627047654944390860704730B5E9
:1013000000210022002400235C4D6D6805F00C01D3
:1013100021B1042905D0082923D105E05C4D0560E1
:1013200022E05B4D05601FE0544D6D6805F47012BE
:10133000524D6D6805F48034022505EB92421CB9CC
:10134000544D554305600BE04C4D6D6805F4003578
:101350001DB1504D5543056002E04D4D55430560AC
:1013600002E04B4D056000BF00BF444D6D6805F0C5
:10137000F0010909484D6B5C0568DD4045603F4D53
:101380006D6805F4E061090A434D6B5C4568DD401A
:1013900085603A4D6D6805F46051C90A3E4D6B5C3D
:1013A0004568DD40C560354D6D6805F44041890BE9
:1013B0003A4D6B5CC568B5FBF3F5056130BD29B1ED
:1013C0002E4A526902432D4B5A6104E02B4A52695E
:1013D00082432A4B5A61704729B1284A92690243D5
:1013E000264B9A6104E0254A92698243234B9A6115
:1013F000704729B1214AD2690243204BDA6104E0E7
:101400001E4AD26982431D4BDA61704729B11B4ADB
:10141000D2680243194BDA6004E0184AD26882436A
:10142000164BDA60704729B1144A12690243134B14
:101430001A6104E0114A12698243104B1A61704725
:1014400012494039086070470F49C86470470B491A
:10145000C87170470948406A40F080700749486287
:10146000704701460020054A92680A400AB10120EF
:1014700000E0002070470149887270470010024068
:101480000000FFF8FFFFF6FE0000424280044242E7
:1014900000127A0000093D00140000202400002002
:1014A00000206F49086048608860C86048628862B0
:1014B000C8626C4888630020C86370470021684A8E
:1014C000516847F6FF629143027D83681A4343687F
:1014D0001A43C3681A4303681A4303691A43114342
:1014E0005F4A516070470021017501604160816071
:1014F000C160016170475C490860704758490968DC
:1015000021F00301564A1160114609680143116038
:1015100070475348006800F00300704729B1504AF3
:10152000D26B02434E4BDA6304E04D4AD26B8243E6
:101530004B4BDA6370474D49086070470021484BB8
:1015400002689A601A46D1686FF30A01D0E9012354
:101550001A43C3681A4303691A431143404AD160CE
:1015600070470021016041608160C1600161704786
:101570003B480069C0B2704708B5014600200090A2
:1015800037481430084400900098006808BD0021D6
:10159000334B02685A6242689A621A46D16A21F055
:1015A000F701D0E902231A4303691A4343691A4336
:1015B00011432B4AD16270474FF0FF310160002187
:1015C00041608160C1600161416170472448006BE6
:1015D0007047234880300068704721498031086097
:1015E00070471F48806C704720491431086070476D
:1015F0001E491831086070471C491C31086070474B
:101600001A49203108607047194908607047184925
:10161000091D0860704701218143154A0832116095
:10162000704713490C3108607047014600200C4A8E
:10163000526B0A400AB1012000E0002070470849BF
:101640008863704701460020054A526B0A400AB180
:10165000012000E0002070470149886370470000C6
:1016600000800140FF07C000A00030428C053042DE
:10167000AC01304208B500BF00F0DCFB00F0F8F927
:10168000022000F0FFF94FF6FF70F0234FF4A07234
:1016900000210090084600F093FA00F0A1FC00BF82
:1016A00000F085FF0028FBD101F044F911E0094862
:1016B000007801280DD100F047FE0446064A214675
:1016C000064801F0B8F920B1044A5188108801F0A9
:1016D0001BFAECE728000020B80000207000002072
:1016E000704700BFFEE700BFFEE700BFFEE700BF98
:1016F000FEE770477047704710B500F0E2FB10BD81
:1017000010B54FF40070FFF72BF828B10120034902
:1017100008704002FFF735F810BD000028000020D7
:1017200001B502E00098401E009000980028F9D111
:1017300008BD08B501210802FFF741FE01214FF461
:10174000F470FFF749FE10208DF8030003208DF898
:1017500002000220ADF800006946FE48FFF780FB5A
:101760004FF40060ADF800006946FB48FFF778FBD6
:1017700003208DF8020018208DF803004CF203704E
:10178000ADF800006946F548FFF76AFB4FF6807038
:10179000ADF800006946F248FFF762FB1020ADF893
:1017A00000006946ED48FFF75BFB2020ADF8000024
:1017B0006946EA48FFF754FB4FF48050ADF800004B
:1017C0006946E548FFF74CFB0420ADF80000694688
:1017D000E348FFF745FB0221DE48FFF7F0FB08BDB9
:1017E00000B597B0022001900020029005200390E0
:1017F00000200490059006904FF08050079006203E
:1018000008900020099008200A9010200B900020DA
:101810000C900E900F9010904FF48050119000207B
:1018200012901390149001A81590169008A8FEF736
:10183000FDFF01210620FFF761F917B000BD10B5CB
:101840004FF40061C448FFF7BAFBC648FFF768FFD2
:101850004FF40061C048FFF7B0FBC248FFF760FFDC
:1018600010BD00B5CF204FF0D841088000204FF0C8
:10187000DA4108808120088030200880ED204FF078
:10188000D841088064204FF0DA41088003200880A6
:101890001220088081200880E8204FF0D84108807D
:1018A00085204FF0DA4108801020088078200880D9
:1018B000CB204FF0D841088039204FF0DA41088022
:1018C0002C20088000200880342008800220088016
:1018D000F7204FF0D841088020204FF0DA410880EF
:1018E000EA204FF0D841088000204FF0DA4108800C
:1018F0000880B1204FF0D841088000204FF0DA4135
:1019000008801B200880B620410608800A204FF07E
:10191000DA410880A2200880C0204FF0D84108801A
:1019200035204FF0DA410880C1204FF0D8410880BF
:1019300011204FF0DA410880C5204FF0D8410880CF
:1019400045204FF0DA4108800880C7204FF0D84189
:101950000880A2204FF0DA410880F2204FF0D841F1
:10196000088000204FF0DA41088026204FF0D8414F
:10197000088001204FF0DA410880E0204FF0D84184
:1019800008800F204FF0DA410880262008802420AC
:1019900008800B2008800E20088009200880542031
:1019A0000880A8200880462008800C200880172086
:1019B0000880092008800F20088007200880002068
:1019C0000880E1204FF0D841088000204FF0DA4134
:1019D0000880192008801B2008800420088010201F
:1019E0000880072008802A200880472008803920A6
:1019F00008800320088006200880088030200880A6
:101A0000382008800F200880362041060880C82032
:101A10004FF0DA4108802A204FF0D841088000209A
:101A20004FF0DA41088008800880EF2008802B20E2
:101A30004FF0D841088000204FF0DA41088008803C
:101A4000012008803F2008803A204FF0D8410880CC
:101A500055204FF0DA41088011204FF0D84108801E
:101A60004048FFF75DFE29204FF0D841088000BDB7
:101A700010B5FFF75EFEFFF7B3FEFFF7E0FEFFF7DE
:101A8000F0FE10BD012806D0022825D0032844D03E
:101A9000042820D16DE036214A061180C8214FF07C
:101AA000DA4211802A214FF0D842118000214FF0F4
:101AB000DA42118011801180EF2111802B214FF02B
:101AC000D842118000214FF0DA42118011800121AB
:101AD00011803F2111806DE036214A061180682176
:101AE0004FF0DA4211802A214FF0D84211800021B4
:101AF0004FF0DA4211801180012111803F211180C5
:101B00002B214FF0D842118000214FF0DA42118092
:101B100011801180EF2111804CE036214A0611809E
:101B200028214FF0DA4211802A214FF0D84211804B
:101B300000214FF0DA4211801180012111803F21F4
:101B400011802B214FF0D842118000214FF0DA4252
:101B5000118009E0000C0140002001400014014008
:101B600000180140FCBF020011801180EF2111809C
:101B700020E036214A06118048214FF0DA421180D8
:101B80002A214FF0D842118000214FF0DA42118013
:101B900011801180EF2111802B214FF0D84211804C
:101BA00000214FF0DA4211801180012111803F2184
:101BB000118000BF00BF2C214FF0D8421180704728
:101BC000F0B5059D00242A264FF0D8473E80061226
:101BD0004FF0DA473E80C6B23E808618761EC6F3C6
:101BE0000F263E808618761EF6B23E802B264FF0DA
:101BF000D8473E800E124FF0DA473E80CEB23E808C
:101C0000CE18761EC6F30F263E80CE18761EF6B28C
:101C10003E802C264FF0D8473E8000BF03E04FF0B7
:101C2000DA463580641C02FB03F6A642F7D8F0BD05
:101C30002A224FF0D8431A8002124FF0DA431A805A
:101C4000C2B21A8002121A80C2B21A802B224FF03E
:101C5000D8431A800A124FF0DA431A80CAB21A80A7
:101C60000A121A80CAB21A80704730B52A244FF07F
:101C7000D8452C8004124FF0DA452C80C4B22C8059
:101C80008418641EC4F30F242C808418641EE4B2EC
:101C90002C802B244FF0D8452C800C124FF0DA45C5
:101CA0002C80CCB22C80CC18641EC4F30F242C8062
:101CB000CC18641EE4B22C8030BD70B505460E46CB
:101CC000144631462846FFF7B3FF2C204FF0D84189
:101CD00008804FF0DA40048070BD10B5002100226A
:101CE00000234FF0DA400188018803880288C81277
:101CF000C002941240EA441040EAE32010BD70B5DF
:101D000004460D4629462046FFF792FF2E204FF04D
:101D1000D8410880FFF7E1FF0646304670BD2DE947
:101D2000F04F81468A4615461E46A5F120001FFA4F
:101D300080FB0C23062251464846FFF796FF2C20D5
:101D40004FF0D841088000241CE00BEB4B003849D1
:101D500001EB800010F8048000270FE008F001007C
:101D600018B14FF0DA40068004E04FF6FF704FF0F4
:101D7000DA4108804FEA6808781C87B2062FEDDB4D
:101D8000601C84B20C2CE0DBBDE8F08FF0B505469A
:101D90000E4614461F4613E0B5F59D7F03DD002572
:101DA00006F10C0086B2E42E01DD00250026227823
:101DB0003B4631462846FFF7B2FFA81D85B2641C9A
:101DC00020780028E8D1F0BD2DE9F0470646884686
:101DD000144699460027002525463DB94B4630223A
:101DE00041463046FFF79BFFBDE8F08703E00A203D
:101DF000B5FBF0F57F1C002DF9D115E00A20B4FBEE
:101E0000F0F100FB114000F1300A39467F1E062236
:101E100002FB0161891F88B24B4652464146FFF7DB
:101E20007EFF0A20B4FBF0F4002CE7D100BFDBE713
:101E3000B66D000830B527480068274AB0FBF2F1BC
:101E4000B1F1807F01D301201DE021F07F40401ED1
:101E50004FF0E022506150170F22002807DA1307D5
:101E60001D0E1E4B00F00F04241F1D5503E0130729
:101E70001C0E1B4B1C5400BF00204FF0E022906151
:101E800007201061002008B100BFFEE74FF0E020FE
:101E9000006920F001004FF0E021086130BD01B57C
:101EA0001049009808604FF0E020006940F0010000
:101EB0004FF0E021086100BF0A4800680028FBD10C
:101EC00008BD0848006820B106480068401E054962
:101ED000086070470000002040420F0018ED00E04D
:101EE00000E400E02C00002008B54FF4C060FEF7CD
:101EF0002BFA17208DF8000001208DF801008DF8D5
:101F000002008DF803006846FEF723FA08BD0EB5FF
:101F100001218120FFF760FAFFF7E6FF4FF4007020
:101F2000ADF8080028208DF80B0002A92A48FEF71A
:101F300097FF09210520FFF7A9F84FF400700090E2
:101F400000208DF804000C208DF8050001208DF88C
:101F500006006846FEF79EFB0EBD08B501214FF452
:101F6000C070FFF739FA8020ADF8000001208DF82D
:101F7000020010208DF8030069461848FEF770FF34
:101F80004FF40060ADF8000069461348FEF768FFA3
:101F90004020ADF8000001208DF8020048208DF8A7
:101FA000030069460C48FEF75BFF4FF48060ADF814
:101FB000000001208DF8020010208DF80300694612
:101FC0000548FEF74DFF4FF480610348FEF7F7FF29
:101FD000FFF79DFF08BD0000001C014000200140EC
:101FE00010B5FFF7BAFF10BD01B5002008E00C21C5
:101FF00000BF0A00A1F10103D9B2FAD1411C88B295
:1020000000998842F3D308BD70B506464FF40061CD
:10201000FE48FEF7D4FF8021FD48FEF7D0FF0024E4
:1020200021E0C4F1070046FA00F000F001052DB1EF
:102030004FF40061F548FEF7C0FF04E04FF4006183
:10204000F248FEF7BCFF0520FFF7CEFF8021F048E5
:10205000FEF7B3FF0520FFF7C7FF8021EC48FEF72E
:10206000AEFF601CC4B2082CDBDB70BD70B5002471
:102070004FF40061E548FEF7A2FF8021E448FEF737
:102080009CFF002518E08021E148FEF798FF4021E1
:10209000DE48FEF778FF08B1012000E00020064688
:1020A000C5F10B0006FA00F0204384B28021D84825
:1020B000FEF783FF681CC5B20C2DE4DBC4F30B04F0
:1020C000204670BD10B504462046FFF79DFFFFF780
:1020D000CDFF10BD38B504460D461F200123142244
:1020E000294600902046FFF76BFD1F20A5F10A024C
:1020F00091B204F10A02009090B214230122FFF77A
:102100005FFD38BD2DE9F04104460D469020FFF7F4
:10211000D9FF06460120FFF767FFD020FFF7D2FF67
:10212000074626602F60BDE8F081F0B597B0002724
:102130004821684604F0A1FA00BF15A916A8FFF7C8
:10214000E1FF16984DF8270009A8159940F82710C7
:10215000781CC7B24FF40071AC48FEF714FF08B901
:10216000092FEADB4FF40071A848FEF70CFF0128A5
:1021700002D10020A7490870092F7DD1DDE90001B7
:10218000084402990844032190FBF1F01290DDE924
:102190000301084405990844032190FBF1F01390D2
:1021A000DDE90601084408990844032190FBF1F099
:1021B0001490DDE91201441ADDE91301451A129960
:1021C0001498461A002C01DD204600E060420446C7
:1021D000002D01DD284600E068420546002E01DDA5
:1021E000304600E070420646022C06DD022D04DD7A
:1021F000022E02DD002017B0F0BDAC4215DAA64277
:1022000009DA149A1299881800EBD071C1F34F01C2
:10221000814A11801EE0DDE91212881800EBD071AE
:10222000C1F34F017C4A118014E0AE4209DA149ADE
:102230001299881800EBD071C1F34F01764A1180D2
:1022400008E0DDE91312881800EBD071C1F34F01EB
:10225000714A1180DDE9091001440B9808440321FB
:1022600090FBF1F01290DDE90C1001440E98084447
:10227000032190FBF1F000E05BE01390DDE90F102B
:10228000014411980844032190FBF1F01490DDE91A
:102290001201441ADDE91301451A12991498461ADD
:1022A000002C01DD204600E060420446002D01DDE7
:1022B000284600E068420546002E01DD304600E079
:1022C00070420646022C05DD022D03DD022E01DDE3
:1022D000002090E7AC4215DAA64209DA149A129966
:1022E000881800EBD071C1F34F014B4A51801EE0BA
:1022F000DDE91212881800EBD071C1F34F01464A94
:10230000518014E0AE4209DA149A1299881800EB51
:10231000D071C1F34F01404A518008E0DDE913124A
:10232000881800EBD071C1F34F013B4A51803A4805
:1023300061E7012F06DD3849009808800998488038
:10234000084658E7002056E72DE9F04796B00025EB
:102350005021684604F091F90024032600BF14A917
:1023600015A8FFF7CFFE15984DF825000AA8149977
:1023700040F82510681CC5B24FF400712348FEF7E1
:1023800002FE08B9B542EADB4FF400711F48FEF7C0
:10239000FAFD10B100201F490870B54253D1009FCB
:1023A000B846DDF82890CA4601240DE05DF8240007
:1023B000B84202DA5DF8247005E05DF8240040457B
:1023C00001DD5DF82480641CB442EFDB012411E0E0
:1023D0000AA850F82400484503DA0AA850F82490C7
:1023E00007E00AA850F82400504502DD0AA850F87A
:1023F00024A0641CB442EBDBDDE90001084402992F
:102400000844C01BA0EB080008E00000001C0140CD
:10241000002001402800002074000020C0F3CF00FD
:10242000FE490880DDE90A1001440C980844A0EB3D
:102430000900A0EB0A00C0F3CF00F8494880084625
:1024400016B0BDE8F0870020FAE72DE9F047054611
:102450000C4616464FF0010921882289891AE38823
:1024600062899A1A5143A2882389D31A678862899C
:10247000BA1A03FB121004F093FAC6E90C01002209
:102480001346D6E90C71384604F0C2FA02D14FF077
:10249000000989E029882A89891AE38862899A1AB9
:1024A0005143AA882B89D31A67886289BA1A03FB19
:1024B000121004F075FAC6E9000121882289891AF0
:1024C000AA882B89D21A51432A88D21AA38827892D
:1024D000DB1B02FB131004F063FAC6E90201218939
:1024E000AA885143A2882B8902FB131162885143A9
:1024F00022885A4323892F8803FB1723E28803FB92
:102500000212A18879432388AF8803FB17136189DE
:1025100003FB012004F044FAC6E904016A886989D2
:10252000511AE38862899A1A5143EB886A899B1A87
:1025300067886289BA1A03FB121004F031FAC6E9FF
:10254000060121882289891AEB886A899A1A5143DF
:102550006B886A899A1AA3882789DB1B02FB1310F0
:1025600004F01EFAC6E908012189EA885143A388CC
:102570006A8903FB12116288514322886B895A438E
:1025800023896F8803FB1723E28803FB0213A188CA
:1025900079432788EA8807FB1212618902FB013020
:1025A00004F0FEF9C6E90A014846BDE8F0872DE9C6
:1025B000F04F8DB00026B14600200B900A90002409
:1025C00037E04FF6FF70F0234FF4A0720021009027
:1025D0000846FFF7F5FA1F2391A26E215A20FFF754
:1025E000D5FB1F2395A282215A20FFF7CFFB1F2383
:1025F000621C5A21A020FFF7E7FB9748FFF74FFC2A
:10260000964A02EB84025188944A32F82400FFF77C
:1026100061FD00BFFFF798FE0546002DFAD028881F
:102620008F4921F82400688801EB84014880601CF0
:10263000C4B2042CC5DB8B4A89498848FFF705FFE3
:102640008749C88904F0BDF982468B468549D1E99E
:1026500002733A46594604F0C2F8CDE902018049B6
:10266000888904F0AEF982467E48D0E900733A4684
:10267000504604F0B4F8CDE90001DDE9022304F08E
:1026800007F8CDE904017749D1E904733A46059981
:1026900003F0FEFFCDE906017249D1E90C733A4619
:1026A000079904F00EF9CDE9080104F097F986B214
:1026B0006B49C88904F085F982468B466949D1E99E
:1026C00008733A46594604F08AF8CDE90201644994
:1026D000888904F076F982468B466249D1E906730F
:1026E0003A46594604F07BF8CDE90001DDE90223C2
:1026F00003F0CEFFCDE904015A49D1E90A733A4605
:10270000059903F0C5FFCDE906015648D0E90C73E1
:102710003A46069804F0D5F8CDE9080104F05EF9D0
:102720001FFA80F94D488089B04203DA4B4880890E
:10273000301A02E049488089801B80B20B904748DC
:10274000C089484504DA4548C089A9EB000003E088
:102750004248C089A0EB090080B20A904FF6FF7092
:10276000F0234FF4A072002100900846FFF728FAEA
:102770000B980A2802DC0A980A2812DD1F233AA2C5
:102780006E215A20FFF702FB1F233CA282215A2010
:10279000FFF7FCFA4148FFF782FB01200DB0BDE8CE
:1027A000F08F3049D1E9007100223D4B384604F0EA
:1027B00016F882468B462B49D1E90C733A465946A6
:1027C00004F07FF8374A03C22649D1E9027100229A
:1027D000334B384604F003F882462248D0E90C73A4
:1027E0003A46504604F06DF82F4A03C21D49D1E91C
:1027F000047100222A4B384603F0F1FF8246194843
:10280000D0E90C733A46504604F05BF8274A03C2FD
:102810001449D1E906710022214B49E078000020DB
:10282000546F7563682073637265656E2063616CB5
:102830006962726174696E672E000000436C69639F
:102840006B207468652063726F73732061636375B6
:10285000726174656C792E0020A107006000002071
:10286000A8000020B800002043616C6962726174A6
:1028700065206661696C656400000000596F752011
:102880006E65656420746F2063616C696272617447
:102890006520697420616761696E2E0080841E0066
:1028A0000000F03F300000203800002040000020F1
:1028B000384603F094FF8246D048D0E90C733A467C
:1028C000504603F0FEFFCE4A03C2CC480022CD4B57
:1028D000D0E90871384603F082FF8246C748D0E944
:1028E0000C733A46504603F0ECFFC74A03C2C34894
:1028F0000022C44BD0E90A71384603F070FF8246CB
:10290000BE48D0E90C733A46504603F0DAFFBF4A9E
:1029100003C21F23BEA26E215A20FFF737FA1F23DE
:10292000C2A282215A20FFF731FAC648FFF7B7FA50
:10293000002033E708B54FF6FF70F0234FF4A07284
:10294000002100900846FFF73BF94FF6FF701E2369
:102950000122002100902720FFF732F94FF6FF7087
:10296000012328221D2100900020FFF729F91F23B1
:10297000B5A20A210520FFF709FA00201E2328220C
:1029800019460090FFF71CF91F23B1A2282105204A
:10299000FFF7FCF91F201E2328223C210090002075
:1029A000FFF70EF94FF61F001E2328225A21009030
:1029B0000020FFF705F94FF6E0701E23282278214A
:1029C00000900020FFF7FCF840F2FF701E23282241
:1029D000962100900020FFF7F3F84FF4FC601E23CF
:1029E0002822B42100900020FFF7EAF84FF4784045
:1029F0001E232822D22100900020FFF7E1F81F2398
:102A000095A25A213C20FFF7C1F91F2397A26E21FE
:102A10003C20FFF7BBF91F239FA282213C20FFF738
:102A2000B5F91F23A5A296213C20FFF7AFF9A948CD
:102A3000FFF735FA08BD2DE9F04F87B081460C4607
:102A400092464FF0010B14B94FF0000B58E00022F2
:102A50001346DAE90C51284603F0DAFF4ED06088BD
:102A600003F0AFFFCDE900019B480CC8009803F0CC
:102A7000B6FE07468846208803F0A3FFCDE9000193
:102A800096480CC8009803F0AAFE3A464346CDE9A2
:102A9000020103F0FDFD054691480CC8284603F0ED
:102AA000F7FDCDE9040103F099FFA9F80000608863
:102AB00003F087FF054654480CC8284603F08FFEF4
:102AC000CDE90201208803F07CFF05464C480CC884
:102AD000284603F084FECDE90001DDE9022303F07E
:102AE000D7FD074649480CC8384603F0D1FDCDE96B
:102AF000040103F073FFA9F8020001E04FF0000B9E
:102B0000584607B0BDE8F08FF8B506460C46254696
:102B1000282E4EDA3C2C20DD5A2D01DA1F2019E038
:102B2000782D02DA4FF61F0014E0962D02DA4FF6E8
:102B3000E0700FE0B42D02DA40F2FF700AE0D22D0F
:102B400002DA4FF4FC6005E0F02D02DA4FF4784031
:102B500000E01F20634908804DE01E2C0ADA4FF682
:102B6000FF70F0234FF48C72002100902820FFF7B3
:102B700027F8F8BD1F235CA228210520FFF706F9DE
:102B80005BA0F0234FF4A07200210090084600F0F3
:102B900053F91F2358A228210520FFF7F7F82948E9
:102BA000FFF77DF91F232AA228210520FFF7EEF861
:102BB00021E04C48028821463046FFF77EF8711E1E
:102BC00088B248490A882146FFF777F8601E81B22B
:102BD000444802883046FFF770F8711C88B24149BA
:102BE0000A882146FFF769F8601C81B23D480288D7
:102BF0003046FFF762F800BFBBE70000B8000020D6
:102C0000480000200000F03F500000205800002045
:102C100043616C69627261746520537563636564B6
:102C20002C45786369746564210000004C6F616411
:102C3000696E6720746865207061696E742E2E2E2F
:102C40000000000040420F00434C4541520000008C
:102C5000534156450000000057656C636F6D652059
:102C6000746F207061696E742E00000053696D707E
:102C70006C656C7920636C69636B206F6E2070618A
:102C80006C6574746520746F2073656C6563742063
:102C9000636F6C6F72730000446F6E7420647261B6
:102CA0007720616E79207374726F6B652077686925
:102CB0006C6520736176696E672E00004C6F7665D7
:102CC0006C79206D616465206279204C5846592EDC
:102CD0000000000020A10700380000203000002084
:102CE000400000207C0000205741495400000000B3
:102CF0002F7061696E740000444F4E450000000063
:102D0000704770472DE9F74F98B0D2A101A81A9AE1
:102D100003F04CFFD149002002F0CBFF012201A9B2
:102D2000CF4802F0E3FFCF4908700846007808BB9F
:102D300006AB022207A9CA4803F092F8BDF81C00AE
:102D400044F64251884202D01BB0BDE8F08F06AB7A
:102D50000C2212A9C24803F083F812A8FFF7D0FF93
:102D600006AB282208A9BE4803F07AF808A8FFF7A6
:102D7000C8FF00E0E8E7099EDDF82890BDF82E10B6
:102D8000714301F11F00C11700EBD16149118C00A3
:102D9000B4F5707F00DDD7E70320FEF773FE1FFA5E
:102DA00089F3B2B2DDE91801FEF75FFFBDF82E002E
:102DB00018283BDB002736E0A24604EBDA7042100D
:102DC00006ABA949A64803F04BF8A34604EBDB7019
:102DD000A54B03EB600104EBDA70421006ABA04890
:102DE00003F03EF84FF000081AE008EB48059E4952
:102DF000A81C085C1790681C085C16900846405D8B
:102E000015901798C010C1021698801041EA401121
:102E1000159841EAE0004FF0DA41088008F1010816
:102E2000B045E2DB7F1C4F45C6DB00E08CE78C48F9
:102E300003F060FA00BF87E72DE9FF4F9DB014460D
:102E40001D46382289A10FA803F0FEFB0020029046
:102E50002046E11704EB91718910A4EB810204FB79
:102E600005F101EB410105FB021101F1360909F001
:102E7000FF008DF83E004FEA19208DF83F004FEA21
:102E800019408DF840004FEA19608DF84100A246C4
:102E90000AF0FF008DF84E004FEA1A208DF84F001F
:102EA0004FEA1A408DF850004FEA1A608DF8510031
:102EB000AB460BF0FF008DF852004FEA1B208DF857
:102EC00053004FEA1B408DF854004FEA1B608DF809
:102ED00055007448036874A104A82A9A03F066FE9A
:102EE00070480068401C6F4908605C49002002F08F
:102EF000E0FE062204A95A4802F0F8FE594908707B
:102F0000574803F0F7F9022204A9554802F0EEFEF3
:102F1000544908700846007800287CD103AB36225B
:102F20000FA94F4803F083F84E4908704FF000088E
:102F30007EE0E11704EB91718910A4EB810191BB54
:102F400000262DE0A5EB08031D9A1A4491B21E9AA3
:102F5000324490B2FEF7D3FE0746F80AC0000E9046
:102F6000C7F3451080000D90F806000E0C9003ABDF
:102F700001220CA93A4803F05AF83A49087003AB09
:102F800001220DA9364803F052F83649087003AB08
:102F900001220EA9324803F04AF832490870761C23
:102FA000A642CFDB42E0FFE700262DE0A5EB0803B9
:102FB0001D9A1A4491B21E9A324490B2FEF79FFEB7
:102FC0000746F80AC0000E90C7F3451080000D9028
:102FD000F806000E0C9003AB01220CA9204803F068
:102FE00026F82049087003AB01220DA91C4803F004
:102FF0001EF81C49087003AB01220EA9184803F003
:1030000016F818490870761CA642CFDBE01704EBCF
:103010009070801000E015E0A4EB800203AB02A9E1
:103020000F48019403F003F80E49087008F10108F5
:10303000A845FFF67EAF0A4803F05CF9002021B0F6
:10304000BDE8F08F07480078082800D1F7E74FF077
:10305000FF30F4E7303A257300000000B004002090
:103060001009002080000020F0000020424D0000E8
:1030700000000000000036000000280000000000F2
:103080000000000000000100180000000000000027
:103090000000000000000000000000000000000030
:1030A0000000000084000020303A257325642E6261
:1030B0006D70000008B50020FEF71DFA0020FEF735
:1030C0001DFAFEF7EDF900214FF48060FEF777F965
:1030D0004FF4F850ADF8000004208DF80300694665
:1030E000FC48FDF7BDFE0420ADF800006946FA4833
:1030F000FDF7B6FE08BD08B54FF4C060FDF724F932
:1031000031208DF8000000208DF801008DF80200BC
:1031100001208DF803006846FDF71BF908BD10B5C6
:10312000EE48FDF767FA10BD30B58BB005460C468A
:10313000EB48FDF773FA0021EA48FDF740FAEA4848
:103140000090019500200290A008039000200490B8
:103150008020059080000690800007900020089055
:103160004FF40050099000200A906946DD48FDF7B1
:10317000FBF90121DB48FDF722FA0BB030BD30B579
:103180008BB005460C46D648FDF748FA0021D548D5
:10319000FDF715FAD4480090019510200290A00880
:1031A000039000200490802005908000069080000D
:1031B0000790002008904FF40050099000200A90DA
:1031C0006946C848FDF7D0F90121C648FDF7F7F96F
:1031D0000BB030BD08B501213020FEF7FDF84FF4EB
:1031E000F850ADF8000003208DF8020018208DF88B
:1031F00003006946B748FDF733FE0420ADF8000030
:103200006946B548FDF72CFE01218802FEF7D7F884
:1032100001210220FEF7D3F808BD014600BFB248E5
:103220008038406B00F045000028F8D040F2FF5095
:10323000AD4A803A90631046406908221040C0B2FF
:1032400070472DE9FC4107460D460026002400206A
:10325000009001900820A549086010204860402097
:1032600088600020C8604FF4806008610846FEF75F
:1032700065F91020FFF7D1FF044614B12046BDE8E0
:10328000FC819B480088000498490860372048600A
:10329000402088600020C8604FF4806008610846C4
:1032A000FEF74CF93720FFF7B8FF04460CB1204673
:1032B000E5E74FF0FF308F49086008204860302074
:1032C00088600220C860002008610120486108462B
:1032D000FEF75DF9002085490860332048604020F2
:1032E00088600020C8604FF4806008610846FEF7DF
:1032F00025F93320FFF791FF04460CB12046BEE7C5
:103300000CE04FF40010FEF790F938B1FEF761F9C8
:103310004DF82600761C012E00D907E0724880384F
:10332000406B40F22A6108400028EAD000BF082024
:10333000FEF77BF928B10820FEF781F90424204626
:103340009DE70220FEF771F928B10220FEF777F918
:103350000224204693E72020FEF767F928B12020B9
:10336000FEF76DF90624204689E74FF40070FEF75A
:103370005CF930B14FF40070FEF761F90724204684
:103380007DE740F2FF50FEF75AF9009800060099D9
:1033900001F47F4140EA0120009901F47F0140EAF5
:1033A0001120009940EA11606860019800060199B7
:1033B00001F47F4140EA0120019901F47F0140EAD4
:1033C0001120019940EA11602860204657E77CB53A
:1033D00005460024002000900190FEF7CDF800F093
:1033E000007010B10E2420467CBD4149098888B286
:1033F0006946FFF726FF04460CB12046F4E7012D8D
:1034000036D1019800F4802000282ED0384800885A
:10341000000436490860372048604020886000205A
:10342000C860A80208610846FEF788F83720FFF751
:10343000F4FE04460CB12046D6E702202B49086072
:1034400006204860402088600020C8604FF48060FB
:1034500008610846FEF772F80620FFF7DEFE044614
:103460000CB12046C0E72046BEE725242046BBE736
:10347000019800F48030F8B31D48008800041B490F
:10348000086037204860402088600020C8604FF402
:10349000806008610846FEF751F83720FFF7BDFE4F
:1034A00004460CB120469FE7002010490860062022
:1034B0004860402088600020C8604FF48060086148
:1034C0000846FEF73BF80620FFF7A7FE0446A4B126
:1034D000204689E700100140001401400020001040
:1034E00000F000104404024080800140F00D0020F4
:1034F0008C000020040E002001E0204674E7252403
:10350000204671E770B504460025FB480068032893
:1035100002D12725284670BDF748006838B1F64823
:103520000068012803D0F448006802282ED1B4F5C1
:10353000805F02D127252846EDE7B4F5006F14D14E
:103540000120FFF744FF054605BB0120EB49087544
:1035500000200860486088604FF40060C860002068
:1035600008610846FDF7AAFF10E00020FFF72FFFD3
:1035700005465DB90120E1490875002008604860F2
:103580008860C86008610846FDF798FF2846C2E7D2
:1035900070B504460025DA4804600720D849486021
:1035A000402088600020C8604FF4806008610846B1
:1035B000FDF7C4FF0720FFF730FE0546284670BD23
:1035C00030B5014600200022CB4B1B7881F84E30ED
:1035D000CC4B1B88A1F84C30CB4B1B681A0E9309BF
:1035E0000B70C2F383034B7002F003038B70C64B66
:1035F0001B68C3F30742CA70C34B1B88C3F307227F
:103600000A71C14B1A784A715B681A0E1301CB809C
:10361000BD4B5B68C3F30742CB8843EA1213CB80F0
:1036200002F00F030B72B84B9B88C3F30722D30938
:103630004B72C2F380138B72C2F34013CB72C2F38E
:1036400000130B7300234B73AB4B1B681BB1AA4BCE
:103650001B68012B3CD193071B0D0B61AA4B1A79F8
:103660000B6943EA82030B61A74B9B681A0E0B6937
:1036700043EA92130B61C2F3C2030B7502F0070316
:103680004B75A14B9B68C3F3074253098B75C2F37B
:103690008203CB7593075B0F0B769B4B1B89C3F3A0
:1036A00007220B7E43EAD2130B760B695B1C4B643B
:1036B0000C7E4B6CA41C0125A5406B434B640C7A1B
:1036C0000123A3408B64D1E9113463434B6421E0AF
:1036D000894B1B68022B1DD18B4B1A7993069B0AD1
:1036E0000B61894B9B681A0E0B6943EA02230B613D
:1036F000854B9B68C3F307420B6913430B61824BF5
:103700001B89C3F307220B695B1CDB044B644FF47A
:1037100000738B64C2F3801301F8193F93065B0EAC
:103720004B70794B1A7A4B7843EAD2134B7002F004
:103730007F038B70744BDB681A0ED309CB70C2F316
:1037400041130B71C2F382034B7193071B0F8B71F3
:103750006D4BDB68C3F307428B7943EA92138B719D
:10376000C2F34013CB7100230B7202F001034B72C2
:10377000654B9B89C3F30722D3098B72C2F3801375
:10378000CB72C2F340130B73C2F300134B73C2F33B
:1037900081038B7302F00303CB735B4B1A7B5308DB
:1037A0000B7401234B74594B1B681A0ECA741939D8
:1037B000564B1B68C3F307421402CC85534B1B883E
:1037C000C3F30722CB8D1343CB85504B1A781406D5
:1037D0000C635B681A0E0B6B43EA02440C634B4BA1
:1037E0005B68C3F307420B6B43EA02240C63474B4D
:1037F0009B88C3F307220B6B13430B63434B1A796C
:1038000034235A54414B9B681A0E35235A543F4B6C
:103810009B68C3F3074214068C633C4B1B89C3F3BC
:1038200007228B6B43EA02448C63384B1A7A8B6B0A
:1038300043EA02248C63354BDB681A0E8B6B13430F
:103840008B63324BDB68C3F307423C235B5C43EA88
:1038500012143C235C5413071C0DCC872B4B9B8903
:10386000C3F30722CB8F1343CB87284B1A7B540813
:1038700040235C54012441235C5430BD70B50025C5
:103880002348446B01E02248446B04F045000028C3
:10389000F9D004F0040028B103250420FDF7CFFE81
:1038A000284670BD04F0010028B101250120FDF774
:1038B000C6FE2846F5E740F2FF50FDF7C0FE284659
:1038C000EFE72DE9F04106460F464FF0000810489B
:1038D000456B01E00E48456B05F045000028F9D026
:1038E00005F00400B0B14FF003080420FDF7A7FE77
:1038F0004046BDE8F081000088000020D80D00207F
:10390000F00D00208C000020580D0020680D0020D4
:103910000080014005F0010030B14FF001080120A6
:10392000FDF78DFE4046E4E7FDF722FEB04203D0EE
:103930004FF010084046DCE740F2FF50FDF77FFEF5
:103940000020FDF719FE044604F4604018B9200C6D
:1039500038804046CDE704F4005008B11320C8E792
:1039600004F4804008B11020C3E704F4004008B11B
:103970000F20BEE74046BCE738B500240120009088
:10398000FDF7C7FD10B92524204638BDF74800686B
:10399000042828D00020F649086002204860C02092
:1039A00088600020C8604FF4806008610846FDF719
:1039B000C5FDFFF763FF04460CB12046E5E7002094
:1039C000FDF7DAFDEB4908600420FDF7D5FDE94974
:1039D00048600820FDF7D0FDE64988600C20FDF71F
:1039E000CBFDE449C860E148006858B1DF48006891
:1039F000012807D0DD480068062803D0DB480068AE
:103A0000022816D10020DA490860032048604020CF
:103A100088600020C8604FF4806008610846FDF7A8
:103A20008DFD69460320FFF74CFF04460CB120468C
:103A3000ABE7CE48006804282ED0BDF80000CE4980
:103A40000860BDF800000004C9490860092048600A
:103A5000C02088600020C8604FF48060086108467C
:103A6000FDF76CFDFFF70AFF04460CB120468CE71A
:103A70000020FDF781FDC14908600420FDF77CFDB1
:103A8000BE4948600820FDF777FDBC4988600C20DE
:103A9000FDF772FDB949C8600024204675E770B58E
:103AA0000025B748446B01E0B548446B04F045007D
:103AB0000028F9D004F0040028B103250420FDF704
:103AC000BEFD284670BD40F2FF50FDF7B8FD284608
:103AD000F8E770B500264FF48035A948446B02E042
:103AE0006D1EA748446B04F0450008B9002DF7D1BE
:103AF00015B104F0040028B103260420FDF79FFD52
:103B0000304670BD04F0400028B100264020FDF78B
:103B100096FD3046F5E73046F3E770B500254FF4E3
:103B2000803400E0641E24B18020FDF77EFD002873
:103B3000F8D014B90325284670BD40F2FF50FDF7B8
:103B40007EFD2846F8E72DE9F041002400260025F7
:103B50000027A046B2208B49087500200860486005
:103B60008860C86008610846FDF7A8FC0320FDF7DF
:103B7000C5FC0120FDF7BFFC00207D4908604860BE
:103B80008860C8604FF4806008610846FDF7D6FC85
:103B9000FFF7C3FF044614B12046BDE8F0814FF49F
:103BA000D570734908600820486040208860002074
:103BB000C8604FF4806008610846FDF7BFFCFFF75E
:103BC00088FF04462CB90120684908604FF08048FE
:103BD00012E0002066490860372048604020886075
:103BE0000020C8604FF4806008610846FDF7A6FC1D
:103BF0003720FFF712FB044600205D49086037209C
:103C00004860402088600020C8604FF480600861F0
:103C10000846FDF793FC3720FFF7FFFA0446002C17
:103C20004AD136E0002052490860372048604020E1
:103C300088600020C8604FF4806008610846FDF786
:103C40007DFC3720FFF7E9FA04460CB12046A4E7D3
:103C50004D4848EA00004649086029204860402055
:103C600088600020C8604FF4806008610846FDF756
:103C700065FCFFF714FF04460CB120468DE70020D9
:103C8000FDF77AFC0646012080EAD67080F0010735
:103C90006D1C1FB94FF6FF708542C3D34FF6FF70FE
:103CA000854202D31B24204677E706F080400600B9
:103CB00002D002202D49086020466EE710B500248E
:103CC000FFF788FAFDF7ECFBFFF73DFF04460CB168
:103CD000204610BDFFF750FE04460CB12046F8E721
:103CE0000120284908750020086048608860C86085
:103CF00008610846FDF7E2FB1CB92448FFF760FCA9
:103D0000044634B92149B1F84C100804FFF740FCCF
:103D1000044624B94FF40060FFF7F4FB0446204644
:103D2000D7E770B5044600251348008800041449FD
:103D3000886040F24D40C8600D20FFF76EFA0546DE
:103D40000DB1284670BD0E48406920602846F9E74D
:103D500008B5002000906846FFF7E3FF08B1FF2098
:103D600008BD0098C0F34320FAE700008800002057
:103D7000F00D0020680D00208C000020580D002060
:103D800000800140D80D002000001080880D002028
:103D900010B50424FFF7DCFF0446042C01D10020F9
:103DA00010BDFF2C01D10220FAE70120F8E710B581
:103DB00000240020FDF7A2FB204610BD70B504468C
:103DC000002500260020FDF7D7FB00F0007010B1A1
:103DD0000E25284670BD4020FC4908601020486030
:103DE000402088600020C8604FF480600861084669
:103DF000FDF7A4FB1020FFF710FA05460DB1284689
:103E0000E8E7F34800880004F0490860372048607C
:103E1000402088600020C8604FF480600861084638
:103E2000FDF78CFB3720FFF7F8F905460DB1284662
:103E3000D0E74FF0FF30E74908604020486060203D
:103E400088600220C860002008610120486108469F
:103E5000FDF79DFB0020DD4908600D2048604020F3
:103E600088600020C8604FF4806008610846FDF754
:103E700065FB0D20FFF7D1F905460DB12846A9E7EE
:103E80000EE04FF40040FDF7D0FB48B1002604E0FF
:103E9000FDF79FFB44F82600761C082EF8D320344B
:103EA000CD48406B40F22A6108400028E9D0082044
:103EB000FDF7BBFB28B10820FDF7C1FB0425284610
:103EC00088E70220FDF7B1FB28B10220FDF7B7FB20
:103ED000022528467EE72020FDF7A7FB28B12020F9
:103EE000FDF7ADFB0625284674E74FF40070FDF79B
:103EF0009CFB30B14FF40070FDF7A1FB072528466D
:103F000068E703E0FDF765FB2060241D4FF4001017
:103F1000FDF78BFB0028F5D140F2FF50FDF78FFB3A
:103F2000284657E770B5044600260025AB48FFF742
:103F300045FF06460EB1304670BDA8480078850999
:103F40002570A6480078C0F340156570A3488578B1
:103F500028026080A148C5786088284360809F4817
:103F60000579280660609D484579606840EA05400B
:103F700060609A488579606840EA052060609748EB
:103F8000C5796068284360609448057A2572457A4F
:103F90006572807A0509A5729048C57A2802A081C9
:103FA0008E48057BA0892843A0818C48407B8508EA
:103FB000A5738A48407B00F00305E5733046BBE7F4
:103FC0002DE9F04107460D4614460026002084499D
:103FD000087084490860844908607F49C862834842
:103FE0000068022801D104026D0A7848046010209C
:103FF00076494860402088600020C8604FF48060A7
:1040000008610846FDF79AFA1020FFF706F9064600
:1040100016B13046BDE8F0814FF0FF306D490860C1
:1040200008464460902088600220C8600020086133
:10403000012048610846FDF7AAFA6448056011208E
:1040400062494860402088600020C8604FF480606A
:1040500008610846FDF772FA1120FFF7DEF8064600
:104060000EB13046D6E701210802FDF757FA0120CC
:10407000FDF761FA21463846FFF756F83046C9E7A2
:104080002DE9F04180460D4614461E4600270020CB
:1040900053490870534908600120534908600020C3
:1040A0004D49C86251480068022801D104026D0AD6
:1040B0004648046010204549486040208860002040
:1040C000C8604FF4806008610846FDF737FA102099
:1040D000FFF7A3F8074617B13846BDE8F0814FF067
:1040E000FF303C49086006FB04F04860902088607F
:1040F0000220C86000200861012048610846FDF7E1
:1041000046FA3248056012203049486040208860F5
:104110000020C8604FF4806008610846FDF70EFA81
:104120001220FFF77AF807460FB13846D5E701218C
:104130000802FDF7F3F90120FDF7FDF906FB04F194
:104140004046FEF7F1FF3846C7E710B5002400BF30
:10415000FEF7E5FF30B92348006818B92048007819
:104160000028F5D01E48007810B11D48007810BD19
:104170002046FCE72DE9F04107460D46144600268F
:10418000002017490870174908601749086012494C
:10419000C86216480068022801D104026D0A0B4863
:1041A0000460102009494860402088600020C860F1
:1041B0004FF4806008610846FDF7C0F91020FFF752
:1041C0002CF80646A6B13046BDE8F081F00D00207F
:1041D0008C000020040E002000800140780D00209B
:1041E000940000209800002090000020880000200B
:1041F000FE4805601820FD49486040208860002086
:10420000C8604FF4806008610846FDF797F91820F0
:10421000FFF703F806460EB13046D5E74FF0FF3002
:10422000F349086008464460902088600020C86018
:104230000861012048610846FDF7A9F9012108023B
:10424000FDF76CF921463846FEF799FF0120FDF78E
:1042500072F93046B8E72DE9F84380460F46154617
:104260001E46002400200090E2490870E2490860E0
:104270000120E24908600020E149C862E148006885
:10428000022801D105027F0AD84805601020D749CD
:104290004860402088600020C8604FF4806008615A
:1042A0000846FDF74BF91020FEF7B7FF044614B19E
:1042B0002046BDE8F883D44800880004CB49086054
:1042C00037204860402088600020C8604FF480603C
:1042D00008610846FDF732F93720FEF79EFF0446D5
:1042E0000CB12046E5E7C14806601720BF49486089
:1042F000402088600020C8604FF480600861084654
:10430000FDF71CF91720FEF788FF04460CB1204684
:10431000CFE7B64807601920B4494860402088605C
:104320000020C8604FF4806008610846FDF706F978
:104330001920FEF772FF04460CB12046B9E74FF092
:10434000FF30AB49086006FB05F0486090208860AC
:104350000020C8600861012048610846FDF717F990
:1043600001210802FDF7DAF80120FDF7E4F806FB69
:1043700005F14046FEF703FF20469AE710B50024FA
:1043800000BFFEF7CCFE30B99B48006818B99948C9
:1043900000780028F5D09748007810B1954800784B
:1043A00010BD40F2FF50FDF74AF92046F8E7944867
:1043B000406B00F4405008B1012070470020FCE73A
:1043C00010B5002400208E49886040F24C40C8603F
:1043D0000C20FEF722FF0446204610BD7CB50446A3
:1043E00000250020019000908748008800047F4944
:1043F00008600D204860402088600020C8604FF4AD
:10440000806008610846FDF799F87D48406B009090
:1044100002E07B48406B0090009800F045000028C7
:10442000F7D0009800F0040028B103250420FDF720
:1044300006F928467CBD009800F0010028B101254E
:104440000120FDF7FCF82846F4E7FDF791F800900D
:1044500000980D2802D010252846EBE740F2FF50C7
:10446000FDF7EDF80020FDF787F801900198C0F303
:104470004320207065490198084008B92846D9E7CB
:10448000019800F0004008B11C20D3E7019800F02B
:10449000804008B10920CDE7019800F0005008B134
:1044A0000A20C7E7019800F0805008B10B20C1E74F
:1044B000019800F0006008B10C20BBE7019800F003
:1044C000806008B10D20B5E7019800F0807008B158
:1044D0000E20AFE7019800F4000008B10F20A9E713
:1044E000019800F4800008B11020A3E7019800F4BF
:1044F000001008B111209DE7019800F4801008B168
:10450000122097E7019800F4002008B1132091E7EA
:10451000019800F4802008B114208BE7019800F482
:10452000003008B1152085E7019800F4803008B10B
:1045300016207FE7019800F4004008B1172079E7C2
:10454000019800F4804008B1182073E7019800F446
:10455000005008B119206DE7019800F0080008B17B
:104560001A2067E7284665E72DE9FC4105460E4617
:104570000024002700200190009025484068202159
:1045800001EA105018B925242046BDE8FC811C48DA
:104590004068C0B2801C1F49B1FBF0F001900020C0
:1045A000FCF7EAFF00F0007010B10E242046ECE7A3
:1045B00014480068022801D16D0A760A1148006883
:1045C00038B110480068012803D00E48006802285E
:1045D00042D1064805602020044948604020886098
:1045E0000020C8604FF48060086115E0F00D0020E5
:1045F000040E00209400002098000020900000206D
:1046000000800140880000208C00002008E0FFFDB1
:10461000580D0020C0D401000846FCF78FFF202071
:10462000FEF7FBFD04460CB12046AEE738480660B5
:10463000212037494860402088600020C8604FF43E
:10464000806008610846FCF779FF2120FEF7E5FD50
:1046500004460CB1204698E700202D49086026202A
:104660004860402088600020C8604FF48060086186
:104670000846FCF763FF2620FEF7CFFD04460CB189
:10468000204682E7002700E07F1C01988742FBD389
:104690006846FFF7A3FE044603E06846FFF79EFE68
:1046A00004463CB99DF800000728F6D09DF80000AC
:1046B0000628F2D0204668E710B5164800680128A1
:1046C0000BD100201449886040F24C40C8600C2097
:1046D000FEF7A3FD1149087002E000200F490870A1
:1046E0004FF48070FCF7B8FF00214FF48070FCF7A6
:1046F00015FF01200A4908600848007810BD0146EE
:10470000002002E04910421CD0B20129FAD17047C2
:10471000F00D002090000020008001409400002057
:104720009800002070B505460DB1012070BDFFF75F
:10473000C5FA04460CB10120F8E70020F6E701466F
:10474000002070472DE9F04107460D4614461E46ED
:10475000012E0EDD610233464FF400722846FFF74A
:104760008FFCFFF7F2FC00BFFFF712FB0028FBD124
:104770000CE061024FF400722846FFF721FCFFF7BE
:10478000E4FC00BFFFF704FB0028FBD10020BDE8DC
:10479000F0812DE9F04107460D4614461E46012ED4
:1047A0000EDD610233464FF400722846FFF753FDD9
:1047B000FFF7E4FD00BFFFF7EBFA0028FBD10CE0A8
:1047C00061024FF400722846FFF7D4FCFFF7D6FDD4
:1047D00000BFFFF7DDFA0028FBD10020BDE8F08123
:1047E00003460020704700207047000070B5034664
:1047F0000C4603E014F8015B03F8015B1500A2F11D
:104800000102F7D170BD30B5034601E003F8011B8A
:104810001400A2F10102F9D130BDF0B503461C46E7
:104820000D46002000BF1600A2F1010207D014F8C7
:10483000017B15F801CBA7EB0C063000F3D0F0BDDF
:10484000024600E0521C107810B110788842F9D16D
:10485000107870472DE9F04104460D46E66AAE42F5
:104860002FD0207908B360780123324604F130015B
:10487000FFF78FFF10B10120BDE8F081002020710B
:10488000D4E907100844B0420FD9E7780AE0E0699C
:10489000064460780123324604F13001FFF779FFC6
:1048A000781EC7B2012FF2DC00BF55B1607801233A
:1048B0002A4604F13001FFF745FF08B10120DBE78C
:1048C000E5620020D8E770B5044600212046FFF7D6
:1048D000C1FF0546002D59D1207803284FD16079BA
:1048E00000284CD00020E0624FF40072002104F157
:1048F0003000FFF788FF552184F82E12AA2184F892
:104900002F12522084F830005221312001556121AC
:1049100032200155412133200155722184F81412AF
:1049200084F81512412184F81612612184F81712B7
:10493000217C84F81812208A010A84F8191220694F
:10494000010C84F81A122069010E84F81B12217BD5
:1049500084F81C12A089010A84F81D12E068010C79
:1049600084F81E12E068010E84F81F12607801239B
:1049700004F130016269FFF70CFF0020607160787C
:1049800000221146FFF72CFF00B10125284670BD1B
:104990000246891E9069801E884201D80020704717
:1049A0009378906A01FB0300F9E72DE9F041054691
:1049B0000C46022C02D3A869A04202D80120BDE80F
:1049C000F0812878012804D002282CD003285AD15D
:1049D0003DE0274607EB5707286A00EB572128469A
:1049E000FFF738FF00B14EE0C7F3080105F13000D2
:1049F00010F801807F1C286A00EB57212846FFF73A
:104A000029FF00B13FE0C7F3080105F13000405C29
:104A100048EA002804F0010010B14FEA1810CEE770
:104A2000C8F30B00CBE7286A00EB14212846FFF7F8
:104A300011FF00B127E040F2FF1000EA440105F148
:104A400030000E183078717840EA0120B7E7286A04
:104A500000EBD4112846FFF7FDFE00B113E040F251
:104A6000FF1000EA840105F130000E18F07800060E
:104A7000B17840EA0140717840EA0120317808437A
:104A800020F070409BE700BF4FF0FF3097E72DE923
:104A9000F04705460E461746022E02D3A869B042DB
:104AA00002D84FF002088AE02878012804D00228B2
:104AB00041D003287DD154E0B14609EB5909286A59
:104AC00000EB59212846FFF7C5FE8046B8F1000FDC
:104AD00000D071E0C9F3080105F130000C1806F0B0
:104AE000010020B1F9B2207861F31F1000E03846D0
:104AF000207009F1010901202871286A00EB592171
:104B00002846FFF7A7FE8046B8F1000F00D053E01B
:104B1000C9F3080105F130000C1806F0010010B1CE
:104B2000C7F3071005E0207800F0F000C7F3032179
:104B30000843207040E0286A00EB16212846FFF762
:104B400089FE8046B8F1000F00D035E040F2FF103A
:104B500000EA460105F130000C182770380A607031
:104B60002AE0286A00EBD6112846FFF773FE80463C
:104B7000B8F1000F00D01FE040F2FF1000EA8601FC
:104B800005F130000C18E0780006A17840EA0140F9
:104B9000617840EA01202178084300F07040074323
:104BA0002770380A6070380CA070380EE07003E08F
:104BB000FFE74FF0020800BF00BF01202871404608
:104BC000BDE8F0872DE9F04104460E46022E02D3DF
:104BD000A069B04201D8022725E000271FE0314636
:104BE0002046FFF7E2FE054605B91BE0012D01D185
:104BF000022717E0681C08B9012713E0002231469C
:104C00002046FFF744FF074607B10BE02069401C30
:104C100020B12069401C2061012060712E46A069EE
:104C2000B042DCD800BF3846BDE8F0812DE9F0473E
:104C300004468946B9F1000F06D1E76817B1A069AB
:104C4000B84211D801270FE049462046FFF7ADFED4
:104C50000646022E02D20120BDE8F087A069B042CC
:104C600001D93046F8E74F463D4600BF6D1CA069AC
:104C7000A84204D80225BD4201D90020ECE729460C
:104C80002046FFF792FE064606B909E0701C08B1FF
:104C9000012E01D13046DFE7BD42E7D10020DBE73E
:104CA00000BF6FF0704229462046FFF7F0FE8046B5
:104CB000B8F1000F08D1B9F1000F05D02A464946D6
:104CC0002046FFF7E4FE8046B8F1000F09D1E56009
:104CD0002069401C68B12069401E2061012060717C
:104CE00007E0B8F1010F02D14FF0FF3000E00120E2
:104CF00005462846B0E72DE9F04104460E46E68019
:104D0000A568012D03D020688069A84202D802203E
:104D1000BDE8F0812DB920680078032801D1206812
:104D2000456A65B9E56020680089B04201DC02206F
:104D3000EEE72068406A00EB1610206120E0206852
:104D40008078070112E029462068FFF72EFE05460D
:104D5000681C08B90120DBE7022D03D320688069B5
:104D6000A84201D80220D3E7F01B86B2BE42EADA9D
:104D7000E56029462068FFF70BFE00EB1610206166
:104D80002068303006F00F0100EB41106061002018
:104D9000BEE72DE9F0410446884600BFE088401C8C
:104DA00086B20EB1206910B90420BDE8F08106F08A
:104DB0000F0000286FD12069401C2061E06828B9ED
:104DC00020680089B04266DC0420EEE72068807825
:104DD000401E00EA161000285DD1E1682068FFF748
:104DE000E4FD0546012D01D80220DEE7681C08B964
:104DF0000120DAE720688069A84246D8B8F1000FA0
:104E000001D10420D1E7E1682068FFF70FFF0546D4
:104E10000DB90720C9E7012D01D10220C5E7681CA3
:104E200008B90120C1E700212068FFF713FD08B190
:104E30000120BAE7216801F130004FF4007200212F
:104E4000FFF7E1FC29462068FFF7A2FD2168C86250
:104E5000002710E001202168087100212068FFF779
:104E6000F9FC08B10120A0E72068C06A401C216855
:104E7000C862781CC7B220688078B842EADC206833
:104E8000C06AC01B2168C86200BFE560294620686F
:104E9000FFF77EFD2061E6802068303006F00F01CC
:104EA00000EB4110606100207FE72DE9F0470546E7
:104EB0000C46207820F04000401E00EB800101EB02
:104EC000C00600274FF0010800BFFE48C05D205C0F
:104ED000FC49C95D2144497840EA0129B8F1000F35
:104EE00010D0484601F090FB8046FF2E07D2314695
:104EF000761C35F8110001F087FB404508D00020F2
:104F0000BDE8F0874FF6FF70814501D00020F7E73C
:104F1000781C07460D28D8D3207800F0400038B11F
:104F2000B8F1000F04D035F8160008B10020E7E70B
:104F30000120E5E7F0B50346087800F03F00401E89
:104F400000EB800707EBC0020025012600BFDD480B
:104F5000405D085CDB4F7F5D0F447F7840EA0724AB
:104F60004EB1FF2A01D30020F0BD26461046521C48
:104F700023F8104005E04FF6FF70844201D0002076
:104F8000F2E7681C05460D28E1D3087800F04000E0
:104F900030B1FF2A01D30020E6E7002023F81200F9
:104FA0000120E1E7F0B504461D464D730F27CF728F
:104FB00000270F738F76BC4681F81BC0571E07EB86
:104FC000870C0CEBC706002738463B4600BF4FF660
:104FD000FF77B84203D03746761C34F81700DFF865
:104FE000E4C21CF803C001F80C000712DFF8D4C2B9
:104FF0001CF803C08C448CF8017008B94FF6FF70A0
:105000005F1C3B460D2FE2D34FF6FF77B84202D02C
:1050100034F816700FB942F040020A70F0BD2DE965
:10502000FC4707468A4690461C460B2251463846A6
:10503000FFF7DCFB052C0BDD00BF601000EBC4317B
:1050400038F8022B881884B2B8F800000028F4D190
:10505000072600BF2046E11704EB11710911A4EBEC
:105060000111303101F0FF09B9F1390F03DD09F108
:10507000070000F0FF093046761E0DF8009020462C
:10508000E11704EB1171C1F30F14002CE2D17E2063
:105090000DF8060000250BE0785D812807DB785DC0
:1050A000FE2804DC701EA84200D106E06D1C6D1CB9
:1050B000B54202D2785D2028EED100BF00BF082E95
:1050C00004D23046761C1DF8000000E0202029465E
:1050D0006D1C7854082DF2D3BDE8FC8730B501462D
:1050E00000200B2200BF431003EBC01411F8015B3A
:1050F0006319D8B2531E1A00F5D130BD2DE9F0471F
:10510000044600212046FFF7F6FD074617B1384652
:10511000BDE8F0874FF0FF09CA4600BF216920684B
:10512000FFF798FB074607B154E065692E780EB982
:1051300004274FE0E87A00F03F08E52E05D008F09C
:10514000080028B1B8F10F0F02D04FF0FF093AE084
:10515000B8F10F0F1CD1E069A0B306F0400030B1E8
:1051600095F80DA026F04006B146E08820844E4513
:105170000AD1687B504507D12946E069FFF795FEC3
:1051800010B1A9F1010000E0FF2000F0FF091AE0D2
:10519000B9F1000F05D12846FFF7A0FF504500D117
:1051A00018E04FF0FF094FF6FF702084A069C07A25
:1051B00000F0010030B90B222846A169FFF72DFB52
:1051C00000B907E0FFE700212046FFF7E2FD0746B0
:1051D000002FA3D000BF38469AE72DE9F0470446D8
:1051E0004FF0FF09CA4604274CE021692068FFF709
:1051F00031FB074607B148E0666935780DB90427E9
:1052000043E0F07A00F03F08E52D07D02E2D05D0C1
:1052100008F0080028B1B8F10F0F02D04FF0FF09D5
:1052200029E0B8F10F0F1AD105F0400030B196F81F
:105230000DA025F04005A946E08820844D450AD1FF
:10524000707B504507D13146E069FFF773FE10B11E
:10525000A9F1010000E0FF2000F0FF090BE0B9F127
:10526000000F04D13046FFF739FF504502D04FF60A
:10527000FF70208409E000212046FFF78AFD0746E1
:1052800007B102E020690028AFD100BF0FB10020B4
:1052900020613846BDE8F0872DE9F04F85B004461F
:1052A000D4F81880D4F81CB00C22414601A8FFF7AE
:1052B0009DFA00BF9DF80F0000F0010050B30020E0
:1052C00002E000002A72000888F80B00E061012764
:1052D0000DE03B465A4601A94046FFF7A0FE204696
:1052E000FFF70CFF054605B103E0781C87B2642F79
:1052F000EFDB00BF642F03D1072005B0BDE8F08FBE
:10530000042D01D02846F8E79DF80F0088F80B001F
:10531000C4F81CB09DF80F0000F0020070B1002628
:1053200001E0701C86B23BF816000028F9D106F1A6
:1053300019000D2190FBF1F086B200E0012600215A
:105340002046FFF7D8FC05460DB12846D5E70020DA
:105350000746049000BF21692068FFF77BFA0546E5
:1053600005B119E0606990F80090B9F1E50F02D03D
:10537000B9F1000F08D10FB9E0880490781C80B211
:105380000746B04201D107E0002701212046FFF780
:1053900000FD0546002DDED000BF4DBB012E27DDF0
:1053A00020460499FFF7A7FC05460DBBA069FFF74F
:1053B00095FE0090701E86B200BF21692068FFF73D
:1053C00049FA054605B112E0F2B26169E069009B55
:1053D000FFF7E8FD01202168087100212046FFF752
:1053E000D8FC05461DB9701E80B20600E5D100BF8D
:1053F000D5B921692068FFF72DFA0546A5B9D4F87B
:1054000014A0202200215046FFF7FDF90B22504640
:10541000A169FFF7EBF9A069C07A00F018008AF8DB
:105420000C00012021680871284666E72DE9F34F3A
:1054300083B0814604980068019002E00198401C06
:105440000190019800782F28F8D0019800785C2806
:10545000F4D0D9F81CA000252F4600BF38467F1C89
:1054600001990C5C202C03DB2F2C01D05C2C00D18B
:1054700032E0FF2D03D3062005B0BDE8F08FE4B283
:10548000812C13DBE0B2FE2810DC38467F1C01992A
:105490000E5C402E01DB7E2E05DD802E01DBFE2E14
:1054A00001DD0620E8E706EB042084B20121204656
:1054B00001F070F804460CB90620DDE7802C06DA0E
:1054C0002146FEA0FFF7BCF908B10620D4E7284624
:1054D0006D1C2AF81040C1E700BF0198C11904985B
:1054E0000160202C01DA042000E00020804608E062
:1054F000681E3AF81040202C02D02E2C00D002E07A
:105500006D1E002DF4D100BF0DB90620B4E70020B8
:105510002AF815000B222021D9F81800FFF773F99B
:10552000002700E07F1C3AF817002028FAD03AF84C
:1055300017002E28F6D00FB148F0030800E06D1ECA
:1055400025B1681E3AF810002E28F8D10020064632
:1055500002904FF0080B00BF38467F1C3AF810400D
:1055600004B963E0202C03D02E2C04D1AF4202D02A
:1055700048F00308F0E70298584501D2AF4214D131
:10558000BBF10B0F02D148F003084FE0AF4201D04E
:1055900048F00308AF4200D948E02F4608200290A7
:1055A0004FF00B0BB006060ED6E7802C09DB204629
:1055B00001F02AF80021009000F0ECFF044648F0CA
:1055C0000208FF2C11DDABF101000299884204D8DA
:1055D00048F00308CDF808B0BEE72212D9F8183019
:1055E0000298411C02911A5419E024B12146B6A038
:1055F000FFF726F918B15F2448F003080FE0412CAB
:1056000004DB5A2C02DC46F0020608E0612C06DBC3
:105610007A2C04DC46F00106A4F1200084B2D9F80B
:1056200018300298411C02911C5495E700BFD9F82C
:1056300018000078E52803D10520D9F81810087063
:10564000BBF1080F01D1B006060E06F00C000C28C5
:1056500003D006F00300032801D148F0020808F047
:10566000020058B906F00300012801D148F01008E3
:1056700006F00C00042801D148F00808D9F81800F9
:1056800080F80B800020F7E62DE9FC5F81460F468D
:1056900007F10908D9F81000002851D0D9F81440B2
:1056A000207B0190002514E0665D202E00D112E0E1
:1056B000052E00D1E526019800F0080030B1412EFA
:1056C00004DB5A2E02DC06F12000C6B208F8016B9A
:1056D0006D1C082DE8D300BF207A202819D02E2079
:1056E00008F8010B082511E0665D202E00D10FE0BF
:1056F000019800F0100030B1412E04DB5A2E02DC7C
:1057000006F12000C6B208F8016B6D1C0B2DEBD31F
:1057100000BFE07A3872E07F0106A07F41EA0041D5
:10572000607F41EA0020217F08433860217E607E4F
:1057300041EA0020B880A17DE07D41EA0020F880A8
:10574000002088F80000B869D0B3F869C0B3D7F872
:1057500018B00025D9F8100070B3B9F820004FF642
:10576000FF71884228D0D9F81C0000901CE000216D
:10577000504600F00FFF8246BAF1000F01D100251C
:1057800019E0BAF1FF0F05DD4FEA2A2228466D1C09
:105790000BF80020F869401EA84201D800250AE055
:1057A00028466D1C0BF800A0009830F8021B5FEA39
:1057B000010A0090DBD100BF00200BF8050000BFFC
:1057C000BDE8FC9F2DE9F3410446019800782F289D
:1057D00003D0019800785C2802D10198401C019008
:1057E0000020A06001980078202807D200212046E0
:1057F000FFF781FA0646002060612FE000BF01A993
:105800002046FFF713FE064606B126E02046FFF7C6
:1058100075FC0646A069C77A46B1042E00D01CE08C
:1058200000BF07F0040000B9052616E007F00400E9
:1058300000B112E06569E87A00F0100008B90526A9
:105840000BE0A97EE87E41EA00212A7D687D42EADC
:10585000002041EA0040A060D1E700BF3046BDE82B
:10586000FC8170B504460D46607801232A4604F198
:105870003001FEF767FF08B1032070BD94F82E12C7
:1058800094F82F0241EA00204AF65521884201D0BF
:105890000220F2E794F86900010694F8680041EAF2
:1058A000004194F8670041EA002094F8661008432C
:1058B00020F07F40064988420ED10BE0222A3A3C74
:1058C0003E3F7C7F000000002B2C3B3D5B5D0000D9
:1058D000464154000020D0E794F88500010694F872
:1058E000840041EA004194F8830041EA002094F8E2
:1058F0008210084320F07F40F749884201D1002000
:10590000BBE70120B9E72DE9F74F88B00898006898
:1059100001900198007830380790079809280AD834
:10592000019840783A2806D10198801C0190089986
:105930000198086001E000200790079818B10B203B
:105940000BB0BDE8F08FE549079851F82040099861
:1059500004600CB90C20F3E7207878B16078FEF78A
:10596000EEFE804608F0010040B90A9820B108F028
:10597000040008B10A20E3E70020E1E700202070DE
:10598000079860706078FEF7CDFE804608F0010051
:1059900008B10320D4E70A9820B108F0040008B148
:1059A0000A20CDE74FF0000B59462046FFF759FF7C
:1059B000054600BF012D21D14FF0000ABAF1000FBA
:1059C00003D0AAF1010000F0FF0A4FF4DF7000EBF2
:1059D0000A1104F130000F18387978B1F87A01060D
:1059E000B87A41EA0041787A41EA0020397A40EAFF
:1059F000010B59462046FFF734FF0546032D01D120
:105A000001209DE70DB10D209AE73B20015D94F840
:105A10003C0041EA0020B0F5007F01D00D208FE767
:105A20004620015D94F8470041EA0029B9F1000FD2
:105A30000ED194F85700010694F8560041EA00414F
:105A400094F8550041EA002094F8541040EA010906
:105A5000C4F81C904020065DE670012E03D0022E93
:105A600001D00D206CE709FB06F93D20005D0646DC
:105A7000A07016B1701E304008B10D2060E74120C3
:105A8000015D94F8420041EA00202081207A00F074
:105A90000F0008B10D2053E74320015D94F8440046
:105AA00041EA00200690069870B994F85300010668
:105AB00094F8520041EA004194F8510041EA002074
:105AC00094F85010084306903E20015D94F83F0082
:105AD00041EA00200290029808B90D2030E70298B0
