:020000040800F2
:10000000B8040020450100082B140008450D000825
:10001000271400087D060008831E00080000000069
:10002000000000000000000000000000311800087F
:10003000E507000800000000F11600081D1900087F
:100040005F0100085F0100085F0100085F01000810
:100050005F0100085F0100085F0100085F01000800
:100060005F0100085F0100085F0100085F010008F0
:100070005F0100085F0100085F0100085F010008E0
:100080005F0100085F0100085F0100085F010008D0
:100090005F0100085F0100085F01000861080008B7
:1000A0005F0100085F0100085F0100085F010008B0
:1000B0005F0100085F0100085F0100085F010008A0
:1000C0005F0100085F0100085F0100085F01000890
:1000D0005F0100085F0100085F0100085F01000880
:1000E0005F0100085F0100085F0100085F01000870
:1000F0005F0100085F0100085F0100085F01000860
:100100005F0100085F0100085F0100085F0100084F
:100110005F0100085F0100085F0100085F0100083F
:100120005F0100085F0100085F0100085F0100082F
:10013000DFF80CD000F090FA00480047851F000857
:10014000B80400200648804706480047FEE7FEE75F
:10015000FEE7FEE7FEE7FEE7FEE7FEE7FEE7FEE777
:10016000A119000831010008D2B201E000F8012B0A
:10017000491EFBD270470022F6E710B513460A4627
:1001800004461946FFF7F0FF204610BD2DE9FE4F4B
:10019000804681EA0300C00F0C46009021F0004128
:1001A00023F00045B8EB0200A94105D240462146A4
:1001B00090461C460B46024623F00040104347D0B1
:1001C000270DC7F30A00C3F30A510290401A0190A9
:1001D00040286BDAC3F3130040F4801B009892466A
:1001E00020B10023D2EB030A63EB0B0B01985946B5
:1001F000C0F14002504600F0A1F906460D465046B7
:100200005946019A00F0B9F910EB08006141002449
:1002100087EA115284EAE7731A4340D0009A62B326
:10022000019A012A4FEA075215DC001B61EB02011B
:100230004FF0004202EA0752CDE90042001C41F5AE
:10024000801132462B4600F0B9F903B0BDE8F08FBB
:1002500040462146F9E7001B61EB0201001C41F515
:10026000801300185B412018A2F5001747EB03012B
:1002700040EAD570B6196D4111E06D084FEA3606B7
:1002800045EAC0754FEA0752001B61EB0201001CF2
:1002900041F5801149084FEA3000001951413246BA
:1002A0002B4603B0BDE8F04F00F079B90098012269
:1002B00040000023D0EB020263EBE073009821467C
:1002C0004FEAE074B8EB000061EB0401E9E783F06A
:1002D00000435BE781F0004158E72DE9FE4F81EADA
:1002E000030404F0004421F0004100944FF0000B9F
:1002F00023F0004350EA01045ED052EA03045BD0CD
:10030000C3F30A54C1F30A552C44A4F2F334019404
:10031000A0FB0254C1F3130141F48011C3F3130392
:1003200043F4801301FB024400FB034E840A970A46
:1003300044EA815447EA8357A4FB076802958D0A73
:1003400005FB07854FEA932C04FB0C542705029DFF
:100350004FEA065847EA1637B5EB08056EEB070C6F
:10036000870E920E47EA811742EA8312A7FB020129
:10037000B6EB0B0164EB00042B0D43EA0C335E1863
:1003800044EB1C50DA465146E7FB0201C5F3130467
:100390004FEA0B3343EA14534FEA0432019C43EA19
:1003A0000603A4F10C040294009CCDE900B400F013
:1003B00005F903B0BDE8F08F00200146F9E72DE90B
:1003C000F04D81EA030404F0004B21F0004514468F
:1003D0004FF0000A23F0004150EA050220D054EA11
:1003E00001021DD0C5F30A570246C5F31303C1F33A
:1003F0001300C1F30A5640F4801543F48013A7EBB1
:100400000608101BD64608F2FD3873EB050002D330
:1004100008F1010801E092185B41B8F1000F03DA1E
:1004200000200146BDE8F08D00204FF48011064603
:1004300084460EE0171B73EB050705D3121B63EB15
:10044000050306434CEA010C49084FEA30009218B4
:100450005B4150EA0107EDD152EA030012D082EA73
:10046000040083EA0501084305D0101BAB4106D206
:100470000122002306E000224FF0004302E06FF06B
:10048000010253101AEB06004CEB085110EB0A0066
:1004900041EB0B01BDE8F04D00F081B80EB5C10F86
:1004A00080EAE0700844CA07002140F233438DE837
:1004B0000E000A460B4600F081F803B000BD0EB5F1
:1004C00040F2334102910021CDE900110A460B466A
:1004D00000F074F803B000BDC1F30A5210B5C1F3C7
:1004E000130140F2FF3341F480119A4201DA0020F7
:1004F00010BD40F233439A42A2F2334203DC52422F
:1005000000F02BF810BD904010BD000030B5041E67
:1005100071F1000404DB4FF00044404264EB010140
:10052000141E73F1000405DB1C464FF000435242D9
:1005300063EB04038B4208BF824230BD202A04DBF8
:10054000203A00FA02F1002070479140C2F12003E6
:1005500020FA03F3194390407047202A04DB203A25
:1005600021FA02F00021704721FA02F3D040C2F1D3
:1005700020029140084319467047202A06DBCB171A
:10058000203A41FA02F043EAE07306E041FA02F34E
:10059000D040C2F12002914008431946704710B57F
:1005A000141E73F1000408DA401C41F10001921896
:1005B0005B411A4301D120F0010010BD2DE9F04D3F
:1005C00092469B4611B1B1FA81F202E0B0FA80F294
:1005D00020329046FFF7B2FF04460F4640EA0A0079
:1005E00041EA0B0153465A46084313D0114653EAD9
:1005F000010019D0C8F140025046FFF7AEFF054692
:100600000E46504659464246FFF798FF084305D02C
:10061000012004E020463946BDE8F08D0020054366
:1006200046EAE0762C4337430A986305E40AA0EBD8
:1006300008000022FD0A44EA47540A3002D500208F
:100640000146E9E7010510196941DDE9084500198E
:100650006941BDE8F04DA2E7064C074D06E0E068B1
:1006600040F0010394E8070098471034AC42F6D3F9
:10067000FFF762FD642400088424000800BFFEE741
:100680002DE9F04705460C4616464FF00109218832
:100690002289891AE38862899A1A5143A288238998
:1006A000D31A67886289BA1A03FB1210FFF7F6FEA5
:1006B000C6E90C0100221346D6E90C713846FFF753
:1006C00025FF02D14FF0000989E029882A89891A7B
:1006D000E38862899A1A5143AA882B89D31A6788BA
:1006E0006289BA1A03FB1210FFF7D8FEC6E90001AF
:1006F00021882289891AAA882B89D21A51432A88EB
:10070000D21AA3882789DB1B02FB1310FFF7C6FE52
:10071000C6E902012189AA885143A2882B8902FBDC
:1007200013116288514322885A4323892F8803FB7F
:100730001723E28803FB0212A18879432388AF883C
:1007400003FB1713618903FB0120FFF7A7FEC6E92E
:1007500004016A886989511AE38862899A1A5143A7
:10076000EB886A899B1A67886289BA1A03FB1210A0
:10077000FFF794FEC6E9060121882289891AEB88D1
:100780006A899A1A51436B886A899A1AA3882789B9
:10079000DB1B02FB1310FFF781FEC6E9080121896C
:1007A000EA885143A3886A8903FB12116288514386
:1007B00022886B895A4323896F8803FB1723E288B9
:1007C00003FB0213A18879432788EA8807FB1212EA
:1007D000618902FB0130FFF761FEC6E90A01484664
:1007E000BDE8F087704701B5002008E00C2100BF8C
:1007F0000A00A1F10103D9B2FAD1411C88B20099D3
:100800008842F3D308BD000001B50849009808608C
:100810004FF0E020006940F001004FF0E021086156
:1008200000BF024800680028FBD108BD1800002066
:1008300038B504460D461F20012314222946009096
:10084000204600F081FA1F20A5F10A0291B204F1BE
:100850000A02009090B21423012200F075FA38BD0C
:1008600010B54FF4007000F011F828B101200349D1
:100870000870400200F004F810BD000014000020D1
:10088000014908607047000014040140014600203F
:100890000022074B1B6803EA0102054B14331B6857
:1008A0000B4013B10AB1012000E0002070470000A6
:1008B00000040140002123498279002A3AD00A46E7
:1008C000126803689A430B461A600A1D126803688F
:1008D0009A430B1D1A60027911440A6803681A438F
:1008E0000A60184A0832126803689A43154B0833A5
:1008F0001A601A1D126803689A43124B0C331A606F
:100900004279102A0ED11A1F126803681A430D4B40
:1009100008331A601A1D126803681A43094B0C3316
:100920001A600DE00749427911440A6803681A43C6
:100930000A6005E0027911440A6803689A430A6074
:10094000704700000004014051B18200A2F1C04292
:10095000126842F001038200A2F1C042136009E074
:100960008200A2F1C0421268034B1A408300A3F137
:10097000C0431A6070470000FEFF0F00D0E901126B
:100980001143C268114302691143426911438269EC
:100990001143C2691143026A1143426A1143826AD8
:1009A0001143C26A1143026B114302689200A2F123
:1009B000C0421160816808290BD101688900A1F14A
:1009C000C041096841F0400201688900A1F1C041BD
:1009D0000A60416B0968426B526841EA0211426B3E
:1009E000926841EA0221426B928941EA0241426BDC
:1009F000128A41EA0251426B127D41EA0261426B66
:100A0000926911430268521C9200A2F1C042116027
:100A1000C16AB1F5804F1BD1816B0968826B526846
:100A200041EA0211826B926841EA0221826B128ACA
:100A300041EA0251826B127D41EA0261826B926946
:100A4000114302689200A2F1C042C2F8041107E00B
:100A50006FF0704201688900A1F1C041C1F8042122
:100A60007047000030B500228B071C0F0F2303FADC
:100A700004F20B4B8C1053F824309343084C8D1028
:100A800044F8253023468C1053F824308C07240F6B
:100A900000FA04F42343024C8D1044F8253030BD95
:100AA000080001402DE9F041024600250026002003
:100AB00000230024002791F803C00CF00F0591F8E3
:100AC00003C00CF0100CBCF1000F03D091F802C071
:100AD0004CEA050591F800C0BCF1000F31D0146854
:100AE00000202BE04FF0010C0CFA00F3B1F800C02D
:100AF0000CEA03069E4220D183004FF00F0C0CFA43
:100B000003F7BC4305FA03FC4CEA040491F803C064
:100B1000BCF1280F06D14FF0010C0CFA00FCC2F812
:100B200014C00AE091F803C0BCF1480F05D14FF0A2
:100B3000010C0CFA00FCC2F810C0401C0828D1D3EC
:100B40001460B1F800C0BCF1FF0F34DD5468002020
:100B50002EE000F1080C4FF0010808FA0CF3B1F890
:100B600000C00CEA03069E4221D183004FF00F0C17
:100B70000CFA03F7BC4305FA03FC4CEA040491F8B1
:100B800003C0BCF1280F05D100F1080C08FA0CF8DD
:100B9000C2F8148091F803C0BCF1480F07D100F1EE
:100BA000080C4FF0010808FA0CF8C2F81080401C3D
:100BB0000828CED35460BDE8F08102460020936837
:100BC0000B400BB1012000E00020704741617047ED
:100BD00008B501214FF4C07000F09CFD8020ADF8F5
:100BE000000001208DF8020010208DF803006946F6
:100BF0001648FFF757FF4FF40060ADF80000694654
:100C00001348FFF74FFF4020ADF8000001208DF89A
:100C1000020048208DF8030069460D48FFF742FFA7
:100C20004FF48060ADF8000001208DF80200102024
:100C30008DF8030069460648FFF734FF4FF48061E2
:100C40000348FFF7C3FF00F0DBFE08BD00200140B2
:100C5000001C0140016170472DE9F04F87B08146CB
:100C60000C4692464FF0010B14B94FF0000B58E0C0
:100C700000221346DAE90C512846FFF747FC4ED014
:100C80006088FFF71CFCCDE9000128480CC80098DB
:100C9000FFF723FB074688462088FFF710FCCDE9C5
:100CA000000123480CC80098FFF717FB3A4643465B
:100CB000CDE90201FFF76AFA05461E480CC828462E
:100CC000FFF764FACDE90401FFF706FCA9F800007C
:100CD0006088FFF7F4FB054617480CC82846FFF765
:100CE000FCFACDE902012088FFF7E9FB054613482D
:100CF0000CC82846FFF7F1FACDE90001DDE902232F
:100D0000FFF744FA07460E480CC83846FFF73EFA8C
:100D1000CDE90401FFF7E0FBA9F8020001E04FF084
:100D2000000B584607B0BDE8F08F000028000020F7
:100D3000200000203000002040000020380000206B
:100D40004800002000BFFEE7F0B5059D00242A26DC
:100D50004FF0D8473E8006124FF0DA473E80C6B2C9
:100D60003E808618761EC6F30F263E808618761EB5
:100D7000F6B23E802B264FF0D8473E800E124FF041
:100D8000DA473E80CEB23E80CE18761EC6F30F26DE
:100D90003E80CE18761EF6B23E802C264FF0D84705
:100DA0003E8000BF03E04FF0DA463580641C02FB52
:100DB00003F6A642F7D8F0BD2DE9F047064688466F
:100DC000144699460027002525463DB94B4630225A
:100DD0004146304600F024F8BDE8F08703E00A20E1
:100DE000B5FBF0F57F1C002DF9D115E00A20B4FB0E
:100DF000F0F100FB114000F1300A39467F1E062257
:100E000002FB0161891F88B24B465246414600F001
:100E100007F80A20B4FBF0F4002CE7D100BFDBE7B1
:100E20002DE9F04F81468A4615461E46A5F1200061
:100E30001FFA80FB0C2306225146484600F0E2F8D8
:100E40002C204FF0D841088000241CE00BEB4B0015
:100E50000F4901EB800010F8048000270FE008F034
:100E6000010018B14FF0DA40068004E04FF6FF7041
:100E70004FF0DA4108804FEA6808781C87B2062FE5
:100E8000EDDB601C84B20C2CE0DBBDE8F08F0000D1
:100E9000F01F0008F0B505460E4614461F4613E045
:100EA000B5F59D7F03DD002506F10C0086B2E42E2A
:100EB00001DD0025002622783B4631462846FFF713
:100EC000AFFFA81D85B2641C20780028E8D1F0BDD2
:100ED00000B597B0022001900020029005200390F9
:100EE00000200490059006904FF080500790062057
:100EF00008900020099008200A9010200B900020F4
:100F00000C900E900F9010904FF480501190002094
:100F100012901390149001A81590169008A8FFF74E
:100F20002DFD01210620FFF70FFD17B000BD0000C9
:100F300008B50121080200F0DDFB01214FF4F47037
:100F400000F0E8FB10208DF8030003208DF802006C
:100F50000220ADF8000069462148FFF7A3FD4FF4D9
:100F60000060ADF8000069461E48FFF79BFD0320B6
:100F70008DF8020018208DF803004CF20370ADF8D4
:100F8000000069461848FFF78DFD4FF68070ADF8F8
:100F9000000069461548FFF785FD1020ADF80000F8
:100FA00069461148FFF77EFD2020ADF80000694634
:100FB0000D48FFF777FD4FF48050ADF8000069460B
:100FC0000848FFF76FFD0420ADF8000069460748A8
:100FD000FFF768FD02210248FFF7F8FD08BD000099
:100FE000000C0140002001400014014000180140A5
:100FF00010B5FFF79DFFFFF76BFF00F035F900F02C
:1010000029F810BD30B52A244FF0D8452C800412A1
:101010004FF0DA452C80C4B22C808418641EC4F3CF
:101020000F242C808418641EE4B22C802B244FF0F3
:10103000D8452C800C124FF0DA452C80CCB22C8095
:10104000CC18641EC4F30F242C80CC18641EE4B2A8
:101050002C8030BD00B5CF204FF0D8410880002053
:101060004FF0DA4108808120088030200880ED2090
:101070004FF0D841088064204FF0DA410880032007
:1010800008801220088081200880E8204FF0D84195
:10109000088085204FF0DA410880102008807820F1
:1010A0000880CB204FF0D841088039204FF0DA413A
:1010B00008802C200880002008803420088002202E
:1010C0000880F7204FF0D841088020204FF0DA4107
:1010D0000880EA204FF0D841088000204FF0DA4124
:1010E00008800880B1204FF0D841088000204FF0E0
:1010F000DA4108801B200880B620410608800A20BB
:101100004FF0DA410880A2200880C0204FF0D8417B
:10111000088035204FF0DA410880C1204FF0D841D7
:10112000088011204FF0DA410880C5204FF0D841E7
:10113000088045204FF0DA4108800880C7204FF032
:10114000D8410880A2204FF0DA410880F2204FF009
:10115000D841088000204FF0DA41088026204FF067
:10116000D841088001204FF0DA410880E0204FF09C
:10117000D84108800F204FF0DA41088026200880EF
:10118000242008800B2008800E2008800920088079
:1011900054200880A8200880462008800C20088061
:1011A00017200880092008800F2008800720088069
:1011B00000200880E1204FF0D841088000204FF047
:1011C000DA410880192008801B200880042008804C
:1011D00010200880072008802A20088047200880E7
:1011E00039200880032008800620088008803020ED
:1011F0000880382008800F200880362041060880AB
:10120000C8204FF0DA4108802A204FF0D8410880EA
:1012100000204FF0DA41088008800880EF20088025
:101220002B204FF0D841088000204FF0DA41088091
:101230000880012008803F2008803A204FF0D841E4
:10124000088055204FF0DA41088011204FF0D84136
:101250000880044800F04BF829204FF0D84108805E
:1012600000BD0000FCBF020010B54FF4006107484C
:10127000FFF7ACFC064800F03AF84FF40061034871
:10128000FFF7E8FC024800F032F810BD00200140F2
:10129000FCBF02002A224FF0D8431A8002124FF0FE
:1012A000DA431A80C2B21A8002121A80C2B21A80BD
:1012B0002B224FF0D8431A800A124FF0DA431A80DB
:1012C000CAB21A800A121A80CAB21A80704770B560
:1012D00005460E46144631462846FFF7DBFF2C2014
:1012E0004FF0D84108804FF0DA40048070BD01B55E
:1012F00002E00098401E009000980028F9D108BD37
:10130000012806D0022825D0032844D0042820D163
:1013100062E036214A061180C8214FF0DA4211807E
:101320002A214FF0D842118000214FF0DA4211807B
:1013300011801180EF2111802B214FF0D8421180B4
:1013400000214FF0DA4211801180012111803F21EC
:10135000118062E036214A06118068214FF0DA429E
:1013600011802A214FF0D842118000214FF0DA423B
:1013700011801180012111803F2111802B214FF01C
:10138000D842118000214FF0DA4211801180118083
:10139000EF21118041E036214A06118028214FF0CB
:1013A000DA4211802A214FF0D842118000214FF0FB
:1013B000DA4211801180012111803F2111802B21FF
:1013C0004FF0D842118000214FF0DA421180118095
:1013D0001180EF21118020E036214A06118048213A
:1013E0004FF0DA4211802A214FF0D84211800021BB
:1013F0004FF0DA42118011801180EF2111802B21F2
:101400004FF0D842118000214FF0DA421180118054
:10141000012111803F21118000BF00BF2C214FF01E
:10142000D8421180704700BFFEE7704770B50021B9
:1014300000230F22C47804B3154C246804F4E0643C
:10144000C4F5E064210AC1F10403CA40447804FAF7
:1014500003F184781440214309010E4C0678A1550C
:10146000047804F01F050124AC4005786D11AD002F
:1014700005F1E025C5F8004109E0047804F01F05F6
:101480000124AC40044D0678761145F8264070BD25
:101490000CED00E000E400E080E100E002490143DF
:1014A000024A1160704700000000FA050CED00E0F0
:1014B00008B54FF6FF70F0234FF4A07200210090A2
:1014C0000846FFF741FC4FF6FF701E230122002162
:1014D00000902720FFF738FC4FF6FF7001232822E9
:1014E0001D2100900020FFF72FFC1F232EA20A21B0
:1014F0000520FFF7CFFC4FF4FC601E23282219467D
:1015000000900020FFF720FC1F201E2328223C21F2
:1015100000900020FFF718FC4FF61F001E23282222
:101520005A2100900020FFF70FFC4FF6E0701E23B9
:101530002822782100900020FFF706FC40F2FF707F
:101540001E232822962100900020FFF7FDFB00209B
:101550001E232822B4210090FFF7F6FB4FF47840B9
:101560001E232822D22100900020FFF7EDFB1F232D
:101570000FA25A213C20FFF78DFC1F2311A26E21E0
:101580003C20FFF787FC1F2318A282213C20FFF795
:1015900081FC1F2320A296213C20FFF77BFC2448DE
:1015A000FFF732F908BD0000434C454152000000EE
:1015B00057656C636F6D6520746F207061696E7420
:1015C0002E00000046656C6C206672656520746FA5
:1015D000206472617720776861746576657220791E
:1015E0006F752077616E742E0000000053696D7076
:1015F0006C656C7920636C69636B206F6E20706121
:101600006C6574746520746F2073656C65637420F9
:10161000636F6C6F727300004C6F76656C79206D30
:10162000616465206279204C5846592E0000000004
:1016300020A10700F8B506460D462C46282E31DAC3
:101640001E2D24DD3C2C02DA4FF4FC601CE05A2CE9
:1016500001DA1F2018E0782C02DA4FF61F0013E0A1
:10166000962C02DA4FF6E0700EE0B42C02DA40F26B
:10167000FF7009E0D22C01DA002005E0F02C02DA3C
:101680004FF4784000E01F20184908802CE04FF606
:10169000FF70F0234FF48C72002100902820FFF798
:1016A00053FBF8BD1148028829463046FFF70FFE6C
:1016B000711E88B20D490A882946FFF708FE681E88
:1016C00081B20A4802883046FFF701FE711C88B2D9
:1016D00006490A882946FFF7FAFD681C81B20348CB
:1016E00002883046FFF7F3FD00BFDAE76C00002008
:1016F0007047000029B1064A52690243044B5A61FF
:1017000004E0034A52698243014B5A61704700006A
:101710000010024029B1064A92690243044B9A61C3
:1017200004E0034A92698243014B9A6170470000CA
:10173000001002402DE9F04796B000255021684680
:10174000FEF719FD0024032600BF14A915A800F018
:1017500081FB15984DF825000AA8149940F825102A
:10176000681CC5B24FF400712E48FFF726FA08B97D
:10177000B542EADB4FF400712A48FFF71EFA10B1B8
:10178000002029490870B54249D1009FB846DDF8CC
:101790002890CA4601240DE05DF82400B84202DA20
:1017A0005DF8247005E05DF82400404501DD5DF83A
:1017B0002480641CB442EFDB012411E00AA850F835
:1017C0002400484503DA0AA850F8249007E00AA844
:1017D00050F82400504502DD0AA850F824A0641CEB
:1017E000B442EBDBDDE90001084402990844C01B68
:1017F000A0EB0800C0F3CF000C490880DDE90A1017
:1018000001440C980844A0EB0900A0EB0A00C0F3C7
:10181000CF0006494880084616B0BDE8F087002092
:10182000FAE70000001C01401400002068000020BE
:10183000704710B500F002F810BD00000CB5002094
:10184000019000903348006840F4803031490860CE
:1018500000BF3048006800F4003000900198401C40
:101860000190009818B90198B0F5A06FF1D12948FE
:10187000006800F4003010B10120009001E0002069
:1018800000900098012843D12348006840F01000E0
:10189000214908600846006820F0030008600846F7
:1018A000006840F0020008601A4840681949486022
:1018B0000846406848600846406840F480604860D8
:1018C0000846406820F47C1048600846406840F4B0
:1018D000E81048600846006840F08070086000BF6B
:1018E0000C48006800F000700028F9D009484068F2
:1018F00020F00300074948600846406840F00200B5
:10190000486000BF0348406800F00C000828F9D187
:101910000CBD0000001002400020024010B500F095
:10192000ABF810BD30B51A4800681A4AB0FBF2F1A6
:10193000B1F1807F01D301201DE021F07F40401EE6
:101940004FF0E022506150170F22002807DA1307EA
:101950001D0E114B00F00F04241F1D5503E013074B
:101960001C0E0E4B1C5400BF00204FF0E022906173
:1019700007201061002008B100BFFEE74FF0E02013
:10198000006920F001004FF0E021086130BD000047
:101990000000002040420F0018ED00E000E400E0ED
:1019A00010B51348006840F001001149086008466E
:1019B0004068104908400E494860084600680E49D2
:1019C00008400B4908600846006820F48020086041
:1019D0000846406820F4FE0048604FF41F0088600D
:1019E000FFF727FF4FF000600449086010BD0000BA
:1019F000001002400000FFF8FFFFF6FE08ED00E0D7
:101A00000EB501218120FFF785FE00F021F84FF48B
:101A10000070ADF8080028208DF80B0002A90B48D3
:101A2000FFF740F809210520FFF71CF84FF400707C
:101A3000009000208DF804000C208DF80500012096
:101A40008DF806006846FEF735FF0EBD001C01400C
:101A500008B54FF4C060FFF721FD17208DF8000096
:101A600001208DF801008DF802008DF80300684612
:101A7000FFF7DCFC08BD00000448006820B1034803
:101A80000068401E014908607047000018000020EF
:101A90002DE9F04F8DB00026B14600200B900A9042
:101AA000002437E04FF6FF70F0234FF4A0720021BE
:101AB00000900846FFF748F91F23B1A26E215A2073
:101AC000FFF7E8F91F23B5A282215A20FFF7E2F9B8
:101AD0001F23621C5A21A020FFF76EF9B648FEF7BB
:101AE00093FEB64A02EB84025188B44A32F82400CD
:101AF000FEF79EFE00BFFFF71DFE0546002DFAD043
:101B00002888AF4921F82400688801EB84014880C7
:101B1000601CC4B2042CC5DBAA4AA949A748FEF739
:101B2000AFFDA749C889FEF7CAFC82468B46A54986
:101B3000D1E902733A465946FEF7CFFBCDE90201DF
:101B40009F498889FEF7BBFC82469E48D0E9007316
:101B50003A465046FEF7C1FBCDE90001DDE902231C
:101B6000FEF714FBCDE904019649D1E904733A4626
:101B70000599FEF70BFBCDE906019249D1E90C73FB
:101B80003A460799FEF71BFCCDE90801FEF7A4FCD5
:101B900086B28B49C889FEF792FC82468B468949FA
:101BA000D1E908733A465946FEF797FBCDE90201A1
:101BB00083498889FEF783FC82468B468149D1E9B7
:101BC00006733A465946FEF788FBCDE90001DDE988
:101BD0000223FEF7DBFACDE904017A49D1E90A7361
:101BE0003A460599FEF7D2FACDE906017548D0E9E3
:101BF0000C733A460698FEF7E2FBCDE90801FEF7C2
:101C00006BFC1FFA80F96D488089B04203DA6B489B
:101C10008089301A02E069488089801B80B20B906D
:101C20006648C089484504DA6448C089A9EB0000C9
:101C300003E06248C089A0EB090080B20A904FF629
:101C4000FF70F0234FF4A072002100900846FFF7C8
:101C50007BF80B980A2802DC0A980A2812DD1F2359
:101C600059A26E215A20FFF715F91F235BA282218A
:101C70005A20FFF70FF96148FEF7C6FD01200DB0AD
:101C8000BDE8F08F4F49D1E9007100225C4B384626
:101C9000FEF723FB82468B464A49D1E90C733A464C
:101CA0005946FEF78CFB574A03C24649D1E90271F7
:101CB0000022534B3846FEF710FB82464148D0E9DC
:101CC0000C733A465046FEF77AFB4F4A03C23D4931
:101CD000D1E9047100224A4B3846FEF7FEFA8246EB
:101CE0003848D0E90C733A465046FEF768FB474A3D
:101CF00003C23449D1E906710022414B3846FEF750
:101D0000ECFA82462F48D0E90C733A465046FEF76B
:101D100056FB3F4A03C22B480022394BD0E90871D9
:101D20003846FEF7DAFA82462648D0E90C733A467E
:101D30005046FEF744FB374A03C222480022304B8C
:101D4000D0E90A713846FEF7C8FA82461D48D0E944
:101D50000C733A465046FEF732FB2F4A03C21F234C
:101D60002EA26E215A20FFF795F81F2332A282215E
:101D70005A20FFF78FF83648FEF746FD00207EE731
:101D8000546F7563682073637265656E2063616C60
:101D90006962726174696E672E000000436C69634A
:101DA0006B207468652063726F7373206163637561
:101DB000726174656C792E0020A10700500000202C
:101DC000700000208000002043616C6962726174C1
:101DD00065206661696C656400000000596F7520BC
:101DE0006E65656420746F2063616C6962726174F2
:101DF0006520697420616761696E2E0000093D00ED
:101E00000000F03F200000202800002030000020CB
:101E100038000020400000204800002043616C6929
:101E20006272617465205375636365642C457863E1
:101E300069746564210000004C6F6164696E6720FD
:101E4000746865207061696E742E2E2E000000008B
:101E500040420F002DE9F04104460D46902000F06D
:101E600012F806460120FEF7BEFCD02000F00BF869
:101E7000074626602F60BDE8F08110B5FEF7A8FE8A
:101E800010BD00BFFEE710B50446204600F034F850
:101E900000F002F810BD000070B500244FF400619E
:101EA0001348FEF793FE80211248FEF7D3FE00256B
:101EB00018E080210F48FEF789FE40210C48FEF70C
:101EC0007CFE08B1012000E000200646C5F10B00B1
:101ED00006FA00F0204384B280210648FEF7BAFEDD
:101EE000681CC5B20C2DE4DBC4F30B04204670BDA6
:101EF000001C01400020014070B506464FF400610F
:101F00001648FEF763FE80211548FEF75FFE0024A9
:101F100021E0C4F1070046FA00F000F001052DB100
:101F20004FF400610D48FEF795FE04E04FF40061A8
:101F30000A48FEF74BFE0520FEF755FC80210848B5
:101F4000FEF788FE0520FEF74EFC80210448FEF7D0
:101F50003DFE601CC4B2082CDBDB70BD001C0140E0
:101F60000020014002E008C8121F08C1002AFAD16F
:101F700070477047002001E001C1121F002AFBD109
:101F80007047000008B5FFF7CDFCFFF731F80220DD
:101F9000FFF7B6F94FF6FF70F0234FF4A07200215F
:101FA00000900846FEF7D0FEFFF767FF00BFFFF77F
:101FB0006FFD0028FBD1FFF77BFA11E0094800789C
:101FC00001280DD1FFF7B6FB0446074A2146074812
:101FD000FEF742FE20B1054A51881088FFF72AFB20
:101FE000ECE70000140000208000002060000020CA
:101FF00000000000000000000000000000000404D9
:10200000040404040004000000140A0A0000000094
:1020100000000000000014143F140A3F0A0A0000E8
:1020200000041E1505060C14150F040000001215FF
:102030000D0A142C2A1200000000040A0A1E1515AD
:10204000093600000002020100000000000000004C
:1020500000201008080808080810200000020408E2
:10206000080808080804020000000004150E0E15F8
:102070000400000000000404041F04040400000025
:10208000000000000000000000020201000000004B
:10209000001F000000000000000000000000000021
:1020A00000020000001008080804040202020100F7
:1020B00000000E1111111111110E00000000040694
:1020C00004040404040E000000000E1111080402B0
:1020D000011F000000000E11100C1010110E000066
:1020E0000000080C0A0A091E0818000000001F0161
:1020F000010F1010110E000000000E09010F111148
:10210000110E000000001F0908040404040400006C
:1021100000000E11110E1111110E000000000E1121
:1021200011111E10120E000000000000040000003B
:10213000000400000000000000040000000404008F
:102140000020100804020408102000000000000015
:102150001F00001F000000000002040810201008EB
:102160000402000000000E11110804040004000025
:1021700000000E111915151D011E000000000404B9
:102180000C0A0A1E1233000000000F12120E121267
:10219000120F000000001E1101010101110E0000CC
:1021A00000000F1212121212120F000000001F1274
:1021B0000A0E0A02121F000000001F120A0E0A0275
:1021C0000207000000001C1201013911120C00006E
:1021D00000003312121E12121233000000001F04FE
:1021E00004040404041F000000003E080808080856
:1021F00008090700000037120A060A0A1237000011
:102200000000070202020202223F000000001B1B26
:102210001B1B15151515000000003B1216161A1A87
:102220001217000000000E1111111111110E000003
:1022300000000F12120E02020207000000000E1131
:1022400011111117190E180000000F12120E0A12A8
:102250001237000000001E1101060810110F0000C7
:1022600000001F1504040404040E000000003312D3
:1022700012121212120C000000003312120A0A0C81
:102280000404000000001515150E0A0A0A0A0000D1
:1022900000001B0A0A04040A0A1B000000001B0AB3
:1022A0000A040404040E000000001F0908040402CC
:1022B000121F0000001C04040404040404041C0095
:1022C000000202020404080808100000000E0808BA
:1022D0000808080808080E0000040A0000000000B2
:1022E0000000000000000000000000000000003FAF
:1022F00000040000000000000000000000000000DA
:10230000000C121C123C000000000302020E12120C
:10231000120E000000000000001C1202021C00004F
:1023200000001810101C1212123C000000000000E7
:10233000000C121E021C000000003804041E0404DD
:10234000041E000000000000003C120C021E221CB3
:1023500000000302020E12121237000000000400F7
:1023600000060404040E000000000800000C080829
:102370000808080700000302023A0A0E123700009C
:102380000000070404040404041F0000000000000F
:10239000000F15151515000000000000000F1212A7
:1023A0001237000000000000000C1212120C000096
:1023B00000000000000F1212120E020700000000C1
:1023C000001C1212121C103800000000001B060234
:1023D0000207000000000000001E020C101E00009A
:1023E00000000004040E04040418000000000000B3
:1023F000001B1212123C0000000000000037120AFD
:102400000C040000000000000015150E0A0A000070
:1024100000000000001B0A040A1B0000000000006E
:102420000037120A0C04040300000000001E080418
:10243000041E00000018080808040808080818000E
:10244000080808080808080808080808000604041E
:10245000040804040404060002251800000000001B
:10246000000000008424000800000020700000002C
:10247000641F0008F42400087000002048040000D5
:10248000741F000800A24A040000000000000000C1
:102490000102030406070809000000000000000014
:1024A000000000000000000000000000000000002C
:1024B000000000000000000000000000000000001C
:1024C000000000000000000000000000000000000C
:1024D000000000002D0023000A00C8002201C800EF
:1024E000C800230000000000000000000000000001
:0424F00000000000E8
:0400000508000131BD
:00000001FF
