:020000040800F2
:100000007009002045010008193D00081B3D00084B
:100010001F3D0008233D0008273D000800000000A8
:100020000000000000000000000000002B3D000860
:100030002D3D0008000000002F3D0008313D000864
:100040005F0100085F0100085F0100085F01000810
:100050005F0100085F0100085F0100085F01000800
:100060005F0100085F0100085F0100085F010008F0
:100070005F0100085F0100085F0100085F010008E0
:100080005F0100085F0100085F010008433D0008B0
:100090003B3D00085F0100085F0100085F010008A8
:1000A0005F0100085F0100085F0100085F010008B0
:1000B0005F0100085F0100085F0100085F010008A0
:1000C0005F0100085F0100085F0100085F01000890
:1000D0005F0100085F0100085F0100085F01000880
:1000E0005F0100085F0100085F0100085F01000870
:1000F0005F0100085F0100085F0100085F01000860
:100100005F010008333D00085F0100085F0100083F
:100110005F0100085F0100085F0100085F0100083F
:100120005F0100085F0100085F0100085F0100082F
:10013000DFF80CD005F0D0F9004800475F3C00081C
:10014000700900200648804706480047FEE7FEE7A2
:10015000FEE7FEE7FEE7FEE7FEE7FEE7FEE7FEE777
:1001600047020008310100080CB500200190009002
:100170006C48006840F480306A49086000BF6948F4
:10018000006800F4003000900198401C0190009835
:1001900018B90198B0F5A06FF1D16248006800F479
:1001A000003010B10120009001E000200090009884
:1001B000012843D15C48006840F010005A490860AB
:1001C0000846006820F0030008600846006840F018
:1001D0000200086053484068524948600846406839
:1001E00048600846406840F48060486008464068BF
:1001F00020F47C1048600846406840F4E8104860ED
:100200000846006840F08070086000BF45480068FC
:1002100000F000700028F9D04248406820F0030048
:10022000404948600846406840F00200486000BF0E
:100230003C48406800F00C000828F9D10CBD10B50E
:10024000FFF792FF10BD10B53648006840F001007E
:1002500034490860084640683449084031494860DC
:1002600008460068324908402E4908600846006880
:1002700020F4802008600846406820F4FE004860B2
:100280004FF41F008860FFF7DAFF4FF00060294944
:10029000086010BD10B5002100200022214B5B68D2
:1002A00003F00C0121B1042906D0082928D107E068
:1002B000214B224C236027E01F4B204C236023E07E
:1002C000184B5B6803F47010164B5B6803F48032C4
:1002D000022303EB904022B9194B4343174C236090
:1002E0000DE0104B5B6803F4003323B1144B434320
:1002F000124C236003E0104B4343104C236003E097
:100300000D4B0E4C236000BF00BF064B5B68C3F370
:1003100003130C4CE15C094B1B68CB40074C23607A
:1003200010BD000000100240002002400000FFF855
:10033000FFFFF6FE08ED00E000127A00000000204A
:1003400000093D000400002031490143314A116099
:10035000704770B5002100230F22C47804B32D4CE0
:10036000246804F4E064C4F5E064210AC1F10403E4
:10037000CA40447804FA03F1847814402143090107
:10038000254C0678A155047804F01F050124AC40E3
:1003900005786D11AD0005F1E025C5F8004109E0D3
:1003A000047804F01F050124AC401C4D067876113A
:1003B00045F8264070BD1A4A0A400243154B1B1FE0
:1003C0001A60704739B1134A121D12680243114B6B
:1003D0001B1D1A6006E00F4A121D126882430D4B66
:1003E0001B1D1A607047042808D14FF0E0210969ED
:1003F00041F004014FF0E022116107E04FF0E021ED
:10040000096921F004014FF0E022116170470000FA
:100410000000FA050CED00E000E400E080E100E0FF
:1004200080FFFF1F01684FF6FE721140016000213E
:10043000016041608160C1608D49884208D18C496A
:100440000839496841F00F01894A083A51608AE049
:1004500087491431884208D185490839496841F0F3
:10046000F001834A083A51607DE081492831884291
:1004700008D17F490839496841F470617C4A083ADB
:10048000516070E07A493C31884208D17849083996
:10049000496841F47041764A083A516063E0744912
:1004A0005031884208D172490839496841F47021B5
:1004B0006F4A083A516056E06D496431884208D16C
:1004C0006B490839496841F47001694A083A51603A
:1004D00049E067497831884208D165490839496857
:1004E00041F07061624A083A51603CE061498842DB
:1004F00006D1011F096841F00F01021F116032E0AF
:100500005C491431884208D15A49091F096841F0F1
:10051000F001584A121F116025E0564928318842DF
:1005200008D15449091F096841F47061514A121FEA
:10053000116018E04F493C31884208D14D49091FEC
:10054000096841F470414B4A121F11600BE04949A0
:100550005031884207D14749091F096841F4702189
:10056000444A121F1160704710B50022026847F616
:10057000F0739A430C6A8B6823430C6923434C69DC
:1005800023438C692343CC6923434C6A23438C6AFD
:1005900023431A430260CB6843600B6883604B6857
:1005A000C36010BD0021016041608160C1600161D4
:1005B00041618161C161016241628162704721B123
:1005C000026842F00102026004E002684FF6FE7326
:1005D0001A40026070471AB103680B43036002E0DF
:1005E00003688B4303607047416070470146486869
:1005F00080B2704701460020002201F080531BB1F9
:100600001C4B083B1A6802E0194B083B1A6802EAC7
:1006100001030BB1012000E00020704700F0805181
:1006200019B11449091F086002E0114908394860EE
:10063000704701460020002201F080531BB10D4B92
:10064000083B1A6802E00A4B083B1A6802EA0103F9
:100650000BB1012000E00020704700F0805119B17B
:100660000449091F086002E00149083948607047E1
:10067000080002400804024010B50446CC488442F9
:1006800008D10121042000F02DFB0021042000F0FE
:1006900029FB46E0C748844208D10121082000F028
:1006A00021FB0021082000F01DFB3AE0C2488442F3
:1006B00008D10121102000F015FB0021102000F0CE
:1006C00011FB2EE0BD48844208D10121202000F01A
:1006D00009FB0021202000F005FB22E0B8488442FD
:1006E00008D10121402000F0FDFA0021402000F057
:1006F000F9FA16E0B348844208D10121802000F0C5
:10070000F1FA0021802000F0EDFA0AE0AE488442C0
:1007100007D10121801500F0E5FA0021A01500F0B5
:10072000E1FA10BD10B50121084600F0DBFA002106
:10073000012000F0D7FA10BD2DE9F0410246002556
:100740000026002000230024002791F803C00CF0AD
:100750000F0591F803C00CF0100CBCF1000F03D092
:1007600091F802C04CEA050591F800C0BCF1000FF9
:1007700031D0146800202BE04FF0010C0CFA00F38C
:10078000B1F800C00CEA03069E4220D183004FF06E
:100790000F0C0CFA03F7BC4305FA03FC4CEA040403
:1007A00091F803C0BCF1280F06D14FF0010C0CFAF0
:1007B00000FCC2F814C00AE091F803C0BCF1480F75
:1007C00005D14FF0010C0CFA00FCC2F810C0401C1F
:1007D0000828D1D31460B1F800C0BCF1FF0F34DD9C
:1007E000546800202EE000F1080C4FF0010808FAD0
:1007F0000CF3B1F800C00CEA03069E4221D183003D
:100800004FF00F0C0CFA03F7BC4305FA03FC4CEA5B
:10081000040491F803C0BCF1280F05D100F1080CC5
:1008200008FA0CF8C2F8148091F803C0BCF1480F24
:1008300007D100F1080C4FF0010808FA0CF8C2F8D3
:100840001080401C0828CED35460BDE8F0814FF6DC
:10085000FF710180022181700421C170704702463E
:10086000002093680B400BB1012000E0002070478E
:100870000146886880B2704702460020D3680B406A
:100880000BB1012000E0002070470146C86880B22B
:10089000704701617047416170470AB1016100E032
:1008A00041617047C16070474FF480320A438261F2
:1008B0008161826182698269704702460020434BF0
:1008C00018684FF68073184040EA021008433F4B07
:1008D000186070473E49C8617047F0B50A4600236A
:1008E00000240021002500F00046B6F1004F02D19F
:1008F000364EF16901E0354E7168C0F3034583B2AD
:1009000000F44016B6F5401F08D121F070612F4E5B
:10091000766826F070662D4F7E6012E000F4801637
:10092000B6F5801F06D1032606FA05F4A14341F06F
:10093000706106E0460D360103FA06F6B14341F058
:10094000706122B1460D360103FA06F6314300F01C
:100950000046B6F1004F02D11C4EF16101E01B4E82
:100960007160F0BD30B500228B071C0F0F2303FA16
:1009700004F2164B08338C1053F824309343134C75
:1009800008348D1044F8253023468C1053F8243059
:100990008C07240F00FA04F423430C4C08348D1008
:1009A00044F8253030BD0A49DC310860704700004A
:1009B00000080140000C01400010014000140140FB
:1009C00000180140001C01400020014000000140CF
:1009D00000002042DF48006840F00100DD49086067
:1009E00008464068DC490840DA4948600846006823
:1009F000DA490840D74908600846006820F480209A
:100A000008600846406820F4FE0048604FF41F006C
:100A100088607047CF49096821F48031CD4A116060
:100A20001146096821F480211160B0F5803F03D0A0
:100A3000B0F5802F0ED106E0C649096841F4803137
:100A4000C44A116007E0C349096841F4A021C14AC2
:100A5000116000E000BF00BF704710B501460022E2
:100A6000002300204A11012A02D1BA4C236806E073
:100A7000022A02D1B74C236A01E0B64C636A01F046
:100A80001F02012494401C400CB1012000E0002012
:100A900010BD38B5002000900024002500BF312093
:100AA000FFF7DBFF05460098401C00900098B0F56A
:100AB000A06F01D0002DF2D03120FFF7CEFF08B19A
:100AC000012400E00024204638BD01460020A14A50
:100AD000106820F0F80040EAC10010607047A0499B
:100AE00008607047024600209A4B586820F47C103A
:100AF00042EA01031843974B5860704798490866CB
:100B0000704701460020934A506820F003000843D4
:100B1000506070478F48406800F00C0070470146F5
:100B200000208C4A506820F0F00008435060704765
:100B300001460020874A506820F4E0600843506076
:100B4000704701460020834A506820F4605040EA14
:100B5000C1005060704729B17E4A527A02437D4BF2
:100B60005A7204E07B4A527A82437A4B5A72704737
:100B70007B49D8310860704701460020754A5068AB
:100B800020F440400843506070470021714A2032F1
:100B90001170704A82F82010012802D004280AD16E
:100BA00004E001216B4A2032117005E00521694AF9
:100BB0002032117000E000BF00BF70476949086033
:100BC00070476449096A0143624A11627047654986
:100BD00044390860704730B500210022002400230A
:100BE0005C4D6D6805F00C0121B1042905D0082980
:100BF00023D105E05C4D056022E05B4D05601FE000
:100C0000544D6D6805F47012524D6D6805F48034D2
:100C1000022505EB92421CB9544D554305600BE08B
:100C20004C4D6D6805F400351DB1504D55430560C0
:100C300002E04D4D5543056002E04B4D056000BF9D
:100C400000BF444D6D6805F0F0010909484D6B5C2B
:100C50000568DD4045603F4D6D6805F4E061090AB7
:100C6000434D6B5C4568DD4085603A4D6D6805F429
:100C70006051C90A3E4D6B5C4568DD40C560354D2D
:100C80006D6805F44041890B3A4D6B5CC568B5FB56
:100C9000F3F5056130BD29B12E4A526902432D4B4F
:100CA0005A6104E02B4A526982432A4B5A617047C9
:100CB00029B1284A92690243264B9A6104E0254AE9
:100CC00092698243234B9A61704729B1214AD269C4
:100CD0000243204BDA6104E01E4AD26982431D4B75
:100CE000DA61704729B11B4AD2680243194BDA60B6
:100CF00004E0184AD2688243164BDA60704729B183
:100D0000144A12690243134B1A6104E0114A126932
:100D10008243104B1A61704712494039086070478E
:100D20000F49C86470470B49C87170470948406A49
:100D300040F0807007494862704701460020054A2C
:100D400092680A400AB1012000E000207047014982
:100D500088727047001002400000FFF8FFFFF6FEA7
:100D6000000042428004424200127A0000093D0025
:100D7000140000202400002000206F490860486013
:100D80008860C86048628862C8626C4888630020D6
:100D9000C86370470021684A516847F6FF62914373
:100DA000027D83681A4343681A43C3681A43036881
:100DB0001A4303691A4311435F4A51607047002187
:100DC0000175016041608160C160016170475C49EB
:100DD000086070475849096821F00301564A1160BC
:100DE000114609680143116070475348006800F0DC
:100DF0000300704729B1504AD26B02434E4BDA636D
:100E000004E04D4AD26B82434B4BDA6370474D4945
:100E1000086070470021484B02689A601A46D16802
:100E20006FF30A01D0E901231A43C3681A43036927
:100E30001A431143404AD16070470021016041606C
:100E40008160C160016170473B480069C0B2704772
:100E500008B501460020009037481430084400903F
:100E60000098006808BD0021334B02685A6242684E
:100E70009A621A46D16A21F0F701D0E902231A4397
:100E800003691A4343691A4311432B4AD1627047DD
:100E90004FF0FF310160002141608160C16001615C
:100EA000416170472448006B7047234880300068D8
:100EB000704721498031086070471F48806C704737
:100EC00020491431086070471E4918310860704786
:100ED0001C491C31086070471A492031086070476E
:100EE0001949086070471849091D086070470121B9
:100EF0008143154A08321160704713490C3108606C
:100F00007047014600200C4A526B0A400AB101208A
:100F100000E00020704708498863704701460020C0
:100F2000054A526B0A400AB1012000E000207047D8
:100F3000014988637047000000800140FF07C0003E
:100F4000A00030428C053042AC01304210B504465E
:100F5000FB48844209D101218803FFF7C3FE002129
:100F60004FF48040FFF7BEFE32E0F648844209D1DC
:100F700001214804FFF7C3FE00214FF40030FFF7C2
:100F8000BEFE25E0F048844209D101218804FFF724
:100F9000B6FE00214FF48020FFF7B1FE18E0EB48C9
:100FA000844209D10121C804FFF7A9FE00214FF4B2
:100FB0000020FFF7A4FE0BE0E548844208D10121A0
:100FC0000805FFF79CFE00214FF48010FFF797FE05
:100FD00010BD2DE9F04786B005460E460024A24616
:100FE00000BFA1460027B08900B100BF2F462C8A60
:100FF0004CF6FF700440F08804432C82AC894EF616
:10100000F3100440B08831890843718908430443D0
:10101000AC81AC8A4FF6FF400440B0890443AC82F7
:1010200001A8FFF7D8FDC648874202D1DDF810A01D
:1010300001E0DDF80CA0A88900F4004040B10AEB03
:10104000CA0000EB0A1031684900B0FBF1F807E074
:101050000AEBCA0000EB0A1031688900B0FBF1F816
:101060006420B8FBF0F004012009642101FB108921
:10107000A88900F4004040B1322000EBC900B0FB69
:10108000F1F000F00700044308E0322000EB091003
:101090006421B0FBF1F000F00F0004432C8106B096
:1010A000BDE8F0874FF41651016000218180C180B6
:1010B00001810C21418100218181704710B50246D8
:1010C0000020108A4FF2FF0318400B884C882343FE
:1010D0008C882343CC8823431843108210BD002101
:1010E000018041808180C180704721B1828942F4B2
:1010F0000052828104E082894DF6FF731A4082819A
:101100007047F0B50346002400260025002040F675
:101110006A17B94200D100BF1846C1F3421401F06A
:101120001F06012707FA06F5012C01D10C3004E057
:10113000022C01D1103000E014301AB107682F439F
:10114000076002E00768AF430760F0BD1AB1838A09
:101150000B43838202E0838A8B4383827047028A37
:101160004FF6F0731A400282028A0A4302827047E5
:1011700082894FF2FF731A40828182890A438281F9
:10118000704721B1828942F00202828104E08289A3
:101190004FF6FD731A4082817047028A4FF6DF7363
:1011A0001A400282028A0A430282704721B1028AEF
:1011B00042F48042028204E0028A4BF6FF731A4036
:1011C00002827047C1F30802828070470146888816
:1011D000C0F308007047818941F0010181817047A7
:1011E000028BD2B20283028B42EA01220283704751
:1011F000028B02F47F420283028B0A430283704710
:1012000021B1828A42F02002828204E0828A4FF673
:10121000DF731A408282704721B1828A42F0100245
:10122000828204E0828A4FF6EF731A40828270470E
:1012300021B1828A42F00802828204E0828A4FF65B
:10124000F7731A408282704721B1828942F40042CA
:10125000828103E08289C2F30E028281704721B14C
:10126000828A42F40062828204E0828A4FF2FF7333
:101270001A4082827047828A4FF6FB731A4082823C
:10128000828A0A438282704721B1828A42F0020236
:10129000828204E0828A4FF6FD731A408282704790
:1012A00002460020B1F5007F00D100BF13880B403B
:1012B0000BB1012000E00020704701F40072B2F58C
:1012C000007F00D100BFCA430280704770B502465C
:1012D000002400230025002040F66A16B14200D108
:1012E00000BFC1F3421501F01F03012606FA03F304
:1012F000012D02D19689334006E0022D02D1168AD3
:10130000334001E0968A33400C12012606FA04F4B9
:101310001688344013B10CB1012000E0002070BDEC
:1013200010B50022002340F66A14A14200D100BF8C
:101330000A1201249440A3B2DC43048010BD0000D3
:10134000003801400044004000480040004C00408C
:101350000050004010B504462CB90120F649096838
:101360000882002010BDF549096808688047F248E6
:1013700000680A30F6E710B5EF480068C078F04919
:101380004978884213DCEC480068807878B9EA48EC
:101390000068808858B9E8480068C078E64909685C
:1013A0008872E649096848688047002010BD02201D
:1013B000FCE710B504462CB90120DF490968088212
:1013C000002010BDDD49096888688047DA48006858
:1013D0000C30F6E710B5D84B1B68D978D64B1B6894
:1013E0005879D84B1B689A6990470446D2480068E0
:1013F000807AE8B13CB9D0480068007918B9CE4885
:101400000068807808B1022010BD8CB9CB4909680A
:10141000C8688047C84800684079C7490968C872E9
:10142000C5480068C078C449096808730020EBE724
:101430000220E9E710B504462CB90220BE4909682C
:101440000882002010BD0020BF490880BA4800680B
:10145000007800F07F0018BBB7490968487A00F0AF
:10146000200131B1B849097841F00201B64A117042
:1014700005E0B549097801F0FD01B34A117000F0AB
:10148000400131B1B049097841F00101AE4A117013
:1014900005E0AD49097801F0FE01AB4A11703AE070
:1014A000A5480068007800F07F00012801D1A64817
:1014B000C8E7A1480068007800F07F00022828D122
:1014C0009D4A1268517901F00F0001F080027AB153
:1014D0009E4B03EB8002D2F8002C02F03002102A5F
:1014E00016D1994A127842F00102974B1A700FE018
:1014F000964B03EB8002D2F8002C02F44052B2F576
:10150000805F05D1904A127842F001028E4B1A702A
:1015100001E0002096E789490968086980478A4800
:1015200090E72DE9F04784480068007800F07F08D4
:10153000B8F1000F0AD180480068407A00F0DF005F
:101540007D49096848720020BDE8F087B8F1020FB4
:101550007ED179480068408818B9774800680079DA
:1015600008B10220F0E7DFF8D891734800684779A6
:1015700027F080052C4670480068407900F0800014
:1015800038B1724901EB8400D0F8000C00F030064D
:1015900006E06E4901EB8400D0F8000C00F44056E0
:1015A00099F80000A84204D91EB163480068807A07
:1015B00008B90220C8E707F0800080B1634901EB59
:1015C0008400D0F8000C00F0300010284BD1E0B2BD
:1015D00001F01DF8E0B2302100F09FFE43E05B49CE
:1015E00001EB8400D0F8000C00F44050B0F5805FAF
:1015F00039D1E4B9564A92F82C10E0B201F091F8D2
:10160000524A02EB8401D1F8001C4BF68F7201EABA
:10161000020080F4805080F4005040F4004141F01A
:1016200080014A4B03EB8402C2F8001C1BE0E0B2CD
:1016300000F0D5FF454A02EB8401D1F8001C4BF6BF
:101640008F7201EA020080F4805080F4005000E0C4
:101650000FE040F4004141F080013C4B03EB840279
:10166000C2F8001C00BF354909684869804700205E
:101670006AE700BF022067E72DE9F0412E480068C5
:10168000467926F080073C462B480068407900F0F8
:10169000800038B12D4901EB8400D0F8000C00F037
:1016A000300506E0294901EB8400D0F8000C00F475
:1016B000405523480078A04208D91F480068408858
:1016C00020B91DB11C480068807A10B90220BDE81D
:1016D000F08106F08000A0B11C4A02EB8401D1F831
:1016E000001C48F6BF7201EA020080F0100040F4CE
:1016F000004141F08001154B03EB8402C2F8001C4D
:1017000014E0124A02EB8401D1F8001C4BF68F72F0
:1017100001EA020080F4805040F4004141F0800171
:101720000A4B03EB8402C2F8001C00BF034909689E
:10173000886980470020CAE7300000203C00002074
:101740006C010020340000202800002000500040E0
:101750007001002010B5F7480068407A40F0200082
:10176000F44909684872F4490968C869804700204B
:1017700010BD10B50246EF480068438A32B9888828
:10178000C01AEC4C24682082002010BD0868184460
:10179000FBE72DE9F041E748006800F110042688D6
:1017A000A068C0B1BEB1A588B54200D93546A8B27F
:1017B000A168884707462088401B2080608828440D
:1017C0006080002000F07FFF8046AAB24146384684
:1017D00000F03EFD00BF208850B14FF44050D74983
:1017E00008800021084600F07AFF3020D4490880A4
:1017F0002088A188884204DB0320CE49096808724A
:1018000018E02088002804DD0520CA49096808720C
:1018100010E0208870B90620C649096808720021C6
:10182000C848006880B2801CC74A42F810103020B7
:10183000C3490880BDE8F0812DE9F047BD48006844
:1018400000F110052E88BB480068077AD6B9042F2E
:1018500018D1BE48007801280FD10021B94800688E
:1018600080B2801CB84A42F810103020B449088079
:1018700000BF0020B549087003E007271020B049D9
:10188000088027E0AC88A64201D8042000E00220AE
:101890000746B44200D93446A0B2A96888478046BA
:1018A000002000F005FF8146A2B24946404600F004
:1018B000B5FCA1B2002000F012FF2888001B288090
:1018C00068882044688030209D49088000029B4938
:1018D000088000BF974909680F72BDE8F08770B5AE
:1018E000022694480068447892480068007800F026
:1018F0007F00002844D1092C03D1FFF73CFD0646A8
:101900005FE0052C14D18B480068C0787F280BDC81
:1019100088480068807838B986480068808818B997
:1019200084480068807A08B1082565E0002648E010
:10193000032C0ED17F480068C078012807D17D486C
:101940000068808818B9FFF705FF064639E00226CF
:1019500037E0012C35D177480068C07801280DD1D7
:1019600074480068808848B972480068407A00F07E
:10197000200018B1FFF7D5FD064622E0022620E040
:101980006C480068007800F07F00012805D10B2C1E
:1019900017D1FFF71FFD064613E066480068007880
:1019A00000F07F0002280BD1012C03D1FFF7B9FD15
:1019B000064606E0032C04D1FFF75EFE064600E073
:1019C00002264EB1E0B2624A126851698847064663
:1019D000032E01D109250FE00EB108250CE00625E4
:1019E00000215848006880B2801C574A42F8101005
:1019F00030205349088000BF4E4909680D7270BD00
:101A00002DE9F84F4B48006845780027BA46062D67
:101A10001BD148480068007800F07F00002813D1EF
:101A2000444909688878012803D149490968CF6980
:101A30000AE0022803D1464909680F6A04E0032836
:101A400002D1434909684F6AADE0002D67D139489A
:101A500000684088002862D136480068C0880228A3
:101A60005DD1344800680079002858D131480068B9
:101A7000007800F07F0030B92E480068808810B9E7
:101A8000AFF24F678FE02B480068007800F07F00CE
:101A9000012811D12749096848792D4909688A69BF
:101AA0000021904700287ED122480068807A0028D3
:101AB00079D0AFF27F6776E01E480068007800F0CA
:101AC0007F0002286FD11B480068407900F00F06A4
:101AD00018480068407900F070091648006840799D
:101AE00000F0800038B11B4901EB8600D0F8000CF3
:101AF00000F0300806E0174901EB8600D0F8000C32
:101B000000F4405814480078B0424CD9B9F1000FA5
:101B100049D1B8F1000F46D0AFF2E76743E0082D96
:101B20001CD104480068007800F07F00D8BBAFF2F9
:101B3000DB7738E0300000203C000020400000202F
:101B400042000020505C0040006000402A0000205D
:101B500034000020005000406C0100200A2D22D1EA
:101B6000C5480068007800F07F0001281BD1C248FA
:101B70000068807AB8B1C0480068408898B9BE480B
:101B80000068007978B9BC480068C08801280AD18B
:101B9000B94909684879B94909688A6900219047B3
:101BA00008B9AFF2F17757B1B3480068A0F812A0B6
:101BB000B148006887610020B84700240FE0AE4AB2
:101BC00012685078AD4A1268116988470446032CA0
:101BD00005D10920A84909680872BDE8F88FA64810
:101BE0000068008A4FF6FF71884204D10920A2499B
:101BF00009680872F1E7022C03D09F480068008A48
:101C000020B908209C4909680872E6E79A480068EC
:101C1000007800F08000E0B397480068C08800902A
:101C200095480068008A0099884204D99249009832
:101C30000968088223E090480068008A8E49096894
:101C4000C98888421BDA8C480068008A8B49096879
:101C500091F82C10884203DA0020894908700EE0C0
:101C600085480068008A8549096891F82C1090FB26
:101C7000F1F201FB120010B90120814908707F4880
:101C8000006890F82C107C4800688182FFF7D4FD32
:101C900007E0FFE7032078490968087200037949E3
:101CA000088000BF99E710B5774890F82C10002005
:101CB00000F037FD70480068007A082805D140021E
:101CC000704908801020714908806B480068007ACC
:101CD000092801D1012010BD0020FCE738B50124FE
:101CE0006B48006880B2001D6A4931F8100080B26C
:101CF00001EB4000009060480068007A092832D06B
:101D0000009800785C49096808700098401C0090B1
:101D1000009800785849096848700098401C009065
:101D2000009800EB44000090009931F8020B0091FC
:101D300000F0A0FE504909684880009800EB44007C
:101D40000090009931F8020B009100F093FE4A498F
:101D500009688880009800EB440000900098008893
:101D600045490968C880012043490968087242480A
:101D70000068C08810B9FFF7B2FD01E0FFF740FE30
:101D8000FFF791FF38BD30B50146434B1A7800206C
:101D900014E00306414C04EB9353D3F8003C48F69F
:101DA0008F74234048F280042343C4B223430406C3
:101DB0003A4D05EB9454C4F8003C401C9042E8D3E3
:101DC00041F08003324C241F236030BD10B52A48F7
:101DD0000068047A022C01D0042C05D1FFF72CFDF9
:101DE00025480068047A1CE0062C19D122480068B6
:101DF000407805280ED120480068007800F07F0068
:101E000040B91D490968C878FFF7BDFF2449096832
:101E1000086A80471949096888688047082400E0F3
:101E20000824154909680C72FFF73DFF10BD10B575
:101E300011480068047A022C01D0042C01D1082436
:101E400012E0032C01D0052C05D1FFF7A2FC0A48B3
:101E50000068047A08E0072C05D108490968C868B9
:101E60008047082400E00824034909680C72FFF742
:101E70001AFF10BD70470000300000203400002021
:101E80002A000020400000207001002042000020B5
:101E9000505C0040006000406C0100200050004099
:101EA0003C00002010B50848084908600220096875
:101EB000087207480749086007480849086005494B
:101EC00009680868804710BD1C020020300000200F
:101ED0007001002034000020A00100203C00002000
:101EE00008B50020009022E1C448008800F00F00EF
:101EF000C34908700846007800287CD1C1480068B2
:101F0000C14908800846008800F03000BF490880B9
:101F1000BD48008800F44050BB490880B9490968B1
:101F20004BF6BF7201EA020080F4005080F02000FE
:101F300040F4004141F08001B24A1160AF4800888E
:101F400000F0100090BB1046006848F60F71084082
:101F500011460860FFF73AFFAA4909684BF6BF72BD
:101F600001EA0200A849098801F4805109B180F40E
:101F70008050A549098801F4005109B180F400504E
:101F8000A249098801F0100109B180F010009F49B1
:101F9000098801F0200109B180F0200081B241F4EC
:101FA000004141F08001974A116008BDFFE7954864
:101FB000006880B20090BDF8000000F40060B0B38B
:101FC00090480068C0F30E0048F68F7108408D49B4
:101FD0000860FFF783FE8B4909684BF6BF7201EA80
:101FE00002008949098801F4805109B180F48050C8
:101FF0008549098800E056E001F4005109B180F4F8
:1020000000508249098801F0100109B180F01000E8
:102010007E49098801F0200109B180F0200081B2D9
:1020200041F4004141F08001764A1160BDE7FFE7CD
:10203000BDF8000000F40040002878D07148006826
:10204000C0F30E0048F68F7108406E490860FFF734
:10205000EEFE6C4909684BF6BF7201EA02006A495C
:10206000098801F4805109B180F4805066490988DB
:1020700001F4005109B180F400506449098801F06D
:10208000100109B180F010006049098801F02001B9
:1020900009B180F0200081B241F4004141F080019B
:1020A000584A116081E756480078594901EB800091
:1020B000D0F8000C80B20090BDF8000000F40040A1
:1020C000C0B14F48007801EB8000D0F8000CC0F39D
:1020D0000E0048F68F710840494909784C4A02EBD6
:1020E0008101C1F8000C46490978491E494A52F855
:1020F00021008047BDF8000000F08000B8B14048E2
:102100000078434901EB8000D0F8000C48F60F71CD
:1021100008403B4909783E4A02EB8101C1F8000CB6
:1021200037490978491E3C4A52F821008047354812
:102130004430006880B23149088000F40040002833
:102140007FF4D2AE00BF30E710B500244AE047F676
:10215000FF702C49443108602848008800F00F00C7
:102160002749087008460078294901EB8000D0F81B
:10217000000C84B204F40040C8B12148007801EB9F
:102180008000D0F8000CC0F30E0048F68F710840B4
:102190001B4909781E4A02EB8101C1F8000C18495D
:1021A0000978491E1B4A52F8210080471AE004F0C2
:1021B0008000B8B112480078154901EB8000D0F8D2
:1021C000000C48F60F7108400D490978104A02EBDF
:1021D0008101C1F8000C0A490978491E0E4A52F8DB
:1021E0002100804707484430006880B203490880D6
:1021F00000F400400028AAD110BD00002C010020EE
:102200002C000020005C0040400000204200002024
:10221000005000404C01002030010020F0B5144671
:1022200004F1010C4FEA6C07DFF848C00CEB4103E6
:102230003D460AE00678401C90F800C046EA0C22B1
:1022400023F8022B9B1C401C6D1E002DF2D1F0BD0B
:10225000F0B5561C7510074E06EB41042B4605E001
:1022600034F8047B20F8017B401C5B1E002BF7D167
:10227000F0BD000000600040FA4908607047F9486E
:10228000006880B27047F749091D08607047F5483B
:10229000001D006880B27047F2480830006880B2C4
:1022A0007047F0490C3108607047EE480C30006808
:1022B00080B270474FF6F8710140EA4A103211605F
:1022C0007047E8481030006880B27047E64B03EB77
:1022D0008002C2F8001C70470146E34A02EB81000D
:1022E000D0F8000C80B2704710B5DF4B03EB8002D2
:1022F000D2F8002C48F68F131A400A43DA4C04EB4C
:102300008003C3F8002C10BD0146D74A02EB8100C0
:10231000D0F8000C00F4C060704730B5D24C04EB2C
:102320008003D3F8003C48F6BF7403EA040201F0CE
:1023300010030BB182F0100201F020030BB182F008
:10234000200242F4004343F08003C74D05EB8004B4
:10235000C4F8003C30BD30B5C34C04EB8003D3F867
:10236000003C4BF68F7403EA040201F480530BB176
:1023700082F4805201F400530BB182F4005242F413
:10238000004343F08003B84D05EB8004C4F8003CE3
:1023900030BD30B503460C461846FFF79DFF054695
:1023A000012C07D125F48050AF4A02EB8301C1F81C
:1023B000000C08E0022C06D125F01000AA4A02EB1E
:1023C0008301C1F8000C30BD0146A74A02EB810031
:1023D000D0F8000C00F0300070470146A24A02EB32
:1023E0008100D0F8000C00F44050704710B59E4BAF
:1023F00003EB8002D2F8002C48F6BF7302EA030117
:1024000081F0100181F0200141F4004242F080028D
:10241000954C04EB8003C3F8002C10BD10B5924B13
:1024200003EB8002D2F8002C4BF68F7302EA030113
:1024300081F4805181F4005141F4004242F0800265
:10244000894C04EB8003C3F8002C10BD864A02EBD4
:102450008001D1F8001C41F4807148F68F72114060
:1024600048F280021143804B03EB8002C2F8001C4B
:1024700070477D4A02EB8001D1F8001C48F68F625C
:10248000114048F280021143774B03EB8002C2F8FF
:10249000001C7047744A02EB8001D1F8001C48F61A
:1024A0008F62114048F2800211436F4B03EB8002B0
:1024B000C2F8001C70476C4A02EB8001D1F8001C86
:1024C00041F4807148F68F72114048F28002114346
:1024D000654B03EB8002C2F8001C7047624A02EBB6
:1024E0008001D1F8001C41F4807148F68F721140D0
:1024F00048F2800211435C4B03EB8002C2F8001CDF
:102500007047594A02EB8001D1F8001C48F68F62EF
:10251000114048F280021143534B03EB8002C2F892
:10252000001C70470146504A02EB8100D0F8000CB5
:1025300000F03000102801D1012070470020FCE796
:102540000146494A02EB8100D0F8000C00F44050EB
:10255000B0F5805F01D1012070470020FCE7424ABE
:1025600002EB8001D1F8001CC1F30E0148F68F7216
:1025700011403D4B03EB8002C2F8001C70473A4A01
:1025800002EB8001D1F8001C48F60F721140364B67
:1025900003EB8002C2F8001C7047334A02EB800153
:1025A000D1F8001C48F68F7211404CF280021143A2
:1025B0002D4B03EB8002C2F8001C70472A4A02EB45
:1025C0008001D1F8001C48F68F72114048F2C00219
:1025D0001143254B03EB8002C2F8001C7047224ACE
:1025E00002EB8001D1F8001C01F4804171B102EBD3
:1025F0008001D1F8001C48F68F7211404CF2800225
:102600001143194B03EB8002C2F8001C7047164AB5
:1026100002EB8001D1F8001C01F0400171B102EB26
:102620008001D1F8001C48F68F72114048F2C002B8
:1026300011430D4B03EB8002C2F8001C704710B52C
:10264000094B03EB8002D2F8002C48F68F731A4036
:1026500048F280031A430A43034C04EB8003C3F897
:10266000002C10BD405C0040005000400146FC4A78
:1026700002EB8100D0F8000C00F00F00704710B59D
:102680004A105200F74B1B689BB203EBC003F64C99
:1026900044F8132010BD10B54A105300F14A1268D7
:1026A00092B202EBC002121DEF4C44F8123010BD82
:1026B0000146EC48006880B200EBC100EA4A32F8FB
:1026C000100080B270470146E648006880B200EB17
:1026D000C100001DE44A32F8100080B27047E14AA0
:1026E000126892B202EBC002921CDF4B43F8121048
:1026F000704702463E290BDD481101F01F030BB95C
:10270000431E98B24FF4004343EA8023136007E06E
:10271000481001F001030BB1431C98B2830213600F
:10272000704710B50246CF48006880B200EBC20087
:10273000801DCD4C04EB40033E290BDD481101F018
:102740001F040CB9441EA0B24FF4004444EA802494
:102750001C6007E0481001F001040CB1441CA0B259
:1027600084021C6010BD0146BE48006880B200EBC8
:10277000C100801CBC4A32F81000C0F30900704749
:102780000146B848006880B200EBC100801DB64A1F
:1027900032F81000C0F30900704730B54B105B00F1
:1027A000B04C2468A4B204EBC004AF4D45F814301B
:1027B00053105C00AB4B1B689BB203EBC0031B1DAB
:1027C00045F8134030BD10B54A105200A54B1B68A8
:1027D0009BB203EBC003A44C44F8132010BD10B50A
:1027E0004A1053009F4A126892B202EBC002121DB7
:1027F0009D4C44F8123010BD01469A48006880B2E2
:1028000000EBC100984A32F8100080B270470146D0
:102810009448006880B200EBC100001D924A32F873
:10282000100080B2704730B50B46012B1FD18D4987
:10283000096889B201EBC001891C8B4D05EB41048D
:102840003E2A0BDD511102F01F050DB94D1EA9B234
:102850004FF4004545EA8125256007E0511002F05C
:1028600001050DB14D1CA9B28D0225600AE0022BB5
:1028700008D17C49096889B201EBC001891C7A4CF6
:1028800044F81120012B1FD17649096889B201EB68
:10289000C001891D744D05EB41043E2A0BDD511129
:1028A00002F01F050DB94D1EA9B24FF4004545EACF
:1028B0008125256007E0511002F001050DB14D1C86
:1028C000A9B28D0225600AE0022B08D1654909688A
:1028D00089B201EBC001891D634C44F8112030BD61
:1028E00030B5034601291FD15E48006880B200EB75
:1028F000C300801C5C4D05EB40043E2A0BDD5011EB
:1029000002F01F050DB9451EA8B24FF4004545EA77
:102910008025256007E0501002F001050DB1451C2F
:10292000A8B2850225600AE0022908D14D48006856
:1029300080B200EBC300801C4B4C44F8102030BD2B
:1029400030B5034601291FD14648006880B200EB2C
:10295000C300801D444D05EB40043E2A0BDD5011A1
:1029600002F01F050DB9451EA8B24FF4004545EA17
:102970008025256007E0501002F001050DB1451CCF
:10298000A8B2850225600AE0022908D1354800680E
:1029900080B200EBC300801D334C44F8102030BDE2
:1029A00001463048006880B200EBC100801C2E4A0E
:1029B00032F81000C0F3090070470146294800684A
:1029C00080B200EBC100801D274A32F81000C0F32E
:1029D0000900704701462348006880B200EBC1003F
:1029E000801D214A32F8100000F47C4008B101201B
:1029F00070471C48006880B200EBC100801C1A4A76
:102A000032F81000C0F3090008B10220F0E70020FE
:102A1000EEE710B5012910D1114B03EB8002D2F87B
:102A2000002C48F68F731A4048F2C0031A430C4C2E
:102A300004EB8003C3F8002C11E002290FD1084BEE
:102A400003EB8002D2F8002C48F68F731A404CF248
:102A500080031A43024C04EB8003C3F8002C10BD22
:102A600000500040505C004000600040024641EAD7
:102A7000022070470146CAB20B1243EA0220704797
:102A800000201D4908604FF404401C490880084696
:102A900000881949091F0860002070472DE9F0419E
:102AA00004460E46154604F07F00FFF701FE074678
:102AB000AAB239463046FFF7B1FBA9B204F07F0055
:102AC000FFF70DFE0020BDE8F0812DE9F04104463E
:102AD0000E46002504F07F00FFF752FE054604F085
:102AE0007F00FFF7F0FD07462A4639463046FFF7DC
:102AF000AFFB2846BDE8F081445C00403A0000206E
:102B000010B5002000F0A6F810BD10B5FFF7F8FFD3
:102B100010BD10B50020FEF72BF80121C805FEF707
:102B2000D4F810BD03204649086070474548817AB3
:102B300019B10521424A116002E00121404A1160A9
:102B4000704708B54FF4C060FDF7FEFB14208DF808
:102B5000000001208DF801008DF802008DF80300BF
:102B60006846FDF7F6FB13208DF8000001208DF874
:102B7000010000208DF8020001208DF80300684656
:102B8000FDF7E7FB31208DF8000000208DF80100F3
:102B90008DF802006846FDF7DCFB08BD38B5044639
:102BA00001212020FEF784F80820ADF80000032062
:102BB0008DF8020014208DF8030069462248FDF7C5
:102BC000BBFD24B108212048FDF765FE03E0082184
:102BD0001D48FDF75EFE38BD30B50B46002100BF35
:102BE00016E00A24B4EB107F05D9302404EB1074EE
:102BF00003F8114005E0412404EB10740A3C03F88B
:102C00001140000100254C00641C1D554C1CE1B214
:102C10009142E6DB30BD70B50C480468001D0568C4
:102C2000001D0668344454B1082209492046FFF7C4
:102C3000D3FF0422064910312846FFF7CDFF70BDAF
:102C4000FC0100201C02002000140140E8F7FF1FD7
:102C50001201002070B50446002524B901F0D8FE09
:102C60005149086001E0012070BD00BF2846FBE724
:102C70002DE9F04104460F4615461E46B4B93246CA
:102C80003946284602F020F94749086002F020FA48
:102C90004549086000BF01F025FF0028FBD14248EC
:102CA000006810B10120BDE8F08101E00120FAE7E1
:102CB00000BF0020F7E72DE9F04104460F46154616
:102CC0001E46A4B932463946284602F023F802F0DF
:102CD000E6F83549086000BF01F004FF0028FBD189
:102CE0003148006810B10120BDE8F08101E0012009
:102CF000FAE700BF0020F7E770B50446002500267C
:102D0000002C4ED101F084FE00284AD1274801F062
:102D100001FB2649B1F84C10080401F0E3FA2348FE
:102D2000007E851C214890F84E00022806D11F48DD
:102D30000069401C80021E49086012E01B490A7AA3
:102D4000012101FA02F0C11700EBD1514E121748D0
:102D50000069401C0121A94048437108884014497A
:102D600008604FF40070134908601049B1F84C1026
:102D7000080401F0B7FA0C4908604FF4006001F054
:102D80006BFA094908600846006808B1012070BD67
:102D90000748006807490968484307490860002058
:102DA000F5E70120F3E700005C000020D8040020D4
:102DB000540000204C0000204400002070B5044660
:102DC0000D4616467448007870B9744850F82400CF
:102DD000684373490860714850F824007043714992
:102DE000086001206C4908706B480078012844D1C4
:102DF0006D480068C0B9694830F8240083B26B4A56
:102E0000674801682046FFF756FF40226749812046
:102E1000FFF744FE614850F82400403862490860DA
:102E200040206349086011E06048614A12688118D7
:102E300040228120FFF732FE5B48006840385A4943
:102E400008605B4800684030594908604021012013
:102E5000FFF745FC30210120FFF75FFA504800687A
:102E600040304F4908604F48006840384D4908607D
:102E70005048806840384F4988604A48006860B9C7
:102E80000020494908604A49086045490860032014
:102E90004949087000204049087070BD2DE9F04193
:102EA00004460D4616464548006800F140073A487A
:102EB000007870B9394850F82400684340490860E8
:102EC000364850F8240070433E49086001203249DA
:102ED00008703148007801284CD100203A49086038
:102EE00010E0394801680068401C374A10603748D4
:102EF000415C2E48314A1268815430480068401CB9
:102F00002E4908602D480068B842EAD32C48006872
:102F10002F49098808442A4908602A4800682C4932
:102F20000988401A274908601C4850F8240009689D
:102F3000B1FBF0F200FB121080B900201F490860BD
:102F4000164830F8240083B2144850F824001C4A74
:102F50001268111A154A2046FFF78AFE1548806844
:102F60001B490988401A134988604FF440510220D8
:102F7000FFF7F1F91348006818B10F4800780428EA
:102F800008D100200D490860012100F023F800203D
:102F900001490870BDE8F081700000204C0000205D
:102FA000740000207800002060000020380200201B
:102FB0006400002098040020040100206800002024
:102FC0007C000020800000206C00002038040020DD
:102FD0000601002070B505460C46F948F94908601D
:102FE000084605730D228120FFF758FD0520F6499C
:102FF00008702CB10420087030210120FFF78DF9F2
:1030000070BD10B5F0480078022810D003281DD0FC
:10301000042802D0052823D100E000BF0020EA499F
:1030200008704FF440510220FFF795F919E0E74886
:10303000C07B282808D1E549487BE5490A68E5496D
:10304000096800F0F8FC00BF00BF0AE00121002081
:10305000FFF7C0FF4FF440510220FFF77CF900E07A
:1030600000BF00BF10BD10B5044624B1012C07D02D
:10307000022C15D10AE010210120FFF74EF910E0D3
:103080004FF480510220FFF766F90AE01021012079
:10309000FFF743F94FF480510220FFF75CF900E09D
:1030A00000BF00BF10BD10B5002404E0CA48005D99
:1030B000C6490855641CC94800888442F6D3C348F1
:1030C0004068C0494860C14880688860C34800883B
:1030D0001F280FD00220FFF7C6FF0020BB49086061
:1030E000487B1A22052100F0BEFB00210120FFF7DA
:1030F00071FF10BDB548C07B282803D0B348C07B02
:103100002A2816D1B148407C0106B048807C41EAAB
:103110000041AE48C07C41EA0020AC49097D08432B
:10312000AC490860A948C17D807D41EA0020A849DA
:103130000860A6480068AA4988426FD1A348407B2E
:10314000A8490968884207D8A048807B012803DB8A
:103150009E48807B10280DDD0220FFF784FF9B49ED
:10316000487B2422052100F07EFB00210120FFF78F
:1031700031FFE8E09548C07B25285FD01BDC15288F
:103180006FD00EDC08286DD006DC00285BD0032849
:1031900030D0042867D176E00A286ED01228F9D101
:1031A0002DE01A380A285ED2DFE800F0392EB17D12
:1031B00033B1B1B1B1438A286FD00EDC552867D046
:1031C00006DC282844D02A284ED02F28E2D155E00A
:1031D0005A2829D08828DDD176E0A8286DD004DCD3
:1031E0008F286FD09E28D5D173E0AA287BD0AF2836
:1031F000D0D182E07549487B00F0C8FB95E0734967
:10320000487B00F015FB90E07049487B00F0CDFB57
:103210008BE06E49487B00F0C8FB86E086E06B4996
:10322000487B00F0A5FB80E06849487B00F0A7FBE5
:103230007BE06649487B00F01AFB76E06349487BF7
:1032400000F051FB71E06149487B00F097FC6CE0B5
:103250005E49487B5E490A685E49096800F0EBFBFD
:1032600063E01BE024E052E05849487B58490A6873
:103270005849096800F016FC57E02FE05349487B95
:1032800000F047FC51E05149487B00F091FC4CE0D4
:103290004E49487B00F0A2FC47E029E04B49487BBF
:1032A00000F09CFC41E04949487B00F097FC3CE081
:1032B0004649487B00F092FC37E04449487B00F0E7
:1032C0008DFC32E01EE00EE04049487B00F086FCB9
:1032D0002BE03E49487B00F081FC26E03B49487BDF
:1032E00000F07CFC21E03949487B00F077FC1CE0D1
:1032F0003649487B00F072FC17E03449487B00F007
:103300006DFC12E03149487B00F068FC0DE00220C2
:10331000FFF7A9FE2D49487B2022052100F0A3FAE2
:1033200000210120FFF756FE00BF0CE00220FFF74E
:103330009AFE2649487B2022052100F094FA0021BC
:103340000120FFF747FE00BFD3E610B51F48C47B3E
:1033500021490220FFF7B9FB204908801A4800786C
:1033600010B101281CD102E0FFF79DFE26E02A2CB7
:1033700008D11649487B16490A681649096800F0C1
:1033800091FB1BE00120FFF76EFE1049487B2422D1
:10339000052100F068FA00210220FFF71BFE0DE076
:1033A0000220FFF760FE0949487B2422052100F036
:1033B0005AFA00210220FFF70DFE00BF00BF10BD2A
:1033C0005553425398040020040100207804002043
:1033D0000C01002008010020380400200601002014
:1033E000555342436801002070B505460C462246FD
:1033F00029468120FFF752FB30210120FEF78DFF87
:1034000003200549087005488068001B034988604F
:103410000020087370BD0000040100209804002003
:1034200010B5FFF7EEFD10BD10B5FFF78EFF10BD14
:1034300010B50F4800680F4908800846008800F45E
:1034400000400D490988084008B1FEF749FD0948C8
:10345000008800F4806008490988084030B14FF6C0
:10346000FF300349086005494868804710BD0000E7
:10347000445C00402C0100203A0000207001002034
:1034800010B5FFF7C8FB00208B490968887200F06F
:103490002BF9FFF7F5FA00208849086010BD10B538
:1034A0000020874988728748C07983490968487233
:1034B0000020FEF7FFFE4FF400710020FEF714FF1E
:1034C00020210020FEF729FF18210020FFF7E3F854
:1034D0007D4890F82C100020FFF723F95821002098
:1034E000FFF7CDF80020FEF7D5FF0020FEF796FF8E
:1034F00000210120FEF7F8FE98210120FFF7BFF818
:1035000020210120FEF709FF00210120FEF723FF03
:1035100000210220FEF7E8FED8210220FFF7BBF8C9
:10352000694890F82C100220FFF7FBF84FF4405147
:103530000220FEF710FF00210220FEF7EEFE624897
:1035400090F82C100020FFF7ECF80020FEF766FF43
:103550000020FEF718FC0120584908605B485C49D0
:10356000086000205B49087010BD10B55248006823
:10357000807A58B10520514908600120FFF747F8CB
:103580000220FFF72CF800205249087010BD10B53A
:103590004F4800684D49884202D00220FFF763FD82
:1035A00010BD0420454908607047704770470146C8
:1035B00029B90120404A126810820020704746480D
:1035C000FCE770B5054600243B480068007800F031
:1035D0007F00212811D1FE2D0FD137480068408887
:1035E00058B935480068808838B933480068C088C1
:1035F000012802D1AFF2490401E0022070BD0CB9EC
:103600000220FBE72C480068846100212A480068FA
:1036100041820020A0470020F0E710B5044626486C
:103620000068007800F07F0021281AD1FF2C18D103
:10363000214800684088A0B91F480068808880B988
:103640001D480068C08860B90120FEF7E0FF022035
:10365000FEF7C5FF1D481E49086000201D4908707F
:1036600010BD0220FCE70246002901DD0220704760
:10367000002A01DD0220FAE70020F8E710B5044631
:1036800016492046FEF775F810BD10B504461449DA
:103690002046FEF76EF810BD70B505460648006876
:1036A000C478052C01DD002070BD0E4800EBC4017C
:1036B0002846FEF75EF8F7E730000020FC01002006
:1036C0001C020020B65500087001002055534243EB
:1036D000780400200401002068010020C4010020BB
:1036E000CC010020D401002010B50120FFF756FACC
:1036F00001244C48046000204B490880084600889B
:10370000484908600020091D08604FF4E050464910
:1037100008800846008843490860002010BD10B5A5
:103720000120404908600020091D0860FFF736FAB3
:1037300003203C490860002010BD10B539480068DE
:1037400084B244F0080437480460006884B244F04E
:10375000040434480460FFF7E5F910BD10B53148A2
:10376000006884B224F004042E480460FFF7DEF9F8
:103770004FF404402B49086010BD70B50546072D75
:1037800001D02A48057029480078082841D2DFE88E
:1037900000F0040A1016212E4142FFF7DFFF062039
:1037A000224908703BE0FFF7D9FF04201F49087049
:1037B00035E002201D494870032008702FE01B48A7
:1037C0004078401E194948700846407808B90420DE
:1037D000087024E01348006884B244F010041148D3
:1037E00004600520114908700A20487017E00F484E
:1037F0004078401E0D4948700846407840B9094855
:10380000006884B224F010040648046006200870A2
:1038100005E000BF00BF06200449087000BF00BFDC
:1038200070BD0000405C00403A0000200102002012
:1038300070B50646F948007C00F0010010B1F84C64
:1038400005250BE00EB9F74C00E0F74CF348C07CBF
:10385000242802DCF148C57C00E0242529462046C6
:10386000FFF7C2FD70BDF14B99701A73704710B528
:1038700004462046FFF740FA68B1E849487B3A22FF
:103880000221FFF7F0FF01210846FFF7A3FB00200C
:10389000FFF7E9FB10BDE64850F82400000EE549AB
:1038A0000871E34850F82400000C4871E04830F8F3
:1038B0002400000A8871DE4810F82400C871DE4830
:1038C00050F82400000C4872DB4830F82400000A4D
:1038D0008872D94810F82400C8720C21D548FFF727
:1038E00083FD00BFD6E710B504462046FFF704FA73
:1038F00068B1CA49487B3A220221FFF7B4FF01218F
:103900000846FFF767FB0020FFF7ADFB10BDC84876
:1039100050F82400401E000EC8490870C44850F8F2
:103920002400401E000C4870C14830F82400401E9E
:10393000000A8870BE4810F82400401EC870BE48B7
:1039400050F82400000E0871BB4850F82400000C09
:103950004871B94830F82400000A8871B64810F858
:103960002400C8710821B548FFF73EFD00BFCDE730
:1039700010B504460421B248FFF736FD10BD10B55E
:1039800004460821AF48FFF72FFD10BD70B505466E
:10399000A248C07C122802DCA048C47C00E01224AB
:1039A0002146A248FFF720FD70BD10B50446012155
:1039B0000020FFF70FFB10BD2DE9F04104460D4636
:1039C00017461E46B8199A4951F82410884213D94F
:1039D0002A2D02D10220FFF746FB0020FFF743FB10
:1039E000212205212046FFF73EFF00210120FFF79D
:1039F000F1FA0020BDE8F081884881688E4850F8CF
:103A000024007043814214D02A2D03D10220FFF7F5
:103A10002AFB02E00020FFF726FB8049487B242296
:103A20000521FFF720FF00210120FFF7D3FA002036
:103A3000E0E70120DEE770B506460C4615468248F1
:103A4000007820BB7549487B2B4622462821FFF78A
:103A5000B3FF00B970BD7148007B00F0800040B139
:103A60000220794908702A4621463046FFF7A6F918
:103A70000CE00220FFF7F7FA6849487B2422052171
:103A8000FFF7F1FE01210846FFF7A4FAE2E76E48CE
:103A90000078022804D12A4621463046FFF78EF9E5
:103AA00000BFD7E770B506460C4615466648007855
:103AB00020BB5A49487B2B4622462A21FFF77CFF30
:103AC00000B970BD5548007B00F0800040B901206E
:103AD0005D4908704FF440510220FEF73CFC0CE0B9
:103AE0000020FFF7C0FA4D49487B24220521FFF74B
:103AF000BAFE00210120FFF76DFAE2E75248007894
:103B0000012804D12A4621463046FFF7C7F900BFF5
:103B1000D7E710B504464148806848B93F48007C63
:103B200000F0040020B901210020FFF753FA0CE057
:103B30000220FFF798FA3949487B24220521FFF734
:103B400092FE00210120FFF745FA10BD10B5044692
:103B50003248806868B10220FFF785FA2F49487B18
:103B600020220521FFF77FFE00210120FFF732FA16
:103B700003E001210020FFF72DFA10BD10B5044627
:103B80002046FFF7B9F868B12449487B3A22022160
:103B9000FFF769FE01210846FFF71CFA0020FFF736
:103BA00062FA10BD01210020FFF714FA00BFF8E708
:103BB00010B504462046FFF79FF868B11749487BC7
:103BC0003A220221FFF74FFE01210846FFF702FAD1
:103BD0000020FFF748FA10BD00BFFCE710B504460F
:103BE0000E48806818B90020FFF73DFA0BE00B483B
:103BF000007B00F0800018B10020FFF734FA02E0EB
:103C00000220FFF730FA0549487B20220521FFF703
:103C10002AFE00210120FFF7DDF910BD7804002005
:103C20008400002089000020AD000020DD0000207D
:103C300054000020F70000204C000020EF0000207E
:103C4000D1000020D50000200401002001B502E0D1
:103C50000098401E009000980028F9D108BD00F09F
:103C600075F801F009FCFEF750FF0FA001F072FC9F
:103C7000FEF74FFFFEF765FFFEF714F911A001F004
:103C800069FC00BF184800680528FBD117A001F0A7
:103C900061FC08E01E48006880F001001C490860D3
:103CA0001C48FFF7D3FFF5E70A20696E6974696164
:103CB0006C697A696E672073642063617264200A9C
:103CC000000000000A20696E697469616C697A6994
:103CD0006E67205553422C20706C656173652077A8
:103CE0006169742E0A000000FC0100200D0A2055B5
:103CF00053422073746F72616765206D6F756E74C7
:103D000065642E2045786369746564210D0A00009E
:103D10000C0C0140FFFF0F00704700BFFEE700BF23
:103D2000FEE700BFFEE700BFFEE770477047704741
:103D3000704710B501F06AFB10BD10B5FFF778FBB6
:103D400010BD10B5FEF700FA10BD000000B585B03B
:103D5000012144F20400FCF7ABFF4FF40070ADF812
:103D6000100018208DF8130003208DF8120004A90C
:103D70002348FCF7E1FC4FF48060ADF8100004200C
:103D80008DF8130004A91E48FCF7D6FC4FF4E1306F
:103D900000900020ADF80400ADF80600ADF8080072
:103DA000ADF80C000C20ADF80A0069461548FDF787
:103DB00010F901211348FDF798F940211148FDF74A
:103DC0007CFA05B000BD70B504460D46E1B20D4861
:103DD000FDF7F8F900BF80210A48FDF761FA0028D5
:103DE000F9D0204670BD10B5044600BF202105481B
:103DF000FDF756FA0028F9D00248FDF7E7F910BDA3
:103E0000000801400038014008B50020FCF7DFFF42
:103E10000020FCF7DFFFFCF7AFFF00214FF48060CC
:103E2000FCF739FF4FF4F850ADF8000004208DF88E
:103E300003006946FC48FCF77FFC0420ADF8000055
:103E40006946FA48FCF778FC08BD08B54FF4C06035
:103E5000FCF77AFA31208DF8000000208DF801007F
:103E60008DF8020001208DF803006846FCF771FA16
:103E700008BD10B5EE48FCF7BDFB10BD30B58BB0EA
:103E800005460C46EB48FCF7C9FB0021EA48FCF765
:103E900096FBEA480090019500200290A00803904C
:103EA00000200490802005908000069080000790FC
:103EB000002008904FF40050099000200A906946B5
:103EC000DD48FCF751FB0121DB48FCF778FB0BB028
:103ED00030BD30B58BB005460C46D648FCF79EFB8E
:103EE0000021D548FCF76BFBD448009001951020C9
:103EF0000290A0080390002004908020059080008C
:103F0000069080000790002008904FF40050099020
:103F100000200A906946C848FCF726FB0121C648E4
:103F2000FCF74DFB0BB030BD08B501213020FCF78C
:103F3000BFFE4FF4F850ADF8000003208DF80200EA
:103F400018208DF803006946B748FCF7F5FB0420FC
:103F5000ADF800006946B548FCF7EEFB0121880288
:103F6000FCF799FE01210220FCF795FE08BD0146F1
:103F700000BFB2488038406B00F045000028F8D000
:103F800040F2FF50AD4A803A9063104640690822E3
:103F90001040C0B270472DE9FC4107460D4600268F
:103FA00000240020009001900820A54908601020FE
:103FB0004860402088600020C8604FF4806008613D
:103FC0000846FCF727FF1020FFF7D1FF044614B185
:103FD0002046BDE8FC819B480088000498490860A1
:103FE00037204860402088600020C8604FF480601F
:103FF00008610846FCF70EFF3720FFF7B8FF0446BC
:104000000CB12046E5E74FF0FF308F4908600820EB
:104010004860302088600220C860002008610120CC
:1040200048610846FCF71FFF0020854908603320DF
:104030004860402088600020C8604FF480600861BC
:104040000846FCF7E7FE3320FFF791FF04460CB16A
:104050002046BEE70CE04FF40010FCF752FF38B1E9
:10406000FCF723FF4DF82600761C012E00D907E04F
:1040700072488038406B40F22A6108400028EAD03C
:1040800000BF0820FCF73DFF28B10820FCF743FFE4
:10409000042420469DE70220FCF733FF28B10220CC
:1040A000FCF739FF0224204693E72020FCF729FF84
:1040B00028B12020FCF72FFF0624204689E74FF483
:1040C0000070FCF71EFF30B14FF40070FCF723FFC7
:1040D000072420467DE740F2FF50FCF71CFF0098C4
:1040E0000006009901F47F4140EA0120009901F4A3
:1040F0007F0140EA1120009940EA11606860019850
:104100000006019901F47F4140EA0120019901F480
:104110007F0140EA1120019940EA116028602046A1
:1041200057E77CB505460024002000900190FCF77D
:104130008FFE00F0007010B10E2420467CBD414976
:10414000098888B26946FFF726FF04460CB120466D
:10415000F4E7012D36D1019800F4802000282ED0FC
:1041600038480088000436490860372048604020FD
:1041700088600020C860A80208610846FCF74AFE73
:104180003720FFF7F4FE04460CB12046D6E70220A4
:104190002B49086006204860402088600020C860E5
:1041A0004FF4806008610846FCF734FE0620FFF7F4
:1041B000DEFE04460CB12046C0E72046BEE72524BB
:1041C0002046BBE7019800F48030F8B31D48008812
:1041D00000041B49086037204860402088600020A8
:1041E000C8604FF4806008610846FCF713FE372072
:1041F000FFF7BDFE04460CB120469FE700201049A2
:10420000086006204860402088600020C8604FF4A5
:10421000806008610846FCF7FDFD0620FFF7A7FE59
:104220000446A4B1204689E7001001400014014073
:104230000020001000F00010440402408080014083
:1042400040050020080200205405002001E020461F
:1042500074E72524204671E770B504460025FB4825
:104260000068032802D12725284670BDF74800685A
:1042700038B1F6480068012803D0F44800680228E5
:104280002ED1B4F5805F02D127252846EDE7B4F59D
:10429000006F14D10120FFF744FF054605BB012044
:1042A000EB49087500200860486088604FF40060A2
:1042B000C860002008610846FCF76CFD10E0002093
:1042C000FFF72FFF05465DB90120E1490875002081
:1042D000086048608860C86008610846FCF75AFDBD
:1042E0002846C2E770B504460025DA480460072076
:1042F000D8494860402088600020C8604FF4806042
:1043000008610846FCF786FD0720FFF730FE0546EA
:10431000284670BD30B5014600200022CB4B1B78EB
:1043200081F84E30CC4B1B88A1F84C30CB4B1B682E
:104330001A0E93090B70C2F383034B7002F0030350
:104340008B70C64B1B68C3F30742CA70C34B1B88F4
:10435000C3F307220A71C14B1A784A715B681A0EBF
:104360001301CB80BD4B5B68C3F30742CB8843EAA4
:104370001213CB8002F00F030B72B84B9B88C3F370
:104380000722D3094B72C2F380138B72C2F340131E
:10439000CB72C2F300130B7300234B73AB4B1B6840
:1043A0001BB1AA4B1B68012B3CD193071B0D0B6162
:1043B000AA4B1A790B6943EA82030B61A74B9B68EE
:1043C0001A0E0B6943EA92130B61C2F3C2030B7519
:1043D00002F007034B75A14B9B68C3F307425309D7
:1043E0008B75C2F38203CB7593075B0F0B769B4BE8
:1043F0001B89C3F307220B7E43EAD2130B760B69AA
:104400005B1C4B640C7E4B6CA41C0125A5406B43CC
:104410004B640C7A0123A3408B64D1E911346343CC
:104420004B6421E0894B1B68022B1DD18B4B1A7901
:1044300093069B0A0B61894B9B681A0E0B6943EA32
:1044400002230B61854B9B68C3F307420B6913433F
:104450000B61824B1B89C3F307220B695B1CDB04D6
:104460004B644FF400738B64C2F3801301F8193F5F
:1044700093065B0E4B70794B1A7A4B7843EAD21352
:104480004B7002F07F038B70744BDB681A0ED309FC
:10449000CB70C2F341130B71C2F382034B719307CC
:1044A0001B0F8B716D4BDB68C3F307428B7943EABB
:1044B00092138B71C2F34013CB7100230B7202F085
:1044C00001034B72654B9B89C3F30722D3098B729F
:1044D000C2F38013CB72C2F340130B73C2F3001309
:1044E0004B73C2F381038B7302F00303CB735B4BFB
:1044F0001A7B53080B7401234B74594B1B681A0E1B
:10450000CA741939564B1B68C3F307421402CC8591
:10451000534B1B88C3F30722CB8D1343CB85504BE2
:104520001A7814060C635B681A0E0B6B43EA02449C
:104530000C634B4B5B68C3F307420B6B43EA0224EB
:104540000C63474B9B88C3F307220B6B13430B632E
:10455000434B1A7934235A54414B9B681A0E352326
:104560005A543F4B9B68C3F3074214068C633C4B81
:104570001B89C3F307228B6B43EA02448C63384BDD
:104580001A7A8B6B43EA02248C63354BDB681A0E74
:104590008B6B13438B63324BDB68C3F307423C23C3
:1045A0005B5C43EA12143C235C5413071C0DCC875C
:1045B0002B4B9B89C3F30722CB8F1343CB87284B0D
:1045C0001A7B540840235C54012441235C5430BDC1
:1045D00070B500252348446B01E02248446B04F089
:1045E00045000028F9D004F0040028B10325042078
:1045F000FCF791FC284670BD04F0010028B10125AC
:104600000120FCF788FC2846F5E740F2FF50FCF754
:1046100082FC2846EFE72DE9F04106460F464FF0B1
:1046200000081048456B01E00E48456B05F0450059
:104630000028F9D005F00400B0B14FF003080420C1
:10464000FCF769FC4046BDE8F08100000402002050
:10465000280500204005002008020020A8040020B2
:10466000B80400200080014005F0010030B14FF097
:1046700001080120FCF74FFC4046E4E7FCF7E4FBAF
:10468000B04203D04FF010084046DCE740F2FF5044
:10469000FCF741FC0020FCF7DBFB044604F460401F
:1046A00018B9200C38804046CDE704F4005008B11A
:1046B0001320C8E704F4804008B11020C3E704F4D5
:1046C000004008B10F20BEE74046BCE738B50024E3
:1046D00001200090FCF789FB10B92524204638BD45
:1046E000F7480068042828D00020F6490860022016
:1046F0004860C02088600020C8604FF48060086176
:104700000846FCF787FBFFF763FF04460CB1204621
:10471000E5E70020FCF79CFBEB4908600420FCF770
:1047200097FBE94948600820FCF792FBE64988605E
:104730000C20FCF78DFBE449C860E148006858B1E3
:10474000DF480068012807D0DD480068062803D04C
:10475000DB480068022816D10020DA4908600320EF
:104760004860402088600020C8604FF48060086185
:104770000846FCF74FFB69460320FFF74CFF044651
:104780000CB12046ABE7CE48006804282ED0BDF817
:104790000000CE490860BDF800000004C949086067
:1047A00009204860C02088600020C8604FF4806005
:1047B00008610846FCF72EFBFFF70AFF04460CB120
:1047C00020468CE70020FCF743FBC1490860042029
:1047D000FCF73EFBBE4948600820FCF739FBBC49AA
:1047E00088600C20FCF734FBB949C86000242046DF
:1047F00075E770B50025B748446B01E0B548446BD8
:1048000004F045000028F9D004F0040028B1032585
:104810000420FCF780FB284670BD40F2FF50FCF7F7
:104820007AFB2846F8E770B500264FF48035A94892
:10483000446B02E06D1EA748446B04F0450008B9C4
:10484000002DF7D115B104F0040028B1032604208F
:10485000FCF761FB304670BD04F0400028B1002633
:104860004020FCF758FB3046F5E73046F3E770B5DB
:1048700000254FF4803400E0641E24B18020FCF752
:1048800040FB0028F8D014B90325284670BD40F23B
:10489000FF50FCF740FB2846F8E72DE9F0410024E3
:1048A000002600250027A046B2208B49087500206D
:1048B000086048608860C86008610846FCF76AFACA
:1048C0000320FCF787FA0120FCF781FA00207D49DC
:1048D000086048608860C8604FF4806008610846DE
:1048E000FCF798FAFFF7C3FF044614B12046BDE871
:1048F000F0814FF4D570734908600820486040206B
:1049000088600020C8604FF4806008610846FCF7AA
:1049100081FAFFF788FF04462CB901206849086036
:104920004FF0804812E00020664908603720486058
:10493000402088600020C8604FF48060086108460D
:10494000FCF768FA3720FFF712FB044600205D49A8
:10495000086037204860402088600020C8604FF41D
:10496000806008610846FCF755FA3720FFF7FFFA28
:104970000446002C4AD136E0002052490860372016
:104980004860402088600020C8604FF48060086163
:104990000846FCF73FFA3720FFF7E9FA04460CB166
:1049A0002046A4E74D4848EA00004649086029200F
:1049B0004860402088600020C8604FF48060086133
:1049C0000846FCF727FAFFF714FF04460CB120460F
:1049D0008DE70020FCF73CFA0646012080EAD670FD
:1049E00080F001076D1C1FB94FF6FF708542C3D3DD
:1049F0004FF6FF70854202D31B24204677E706F06E
:104A00008040060002D002202D49086020466EE753
:104A100010B50024FFF788FAFCF7AEF9FFF73DFF69
:104A200004460CB1204610BDFFF750FE04460CB101
:104A30002046F8E7012028490875002008604860F2
:104A40008860C86008610846FCF7A4F91CB92448CE
:104A5000FFF760FC044634B92149B1F84C10080452
:104A6000FFF740FC044624B94FF40060FFF7F4FB65
:104A700004462046D7E770B5044600251348008851
:104A800000041449886040F24D40C8600D20FFF7D3
:104A90006EFA05460DB1284670BD0E48406920608B
:104AA0002846F9E708B5002000906846FFF7E3FFC5
:104AB00008B1FF2008BD0098C0F34320FAE70000CA
:104AC0000402002040050020B80400200802002055
:104AD000A80400200080014028050020000010806C
:104AE000D804002010B50424FFF7DCFF0446042C92
:104AF00001D1002010BDFF2C01D10220FAE70120D6
:104B0000F8E710B500240020FCF764F9204610BD3A
:104B100070B50446002500260020FCF799F900F046
:104B2000007010B10E25284670BD4020FC49086079
:104B300010204860402088600020C8604FF48060EA
:104B400008610846FCF766F91020FFF710FA0546E1
:104B50000DB12846E8E7F34800880004F0490860F2
:104B600037204860402088600020C8604FF4806093
:104B700008610846FCF74EF93720FFF7F8F90546BB
:104B80000DB12846D0E74FF0FF30E74908604020DC
:104B90004860602088600220C86000200861012011
:104BA00048610846FCF75FF90020DD4908600D20E8
:104BB0004860402088600020C8604FF48060086131
:104BC0000846FCF727F90D20FFF7D1F905460DB18E
:104BD0002846A9E70EE04FF40040FCF792F948B1EF
:104BE000002604E0FCF761F944F82600761C082E44
:104BF000F8D32034CD48406B40F22A6108400028A9
:104C0000E9D00820FCF77DF928B10820FCF783F9EA
:104C10000425284688E70220FCF773F928B1022012
:104C2000FCF779F9022528467EE72020FCF769F990
:104C300028B12020FCF76FF90625284674E74FF4C9
:104C40000070FCF75EF930B14FF40070FCF763F9C7
:104C50000725284668E703E0FCF727F92060241DB4
:104C60004FF40010FCF74DF90028F5D140F2FF5049
:104C7000FCF751F9284657E770B504460026002591
:104C8000AB48FFF745FF06460EB1304670BDA84859
:104C9000007885092570A6480078C0F34015657036
:104CA000A348857828026080A148C5786088284399
:104CB00060809F480579280660609D484579606856
:104CC00040EA054060609A488579606840EA0520BE
:104CD00060609748C5796068284360609448057AA9
:104CE0002572457A6572807A0509A5729048C57A61
:104CF0002802A0818E48057BA0892843A0818C488A
:104D0000407B8508A5738A48407B00F00305E57366
:104D10003046BBE72DE9F04107460D461446002614
:104D200000208449087084490860844908607F49EC
:104D3000C86283480068022801D104026D0A7848DD
:104D40000460102076494860402088600020C860D8
:104D50004FF4806008610846FCF75CF81020FFF70C
:104D600006F9064616B13046BDE8F0814FF0FF3037
:104D70006D49086008464460902088600220C86041
:104D800000200861012048610846FCF76CF864487F
:104D90000560112062494860402088600020C8609A
:104DA0004FF4806008610846FCF734F81120FFF7E3
:104DB000DEF806460EB13046D6E701210802FCF7C0
:104DC00019F80120FCF723F821463846FFF756F87A
:104DD0003046C9E72DE9F04180460D4614461E468F
:104DE00000270020534908705349086001205349A7
:104DF000086000204D49C86251480068022801D16E
:104E000004026D0A4648046010204549486040206D
:104E100088600020C8604FF4806008610846FBF796
:104E2000F9FF1020FFF7A3F8074617B13846BDE891
:104E3000F0814FF0FF303C49086006FB04F0486009
:104E4000902088600220C86000200861012048612D
:104E50000846FCF708F832480560122030494860DF
:104E6000402088600020C8604FF4806008610846D8
:104E7000FBF7D0FF1220FFF77AF807460FB138464C
:104E8000D5E701210802FBF7B5FF0120FBF7BFFFC3
:104E900006FB04F14046FEF7F1FF3846C7E710B5C0
:104EA000002400BFFEF7E5FF30B92348006818B9B9
:104EB000204800780028F5D01E48007810B11D4821
:104EC000007810BD2046FCE72DE9F04107460D466D
:104ED0001446002600201749087017490860174932
:104EE00008601249C86216480068022801D104020D
:104EF0006D0A0B4804601020094948604020886012
:104F00000020C8604FF4806008610846FBF782FF0C
:104F10001020FFF72CF80646A6B13046BDE8F08118
:104F200040050020080200205405002000800140B8
:104F3000C804002010020020140200200C020020EF
:104F400004020020FE4805601820FD49486040200A
:104F500088600020C8604FF4806008610846FBF755
:104F600059FF1820FFF703F806460EB13046D5E783
:104F70004FF0FF30F3490860084644609020886095
:104F80000020C8600861012048610846FBF76BFFFC
:104F900001210802FBF72EFF21463846FEF799FF54
:104FA0000120FBF734FF3046B8E72DE9F84380468F
:104FB0000F4615461E46002400200090E249087066
:104FC000E24908600120E24908600020E149C86226
:104FD000E1480068022801D105027F0AD84805602F
:104FE0001020D7494860402088600020C8604FF4F6
:104FF000806008610846FBF70DFF1020FEF7B7FF41
:10500000044614B12046BDE8F883D4480088000463
:10501000CB49086037204860402088600020C86085
:105020004FF4806008610846FBF7F4FE3720FEF776
:105030009EFF04460CB12046E5E7C14806601720F4
:10504000BF494860402088600020C8604FF48060FD
:1050500008610846FBF7DEFE1720FEF788FF0446CE
:105060000CB12046CFE7B64807601920B449486024
:10507000402088600020C8604FF4806008610846C6
:10508000FBF7C8FE1920FEF772FF04460CB120465C
:10509000B9E74FF0FF30AB49086006FB05F0486008
:1050A000902088600020C86008610120486108469F
:1050B000FBF7D9FE01210802FBF79CFE0120FBF75C
:1050C000A6FE06FB05F14046FEF703FF20469AE7E1
:1050D00010B5002400BFFEF7CCFE30B99B48006835
:1050E00018B9994800780028F5D09748007810B191
:1050F0009548007810BD40F2FF50FBF70CFF2046AA
:10510000F8E79448406B00F4405008B10120704724
:105110000020FCE710B5002400208E49886040F292
:105120004C40C8600C20FEF722FF0446204610BD0C
:105130007CB5044600250020019000908748008837
:1051400000047F4908600D204860402088600020EE
:10515000C8604FF4806008610846FBF75BFE7D483D
:10516000406B009002E07B48406B0090009800F09C
:1051700045000028F7D0009800F0040028B103256E
:105180000420FBF7C8FE28467CBD009800F0010013
:1051900028B101250120FBF7BEFE2846F4E7FBF706
:1051A00053FE009000980D2802D010252846EBE70A
:1051B00040F2FF50FBF7AFFE0020FBF749FE0190E5
:1051C0000198C0F34320207065490198084008B950
:1051D0002846D9E7019800F0004008B11C20D3E729
:1051E000019800F0804008B10920CDE7019800F057
:1051F000005008B10A20C7E7019800F0805008B1BC
:105200000B20C1E7019800F0006008B10C20BBE75B
:10521000019800F0806008B10D20B5E7019800F01A
:10522000807008B10E20AFE7019800F4000008B1CB
:105230000F20A9E7019800F4800008B11020A3E72F
:10524000019800F4001008B111209DE7019800F4C6
:10525000801008B1122097E7019800F4002008B1EF
:10526000132091E7019800F4802008B114208BE707
:10527000019800F4003008B1152085E7019800F48A
:10528000803008B116207FE7019800F4004008B193
:10529000172079E7019800F4804008B1182073E7DF
:1052A000019800F4005008B119206DE7019800F052
:1052B000080008B11A2067E7284665E72DE9FC4198
:1052C00005460E4600240027002001900090254846
:1052D0004068202101EA105018B925242046BDE875
:1052E000FC811C484068C0B2801C1F49B1FBF0F033
:1052F00001900020FBF7ACFD00F0007010B10E240F
:105300002046ECE714480068022801D16D0A760AAD
:105310001148006838B110480068012803D00E48D1
:105320000068022842D106480560202004494860F0
:10533000402088600020C8604FF48060086115E05C
:105340004005002054050020100200201402002017
:105350000C0200200080014004020020080200200E
:1053600008E0FFFDA8040020C0D401000846FBF7B8
:1053700051FD2020FEF7FBFD04460CB12046AEE7B0
:105380003848066021203749486040208860002066
:10539000C8604FF4806008610846FBF73BFD2120A0
:1053A000FEF7E5FD04460CB1204698E700202D49A4
:1053B000086026204860402088600020C8604FF4C4
:1053C000806008610846FBF725FD2620FEF7CFFD2B
:1053D00004460CB1204682E7002700E07F1C0198BC
:1053E0008742FBD36846FFF7A3FE044603E0684606
:1053F000FFF79EFE04463CB99DF800000728F6D052
:105400009DF800000628F2D0204668E710B516483F
:10541000006801280BD100201449886040F24C40FC
:10542000C8600C20FEF7A3FD1149087002E00020BF
:105430000F4908704FF48070FBF77AFD00214FF49C
:105440008070FBF7D7FC01200A4908600848007803
:1054500010BD0146002002E04910421CD0B20129D3
:10546000FAD17047400500200C0200200080014066
:10547000100200201402002008B501218820FBF74B
:1054800017FC0120ADF8000010208DF80300032068
:105490008DF8020069460E48FBF74EF98020ADF802
:1054A000000069460B48FBF747F94FF48070ADF8F0
:1054B000000069460748FBF73FF901210448FBF764
:1054C000E8F94FF4C0710348FBF7E3F908BD0000A9
:1054D000000C0140001C0140064C074D06E0E0684E
:1054E00040F0010394E8070098471034AC42F6D32B
:1054F000FAF722FE385600085856000870B58C1886
:1055000010F8015B15F0070301D110F8013B2A11D7
:1055100006D110F8012B03E010F8016B01F8016BC4
:105520005B1EF9D12B0705D40023521E0DD401F8C0
:10553000013BFAE710F8013BCB1A921C03E013F889
:10554000015B01F8015B521EF9D5A142D8D30020BE
:1055500070BD0000014A024900F013B8C73D0008C1
:105560001802002002E008C8121F08C1002AFAD160
:1055700070477047002001E001C1121F002AFBD1D3
:1055800070472DE9F04116460F460446002503E01A
:105590003946B047641C6D1C20780028F8D1284695
:1055A000BDE8F08112010002000000408304205792
:1055B00000020102030109022000010100C03209BA
:1055C000040000020806500407058102400000079D
:1055D000050202400000040309042603530054009E
:1055E0004D006900630072006F0065006C0065008B
:1055F0006300740072006F006E0069006300730046
:105600002603530054004D003300320020004D00AB
:105610006100730073002000530074006F0072007B
:1056200061006700650010035300540020004D0026
:10563000610073007300000058560008000000204D
:105640001C020000FC540008205700081C02002027
:1056500054070000745500081184A24A0468090127
:10566000020304060708090C691005620204060813
:1056700035800202202D53544D2001180E53442032
:10568000466C617368204469736B10ED312E3020D5
:1056900024BC4E414E262924420362066270021544
:1056A0000A39D3021002141A03531254124D123342
:1056B000123212310211301321340C1808751E04F5
:1056C0000A152920412303011A81201A9F0413ABD4
:1056D000351B08AD041AC304131B361B0867041AD4
:1056E0007D041A8B041A9904413240293C1A6B2418
:1056F000A94C9A8F101AA30C13A4553308121AB68A
:105700000832201AD60832041ADA0842264A560805
:1057100013100133201A1A26107210199301190060
:0400000508000131BD
:00000001FF
