:020000040800F2
:1000000030220020450100089D1500089F150008BA
:10001000A3150008A7150008AB1500080000000094
:10002000000000000000000000000000AF15000804
:10003000B115000800000000B3150008B515000850
:100040005F0100085F0100085F0100085F01000810
:100050005F0100085F0100085F0100085F01000800
:100060005F0100085F0100085F0100085F010008F0
:100070005F0100085F0100085F0100085F010008E0
:100080005F0100085F0100085F0100085F010008D0
:100090005F0100085F0100085F0100085F010008C0
:1000A0005F0100085F0100085F0100085F010008B0
:1000B0005F0100085F0100085F0100085F010008A0
:1000C0005F0100085F0100085F0100085F01000890
:1000D0005F0100085F0100085F0100085F01000880
:1000E0005F0100085F0100085F0100085F01000870
:1000F0005F0100085F0100085F0100085F01000860
:100100005F010008B71500085F0100085F010008E3
:100110005F0100085F0100085F0100085F0100083F
:100120005F0100085F0100085F0100085F0100082F
:10013000DFF80CD005F088FC00480047591500088E
:10014000302200200648804706480047FEE7FEE7C9
:10015000FEE7FEE7FEE7FEE7FEE7FEE7FEE7FEE777
:1001600047020008310100080CB500200190009002
:100170006C48006840F480306A49086000BF6948F4
:10018000006800F4003000900198401C0190009835
:1001900018B90198B0F5A06FF1D16248006800F479
:1001A000003010B10120009001E000200090009884
:1001B000012843D15C48006840F010005A490860AB
:1001C0000846006820F0030008600846006840F018
:1001D0000200086053484068524948600846406839
:1001E00048600846406840F48060486008464068BF
:1001F00020F47C1048600846406840F4E8104860ED
:100200000846006840F08070086000BF45480068FC
:1002100000F000700028F9D04248406820F0030048
:10022000404948600846406840F00200486000BF0E
:100230003C48406800F00C000828F9D10CBD10B50E
:10024000FFF792FF10BD10B53648006840F001007E
:1002500034490860084640683449084031494860DC
:1002600008460068324908402E4908600846006880
:1002700020F4802008600846406820F4FE004860B2
:100280004FF41F008860FFF7DAFF4FF00060294944
:10029000086010BD10B5002100200022214B5B68D2
:1002A00003F00C0121B1042906D0082928D107E068
:1002B000214B224C236027E01F4B204C236023E07E
:1002C000184B5B6803F47010164B5B6803F48032C4
:1002D000022303EB904022B9194B4343174C236090
:1002E0000DE0104B5B6803F4003323B1144B434320
:1002F000124C236003E0104B4343104C236003E097
:100300000D4B0E4C236000BF00BF064B5B68C3F370
:1003100003130C4CE15C094B1B68CB40074C23607A
:1003200010BD000000100240002002400000FFF855
:10033000FFFFF6FE08ED00E000127A00000000204A
:1003400000093D000400002031490143314A116099
:10035000704770B5002100230F22C47804B32D4CE0
:10036000246804F4E064C4F5E064210AC1F10403E4
:10037000CA40447804FA03F1847814402143090107
:10038000254C0678A155047804F01F050124AC40E3
:1003900005786D11AD0005F1E025C5F8004109E0D3
:1003A000047804F01F050124AC401C4D067876113A
:1003B00045F8264070BD1A4A0A400243154B1B1FE0
:1003C0001A60704739B1134A121D12680243114B6B
:1003D0001B1D1A6006E00F4A121D126882430D4B66
:1003E0001B1D1A607047042808D14FF0E0210969ED
:1003F00041F004014FF0E022116107E04FF0E021ED
:10040000096921F004014FF0E022116170470000FA
:100410000000FA050CED00E000E400E080E100E0FF
:1004200080FFFF1F01684FF6FE721140016000213E
:10043000016041608160C1608D49884208D18C496A
:100440000839496841F00F01894A083A51608AE049
:1004500087491431884208D185490839496841F0F3
:10046000F001834A083A51607DE081492831884291
:1004700008D17F490839496841F470617C4A083ADB
:10048000516070E07A493C31884208D17849083996
:10049000496841F47041764A083A516063E0744912
:1004A0005031884208D172490839496841F47021B5
:1004B0006F4A083A516056E06D496431884208D16C
:1004C0006B490839496841F47001694A083A51603A
:1004D00049E067497831884208D165490839496857
:1004E00041F07061624A083A51603CE061498842DB
:1004F00006D1011F096841F00F01021F116032E0AF
:100500005C491431884208D15A49091F096841F0F1
:10051000F001584A121F116025E0564928318842DF
:1005200008D15449091F096841F47061514A121FEA
:10053000116018E04F493C31884208D14D49091FEC
:10054000096841F470414B4A121F11600BE04949A0
:100550005031884207D14749091F096841F4702189
:10056000444A121F1160704710B50022026847F616
:10057000F0739A430C6A8B6823430C6923434C69DC
:1005800023438C692343CC6923434C6A23438C6AFD
:1005900023431A430260CB6843600B6883604B6857
:1005A000C36010BD0021016041608160C1600161D4
:1005B00041618161C161016241628162704721B123
:1005C000026842F00102026004E002684FF6FE7326
:1005D0001A40026070471AB103680B43036002E0DF
:1005E00003688B4303607047416070470146486869
:1005F00080B2704701460020002201F080531BB1F9
:100600001C4B083B1A6802E0194B083B1A6802EAC7
:1006100001030BB1012000E00020704700F0805181
:1006200019B11449091F086002E0114908394860EE
:10063000704701460020002201F080531BB10D4B92
:10064000083B1A6802E00A4B083B1A6802EA0103F9
:100650000BB1012000E00020704700F0805119B17B
:100660000449091F086002E00149083948607047E1
:10067000080002400804024030B943F2DB02810066
:10068000A1F1C0410A6005E043F2D2028100A1F16C
:10069000C0410A606FF07042411C8900A1F1C04165
:1006A0000A608100A1F1C041C1F8042170471028FF
:1006B0000AD118214FF020421166402151664FF0B7
:1006C000FC319166D16610E01821F74A1160402193
:1006D0004FF02042C2F884104FF0FC31F24A083249
:1006E00011604FF02042C2F88C1070471820EE497C
:1006F0002031086000200906C1F8A4004FF0FC304A
:10070000E94928310860091D0860091D0860704723
:10071000D0E901121143C2681143026911434269D1
:10072000114382691143C2691143026A1143426A4B
:100730001143826A1143C26A1143026B114302687A
:100740009200A2F1C0421160816808290BD10168B2
:100750008900A1F1C041096841F0400201688900A7
:10076000A1F1C0410A60416B0968426B526841EADD
:100770000211426B926841EA0221426B928941EA7E
:100780000241426B128A41EA0251426B127D41EAF8
:100790000261426B926911430268521C9200A2F1FD
:1007A000C0421160C16AB1F5804F1BD1816B0968ED
:1007B000826B526841EA0211826B926841EA02211F
:1007C000826B128A41EA0251826B127D41EA026118
:1007D000826B9269114302689200A2F1C042C2F892
:1007E000041107E06FF0704201688900A1F1C04177
:1007F000C1F80421704730B500210022002344686D
:1008000044F0080485682C43C5682C4305692C43D3
:10081000456944EA4524856944EA4531C469246848
:10082000C5696D6844EA0524C5692D8944EA054413
:10083000C5692D7B44EA0562046A2468056A6D680F
:1008400044EA0524056A2D8944EA0544056A2D7B9E
:1008500044EA05630468102C05D14FF0204421665A
:10086000A266E36608E0904C21604FF02044C4F893
:1008700088208D4C0C34236030BD016841F010019C
:10088000426841EA4221826841EA4231864A203286
:100890001160C1680968C268526841EA0221C268F1
:1008A000128941EA0241C268127B41EA02617E4A32
:1008B00028321160016909680269526841EA02211F
:1008C0000269128941EA02410269127B41EA02612E
:1008D000754A2C321160416909684269526841EADF
:1008E00002214269128941EA02414269127B41EACE
:1008F00002614FF02042C2F8B01070470021016041
:100900000221416000218160C1600161416181611A
:10091000C16101624FF4805141624900816200214E
:10092000C16201630F21426B1160426B5160FF2174
:10093000426B91600F21426BD160426B1161426B3F
:1009400051610021426B91610F21826B1160826BBA
:100950005160FF21826B91600F21826BD160826BAD
:100960001161826B51610021826B9161704710218E
:100970000160002141608160C1600161416181616C
:10098000FC21C2691160C2695160C2699160C2698B
:10099000D160026A1160026A5160026A9160026A63
:1009A000D16070470021016041608160FC21C26814
:1009B0001160C2685160C2689160C268D16002690A
:1009C000116002695160026991600269D1604269F7
:1009D000116042695160426991604269D16070471B
:1009E00051B18200A2F1C042126842F001038200BC
:1009F000A2F1C042136009E08200A2F1C042126875
:100A00002A4B1A408300A3F1C0431A60704799B182
:100A1000102808D14FF02042126E42F004024FF02D
:100A200020431A661DE0204A126842F004024FF08B
:100A30002043C3F8802014E0102809D14FF0204251
:100A4000126E1A4BDB1E1A404FF020431A6608E064
:100A5000154A1268154BDB1E1A404FF02043C3F8AD
:100A60008020704748B110492031096841F00401E5
:100A70004FF02042C2F8A01009E00B49203109686C
:100A80000A4AD21E11404FF02042C2F8A01070470F
:100A9000B9B110280CD14FF02042126E42F0400242
:100AA0004FF020431A661FE0800000A0FEFF0F00F9
:100AB000724A126842F040024FF02043C3F880208F
:100AC00012E0102808D14FF02042126E6C4B1A40F1
:100AD0004FF020431A6607E0684A1268684B1A40D4
:100AE0004FF02043C3F880207047014600201029B2
:100AF00003D14FF02042506F02E0604A1432106878
:100B0000704710B5F2B1102807D14FF020435B6E4B
:100B10000B434FF02044636632E0B0F5807F08D18C
:100B2000564B1B1D1B680B434FF02044C4F8843008
:100B300026E0524B24331B680B434FF02044C4F88B
:100B4000A4301DE0102807D14FF020435B6E8B438B
:100B50004FF02044636613E0B0F5807F08D1474B27
:100B60001B1D1B688B434FF02044C4F8843007E002
:100B7000424B24331B688B434FF02044C4F8A4300D
:100B800010BD10B5024600200023102A03D14FF0FB
:100B90002044636E09E0B2F5807F03D1374C241DF9
:100BA000236802E0354C2434236803EA01040CB1C5
:100BB000012000E0002010BD102807D14FF0204296
:100BC000526E8A434FF020435A6613E0B0F5807F9F
:100BD00008D12A4A121D12688A434FF02043C3F8F5
:100BE000842007E0254A243212688A434FF02043CC
:100BF000C3F8A420704770B50246002000230024EB
:100C00000025102A03D14FF02046736E09E0B2F59B
:100C1000807F03D1194E361D336802E0174E24360B
:100C2000336803EA010403EAD10514B10DB10120D0
:100C300000E0002070BD102808D14FF02042526E15
:100C400022EAD1024FF020435A6615E0B0F5807FCA
:100C500009D10A4A121D126822EAD1024FF020433C
:100C6000C3F8842008E0054A2432126822EAD1023F
:100C70004FF02043C3F8A42070470000800000A07C
:100C8000BFFF0F0010B50446CC48844208D10121B3
:100C9000042000F02DFB0021042000F029FB46E099
:100CA000C748844208D10121082000F021FB00211F
:100CB000082000F01DFB3AE0C248844208D101211F
:100CC000102000F015FB0021102000F011FB2EE099
:100CD000BD48844208D10121202000F009FB0021F9
:100CE000202000F005FB22E0B848844208D1012111
:100CF000402000F0FDFA0021402000F0F9FA16E053
:100D0000B348844208D10121802000F0F1FA00218B
:100D1000802000F0EDFA0AE0AE48844207D10121BC
:100D2000801500F0E5FA0021A01500F0E1FA10BDF1
:100D300010B50121084600F0DBFA0021012000F087
:100D4000D7FA10BD2DE9F04102460025002600200B
:100D500000230024002791F803C00CF00F0591F840
:100D600003C00CF0100CBCF1000F03D091F802C0CE
:100D70004CEA050591F800C0BCF1000F31D01468B1
:100D800000202BE04FF0010C0CFA00F3B1F800C08A
:100D90000CEA03069E4220D183004FF00F0C0CFAA0
:100DA00003F7BC4305FA03FC4CEA040491F803C0C2
:100DB000BCF1280F06D14FF0010C0CFA00FCC2F870
:100DC00014C00AE091F803C0BCF1480F05D14FF000
:100DD000010C0CFA00FCC2F810C0401C0828D1D34A
:100DE0001460B1F800C0BCF1FF0F34DD546800207E
:100DF0002EE000F1080C4FF0010808FA0CF3B1F8EE
:100E000000C00CEA03069E4221D183004FF00F0C74
:100E10000CFA03F7BC4305FA03FC4CEA040491F80E
:100E200003C0BCF1280F05D100F1080C08FA0CF83A
:100E3000C2F8148091F803C0BCF1480F07D100F14B
:100E4000080C4FF0010808FA0CF8C2F81080401C9A
:100E50000828CED35460BDE8F0814FF6FF710180C1
:100E6000022181700421C1707047024600209368FE
:100E70000B400BB1012000E000207047014688685C
:100E800080B2704702460020D3680B400BB10120AE
:100E900000E0002070470146C86880B270470161D9
:100EA0007047416170470AB1016100E041617047DC
:100EB000C16070474FF480320A4382618161826170
:100EC00082698269704702460020434B18684FF6DA
:100ED0008073184040EA021008433F4B1860704787
:100EE0003E49C8617047F0B50A460023002400213E
:100EF000002500F00046B6F1004F02D1364EF169F0
:100F000001E0354E7168C0F3034583B200F440162A
:100F1000B6F5401F08D121F070612F4E766826F09B
:100F200070662D4F7E6012E000F48016B6F5801FCB
:100F300006D1032606FA05F4A14341F0706106E0EC
:100F4000460D360103FA06F6B14341F0706122B155
:100F5000460D360103FA06F6314300F00046B6F1BD
:100F6000004F02D11C4EF16101E01B4E7160F0BDDB
:100F700030B500228B071C0F0F2303FA04F2164B27
:100F800008338C1053F824309343134C08348D10DD
:100F900044F8253023468C1053F824308C07240F56
:100FA00000FA04F423430C4C08348D1044F8253027
:100FB00030BD0A49DC31086070470000000801407C
:100FC000000C0140001001400014014000180140D5
:100FD000001C0140002001400000014000002042B0
:100FE000DF48006840F00100DD49086008464068BD
:100FF000DC490840DA49486008460068DA49084098
:10100000D74908600846006820F480200860084638
:10101000406820F4FE0048604FF41F00886070476D
:10102000CF49096821F48031CD4A11601146096821
:1010300021F480211160B0F5803F03D0B0F5802FFE
:101040000ED106E0C649096841F48031C44A1160F6
:1010500007E0C349096841F4A021C14A116000E0DA
:1010600000BF00BF704710B50146002200230020DA
:101070004A11012A02D1BA4C236806E0022A02D1A1
:10108000B74C236A01E0B64C636A01F01F020124E9
:1010900094401C400CB1012000E0002010BD38B588
:1010A000002000900024002500BF3120FFF7DBFF67
:1010B00005460098401C00900098B0F5A06F01D044
:1010C000002DF2D03120FFF7CEFF08B1012400E05F
:1010D0000024204638BD01460020A14A106820F0B7
:1010E000F80040EAC10010607047A04908607047EE
:1010F000024600209A4B586820F47C1042EA010313
:101100001843974B586070479849086670470146E6
:101110000020934A506820F0030008435060704755
:101120008F48406800F00C007047014600208C4A50
:10113000506820F0F00008435060704701460020DE
:10114000874A506820F4E0600843506070470146C9
:101150000020834A506820F4605040EAC10050608B
:10116000704729B17E4A527A02437D4B5A7204E09D
:101170007B4A527A82437A4B5A7270477B49D83104
:101180000860704701460020754A506820F44040CE
:101190000843506070470021714A20321170704A34
:1011A00082F82010012802D004280AD104E001218D
:1011B0006B4A2032117005E00521694A2032117016
:1011C00000E000BF00BF704769490860704764498C
:1011D000096A0143624A11627047654944390860EF
:1011E000704730B500210022002400235C4D6D685B
:1011F00005F00C0121B1042905D0082923D105E00F
:101200005C4D056022E05B4D05601FE0544D6D684C
:1012100005F47012524D6D6805F48034022505EB1B
:1012200092421CB9544D554305600BE04C4D6D681E
:1012300005F400351DB1504D5543056002E04D4D9C
:101240005543056002E04B4D056000BF00BF444DB3
:101250006D6805F0F0010909484D6B5C0568DD40DB
:1012600045603F4D6D6805F4E061090A434D6B5CD4
:101270004568DD4085603A4D6D6805F46051C90AE6
:101280003E4D6B5C4568DD40C560354D6D6805F4CD
:101290004041890B3A4D6B5CC568B5FBF3F50561C0
:1012A00030BD29B12E4A526902432D4B5A6104E0E8
:1012B0002B4A526982432A4B5A61704729B1284A06
:1012C00092690243264B9A6104E0254A926982435F
:1012D000234B9A61704729B1214AD2690243204BBE
:1012E000DA6104E01E4AD26982431D4BDA6170471D
:1012F00029B11B4AD2680243194BDA6004E0184A4C
:10130000D2688243164BDA60704729B1144A1269D9
:101310000243134B1A6104E0114A12698243104BD5
:101320001A61704712494039086070470F49C86414
:1013300070470B49C87170470948406A40F0807097
:1013400007494862704701460020054A92680A40F2
:101350000AB1012000E000207047014988727047FF
:10136000001002400000FFF8FFFFF6FE00004242BE
:101370008004424200127A0000093D00140000205F
:101380002400002000206F49086048608860C86021
:1013900048628862C8626C4888630020C8637047EE
:1013A0000021684A516847F6FF629143027D8368D5
:1013B0001A4343681A43C3681A4303681A4303690C
:1013C0001A4311435F4A5160704700210175016063
:1013D00041608160C160016170475C49086070478D
:1013E0005849096821F00301564A116011460968FD
:1013F0000143116070475348006800F003007047D4
:1014000029B1504AD26B02434E4BDA6304E04D4A95
:10141000D26B82434B4BDA6370474D49086070478B
:101420000021484B02689A601A46D1686FF30A019E
:10143000D0E901231A43C3681A4303691A431143CD
:10144000404AD16070470021016041608160C16005
:10145000016170473B480069C0B2704708B501465A
:10146000002000903748143008440090009800682D
:1014700008BD0021334B02685A6242689A621A46DC
:10148000D16A21F0F701D0E902231A4303691A4314
:1014900043691A4311432B4AD16270474FF0FF3121
:1014A0000160002141608160C1600161416170475C
:1014B0002448006B704723488030006870472149FA
:1014C0008031086070471F48806C70472049143194
:1014D000086070471E491831086070471C491C316C
:1014E000086070471A492031086070471949086040
:1014F00070471849091D0860704701218143154A4A
:1015000008321160704713490C310860704701467A
:1015100000200C4A526B0A400AB1012000E0002072
:10152000704708498863704701460020054A526B9E
:101530000A400AB1012000E0002070470149886399
:101540007047000000800140FF07C000A00030424B
:101550008C053042AC01304208B501F011FD03208A
:1015600001F018FD0020F0234FF4A0720146009016
:1015700001F0AEFD01F084FF05A0F0234FF4A0724E
:1015800000210090084602F085F900BFFEE7000048
:101590002F6D7973637265656E000000704700BF40
:1015A000FEE700BFFEE700BFFEE700BFFEE77047B3
:1015B00070477047704710B501F004FB10BD000084
:1015C00008B50020FFF709FF0020FFF709FFFFF72C
:1015D000D9FE00214FF48060FFF763FE4FF4F8500E
:1015E000ADF8000004208DF803006946FC48FFF7C1
:1015F000A9FB0420ADF800006946FA48FFF7A2FBFA
:1016000008BD08B54FF4C060FEF79EFE31208DF88E
:10161000000000208DF801008DF8020001208DF8F7
:1016200003006846FEF795FE08BD10B5EE48FEF7CC
:10163000E1FF10BD30B58BB005460C46EB48FEF718
:10164000EDFF0021EA48FEF7BAFFEA480090019555
:1016500000200290A00803900020049080200590B4
:101660008000069080000790002008904FF4005002
:10167000099000200A906946DD48FEF775FF0121B8
:10168000DB48FEF79CFF0BB030BD30B58BB0054694
:101690000C46D648FEF7C2FF0021D548FEF78FFF63
:1016A000D4480090019510200290A00803900020DB
:1016B0000490802005908000069080000790002014
:1016C00008904FF40050099000200A906946C848DD
:1016D000FEF74AFF0121C648FEF771FF0BB030BD8F
:1016E00008B501213020FFF7E9FD4FF4F850ADF8BF
:1016F000000003208DF8020018208DF803006946D1
:10170000B748FFF71FFB0420ADF800006946B54855
:10171000FFF718FB01218802FFF7C3FD012102201A
:10172000FFF7BFFD08BD014600BFB2488038406BDF
:1017300000F045000028F8D040F2FF50AD4A803A52
:1017400090631046406908221040C0B270472DE9EE
:10175000FC4107460D460026002400200090019021
:101760000820A549086010204860402088600020BB
:10177000C8604FF4806008610846FFF751FE1020F2
:10178000FFF7D1FF044614B12046BDE8FC819B4819
:10179000008800049849086037204860402088602D
:1017A0000020C8604FF4806008610846FFF738FEEB
:1017B0003720FFF7B8FF04460CB12046E5E74FF0AD
:1017C000FF308F4908600820486030208860022080
:1017D000C86000200861012048610846FFF749FE03
:1017E0000020854908603320486040208860002040
:1017F000C8604FF4806008610846FFF711FE33208F
:10180000FFF791FF04460CB12046BEE70CE04FF411
:101810000010FFF77CFE38B1FFF74DFE4DF82600B3
:10182000761C012E00D907E072488038406B40F2E8
:101830002A6108400028EAD000BF0820FFF767FEB1
:1018400028B10820FFF76DFE042420469DE7022002
:10185000FFF75DFE28B10220FFF763FE0224204659
:1018600093E72020FFF753FE28B12020FFF759FE11
:101870000624204689E74FF40070FFF748FE30B198
:101880004FF40070FFF74DFE072420467DE740F23D
:10189000FF50FFF746FE00980006009901F47F41D3
:1018A00040EA0120009901F47F0140EA11200099EB
:1018B00040EA1160686001980006019901F47F41D7
:1018C00040EA0120019901F47F0140EA11200199C9
:1018D00040EA11602860204657E77CB505460024A1
:1018E000002000900190FFF7B9FD00F0007010B1EA
:1018F0000E2420467CBD4149098888B26946FFF71D
:1019000026FF04460CB12046F4E7012D36D101989C
:1019100000F4802000282ED0384800880004364982
:10192000086037204860402088600020C860A80216
:1019300008610846FFF774FD3720FFF7F4FE044600
:101940000CB12046D6E702202B49086006204860EB
:10195000402088600020C8604FF48060086108461D
:10196000FFF75EFD0620FFF7DEFE04460CB12046C1
:10197000C0E72046BEE725242046BBE7019800F4D7
:101980008030F8B31D48008800041B4908603720E8
:101990004860402088600020C8604FF48060086183
:1019A0000846FFF73DFD3720FFF7BDFE04460CB1AA
:1019B00020469FE70020104908600620486040202C
:1019C00088600020C8604FF4806008610846FFF717
:1019D00027FD0620FFF7A7FE0446A4B1204689E7AD
:1019E00000100140001401400020001000F0001021
:1019F0004404024080800140F00400202C000020BC
:101A00000405002001E0204674E72524204671E704
:101A100070B504460025FB480068032802D127253D
:101A2000284670BDF748006838B1F64800680128BC
:101A300003D0F448006802282ED1B4F5805F02D1AB
:101A400027252846EDE7B4F5006F14D10120FFF7F4
:101A500044FF054605BB0120EB49087500200860DE
:101A6000486088604FF40060C86000200861084644
:101A7000FFF796FC10E00020FFF72FFF05465DB949
:101A80000120E14908750020086048608860C8604E
:101A900008610846FFF784FC2846C2E770B5044693
:101AA0000025DA4804600720D84948604020886053
:101AB0000020C8604FF4806008610846FFF7B0FC62
:101AC0000720FFF730FE0546284670BD30B50146B9
:101AD00000200022CB4B1B7881F84E30CC4B1B886A
:101AE000A1F84C30CB4B1B681A0E93090B70C2F354
:101AF00083034B7002F003038B70C64B1B68C3F368
:101B00000742CA70C34B1B88C3F307220A71C14B3B
:101B10001A784A715B681A0E1301CB80BD4B5B6863
:101B2000C3F30742CB8843EA1213CB8002F00F03C2
:101B30000B72B84B9B88C3F30722D3094B72C2F3D5
:101B400080138B72C2F34013CB72C2F300130B737A
:101B500000234B73AB4B1B681BB1AA4B1B68012BBB
:101B60003CD193071B0D0B61AA4B1A790B6943EA11
:101B700082030B61A74B9B681A0E0B6943EA921311
:101B80000B61C2F3C2030B7502F007034B75A14B47
:101B90009B68C3F3074253098B75C2F38203CB756D
:101BA00093075B0F0B769B4B1B89C3F307220B7EBE
:101BB00043EAD2130B760B695B1C4B640C7E4B6CB7
:101BC000A41C0125A5406B434B640C7A0123A34060
:101BD0008B64D1E9113463434B6421E0894B1B686A
:101BE000022B1DD18B4B1A7993069B0A0B61894BF3
:101BF0009B681A0E0B6943EA02230B61854B9B68B5
:101C0000C3F307420B6913430B61824B1B89C3F378
:101C100007220B695B1CDB044B644FF400738B647D
:101C2000C2F3801301F8193F93065B0E4B70794B9A
:101C30001A7A4B7843EAD2134B7002F07F038B7011
:101C4000744BDB681A0ED309CB70C2F341130B71CE
:101C5000C2F382034B7193071B0F8B716D4BDB68D3
:101C6000C3F307428B7943EA92138B71C2F340139B
:101C7000CB7100230B7202F001034B72654B9B8901
:101C8000C3F30722D3098B72C2F38013CB72C2F362
:101C900040130B73C2F300134B73C2F381038B73B6
:101CA00002F00303CB735B4B1A7B53080B740123C5
:101CB0004B74594B1B681A0ECA741939564B1B6862
:101CC000C3F307421402CC85534B1B88C3F307228E
:101CD000CB8D1343CB85504B1A7814060C635B688D
:101CE0001A0E0B6B43EA02440C634B4B5B68C3F365
:101CF00007420B6B43EA02240C63474B9B88C3F3F8
:101D000007220B6B13430B63434B1A7934235A544A
:101D1000414B9B681A0E35235A543F4B9B68C3F3C3
:101D2000074214068C633C4B1B89C3F307228B6B61
:101D300043EA02448C63384B1A7A8B6B43EA0224E1
:101D40008C63354BDB681A0E8B6B13438B63324B02
:101D5000DB68C3F307423C235B5C43EA12143C2379
:101D60005C5413071C0DCC872B4B9B89C3F30722B4
:101D7000CB8F1343CB87284B1A7B540840235C54EA
:101D8000012441235C5430BD70B500252348446BC9
:101D900001E02248446B04F045000028F9D004F02B
:101DA000040028B103250420FFF7BBFB284670BDC3
:101DB00004F0010028B101250120FFF7B2FB2846FD
:101DC000F5E740F2FF50FFF7ACFB2846EFE72DE9BF
:101DD000F04106460F464FF000081048456B01E001
:101DE0000E48456B05F045000028F9D005F00400C9
:101DF000B0B14FF003080420FFF793FB4046BDE865
:101E0000F081000028000020D8040020F004002009
:101E10002C000020580400206804002000800140AD
:101E200005F0010030B14FF001080120FFF779FB08
:101E30004046E4E7FFF70EFBB04203D04FF0100836
:101E40004046DCE740F2FF50FFF76BFB0020FFF756
:101E500005FB044604F4604018B9200C3880404665
:101E6000CDE704F4005008B11320C8E704F4804023
:101E700008B11020C3E704F4004008B10F20BEE70A
:101E80004046BCE738B5002401200090FFF7B3FAC4
:101E900010B92524204638BDF7480068042828D00A
:101EA0000020F649086002204860C02088600020B9
:101EB000C8604FF4806008610846FFF7B1FAFFF789
:101EC00063FF04460CB12046E5E70020FFF7C6FAA1
:101ED000EB4908600420FFF7C1FAE949486008208F
:101EE000FFF7BCFAE64988600C20FFF7B7FAE4492F
:101EF000C860E148006858B1DF480068012807D091
:101F0000DD480068062803D0DB480068022816D1A7
:101F10000020DA49086003204860402088600020E3
:101F2000C8604FF4806008610846FFF779FA694697
:101F30000320FFF74CFF04460CB12046ABE7CE4828
:101F4000006804282ED0BDF80000CE490860BDF816
:101F500000000004C949086009204860C02088606A
:101F60000020C8604FF4806008610846FFF758FA07
:101F7000FFF70AFF04460CB120468CE70020FFF76C
:101F80006DFAC14908600420FFF768FABE4948604D
:101F90000820FFF763FABC4988600C20FFF75EFA5F
:101FA000B949C8600024204675E770B50025B748D8
:101FB000446B01E0B548446B04F045000028F9D0BB
:101FC00004F0040028B103250420FFF7AAFA2846EC
:101FD00070BD40F2FF50FFF7A4FA2846F8E770B54D
:101FE00000264FF48035A948446B02E06D1EA748D7
:101FF000446B04F0450008B9002DF7D115B104F089
:10200000040028B103260420FFF78BFA304670BD88
:1020100004F0400028B100264020FFF782FA304645
:10202000F5E73046F3E770B500254FF4803400E063
:10203000641E24B18020FFF76AFA0028F8D014B992
:102040000325284670BD40F2FF50FFF76AFA284684
:10205000F8E72DE9F0410024002600250027A046DE
:10206000B2208B4908750020086048608860C8600D
:1020700008610846FFF794F90320FFF7B1F9012042
:10208000FFF7ABF900207D49086048608860C860B0
:102090004FF4806008610846FFF7C2F9FFF7C3FFFD
:1020A000044614B12046BDE8F0814FF4D570734961
:1020B000086008204860402088600020C8604FF415
:1020C000806008610846FFF7ABF9FFF788FF044618
:1020D0002CB90120684908604FF0804812E00020C8
:1020E0006649086037204860402088600020C8604A
:1020F0004FF4806008610846FFF792F93720FFF738
:1021000012FB044600205D490860372048604020EB
:1021100088600020C8604FF4806008610846FFF7BF
:102120007FF93720FFF7FFFA0446002C4AD136E04A
:102130000020524908603720486040208860002015
:10214000C8604FF4806008610846FFF769F93720DE
:10215000FFF7E9FA04460CB12046A4E74D4848EAE7
:10216000000046490860292048604020886000201F
:10217000C8604FF4806008610846FFF751F9FFF727
:1021800014FF04460CB120468DE70020FFF766F9E6
:102190000646012080EAD67080F001076D1C1FB949
:1021A0004FF6FF708542C3D34FF6FF70854202D3CE
:1021B0001B24204677E706F08040060002D002206C
:1021C0002D49086020466EE710B50024FFF788FA15
:1021D000FFF7D8F8FFF73DFF04460CB1204610BDCD
:1021E000FFF750FE04460CB12046F8E701202849CD
:1021F00008750020086048608860C860086108466B
:10220000FFF7CEF81CB92448FFF760FC044634B948
:102210002149B1F84C100804FFF740FC044624B9EA
:102220004FF40060FFF7F4FB04462046D7E770B593
:10223000044600251348008800041449886040F2D1
:102240004D40C8600D20FFF76EFA05460DB12846D7
:1022500070BD0E48406920602846F9E708B50020A7
:1022600000906846FFF7E3FF08B1FF2008BD009823
:10227000C0F34320FAE7000028000020F00400200B
:10228000680400202C000020580400200080014039
:10229000D8040020000010808804002010B5042419
:1022A000FFF7DCFF0446042C01D1002010BDFF2CF9
:1022B00001D10220FAE70120F8E710B50024002040
:1022C000FFF78EF8204610BD70B5044600250026A5
:1022D0000020FFF7C3F800F0007010B10E2528466B
:1022E00070BD4020FC490860102048604020886094
:1022F0000020C8604FF4806008610846FFF790F83E
:102300001020FFF710FA05460DB12846E8E7F3481C
:1023100000880004F0490860372048604020886049
:102320000020C8604FF4806008610846FFF778F825
:102330003720FFF7F8F905460DB12846D0E74FF0F2
:10234000FF30E74908604020486060208860022034
:10235000C86000200861012048610846FFF789F83D
:102360000020DD4908600D20486040208860002082
:10237000C8604FF4806008610846FFF751F80D20EF
:10238000FFF7D1F905460DB12846A9E70EE04FF455
:102390000040FFF7BCF848B1002604E0FFF78BF8D7
:1023A00044F82600761C082EF8D32034CD48406B24
:1023B00040F22A6108400028E9D00820FFF7A7F87A
:1023C00028B10820FFF7ADF80425284688E7022049
:1023D000FFF79DF828B10220FFF7A3F80225284651
:1023E0007EE72020FFF793F828B12020FFF799F827
:1023F0000625284674E74FF40070FFF788F830B1DF
:102400004FF40070FFF78DF80725284668E703E0D2
:10241000FFF751F82060241D4FF40010FFF777F804
:102420000028F5D140F2FF50FFF77BF8284657E728
:1024300070B5044600260025AB48FFF745FF064669
:102440000EB1304670BDA848007885092570A648B1
:102450000078C0F340156570A34885782802608035
:10246000A148C5786088284360809F480579280680
:1024700060609D484579606840EA054060609A4820
:102480008579606840EA052060609748C579606892
:10249000284360609448057A2572457A6572807A8F
:1024A0000509A5729048C57A2802A0818E48057B4F
:1024B000A0892843A0818C48407B8508A5738A4861
:1024C000407B00F00305E5733046BBE72DE9F041A2
:1024D00007460D46144600260020844908708449AA
:1024E0000860844908607F49C86283480068022800
:1024F00001D104026D0A78480460102076494860D2
:10250000402088600020C8604FF480600861084661
:10251000FEF786FF1020FFF706F9064616B1304693
:10252000BDE8F0814FF0FF306D4908600846446017
:10253000902088600220C860002008610120486166
:102540000846FEF796FF644805601120624948601E
:10255000402088600020C8604FF480600861084611
:10256000FEF75EFF1120FFF7DEF806460EB130469B
:10257000D6E701210802FEF743FF0120FEF74DFFD9
:1025800021463846FFF756F83046C9E72DE9F041B5
:1025900080460D4614461E46002700205349087009
:1025A0005349086001205349086000204D49C86222
:1025B00051480068022801D104026D0A46480460AF
:1025C000102045494860402088600020C8604FF4D2
:1025D000806008610846FEF723FF1020FFF7A3F88C
:1025E000074617B13846BDE8F0814FF0FF303C494F
:1025F000086006FB04F04860902088600220C860F4
:1026000000200861012048610846FEF732FF324889
:102610000560122030494860402088600020C86072
:102620004FF4806008610846FEF7FAFE1220FFF7BB
:102630007AF807460FB13846D5E701210802FEF7C0
:10264000DFFE0120FEF7E9FE06FB04F14046FEF73F
:10265000F1FF3846C7E710B5002400BFFEF7E5FFDD
:1026600030B92348006818B9204800780028F5D010
:102670001E48007810B11D48007810BD2046FCE7C8
:102680002DE9F04107460D46144600260020174963
:10269000087017490860174908601249C86216484F
:1026A0000068022801D104026D0A0B480460102062
:1026B00009494860402088600020C8604FF480606D
:1026C00008610846FEF7ACFE1020FFF72CF806461E
:1026D000A6B13046BDE8F081F00400202C000020B7
:1026E0000405002000800140780400203400002010
:1026F000380000203000002028000020FE4805603F
:102700001820FD494860402088600020C8604FF4D0
:10271000806008610846FEF783FE1820FFF703F883
:1027200006460EB13046D5E74FF0FF30F34908605A
:1027300008464460902088600020C860086101203D
:1027400048610846FEF795FE01210802FEF758FE93
:1027500021463846FEF799FF0120FEF75EFE30461F
:10276000B8E72DE9F84380460F4615461E4600247B
:1027700000200090E2490870E24908600120E24927
:1027800008600020E149C862E1480068022801D1E0
:1027900005027F0AD84805601020D74948604020CC
:1027A00088600020C8604FF4806008610846FEF72A
:1027B00037FE1020FEF7B7FF044614B12046BDE8EF
:1027C000F883D44800880004CB490860372048606B
:1027D000402088600020C8604FF48060086108468F
:1027E000FEF71EFE3720FEF79EFF04460CB1204682
:1027F000E5E7C14806601720BF494860402088606F
:102800000020C8604FF4806008610846FEF708FEAB
:102810001720FEF788FF04460CB12046CFE7B648E4
:1028200007601920B4494860402088600020C860D3
:102830004FF4806008610846FEF7F2FD1920FEF7AC
:1028400072FF04460CB12046B9E74FF0FF30AB49A8
:10285000086006FB05F04860902088600020C86092
:102860000861012048610846FEF703FE01210802C5
:10287000FEF7C6FD0120FEF7D0FD06FB05F1404640
:10288000FEF703FF20469AE710B5002400BFFEF7CD
:10289000CCFE30B99B48006818B9994800780028E8
:1028A000F5D09748007810B19548007810BD40F2F7
:1028B000FF50FEF736FE2046F8E79448406B00F4E0
:1028C000405008B1012070470020FCE710B50024FB
:1028D00000208E49886040F24C40C8600C20FEF712
:1028E00022FF0446204610BD7CB50446002500208A
:1028F000019000908748008800047F4908600D20FF
:102900004860402088600020C8604FF48060086103
:102910000846FEF785FD7D48406B009002E07B484D
:10292000406B0090009800F045000028F7D0009818
:1029300000F0040028B103250420FEF7F2FD28462C
:102940007CBD009800F0010028B101250120FEF7B0
:10295000E8FD2846F4E7FEF77DFD009000980D287D
:1029600002D010252846EBE740F2FF50FEF7D9FDD4
:102970000020FEF773FD01900198C0F34320207002
:1029800065490198084008B92846D9E7019800F040
:10299000004008B11C20D3E7019800F0804008B146
:1029A0000920CDE7019800F0005008B10A20C7E7E0
:1029B000019800F0805008B10B20C1E7019800F0A9
:1029C000006008B10C20BBE7019800F0806008B1FE
:1029D0000D20B5E7019800F0807008B10E20AFE738
:1029E000019800F4000008B10F20A9E7019800F455
:1029F000800008B11020A3E7019800F4001008B18E
:102A000011209DE7019800F4801008B1122097E78B
:102A1000019800F4002008B1132091E7019800F418
:102A2000802008B114208BE7019800F4003008B131
:102A3000152085E7019800F4803008B116207FE763
:102A4000019800F4004008B1172079E7019800F4DC
:102A5000804008B1182073E7019800F4005008B1D5
:102A600019206DE7019800F0080008B11A2067E707
:102A7000284665E72DE9FC4105460E46002400275F
:102A800000200190009025484068202101EA105064
:102A900018B925242046BDE8FC811C484068C0B216
:102AA000801C1F49B1FBF0F001900020FEF7D6FC1E
:102AB00000F0007010B10E242046ECE714480068C6
:102AC000022801D16D0A760A1148006838B1104811
:102AD0000068012803D00E480068022842D1064849
:102AE0000560202004494860402088600020C860BC
:102AF0004FF48060086115E0F00400200405002018
:102B00003400002038000020300000200080014008
:102B1000280000202C00002008E0FFFD58040020C1
:102B2000C0D401000846FEF77BFC2020FEF7FBFD29
:102B300004460CB12046AEE73848066021203749EC
:102B40004860402088600020C8604FF480600861C1
:102B50000846FEF765FC2120FEF7E5FD04460CB1B2
:102B6000204698E700202D49086026204860402034
:102B700088600020C8604FF4806008610846FEF756
:102B80004FFC2620FEF7CFFD04460CB1204682E71D
:102B9000002700E07F1C01988742FBD36846FFF7BF
:102BA000A3FE044603E06846FFF79EFE04463CB9D8
:102BB0009DF800000728F6D09DF800000628F2D006
:102BC000204668E710B51648006801280BD10020A0
:102BD0001449886040F24C40C8600C20FEF7A3FD09
:102BE0001149087002E000200F4908704FF480700E
:102BF000FEF7A4FC00214FF48070FEF701FC0120D9
:102C00000A4908600848007810BD0146002002E02B
:102C10004910421CD0B20129FAD17047F0040020BB
:102C200030000020008001403400002038000020E7
:102C300001B502E00098401E009000980028F9D1EC
:102C400008BD08B501210802FEF72BFB01214FF456
:102C5000F470FEF733FB10208DF8030003208DF88D
:102C600002000220ADF800006946FE48FEF76AF84F
:102C70004FF40060ADF800006946FB48FEF762F8CB
:102C800003208DF8020018208DF803004CF2037029
:102C9000ADF800006946F548FEF754F84FF680702D
:102CA000ADF800006946F248FEF74CF81020ADF888
:102CB00000006946ED48FEF745F82020ADF8000019
:102CC0006946EA48FEF73EF84FF48050ADF8000040
:102CD0006946E548FEF736F80420ADF8000069467D
:102CE000E348FEF72FF80221DE48FEF7DAF808BDC8
:102CF00000B597B0022001900020029005200390BB
:102D000000200490059006904FF080500790062018
:102D100008900020099008200A9010200B900020B5
:102D20000C900E900F9010904FF480501190002056
:102D300012901390149001A81590169008A8FDF712
:102D4000E7FC01210620FDF74BFE17B000BD10B5D2
:102D50004FF40061C448FEF7A4F8C648FFF768FFC7
:102D60004FF40061C048FEF79AF8C248FFF760FFD1
:102D700010BD00B5CF204FF0D841088000204FF0A3
:102D8000DA4108808120088030200880ED204FF053
:102D9000D841088064204FF0DA4108800320088081
:102DA0001220088081200880E8204FF0D841088058
:102DB00085204FF0DA4108801020088078200880B4
:102DC000CB204FF0D841088039204FF0DA410880FD
:102DD0002C200880002008803420088002200880F1
:102DE000F7204FF0D841088020204FF0DA410880CA
:102DF000EA204FF0D841088000204FF0DA410880E7
:102E00000880B1204FF0D841088000204FF0DA410F
:102E100008801B200880B620410608800A204FF059
:102E2000DA410880A2200880C0204FF0D8410880F5
:102E300035204FF0DA410880C1204FF0D84108809A
:102E400011204FF0DA410880C5204FF0D8410880AA
:102E500045204FF0DA4108800880C7204FF0D84164
:102E60000880A2204FF0DA410880F2204FF0D841CC
:102E7000088000204FF0DA41088026204FF0D8412A
:102E8000088001204FF0DA410880E0204FF0D8415F
:102E900008800F204FF0DA41088026200880242087
:102EA00008800B2008800E2008800920088054200C
:102EB0000880A8200880462008800C200880172061
:102EC0000880092008800F20088007200880002043
:102ED0000880E1204FF0D841088000204FF0DA410F
:102EE0000880192008801B200880042008801020FA
:102EF0000880072008802A20088047200880392081
:102F00000880032008800620088008803020088080
:102F1000382008800F200880362041060880C8200D
:102F20004FF0DA4108802A204FF0D8410880002075
:102F30004FF0DA41088008800880EF2008802B20BD
:102F40004FF0D841088000204FF0DA410880088017
:102F5000012008803F2008803A204FF0D8410880A7
:102F600055204FF0DA41088011204FF0D8410880F9
:102F70004048FFF75DFE29204FF0D841088000BD92
:102F800010B5FFF75EFEFFF7B3FEFFF7E0FEFFF7B9
:102F9000F0FE10BD012806D0022825D0032844D019
:102FA000042820D16DE036214A061180C8214FF057
:102FB000DA4211802A214FF0D842118000214FF0CF
:102FC000DA42118011801180EF2111802B214FF006
:102FD000D842118000214FF0DA4211801180012186
:102FE00011803F2111806DE036214A061180682151
:102FF0004FF0DA4211802A214FF0D842118000218F
:103000004FF0DA4211801180012111803F2111809F
:103010002B214FF0D842118000214FF0DA4211806D
:1030200011801180EF2111804CE036214A06118079
:1030300028214FF0DA4211802A214FF0D842118026
:1030400000214FF0DA4211801180012111803F21CF
:1030500011802B214FF0D842118000214FF0DA422D
:10306000118009E0000C01400020014000140140E3
:1030700000180140FCBF020011801180EF21118077
:1030800020E036214A06118048214FF0DA421180B3
:103090002A214FF0D842118000214FF0DA421180EE
:1030A00011801180EF2111802B214FF0D842118027
:1030B00000214FF0DA4211801180012111803F215F
:1030C000118000BF00BF2C214FF0D8421180704703
:1030D000F0B5059D00242A264FF0D8473E80061201
:1030E0004FF0DA473E80C6B23E808618761EC6F3A1
:1030F0000F263E808618761EF6B23E802B264FF0B5
:10310000D8473E800E124FF0DA473E80CEB23E8066
:10311000CE18761EC6F30F263E80CE18761EF6B267
:103120003E802C264FF0D8473E8000BF03E04FF092
:10313000DA463580641C02FB03F6A642F7D8F0BDE0
:103140002A224FF0D8431A8002124FF0DA431A8035
:10315000C2B21A8002121A80C2B21A802B224FF019
:10316000D8431A800A124FF0DA431A80CAB21A8082
:103170000A121A80CAB21A80704730B52A244FF05A
:10318000D8452C8004124FF0DA452C80C4B22C8034
:103190008418641EC4F30F242C808418641EE4B2C7
:1031A0002C802B244FF0D8452C800C124FF0DA45A0
:1031B0002C80CCB22C80CC18641EC4F30F242C803D
:1031C000CC18641EE4B22C802C244FF0D8452C80FF
:1031D00030BD70B505460E46144631462846FFF709
:1031E000AFFF2C204FF0D84108804FF0DA40048028
:1031F00070BD10B50021002200234FF0DA40018895
:10320000018803880288C812C002941240EA441060
:1032100040EAE32010BD30B504460D46294620465D
:10322000FFF78EFF2E204FF0D8410880FFF7E1FF17
:1032300030BD2DE9F04F81468A4615461E46A5F160
:1032400020001FFA80FB0C23062251464846FFF758
:1032500094FF2C204FF0D841088000241BE00BEB9A
:103260004B00864901EB800010F8048000270EE037
:1032700008F0010018B14FF0DA40068003E00020AA
:103280004FF0DA4108804FEA6808781C87B2062FB1
:10329000EEDB601C84B20C2CE1DBBDE8F08FF0B5F6
:1032A00005460E4614461F4613E0EA2D03DD0025B1
:1032B00006F10C0086B2B6F59A7F01DD00250026E6
:1032C00022783B4631462846FFF7B3FFA81D85B25A
:1032D000641C20780028E8D1F0BD2DE9F0470646AF
:1032E0008846144699460027002525463DB94B4699
:1032F000302241463046FFF79CFFBDE8F08703E0EF
:103300000A20B5FBF0F57F1C002DF9D115E00A204D
:10331000B4FBF0F100FB114000F1300A39467F1E8A
:10332000062202FB0161891F88B24B465246414684
:10333000FFF77FFF0A20B4FBF0F4002CE7D100BFB9
:10334000DBE72DE9F04788B081468A4616461F46DE
:10335000002510231A4651464846FFF70EFF2C2041
:103360004FF0D84108803146684600F09DF90024AE
:1033700025E01DF814504FF6FF7000EA05256000A7
:10338000401C1DF8000005434FF0000812E005F452
:10339000004018B14FF0DA40078003E000204FF002
:1033A000DA4108804FF6FF7000EA450508F1010098
:1033B00000F0FF08B8F1100FE9DB601CC4B2102C5C
:1033C000D7DB08B0BDE8F0872DE9F04104460D4693
:1033D00016461F4614E0E02C03DD002405F1100022
:1033E00085B2B5F5987F01DD002400253B463246C5
:1033F00029462046FFF7A5FFB61C04F1100084B251
:1034000030780028E7D1BDE8F0812DE9F04105468C
:103410000E4614461F462CE020787E2814DCEA2D48
:1034200003DD002506F10C0086B2B6F59A7F01DDBA
:103430000025002622783B4631462846FFF7F9FE54
:10344000A81D85B2641C14E0E02D03DD002506F103
:10345000100086B2B6F5987F01DD002500263B46B8
:10346000224631462846FFF76CFFA41C05F11000E8
:1034700085B220780028CFD1BDE8F081EA5B000852
:1034800010B5FEF7BEF8A249002001F000FE10BD05
:1034900010B50024FEF7B5F8002000F031FB9C4980
:1034A000002001F0F4FD02229AA19E4801F00CFEDA
:1034B0009D4908700846007860B99C4B4FF4007233
:1034C0009B49984801F0A1FF97490870954802F080
:1034D000FFF800E000BF01228EA1924801F0F4FD48
:1034E00091490870012091490860002091490860C5
:1034F00000BF00208F49086009E000208E498D4AF6
:10350000126888548B480068401C8A4908608948C2
:103510000068B0F5007FF0DB844B4FF40072864901
:10352000804801F08BFE80490870844901EB4420FB
:10353000814A83A102F0C6FA641C7B48007818B95E
:103540007A4800680028D4D100BF00BF754802F057
:10355000BFF810BD70B58EB004460D461646224623
:1035600078A101A802F0AEFA6949002001F08FFDB0
:10357000062201A96B4801F0A7FD6B4908700846B7
:10358000007868B9694B32462946664801F03DFF2C
:1035900065490870634802F09BF800200EB070BDCA
:1035A00061480078082800D1F8E74FF0FF30F5E7D0
:1035B00070B58EB004460D461646224661A101A89C
:1035C00002F080FA5249002001F061FD022201A9B7
:1035D000544801F079FD544908700846007868B9EC
:1035E000524B324629464F4801F00FFF4E490870B2
:1035F0004C4802F06DF800200EB070BD4A480078CB
:10360000042800D1F8E74FF0FF30F5E770B58EB031
:1036100005460E4600242A464AA101A802F052FAA5
:10362000FFF72EFF3A49002001F031FD012201A9E8
:103630003C4801F049FD3C4908700846007878BBD9
:1036400000BF00203B49086009E000203A49394AA0
:103650001268885437480068401C3649086035486D
:103660000068B0F5007FF0DB304B4FF40072324958
:103670002C4801F0E3FD2C49087006EB44202E4A4B
:103680002FA102F01FFA641C2748007818B92748B8
:1036900000680028D5D100BF00BF00200EB070BD6B
:1036A000FFE74FF0FF30F9E72DE9F04105460C4602
:1036B00026786778A6F1B000C0EB001101EB40104E
:1036C00007EB4000A1384FEA40181149002001F0F3
:1036D000DEFC01221DA1134801F0F6FC124908701E
:1036E0000846007888B941460E4801F0FCFF0F4BB0
:1036F000202229460B4801F0A1FD0B49087009481A
:1037000001F0E6FF0020BDE8F0814FF0FF30FAE75E
:103710001C050020303A2F6D795F5F44656D6F2E78
:10372000545854007C0900203C0000204002002036
:103730003D00002048020020C40D0020C40F0020DE
:1037400025730000303A257300000000303A2F48FE
:103750005A4C49422E62696E000000007047704763
:103760002DE9F74F98B0CFA101A81A9A02F0AAF953
:10377000CE49002001F08BFC012201A9CC4801F0C8
:10378000A3FCCC4908700846007808BB06AB0222AF
:1037900007A9C74801F052FDBDF81C0044F642518C
:1037A000884202D01BB0BDE8F08F06AB0C2212A9F4
:1037B000BF4801F043FD12A8FFF7D0FF06AB282257
:1037C00008A9BB4801F03AFD08A8FFF7C8FF00E0D0
:1037D000E8E7099EDDF82890BDF82E10714301F14D
:1037E0001F00C11700EBD16149118C00B4F5707F47
:1037F00000DDD7E70320FFF7CDFB1FFA89F3B2B254
:10380000DDE91801FFF7B9FCBDF82E0018283BDBF5
:10381000002736E0A24604EBDA70421006ABA64958
:10382000A34801F00BFDA34604EBDB70A24B03EBB6
:10383000600104EBDA70421006AB9D4801F0FEFC1B
:103840004FF000081AE008EB48059B49A81C085CEB
:103850001790681C085C16900846405D15901798F4
:10386000C010C1021698801041EA4011159841EA33
:10387000E0004FF0DA41088008F10108B045E2DBD2
:103880007F1C4F45C6DB00E08CE7894801F020FF34
:1038900000BF87E72DE9FF4F9DB014461D46382233
:1038A00086A10FA802F0BEF8002002902046E11782
:1038B00004EB91718910A4EB810204FB05F101EB8B
:1038C000410105FB021101F1360909F0FF008DF8F5
:1038D0003E004FEA19208DF83F004FEA19408DF85D
:1038E00040004FEA19608DF84100A2460AF0FF003F
:1038F0008DF84E004FEA1A208DF84F004FEA1A401B
:103900008DF850004FEA1A608DF85100AB460BF06D
:10391000FF008DF852004FEA1B208DF853004FEA4C
:103920001B408DF854004FEA1B608DF8550071A1C3
:1039300004A82A9A02F0C6F85C49002001F0A7FB0F
:10394000062204A95A4801F0BFFB5A49087058489A
:1039500001F0BEFE022204A9554801F0B5FB55490D
:1039600008700846007800287ED103AB36220FA9E4
:103970004F4801F04AFD4F4908704FF000087EE0C3
:10398000E11704EB91718910A4EB810191BB002632
:103990002DE0A5EB08031D9A1A4491B21E9A3244F9
:1039A00090B2FFF738FC0746F80AC0000E90C7F344
:1039B000451080000D90F806000E0C9003AB01221C
:1039C0000CA93B4801F021FD3A49087003AB0122E4
:1039D0000DA9374801F019FD3649087003AB0122E3
:1039E0000EA9334801F011FD32490870761CA64239
:1039F000CFDB42E0FFE700262DE0A5EB08031D9A90
:103A00001A4491B21E9A324490B2FFF704FC074662
:103A1000F80AC0000E90C7F3451080000D90F8061C
:103A2000000E0C9003AB01220CA9214801F0EDFC23
:103A30002049087003AB01220DA91D4801F0E5FCE7
:103A40001C49087003AB01220EA9194801F0DDFCE6
:103A500018490870761CA642CFDBE01704EB907083
:103A60008010A4EB800200E013E003AB02A9104831
:103A7000019401F0CAFC0F49087008F10108A8453B
:103A8000FFF67EAF0A4801F023FE002021B0BDE81A
:103A9000F08F08480078082800D1F7E74FF0FF3092
:103AA000F4E70000303A2573000000008415002080
:103AB000E41900204C040020C4110020424D0000F5
:103AC0000000000000003600000028000000000098
:103AD00000000000000001001800000000000000CD
:103AE00000000000000000000000000000000000D6
:103AF00000000000303A25732E626D700000000057
:103B000070B505460DB1012070BDFEF75DFB0446A2
:103B10000CB10120F8E70020F6E7014600207047CD
:103B20002DE9F04107460D4614461E46012E0EDDD6
:103B3000610233464FF400722846FEF727FDFEF778
:103B40008AFD00BFFEF7AAFB0028FBD10CE0610252
:103B50004FF400722846FEF7B9FCFEF77CFD00BF6B
:103B6000FEF79CFB0028FBD10020BDE8F0812DE989
:103B7000F04107460D4614461E46012E0EDD610239
:103B800033464FF400722846FEF7EBFDFEF77CFE4D
:103B900000BFFEF783FB0028FBD10CE061024FF46D
:103BA00000722846FEF76CFDFEF76EFE00BFFEF7C2
:103BB00075FB0028FBD10020BDE8F0810346002002
:103BC000704700207047000070B503460C4603E0C4
:103BD00014F8015B03F8015B1500A2F10102F7D1B3
:103BE00070BD30B5034601E003F8011B1400A2F1DB
:103BF0000102F9D130BDF0B503461C460D46002048
:103C000000BF1600A2F1010207D014F8017B15F8DD
:103C100001CBA7EB0C063000F3D0F0BD024600E06C
:103C2000521C107810B110788842F9D11078704782
:103C30002DE9F04104460D46E66AAE422FD02079C8
:103C400008B360780123324604F13001FFF78FFF9B
:103C500010B10120BDE8F08100202071D4E90710E7
:103C60000844B0420FD9E7780AE0E069064460787A
:103C70000123324604F13001FFF779FF781EC7B205
:103C8000012FF2DC00BF55B1607801232A4604F110
:103C90003001FFF745FF08B10120DBE7E5620020B6
:103CA000D8E770B5044600212046FFF7C1FF05465E
:103CB000002D59D1207803284FD1607900284CD0AD
:103CC0000020E0624FF40072002104F13000FFF7A1
:103CD00088FF552184F82E12AA2184F82F12522031
:103CE00084F83000522131200155612132200155E4
:103CF000412133200155722184F8141284F81512E1
:103D0000412184F81612612184F81712217C84F86D
:103D10001812208A010A84F819122069010C84F80B
:103D20001A122069010E84F81B12217B84F81C12E0
:103D3000A089010A84F81D12E068010C84F81E12A3
:103D4000E068010E84F81F126078012304F130014D
:103D50006269FFF70CFF0020607160780022114655
:103D6000FFF72CFF00B10125284670BD0246891ED1
:103D70009069801E884201D8002070479378906A2D
:103D800001FB0300F9E72DE9F04105460C46022C42
:103D900002D3A869A04202D80120BDE8F0812878AA
:103DA000012804D002282CD003285AD13DE0274610
:103DB00007EB5707286A00EB57212846FFF738FF23
:103DC00000B14EE0C7F3080105F1300010F80180A2
:103DD0007F1C286A00EB57212846FFF729FF00B116
:103DE0003FE0C7F3080105F13000405C48EA0028D5
:103DF00004F0010010B14FEA1810CEE7C8F30B0031
:103E0000CBE7286A00EB14212846FFF711FF00B129
:103E100027E040F2FF1000EA440105F130000E18DF
:103E20003078717840EA0120B7E7286A00EBD411B6
:103E30002846FFF7FDFE00B113E040F2FF1000EA54
:103E4000840105F130000E18F0780006B17840EAE0
:103E50000140717840EA01203178084320F0704039
:103E60009BE700BF4FF0FF3097E72DE9F04705468D
:103E70000E461746022E02D3A869B04202D84FF070
:103E800002088AE02878012804D0022841D00328BB
:103E90007DD154E0B14609EB5909286A00EB59215C
:103EA0002846FFF7C5FE8046B8F1000F00D071E04C
:103EB000C9F3080105F130000C1806F0010020B12B
:103EC000F9B2207861F31F1000E03846207009F144
:103ED000010901202871286A00EB59212846FFF7C3
:103EE000A7FE8046B8F1000F00D053E0C9F30801E7
:103EF00005F130000C1806F0010010B1C7F30710EF
:103F000005E0207800F0F000C7F30321084320709B
:103F100040E0286A00EB16212846FFF789FE80461C
:103F2000B8F1000F00D035E040F2FF1000EA460182
:103F300005F130000C182770380A60702AE0286AF2
:103F400000EBD6112846FFF773FE8046B8F1000F4C
:103F500000D01FE040F2FF1000EA860105F13000BA
:103F60000C18E0780006A17840EA0140617840EA48
:103F700001202178084300F0704007432770380A79
:103F80006070380CA070380EE07003E0FFE74FF06F
:103F9000020800BF00BF012028714046BDE8F0873D
:103FA0002DE9F04104460E46022E02D3A069B0422C
:103FB00001D8022725E000271FE031462046FFF701
:103FC000E2FE054605B91BE0012D01D1022717E0ED
:103FD000681C08B9012713E0002231462046FFF78C
:103FE00044FF074607B10BE02069401C20B120695F
:103FF000401C2061012060712E46A069B042DCD8CF
:1040000000BF3846BDE8F0812DE9F04704468946F7
:10401000B9F1000F06D1E76817B1A069B84211D80D
:1040200001270FE049462046FFF7ADFE0646022E67
:1040300002D20120BDE8F087A069B04201D9304624
:10404000F8E74F463D4600BF6D1CA069A84204D862
:104050000225BD4201D90020ECE729462046FFF7A2
:1040600092FE064606B909E0701C08B1012E01D186
:104070003046DFE7BD42E7D10020DBE700BF6FF04D
:10408000704229462046FFF7F0FE8046B8F1000F47
:1040900008D1B9F1000F05D02A4649462046FFF75E
:1040A000E4FE8046B8F1000F09D1E5602069401CAC
:1040B00068B12069401E20610120607107E0B8F1FD
:1040C000010F02D14FF0FF3000E0012005462846E5
:1040D000B0E72DE9F04104460E46E680A568012DC3
:1040E00003D020688069A84202D80220BDE8F08190
:1040F0002DB920680078032801D12068456A65B988
:10410000E56020680089B04201DC0220EEE720680B
:10411000406A00EB1610206120E0206880780701DB
:1041200012E029462068FFF72EFE0546681C08B9F4
:104130000120DBE7022D03D320688069A84201D863
:104140000220D3E7F01B86B2BE42EADAE5602946D8
:104150002068FFF70BFE00EB16102061206830305E
:1041600006F00F0100EB411060610020BEE72DE971
:10417000F0410446884600BFE088401C86B20EB17C
:10418000206910B90420BDE8F08106F00F00002876
:104190006FD12069401C2061E06828B9206800893F
:1041A000B04266DC0420EEE720688078401E00EA1A
:1041B000161000285DD1E1682068FFF7E4FD054690
:1041C000012D01D80220DEE7681C08B90120DAE7DA
:1041D00020688069A84246D8B8F1000F01D10420B8
:1041E000D1E7E1682068FFF70FFF05460DB907200A
:1041F000C9E7012D01D10220C5E7681C08B90120DB
:10420000C1E700212068FFF713FD08B10120BAE7DC
:10421000216801F130004FF400720021FFF7E1FC4A
:1042200029462068FFF7A2FD2168C862002710E038
:1042300001202168087100212068FFF7F9FC08B10E
:104240000120A0E72068C06A401C2168C862781C71
:10425000C7B220688078B842EADC2068C06AC01B18
:104260002168C86200BFE56029462068FFF77EFD2F
:104270002061E6802068303006F00F0100EB41102D
:10428000606100207FE72DE9F04705460C46207865
:1042900020F04000401E00EB800101EBC00600272B
:1042A0004FF0010800BFFE48C05D205CFC49C95DBD
:1042B0002144497840EA0129B8F1000F10D048465E
:1042C00001F090FB8046FF2E07D23146761C35F870
:1042D000110001F087FB404508D00020BDE8F087C1
:1042E0004FF6FF70814501D00020F7E7781C0746A4
:1042F0000D28D8D3207800F0400038B1B8F1000F75
:1043000004D035F8160008B10020E7E70120E5E702
:10431000F0B50346087800F03F00401E00EB800730
:1043200007EBC0020025012600BFDD48405D085CA8
:10433000DB4F7F5D0F447F7840EA07244EB1FF2AB0
:1043400001D30020F0BD26461046521C23F8104031
:1043500005E04FF6FF70844201D00020F2E7681CB0
:1043600005460D28E1D3087800F0400030B1FF2A5F
:1043700001D30020E6E7002023F812000120E1E746
:10438000F0B504461D464D730F27CF7200270F73FB
:104390008F76BC4681F81BC0571E07EB870C0CEBD1
:1043A000C706002738463B4600BF4FF6FF77B842A6
:1043B00003D03746761C34F81700DFF8E4C21CF847
:1043C00003C001F80C000712DFF8D4C21CF803C0C8
:1043D0008C448CF8017008B94FF6FF705F1C3B46A7
:1043E0000D2FE2D34FF6FF77B84202D034F81670A3
:1043F0000FB942F040020A70F0BD2DE9FC470746B4
:104400008A4690461C460B2251463846FFF7DCFB95
:10441000052C0BDD00BF601000EBC43138F8022B17
:10442000881884B2B8F800000028F4D1072600BF2D
:104430002046E11704EB11710911A4EB0111303191
:1044400001F0FF09B9F1390F03DD09F1070000F0B0
:10445000FF093046761E0DF800902046E11704EB68
:104460001171C1F30F14002CE2D17E200DF806006B
:1044700000250BE0785D812807DB785DFE2804DCF1
:10448000701EA84200D106E06D1C6D1CB54202D220
:10449000785D2028EED100BF00BF082E04D2304640
:1044A000761C1DF8000000E0202029466D1C785481
:1044B000082DF2D3BDE8FC8730B5014600200B2261
:1044C00000BF431003EBC01411F8015B6319D8B2AD
:1044D000531E1A00F5D130BD2DE9F04704460021E6
:1044E0002046FFF7F6FD074617B13846BDE8F087CE
:1044F0004FF0FF09CA4600BF21692068FFF798FB0B
:10450000074607B154E065692E780EB904274FE0DD
:10451000E87A00F03F08E52E05D008F0080028B141
:10452000B8F10F0F02D04FF0FF093AE0B8F10F0FCA
:104530001CD1E069A0B306F0400030B195F80DA0A1
:1045400026F04006B146E08820844E450AD1687BBB
:10455000504507D12946E069FFF795FE10B1A9F152
:10456000010000E0FF2000F0FF091AE0B9F1000FA0
:1045700005D12846FFF7A0FF504500D118E04FF0C5
:10458000FF094FF6FF702084A069C07A00F0010097
:1045900030B90B222846A169FFF72DFB00B907E0CF
:1045A000FFE700212046FFF7E2FD0746002FA3D0DA
:1045B00000BF38469AE72DE9F04704464FF0FF095F
:1045C000CA4604274CE021692068FFF731FB074603
:1045D00007B148E0666935780DB9042743E0F07A01
:1045E00000F03F08E52D07D02E2D05D008F008007B
:1045F00028B1B8F10F0F02D04FF0FF0929E0B8F150
:104600000F0F1AD105F0400030B196F80DA025F03B
:104610004005A946E08820844D450AD1707B50456D
:1046200007D13146E069FFF773FE10B1A9F101002F
:1046300000E0FF2000F0FF090BE0B9F1000F04D10A
:104640003046FFF739FF504502D04FF6FF70208407
:1046500009E000212046FFF78AFD074607B102E086
:1046600020690028AFD100BF0FB10020206138467B
:10467000BDE8F0872DE9F04F85B00446D4F81880E6
:10468000D4F81CB00C22414601A8FFF79DFA00BFE8
:104690009DF80F0000F0010050B3002002E0000080
:1046A0005E60000888F80B00E06101270DE03B46E2
:1046B0005A4601A94046FFF7A0FE2046FFF70CFF2F
:1046C000054605B103E0781C87B2642FEFDB00BF1D
:1046D000642F03D1072005B0BDE8F08F042D01D071
:1046E0002846F8E79DF80F0088F80B00C4F81CB0C6
:1046F0009DF80F0000F0020070B1002601E0701C70
:1047000086B23BF816000028F9D106F119000D21F8
:1047100090FBF1F086B200E0012600212046FFF771
:10472000D8FC05460DB12846D5E700200746049081
:1047300000BF21692068FFF77BFA054605B119E043
:10474000606990F80090B9F1E50F02D0B9F1000F5F
:1047500008D10FB9E0880490781C80B20746B042B7
:1047600001D107E0002701212046FFF700FD0546A3
:10477000002DDED000BF4DBB012E27DD2046049961
:10478000FFF7A7FC05460DBBA069FFF795FE00905B
:10479000701E86B200BF21692068FFF749FA0546FE
:1047A00005B112E0F2B26169E069009BFFF7E8FD34
:1047B00001202168087100212046FFF7D8FC05463A
:1047C0001DB9701E80B20600E5D100BFD5B92169C0
:1047D0002068FFF72DFA0546A5B9D4F814A02022C9
:1047E00000215046FFF7FDF90B225046A169FFF763
:1047F000EBF9A069C07A00F018008AF80C000120DB
:1048000021680871284666E72DE9F34F83B0814699
:1048100004980068019002E00198401C0190019802
:1048200000782F28F8D0019800785C28F4D0D9F8C7
:104830001CA000252F4600BF38467F1C01990C5C48
:10484000202C03DB2F2C01D05C2C00D132E0FF2D7B
:1048500003D3062005B0BDE8F08FE4B2812C13DB52
:10486000E0B2FE2810DC38467F1C01990E5C402E19
:1048700001DB7E2E05DD802E01DBFE2E01DD062014
:10488000E8E706EB042084B20121204601F070F82D
:1048900004460CB90620DDE7802C06DA2146FEA08E
:1048A000FFF7BCF908B10620D4E728466D1C2AF8AA
:1048B0001040C1E700BF0198C11904980160202C85
:1048C00001DA042000E00020804608E0681E3AF883
:1048D0001040202C02D02E2C00D002E06D1E002DA6
:1048E000F4D100BF0DB90620B4E700202AF8150066
:1048F0000B222021D9F81800FFF773F9002700E0F8
:104900007F1C3AF817002028FAD03AF817002E2812
:10491000F6D00FB148F0030800E06D1E25B1681E07
:104920003AF810002E28F8D10020064602904FF0E9
:10493000080B00BF38467F1C3AF8104004B963E00A
:10494000202C03D02E2C04D1AF4202D048F0030813
:10495000F0E70298584501D2AF4214D1BBF10B0FDA
:1049600002D148F003084FE0AF4201D048F00308FD
:10497000AF4200D948E02F46082002904FF00B0BC1
:10498000B006060ED6E7802C09DB204601F02AF897
:104990000021009000F0ECFF044648F00208FF2CD4
:1049A00011DDABF101000299884204D848F00308F8
:1049B000CDF808B0BEE72212D9F818300298411C91
:1049C00002911A5419E024B12146B6A0FFF726F946
:1049D00018B15F2448F003080FE0412C04DB5A2C87
:1049E00002DC46F0020608E0612C06DB7A2C04DCCF
:1049F00046F00106A4F1200084B2D9F818300298DC
:104A0000411C02911C5495E700BFD9F818000078AA
:104A1000E52803D10520D9F818100870BBF1080F5C
:104A200001D1B006060E06F00C000C2803D006F0EB
:104A30000300032801D148F0020808F0020058B929
:104A400006F00300012801D148F0100806F00C0020
:104A5000042801D148F00808D9F8180080F80B8024
:104A60000020F7E62DE9FC5F81460F4607F10908B3
:104A7000D9F81000002851D0D9F81440207B0190BB
:104A8000002514E0665D202E00D112E0052E00D135
:104A9000E526019800F0080030B1412E04DB5A2EC3
:104AA00002DC06F12000C6B208F8016B6D1C082D6F
:104AB000E8D300BF207A202819D02E2008F8010B57
:104AC000082511E0665D202E00D10FE0019800F06E
:104AD000100030B1412E04DB5A2E02DC06F120001A
:104AE000C6B208F8016B6D1C0B2DEBD300BFE07A4A
:104AF0003872E07F0106A07F41EA0041607F41EA11
:104B00000020217F08433860217E607E41EA00203A
:104B1000B880A17DE07D41EA0020F880002088F87F
:104B20000000B869D0B3F869C0B3D7F818B0002551
:104B3000D9F8100070B3B9F820004FF6FF71884221
:104B400028D0D9F81C0000901CE00021504600F04D
:104B50000FFF8246BAF1000F01D1002519E0BAF12A
:104B6000FF0F05DD4FEA2A2228466D1C0BF80020B6
:104B7000F869401EA84201D800250AE028466D1CAD
:104B80000BF800A0009830F8021B5FEA010A0090C1
:104B9000DBD100BF00200BF8050000BFBDE8FC9F83
:104BA0002DE9F3410446019800782F2803D001989D
:104BB00000785C2802D10198401C01900020A06080
:104BC00001980078202807D200212046FFF781FABB
:104BD0000646002060612FE000BF01A92046FFF7D4
:104BE00013FE064606B126E02046FFF775FC064692
:104BF000A069C77A46B1042E00D01CE000BF07F0C0
:104C0000040000B9052616E007F0040000B112E028
:104C10006569E87A00F0100008B905260BE0A97E66
:104C2000E87E41EA00212A7D687D42EA002041EACF
:104C30000040A060D1E700BF3046BDE8FC8170B500
:104C400004460D46607801232A4604F13001FEF740
:104C500067FF08B1032070BD94F82E1294F82F025C
:104C600041EA00204AF65521884201D00220F2E7AD
:104C700094F86900010694F8680041EA004194F84C
:104C8000670041EA002094F86610084320F07F4056
:104C9000064988420ED10BE0222A3A3C3E3F7C7FF7
:104CA000000000002B2C3B3D5B5D000046415400A2
:104CB0000020D0E794F88500010694F8840041EACA
:104CC000004194F8830041EA002094F882100843E0
:104CD00020F07F40F749884201D10020BBE7012046
:104CE000B9E72DE9F74F88B008980068019001985E
:104CF000007830380790079809280AD8019840783A
:104D00003A2806D10198801C019008990198086002
:104D100001E000200790079818B10B200BB0BDE808
:104D2000F08FE549079851F82040099804600CB9C4
:104D30000C20F3E7207878B16078FEF7EEFE80462D
:104D400008F0010040B90A9820B108F0040008B149
:104D50000A20E3E70020E1E7002020700798607058
:104D60006078FEF7CDFE804608F0010008B1032010
:104D7000D4E70A9820B108F0040008B10A20CDE772
:104D80004FF0000B59462046FFF759FF054600BF7C
:104D9000012D21D14FF0000ABAF1000F03D0AAF182
:104DA000010000F0FF0A4FF4DF7000EB0A1104F17C
:104DB00030000F18387978B1F87A0106B87A41EAEC
:104DC0000041787A41EA0020397A40EA010B5946DD
:104DD0002046FFF734FF0546032D01D101209DE752
:104DE0000DB10D209AE73B20015D94F83C0041EAAB
:104DF0000020B0F5007F01D00D208FE74620015D37
:104E000094F8470041EA0029B9F1000F0ED194F857
:104E10005700010694F8560041EA004194F8550005
:104E200041EA002094F8541040EA0109C4F81C90AB
:104E30004020065DE670012E03D0022E01D00D2029
:104E40006CE709FB06F93D20005D0646A07016B12F
:104E5000701E304008B10D2060E74120015D94F8DC
:104E6000420041EA00202081207A00F00F0008B1C2
:104E70000D2053E74320015D94F8440041EA0020EF
:104E80000690069870B994F85300010694F8520001
:104E900041EA004194F8510041EA002094F8501092
:104EA000084306903E20015D94F83F0041EA00204F
:104EB0000290029808B90D2030E7029848442189F1
:104EC00000EB11100590DDE90501814201D20D20B2
:104ED00024E7DDE90510401AA178B0FBF1F0049059
:104EE000049808B90D2019E7012540F6F6710498D9
:104EF000884200D302254FF6F6710498884200D309
:104F000003250498801CA06105985844A06202986B
:104F100058442062032D16D1208908B10D20FDE6EA
:104F200094F85F00010694F85E0041EA004194F8AD
:104F30005D0041EA002094F85C1008436062A069BB
:104F40008000039014E0208908B90D20E6E6206A6D
:104F500048446062022D02D1A069400007E0207E33
:104F600000F00100A16901EB410100EB5100039049
:104F7000E169039800F2FF10B1EB502F01D20D2030
:104F8000CCE64FF0FF3020610020E060032D5CD1C3
:104F9000607194F8601094F8610041EA0020584470
:104FA00060616078012304F130016269FEF7B8FDA9
:104FB000F0BB94F82E1294F82F0241EA00204AF632
:104FC0005521884241D13320005D01063220005D29
:104FD00041EA00413120005D41EA002094F83010A0
:104FE00008433649884230D194F81702010694F8F4
:104FF000160241EA004194F8150241EA002094F8B3
:10500000141208432E4988421FD194F81F0201064A
:1050100094F81E0241EA004194F81D0241EA002082
:1050200094F81C120843E06094F81B02010600E0AB
:105030000BE094F81A0241EA004194F8190241EA9F
:10504000002094F818120843206125701D4800883C
:10505000401C80B21B490880E0800020E062207183
:1050600000BF5BE670B504460D4624B1207810B150
:10507000E088A84201D0092070BD6078FEF74DFDA0
:1050800000F0010008B10320F6E70020F4E7024633
:10509000012A01DB0B207047074850F822300BB182
:1050A0000020187009B100200870034840F8221051
:1050B0000020F0E746415400500400205252614164
:1050C00072724161540400202DE9F743ADF50C7D67
:1050D000054616460020286006F01F0626F001024D
:1050E00083A98DA8FFF7FDFD074680A88990CDF81C
:1050F00028D227B983A88D99FFF752FD0746889CCF
:105100000FB904B9062706F01C00002858D04FB18B
:10511000042F03D183A8FFF7ADFA074646F008062F
:10512000889C09E0E07A00F0110008B1072703E04D
:1051300006F0040000B10827002F40D106F0080057
:1051400000283CD0FEF73DFD804684F80E804FEAF3
:105150001821E1734FEA184121744FEA1861617414
:105160000020E072207700216177A177E177A17EAE
:10517000E07E41EA0021227D607D42EA002041EA92
:1051800000490020A0760021E1762075617501209C
:1051900083990871B9F1000F11D08398D0F82C8051
:1051A00049468398FEF7FCFE074647B9A9F101007E
:1051B0008399C86041468398FEF73AFD07460EE0A2
:1051C0006FB9E07A00F0100008B1042707E006F09C
:1051D000020020B1E07A00F0010000B1072747B9D2
:1051E00006F0080008B146F020068398C06AE8611E
:1051F0002C62F7B9AE71A17EE07E41EA0021227DEA
:10520000607D42EA002041EA00402861E07F01061B
:10521000A07F41EA0041607F41EA0020217F0843EE
:10522000E8600020A860A861839828608398C088FF
:10523000A88038460DF50F7DBDE8F0832DE9FF4FBE
:1052400083B0044615469A46DDF810B00020CAF82F
:105250000000A1882068FFF705FF0290029818B1AE
:10526000029807B0BDE8F08FA07900F0800008B187
:105270000220F6E7A07900F0010008B90720F0E766
:10528000D4E90210401A00900098854200D9009D90
:10529000B6E02089C0F3080000287DD1206880781E
:1052A000401EA16800EA512000F0FF09B9F1000F8B
:1052B0001DD1A06810B92069019004E061692068DF
:1052C000FEF761FD01900198022805D2A07940F017
:1052D0008000A0710220C4E70198401C28B9A07981
:1052E00040F08000A0710120BBE701986061616916
:1052F0002068FEF73BFD06462EB9A07940F08000FD
:10530000A0710220ADE74E444FEA5528B8F1000FD6
:105310002DD009EB080021688978884203D92068DC
:105320008078A0EB090808F0FF032168487832462E
:105330005946FEF7F5FB28B1A07940F08000A07136
:1053400001208EE7A07900F0400068B1A069801BC1
:10535000404509D2A169891B0BEB41204FF4007233
:1053600004F12401FEF730FC4FEA48273EE0A06933
:10537000B04227D0A07900F04000A0B12168487861
:10538000012304F12401A269FEF7F1FB38B1A079F1
:1053900040F08000A07100E015E0012061E7A079F5
:1053A00020F04000A071216848780123324604F1C2
:1053B0002401FEF7B5FB28B1A07940F08000A07170
:1053C00001204EE7A6612089C0F30800C0F50077F0
:1053D000AF4200D92F462089C0F3080204F124000F
:1053E00011183A465846FEF7EFFB00BFBB44A068D1
:1053F0003844A060DAF800003844CAF80000ED1B19
:10540000002D7FF446AF00202BE72DE9FF4F83B03E
:10541000044615469B46049801900020CBF80000F6
:10542000A1882068FFF71EFE0290029818B102982A
:1054300007B0BDE8F08FA07900F0800008B102202D
:10544000F6E7A07900F0020008B90720F0E7E0686D
:105450002844E168884200D20025CDE02089C0F3CD
:105460000800002877D120688078401EA16800EAF3
:10547000512000F0FF0ABAF1000F2AD1A06858B9F4
:10548000D4F81080B8F1000F0BD100212068FEF78E
:10549000BBFD8046206104E061692068FEF7B4FD31
:1054A0008046B8F1000F00D1A9E0B8F1010F05D195
:1054B000A07940F08000A0710220B9E708F1010056
:1054C00028B9A07940F08000A0710120B0E7C4F8AD
:1054D0001480A07900F0400090B121684878012341
:1054E00004F12401A269FEF742FB28B1A07940F043
:1054F0008000A07101209BE7A07920F04000A071FE
:1055000061692068FEF732FC06462EB9A07940F0AA
:105510008000A07102208BE756444FEA5529B9F16B
:10552000000F2FD00AEB090021688978884203D93F
:1055300020688078A0EB0A0909F0FF032168487809
:1055400032460199FEF713FB30B1A07940F080009C
:10555000A07101206CE72CE0A069801B48450ED2A9
:10556000A069801B019A02EB40214FF4007204F104
:105570002400FEF729FBA07920F04000A0714FEA3B
:1055800049272DE0A069B04212D0D4E90201884237
:105590000ED2216848780123324604F12401FEF737
:1055A000BFFA28B1A07940F08000A07101203FE748
:1055B000A6612089C0F30800C0F50077AF4200D98A
:1055C0002F462189C1F3080204F1240150183A46FC
:1055D0000199FEF7F9FAA07940F04000A07100BFF0
:1055E000019838440190A0683844A060DBF80000BE
:1055F0003844CBF80000ED1B002D7FF42FAF00BF27
:10560000D4E90201884201D9A068E060A07940F0A5
:105610002000A07100200BE72DE9F0410446A1888D
:105620002068FFF71FFD0746002F4FD1A07900F03B
:10563000200000284AD0A07900F0400078B121680D
:105640004878012304F12401A269FEF790FA10B111
:105650000120BDE8F081A07920F04000A071E1694F
:105660002068FEF7E5FA0746002F2FD1256AE87A71
:1056700040F02000E872207B2877A089010A697732
:10568000E068010CA977E068010EE977207CA87634
:10569000208A010AE9762069000C28752069010E2C
:1056A0006975FEF78EFA0646AE75310AE975310C5A
:1056B0002976310E6976A07920F02000A0710120B2
:1056C000216808712068FEF7ECFA07463846C0E703
:1056D00070B504462046FFF79FFF05460DB9002030
:1056E0002060284670BD2DE9F04704460E46A1888B
:1056F0002068FFF7B7FC8246BAF1000F02D050468F
:10570000BDE8F087A07900F0800008B10220F7E73B
:10571000E068B04204D2A07900F0020000B9E66867
:10572000D4F808904FF00008C4F80880002E77D015
:10573000206880784702B9F1000F11D0701EB0FBCD
:10574000F7F1A9F10100B0FBF7F0814208D3A9F10C
:105750000100791E8843A060A068361A656918E0C8
:105760002569ADB900212068FEF74EFC0546012DE4
:1057700005D1A07940F08000A0710220C0E7681C2C
:1057800028B9A07940F08000A0710120B8E7256118
:105790006561002D44D029E0A07900F0020038B105
:1057A00029462068FEF730FC054635B93E461FE025
:1057B00029462068FEF7E7FA0546681C28B9A07953
:1057C00040F08000A07101209AE7012D03D92068E4
:1057D0008069A84205D8A07940F08000A07102201D
:1057E0008EE76561A0683844A060F61BBE42D3D83E
:1057F00000BFA0683044A060C6F3080068B1294625
:105800002068FEF7B3FA8046B8F1000F06D1A07900
:1058100040F08000A071022072E701E008EB5628FA
:105820002089C0F3080050B3A069404527D0A07973
:1058300000F0400090B121684878012304F1240170
:10584000A269FEF794F928B1A07940F08000A07118
:10585000012055E7A07920F04000A0712168487828
:105860000123424604F12401FEF75AF928B1A07938
:1058700040F08000A071012042E7C4F81880D4E90C
:105880000201884205D9A068E060A07940F02000BC
:10589000A071504634E733B5ADF5037D04460022D0
:1058A000214684A8FFF71DFA05465DBB80A8A061CC
:1058B000C4F81CD020468499FFF772F90546F5B963
:1058C000606998B16069C07A00F0100068B16069E1
:1058D000817EC07E41EA00216069027D407D42EA0E
:1058E000002041EA0040A06000E005253DB92068A5
:1058F000C088A08000212046FEF7EBFB0546042D62
:1059000000D1052528460DF5057D30BD70B5ADF5F6
:10591000047D04460E46A1882068FFF7A3FB0546D8
:1059200015BB2EB900212046FEF7D3FB05461BE030
:1059300081A8A06101A8E0612046FEF73CFE054673
:10594000042D02D10020206100256DB9314620468A
:10595000FFF788F800212046FEF709FC0546042DD4
:1059600002D100202061002528460DF5047D70BD80
:105970002DE9F04102460F46802A01DA10462FE059
:105980001FB1244B45F2205602E0234B45F220562E
:105990000025102416E0A6EB050C0CEBDC7805EBDB
:1059A00068014FEA410C33F81CC0944500D10BE06C
:1059B0004FEA410C33F81CC0944501DA0D4600E073
:1059C0000E46641E002CE6D100BF34B14FF0010C2E
:1059D0000CEB410C33F81CC001E04FF0000C6046AA
:1059E000BDE8F0810246002100E0491C0B4830F878
:1059F000110020B1094830F811009042F5D1074854
:105A000030F8110018B1064830F811007047104600
:105A1000FCE70000F0B401086C600008740903089A
:105A2000540B030840EA01039B0703D009E008C9AF
:105A3000121F08C0042AFAD203E011F8013B00F853
:105A4000013B521EF9D27047064C074D06E0E06854
:105A500040F0010394E8070098471034AC42F6D3B5
:105A6000FAF76AFB340D0308540D030870B58C185F
:105A700010F8015B15F0070301D110F8013B2A1162
:105A800006D110F8012B03E010F8016B01F8016B4F
:105A90005B1EF9D12B0705D40023521E0DD401F84B
:105AA000013BFAE710F8013BCB1A921C03E013F814
:105AB000015B01F8015B521EF9D5A142D8D3002049
:105AC00070BD00000FB4084B10B504A902AA0398DA
:105AD00000F01BF8044602A9002000F081F82046DF
