:020000040800F2
:100000004025002075220008890100088B010008A6
:100010008F0100089301000897010008000000000C
:100020000000000000000000000000009B0100082C
:100030009D010008000000009F010008A1010008C8
:100040008F2200088F2200088F2200088F220008CC
:100050008F2200088F2200088F2200088F220008BC
:100060008F2200088F2200088F2200088F220008AC
:100070008F2200088F2200088F2200088F2200089C
:100080008F2200088F2200088F2200088F2200088C
:100090008F2200088F2200088F2200088F2200087C
:1000A0008F2200088F2200088F2200088F2200086C
:1000B0008F2200088F2200088F2200088F2200085C
:1000C0008F2200088F2200088F2200088F2200084C
:1000D0008F2200088F2200088F2200088F2200083C
:1000E0008F2200088F2200088F2200088F2200082C
:1000F0008F2200088F2200088F2200088F2200081C
:100100008F220008A90100088F2200088F22000812
:100110008F2200088F2200088F2200088F220008FB
:100120008F2200088F2200088F2200088F220008EB
:10013000DFF80CD005F01EFB004800474501000821
:100140004025002000F034F800F07CF800F07BFD42
:1001500005A005F021FB00F077F900F058FA00F057
:10016000D6FB00BFFEE70000200D0A20D5E2CAC77B
:10017000D2BBB8F64D5033B2E2CAD4C0FDB3CC20E6
:10018000210D0A2000000000704700BFFEE700BFFD
:10019000FEE700BFFEE700BFFEE77047704770470D
:1001A00010B500F03CF810BD10B502F02DF810BDF0
:1001B00030B51F4800681F4AB0FBF2F1B1F1807FF3
:1001C00001D301201DE021F07F40401E4FF0E022CE
:1001D000506150170F22002807DA13071D0E164B27
:1001E00000F00F04241F1D5503E013071C0E134BD2
:1001F0001C5400BF00204FF0E022906107201061E6
:10020000002008B100BFFEE730BD01B50C490098E1
:10021000086000BF0A4800680028FBD108BD0848F4
:10022000006820B106480068401E05490860704714
:100230002C000020A086010018ED00E000E400E0A2
:100240000000002000B585B0012144F2040002F056
:10025000D7FC4FF40070ADF8100018208DF8130093
:1002600003208DF8120004A9754802F00DFA4FF42E
:100270008060ADF8100004208DF8130004A97048C8
:1002800002F002FA4FF4E13000900020ADF80400D3
:10029000ADF80600ADF80800ADF80C000C20ADF884
:1002A0000A006946674802F03CFE0121654802F0F9
:1002B000C4FE05B000BD70B504460D46E1B261480C
:1002C00002F028FF00BF5F48008800F0800000288F
:1002D000F9D0204670BDF0B503460D4616460027FE
:1002E00029460A2E03D0002008702846F0BD33B9F5
:1002F000302001F8010B002008702846F6E7002B9B
:1003000003DA2D2001F8010B5B4242F210720DE07E
:1003100093FBF2F404B937B104F1300001F8010B9A
:1003200004FB123301270A2092FBF0F2002AEFDCD3
:10033000002008702846D9E70FB470B586B006468D
:100340000CA8019073E00B9800785C281CD10B98E6
:10035000401C0B9000786E2809D072280FD10D2117
:10036000304602F0D7FE0B98401C0B900BE00A21A0
:10037000304602F0CFFE0B98401C0B9003E00B9828
:10038000401C0B9000BF4BE00B980078252840D113
:100390000B98401C0B900078642818D0732833D138
:1003A000019810C801900BE02178304602F0B2FEAF
:1003B00000BF4021304602F01BFF0028F9D0641C2A
:1003C00020780028F0D10B98401C0B9020E0019879
:1003D00020C801900A2202A92846FFF77CFF02AC40
:1003E0000BE02178304602F095FE00BF40213046F8
:1003F00002F0FEFE0028F9D0641C20780028F0D11D
:100400000B98401C0B9003E00B98401C0B9000BF16
:1004100006E00B9810F8011B0B90304602F07AFEB4
:1004200000BF4021304602F0E3FE0028F9D00B98CF
:100430000078002887D106B070BC5DF814FB00007E
:10044000000801400038014000B587B001211C20A0
:1004500002F0D6FB0121880302F0DFFB4FF460407D
:10046000ADF8040003208DF8060018208DF8070071
:1004700001A98E4802F008F94FF48050ADF804004D
:1004800003208DF8060010208DF8070001A9874889
:1004900002F0FAF84FF40060ADF8040001A98348B7
:1004A00002F0F2F84020ADF8040001A9804802F003
:1004B000EBF848208DF807008020ADF8040001A972
:1004C0007B4802F0E1F80020ADF808004FF482709C
:1004D000ADF80A000020ADF80C00ADF80E00ADF844
:1004E00010004FF40070ADF812002020ADF8140099
:1004F0000020ADF816000720ADF8180002A96D48DD
:1005000002F0F6FE01216B4802F097FF07B000BD34
:1005100010B5044600BF0221664803F012F8002817
:10052000F9D02146634802F0B9FF00BF01216148BC
:1005300003F007F80028F9D05E4802F0B1FFC0B21E
:1005400010BD10B500BF02215A4802F0FAFF002882
:10055000F9D00021574802F0A1FF00BF0121554802
:1005600002F0EFFF0028F9D0524802F099FFC0B224
:1005700010BD70B506460C4615464D48C06840F0A3
:1005800040004B49C86049480C30006820F4805056
:1005900046490C3108600220FFF7BAFF3046FFF7EA
:1005A000B7FF2046FFF7B4FF2846FFF7B1FF3F48EB
:1005B0000C30006840F480503C490C31086070BD3C
:1005C00070B5054600243A48C06840F040003849FC
:1005D000C86036480C30006820F4805033490C3134
:1005E00008600320FFF794FF2846FFF791FFFFF70D
:1005F000A8FF0402FFF7A5FF04432C480C30006855
:1006000040F4805029490C310860204670BD70B517
:100610000024002525480C30006820F400602349A0
:100620000C3108604FF47A70FFF7EFFDFF20FFF701
:100630006FFF1F48C06840F040001D49C8601B485C
:100640000C30006840F4805018490C3108600846AE
:10065000006840F4006008604FF47A70FFF7D5FD41
:10066000002208211046FFF784FF00229821032072
:10067000FFF77FFF8122BB210520FFF77AFF22468B
:1006800029460220FFF775FF002211460B20FFF7D5
:1006900070FF4FF47A70FFF7B8FD00BF8021044867
:1006A00002F085F80028F9D070BD0000000C014070
:1006B00000100140003800402DE9FC5F81460D46E6
:1006C0004FF000080021484604F0AFFE01AB4FF4A4
:1006D000A052F749484604F053FC0322F449F5A020
:1006E00005F038F800287DD1F14880794005F049BF
:1006F000C97940EA8130EE49097A40EAC110EC49F3
:10070000497A40EA010AC5F894A0E948C078009007
:100710000098032801DB0A2600E006260A24A046EA
:10072000B9E00098032811DBE149201D085C0106AF
:10073000DF4A601D105C41EA0041A01D105C41EAE7
:100740000020E11D515C40EA01070CE0D849E01CA3
:10075000085C8103D64A201D105C41EAC010611D6F
:10076000515C40EA0107E01930443044B0F5A05F25
:1007700027D3B819B0F5A05F12D9D9F808004044C2
:1007800038448119484604F050FE01AB4FF4A052A2
:10079000C749484604F0F4FBB819804400247AE0C5
:1007A000C4F5A05BC24801195A4604F083FFC04853
:1007B00000EB0B0101AB2246484604F0E1FB0024AC
:1007C00000BFBB4801190322BBA004F0C3FF30B136
:1007D000B74801190422B9A004F0BCFF10BB781E71
:1007E000272800E05BE000D200E027200246B04866
:1007F00020443044411C284604F0A0FF2878FE28FD
:1008000002D16878FF2805D02878FF283ED1687883
:10081000FE283BD12821284604F073FFA9A004F04C
:10082000BBFF33E0A24801190322AFA004F092FFFE
:1008300030B19F4801190422ACA004F08BFF28BB03
:10084000781E272800D200E027200246984820443E
:100850003044411C05F1280004F070FF95F8280091
:10086000FE2803D12920405DFF2807D095F82800F5
:10087000FF280BD12920405DFE2807D1282105F152
:10088000280004F03EFF9BA004F086FFB8198044C6
:10089000B819044400BFD045FFF443AF00BFBDE822
:1008A000FC9F30B5A1B005460C46E868A0F1800178
:1008B000284604F0BAFD20AB80226946284604F0A1
:1008C0005FFB0322694694A004F044FFE8B91E22AE
:1008D0000DF10301204604F031FF1E220DF121012C
:1008E00004F1280004F02AFF1E220DF13F0104F15B
:1008F000500004F023FF04220DF15D0104F17800A3
:1009000004F01CFF012021B030BD0020FBE72DE9E1
:10091000F047ADF5E96D00240025642180A804F0BE
:10092000F0FE99A8BA904620BB900DF5A361002077
:1009300004F04FFA80A9ABA804F04FFE00287CD148
:1009400051E19DF8D80200F020000028F8D0BA98B4
:10095000007818B90DF2D92000B1BA90BA98007891
:1009600000B947E16DA0BA9904F016FF70A1BA98DA
:1009700004F0D2FE064670A1BA9804F0CDFE81467E
:100980006FA1BA9804F0C8FE82466FA1BA9804F02D
:10099000C3FE07463EB9B9F1000F04D1BAF1000F0A
:1009A00001D1002FCCD0002E2CD00122BCA8BA99A6
:1009B00004F02CFA80466649BCA8FFF772FF0128B4
:1009C0000ED1634963A004F0E7FE6149283166A0B7
:1009D00004F0E2FE5E49503168A004F0DDFE11E053
:1009E0000021BCA804F021FD80466949BCA8FFF79E
:1009F00063FE674957A004F0CFFE654928315AA02D
:100A000004F0CAFE0122BCA8BA9904F0FFF980469E
:100A10000021BCA804F009FD80460120CDF8140592
:100A20005C48C06820F040005A49C8605AA004F0F1
:100A3000B3FE00BF0DF2145300E0DCE04FF400728F
:100A40006946BCA804F09CFA8046B8F1000F19D1A1
:100A500000244FF47A70FFF7D8FB10E080214D4856
:100A600001F0A5FE58B1002507E01DF80400FFF7CE
:100A70004FFD601C84B2681CC5B2202DF5DBB4F5B7
:100A8000007FEBDBB8F1000F03D1DDF8140500287F
:100A9000D0D100BF00BF44A004F07EFE002494E04B
:100AA00080213C4801F083FE08B100258BE08CE0FA
:100AB0004C0000204944330054543200544954320D
:100AC000000000002D2D204D5033207469746C659A
:100AD000206E6F20737570706F727420756E69630D
:100AE0006F6465200D0A00005450310054504531A8
:100AF000000000002D2D204D503320617274697369
:100B000074206E6F20737570706F727420756E69CB
:100B1000636F6465200D0A0054414700200D0A20D0
:100B2000CEC4BCFEC3FBCEAA3A202573200D0A001A
:100B30002E6D7033000000002E6D6964000000000F
:100B40002E776176000000002E776D6100000000B6
:100B50004C1400200D0A20C7FAC4BF20202020A377
:100B6000BA2573200D0A00000D0A20D2D5CAF5BCA3
:100B7000D22020A3BA2573200D0A00000D0A20D729
:100B8000A8BCAD20202020A3BA2573200D0A0000A8
:100B9000E414002000100140200D0A20BFAACABCA6
:100BA000B2A5B7C5200D0A00200D0A20B2A5B7C511
:100BB000BDE1CAF8200D0A000020FFF7A9FC601C67
:100BC00084B2681CC5B2202DF6DBB4F5006FFFF6C9
:100BD00067AF00240A48C06840F040000849C86078
:100BE000BCA804F017FCB4A9ABA804F031FD0028A0
:100BF0003FF4A7AE00BF0DF5E96DBDE8F08700003A
:100C00000010014008B5002002F089F8002002F031
:100C100089F802F059F800214FF4806001F0E3FFF9
:100C20004FF4F850ADF8000004208DF80300694639
:100C3000FC4801F029FD0420ADF800006946FA489F
:100C400001F022FD08BD08B54FF4C06001F024FB9F
:100C500031208DF8000000208DF801008DF8020091
:100C600001208DF80300684601F01BFB08BD10B59C
:100C7000EE4801F067FC10BD30B58BB005460C4660
:100C8000EB4801F073FC0021EA4801F040FCEA481F
:100C90000090019500200290A0080390002004908D
:100CA000802005908000069080000790002008902A
:100CB0004FF40050099000200A906946DD4801F089
:100CC000FBFB0121DB4801F022FC0BB030BD30B54D
:100CD0008BB005460C46D64801F048FC0021D548AB
:100CE00001F015FCD4480090019510200290A00856
:100CF00003900020049080200590800006908000E2
:100D00000790002008904FF40050099000200A90AE
:100D10006946C84801F0D0FB0121C64801F0F7FB45
:100D20000BB030BD08B50121302001F069FF4FF450
:100D3000F850ADF8000003208DF8020018208DF85F
:100D400003006946B74801F09FFC0420ADF800009D
:100D50006946B54801F098FC0121880201F043FF83
:100D60000121022001F03FFF08BD014600BFB2484B
:100D70008038406B00F045000028F8D040F2FF506A
:100D8000AD4A803A90631046406908221040C0B2D4
:100D900070472DE9FC4107460D460026002400203F
:100DA000009001900820A54908601020486040206C
:100DB00088600020C8604FF480600861084601F038
:100DC000D1FF1020FFF7D1FF044614B12046BDE843
:100DD000FC819B48008800049849086037204860DF
:100DE000402088600020C8604FF480600861084699
:100DF00001F0B8FF3720FFF7B8FF04460CB12046DA
:100E0000E5E74FF0FF308F49086008204860302048
:100E100088600220C86000200861012048610846FF
:100E200001F0C9FF00208549086033204860402058
:100E300088600020C8604FF480600861084601F0B7
:100E400091FF3320FFF791FF04460CB12046BEE727
:100E50000CE04FF4001001F0FCFF38B101F0CDFFC1
:100E60004DF82600761C012E00D907E07248803824
:100E7000406B40F22A6108400028EAD000BF0820F9
:100E800001F0E7FF28B1082001F0EDFF042420461F
:100E90009DE7022001F0DDFF28B1022001F0E3FF11
:100EA0000224204693E7202001F0D3FF28B1202020
:100EB00001F0D9FF0624204689E74FF4007001F0C5
:100EC000C8FF30B14FF4007001F0CDFF0724204679
:100ED0007DE740F2FF5001F0C6FF00980006009940
:100EE00001F47F4140EA0120009901F47F0140EACA
:100EF0001120009940EA116068600198000601998C
:100F000001F47F4140EA0120019901F47F0140EAA8
:100F10001120019940EA11602860204657E77CB50E
:100F20000546002400200090019001F039FF00F0F8
:100F3000007010B10E2420467CBD4149098888B25A
:100F40006946FFF726FF04460CB12046F4E7012D61
:100F500036D1019800F4802000282ED0384800882F
:100F6000000436490860372048604020886000202F
:100F7000C860A8020861084601F0F4FE3720FFF7B8
:100F8000F4FE04460CB12046D6E702202B49086047
:100F900006204860402088600020C8604FF48060D0
:100FA0000861084601F0DEFE0620FFF7DEFE04467B
:100FB0000CB12046C0E72046BEE725242046BBE70B
:100FC000019800F48030F8B31D48008800041B49E4
:100FD000086037204860402088600020C8604FF4D7
:100FE00080600861084601F0BDFE3720FFF7BDFEB6
:100FF00004460CB120469FE70020104908600620F7
:101000004860402088600020C8604FF4806008611C
:10101000084601F0A7FE0620FFF7A7FE0446A4B18C
:10102000204689E700100140001401400020001014
:1010300000F000104404024080800140141600209B
:10104000080000202816002001E0204674E725242F
:10105000204671E770B504460025FB480068032868
:1010600002D12725284670BDF748006838B1F648F8
:101070000068012803D0F448006802282ED1B4F596
:10108000805F02D127252846EDE7B4F5006F14D123
:101090000120FFF744FF054605BB0120EB49087519
:1010A00000200860486088604FF40060C86000203D
:1010B0000861084601F016FE10E00020FFF72FFF40
:1010C00005465DB90120E1490875002008604860C7
:1010D0008860C8600861084601F004FE2846C2E73F
:1010E00070B504460025DA4804600720D8494860F6
:1010F000402088600020C8604FF480600861084686
:1011000001F030FE0720FFF730FE0546284670BD8F
:1011100030B5014600200022CB4B1B7881F84E30C1
:10112000CC4B1B88A1F84C30CB4B1B681A0E930993
:101130000B70C2F383034B7002F003038B70C64B3A
:101140001B68C3F30742CA70C34B1B88C3F3072253
:101150000A71C14B1A784A715B681A0E1301CB8071
:10116000BD4B5B68C3F30742CB8843EA1213CB80C5
:1011700002F00F030B72B84B9B88C3F30722D3090D
:101180004B72C2F380138B72C2F34013CB72C2F363
:1011900000130B7300234B73AB4B1B681BB1AA4BA3
:1011A0001B68012B3CD193071B0D0B61AA4B1A79CD
:1011B0000B6943EA82030B61A74B9B681A0E0B690C
:1011C00043EA92130B61C2F3C2030B7502F00703EB
:1011D0004B75A14B9B68C3F3074253098B75C2F350
:1011E0008203CB7593075B0F0B769B4B1B89C3F375
:1011F00007220B7E43EAD2130B760B695B1C4B6410
:101200000C7E4B6CA41C0125A5406B434B640C7AEF
:101210000123A3408B64D1E9113463434B6421E083
:10122000894B1B68022B1DD18B4B1A7993069B0AA5
:101230000B61894B9B681A0E0B6943EA02230B6111
:10124000854B9B68C3F307420B6913430B61824BC9
:101250001B89C3F307220B695B1CDB044B644FF44F
:1012600000738B64C2F3801301F8193F93065B0E81
:101270004B70794B1A7A4B7843EAD2134B7002F0D9
:101280007F038B70744BDB681A0ED309CB70C2F3EB
:1012900041130B71C2F382034B7193071B0F8B71C8
:1012A0006D4BDB68C3F307428B7943EA92138B7172
:1012B000C2F34013CB7100230B7202F001034B7297
:1012C000654B9B89C3F30722D3098B72C2F380134A
:1012D000CB72C2F340130B73C2F300134B73C2F310
:1012E00081038B7302F00303CB735B4B1A7B5308B0
:1012F0000B7401234B74594B1B681A0ECA741939AD
:10130000564B1B68C3F307421402CC85534B1B8812
:10131000C3F30722CB8D1343CB85504B1A781406A9
:101320000C635B681A0E0B6B43EA02440C634B4B75
:101330005B68C3F307420B6B43EA02240C63474B21
:101340009B88C3F307220B6B13430B63434B1A7940
:1013500034235A54414B9B681A0E35235A543F4B41
:101360009B68C3F3074214068C633C4B1B89C3F391
:1013700007228B6B43EA02448C63384B1A7A8B6BDF
:1013800043EA02248C63354BDB681A0E8B6B1343E4
:101390008B63324BDB68C3F307423C235B5C43EA5D
:1013A00012143C235C5413071C0DCC872B4B9B89D8
:1013B000C3F30722CB8F1343CB87284B1A7B5408E8
:1013C00040235C54012441235C5430BD70B500259A
:1013D0002348446B01E02248446B04F04500002898
:1013E000F9D004F0040028B10325042001F03BFDEE
:1013F000284670BD04F0010028B10125012001F04C
:1014000032FD2846F5E740F2FF5001F02CFD28465A
:10141000EFE72DE9F04106460F464FF0000810486F
:10142000456B01E00E48456B05F045000028F9D0FA
:1014300005F00400B0B14FF00308042001F013FDE3
:101440004046BDE8F081000004000020FC150020AB
:1014500014160020080000207C1500208C150020A8
:101460000080014005F0010030B14FF0010801207B
:1014700001F0F9FC4046E4E701F08EFCB04203D0F5
:101480004FF010084046DCE740F2FF5001F0EBFC63
:10149000002001F085FC044604F4604018B9200CDB
:1014A00038804046CDE704F4005008B11320C8E767
:1014B00004F4804008B11020C3E704F4004008B1F0
:1014C0000F20BEE74046BCE738B50024012000905D
:1014D00001F033FC10B92524204638BDF7480068D8
:1014E000042828D00020F649086002204860C02067
:1014F00088600020C8604FF480600861084601F0F1
:1015000031FCFFF763FF04460CB12046E5E70020FD
:1015100001F046FCEB490860042001F041FCE94978
:101520004860082001F03CFCE64988600C2001F08E
:1015300037FCE449C860E148006858B1DF480068FA
:10154000012807D0DD480068062803D0DB48006882
:10155000022816D10020DA490860032048604020A4
:1015600088600020C8604FF480600861084601F080
:10157000F9FB69460320FFF74CFF04460CB12046F7
:10158000ABE7CE48006804282ED0BDF80000CE4955
:101590000860BDF800000004C949086009204860DF
:1015A000C02088600020C8604FF480600861084651
:1015B00001F0D8FBFFF70AFF04460CB120468CE788
:1015C000002001F0EDFBC1490860042001F0E8FBB8
:1015D000BE494860082001F0E3FBBC4988600C204C
:1015E00001F0DEFBB949C8600024204675E770B5FC
:1015F0000025B748446B01E0B548446B04F0450052
:101600000028F9D004F0040028B10325042001F0DB
:101610002AFC284670BD40F2FF5001F024FC284609
:10162000F8E770B500264FF48035A948446B02E016
:101630006D1EA748446B04F0450008B9002DF7D192
:1016400015B104F0040028B10326042001F00BFCBE
:10165000304670BD04F0400028B10026402001F063
:1016600002FC3046F5E73046F3E770B500254FF44D
:10167000803400E0641E24B1802001F0EAFB0028E1
:10168000F8D014B90325284670BD40F2FF5001F090
:10169000EAFB2846F8E72DE9F04100240026002562
:1016A0000027A046B2208B490875002008604860DA
:1016B0008860C8600861084601F014FB032001F04F
:1016C00031FB012001F02BFB00207D4908604860C0
:1016D0008860C8604FF480600861084601F042FBF2
:1016E000FFF7C3FF044614B12046BDE8F0814FF474
:1016F000D570734908600820486040208860002049
:10170000C8604FF480600861084601F02BFBFFF7CA
:1017100088FF04462CB90120684908604FF08048D2
:1017200012E0002066490860372048604020886049
:101730000020C8604FF480600861084601F012FB89
:101740003720FFF712FB044600205D490860372070
:101750004860402088600020C8604FF480600861C5
:10176000084601F0FFFA3720FFF7FFFA0446002C85
:101770004AD136E0002052490860372048604020B6
:1017800088600020C8604FF480600861084601F05E
:10179000E9FA3720FFF7E9FA04460CB12046A4E73E
:1017A0004D4848EA0000464908602920486040202A
:1017B00088600020C8604FF480600861084601F02E
:1017C000D1FAFFF714FF04460CB120468DE7002044
:1017D00001F0E6FA0646012080EAD67080F00107A3
:1017E0006D1C1FB94FF6FF708542C3D34FF6FF70D3
:1017F000854202D31B24204677E706F0804006008E
:1018000002D002202D49086020466EE710B5002462
:10181000FFF788FA01F058FAFFF73DFF04460CB1D4
:10182000204610BDFFF750FE04460CB12046F8E7F5
:101830000120284908750020086048608860C86059
:101840000861084601F04EFA1CB92448FFF760FC15
:10185000044634B92149B1F84C100804FFF740FCA4
:10186000044624B94FF40060FFF7F4FB0446204619
:10187000D7E770B5044600251348008800041449D2
:10188000886040F24D40C8600D20FFF76EFA0546B3
:101890000DB1284670BD0E48406920602846F9E722
:1018A00008B5002000906846FFF7E3FF08B1FF206D
:1018B00008BD0098C0F34320FAE7000004000020B0
:1018C000141600208C150020080000207C15002034
:1018D00000800140FC15002000001080AC150020A5
:1018E00010B50424FFF7DCFF0446042C01D10020CE
:1018F00010BDFF2C01D10220FAE70120F8E710B556
:101900000024002001F00EFA204610BD70B50446F8
:1019100000250026002001F043FA00F0007010B10D
:101920000E25284670BD4020FC4908601020486004
:10193000402088600020C8604FF48060086108463D
:1019400001F010FA1020FFF710FA05460DB12846F5
:10195000E8E7F34800880004F04908603720486051
:10196000402088600020C8604FF48060086108460D
:1019700001F0F8F93720FFF7F8F905460DB12846D0
:10198000D0E74FF0FF30E749086040204860602012
:1019900088600220C8600020086101204861084674
:1019A00001F009FA0020DD4908600D204860402060
:1019B00088600020C8604FF480600861084601F02C
:1019C000D1F90D20FFF7D1F905460DB12846A9E759
:1019D0000EE04FF4004001F03CFA48B1002604E06C
:1019E00001F00BFA44F82600761C082EF8D32034B8
:1019F000CD48406B40F22A6108400028E9D0082019
:101A000001F027FA28B1082001F02DFA0425284614
:101A100088E7022001F01DFA28B1022001F023FA24
:101A2000022528467EE7202001F013FA28B1202065
:101A300001F019FA0625284674E74FF4007001F00A
:101A400008FA30B14FF4007001F00DFA072528466E
:101A500068E703E001F0D1F92060241D4FF4001085
:101A600001F0F7F90028F5D140F2FF5001F0FBF941
:101A7000284657E770B5044600260025AB48FFF717
:101A800045FF06460EB1304670BDA848007885096E
:101A90002570A6480078C0F340156570A348857886
:101AA00028026080A148C5786088284360809F48EC
:101AB0000579280660609D484579606840EA0540E0
:101AC00060609A488579606840EA052060609748C0
:101AD000C5796068284360609448057A2572457A24
:101AE0006572807A0509A5729048C57A2802A0819E
:101AF0008E48057BA0892843A0818C48407B8508BF
:101B0000A5738A48407B00F00305E5733046BBE7C8
:101B10002DE9F04107460D46144600260020844971
:101B2000087084490860844908607F49C862834816
:101B30000068022801D104026D0A78480460102070
:101B400076494860402088600020C8604FF480607B
:101B50000861084601F006F91020FFF706F906466D
:101B600016B13046BDE8F0814FF0FF306D49086096
:101B700008464460902088600220C8600020086108
:101B800001204861084601F016F9644805601120FB
:101B900062494860402088600020C8604FF480603F
:101BA0000861084601F0DEF81120FFF7DEF806466E
:101BB0000EB13046D6E70121080201F0C3F801203A
:101BC00001F0CDF821463846FFF756F83046C9E710
:101BD0002DE9F04180460D4614461E4600270020A0
:101BE0005349087053490860012053490860002098
:101BF0004D49C86251480068022801D104026D0AAB
:101C00004648046010204549486040208860002014
:101C1000C8604FF480600861084601F0A3F8102006
:101C2000FFF7A3F8074617B13846BDE8F0814FF03B
:101C3000FF303C49086006FB04F048609020886053
:101C40000220C8600020086101204861084601F0B8
:101C5000B2F8324805601220304948604020886060
:101C60000020C8604FF480600861084601F07AF8EF
:101C70001220FFF77AF807460FB13846D5E7012161
:101C8000080201F05FF8012001F069F806FB04F199
:101C90004046FEF7F1FF3846C7E710B5002400BF05
:101CA000FEF7E5FF30B92348006818B920480078EE
:101CB0000028F5D01E48007810B11D48007810BDEE
:101CC0002046FCE72DE9F04107460D461446002664
:101CD0000020174908701749086017490860124921
:101CE000C86216480068022801D104026D0A0B4838
:101CF0000460102009494860402088600020C860C6
:101D00004FF480600861084601F02CF81020FFF7BE
:101D10002CF80646A6B13046BDE8F0811416002026
:101D20000800002028160020008001409C1500209B
:101D300010000020140000200C00002004000020EF
:101D4000FE4805601820FD4948604020886000205A
:101D5000C8604FF480600861084601F003F818205D
:101D6000FFF703F806460EB13046D5E74FF0FF30D7
:101D7000F349086008464460902088600020C860ED
:101D8000086101204861084601F015F801210802A8
:101D900000F0D8FF21463846FEF799FF012000F0F9
:101DA000DEFF3046B8E72DE9F84380460F4615467A
:101DB0001E46002400200090E2490870E2490860B5
:101DC0000120E24908600020E149C862E14800685A
:101DD000022801D105027F0AD84805601020D749A2
:101DE0004860402088600020C8604FF4806008612F
:101DF000084600F0B7FF1020FEF7B7FF044614B105
:101E00002046BDE8F883D44800880004CB49086028
:101E100037204860402088600020C8604FF4806010
:101E20000861084600F09EFF3720FEF79EFF04463B
:101E30000CB12046E5E7C14806601720BF4948605D
:101E4000402088600020C8604FF480600861084628
:101E500000F088FF1720FEF788FF04460CB12046EB
:101E6000CFE7B64807601920B44948604020886031
:101E70000020C8604FF480600861084600F072FFDF
:101E80001920FEF772FF04460CB12046B9E74FF067
:101E9000FF30AB49086006FB05F048609020886081
:101EA0000020C860086101204861084600F083FFF7
:101EB0000121080200F046FF012000F050FF06FB60
:101EC00005F14046FEF703FF20469AE710B50024CF
:101ED00000BFFEF7CCFE30B99B48006818B999489E
:101EE00000780028F5D09748007810B19548007820
:101EF00010BD40F2FF5000F0B6FF2046F8E79448CE
:101F0000406B00F4405008B1012070470020FCE70E
:101F100010B5002400208E49886040F24C40C86013
:101F20000C20FEF722FF0446204610BD7CB5044677
:101F300000250020019000908748008800047F4918
:101F400008600D204860402088600020C8604FF481
:101F500080600861084600F005FF7D48406B0090F6
:101F600002E07B48406B0090009800F0450000289C
:101F7000F7D0009800F0040028B10325042000F0F9
:101F800072FF28467CBD009800F0010028B10125B1
:101F9000012000F068FF2846F4E700F0FDFE009005
:101FA00000980D2802D010252846EBE740F2FF509C
:101FB00000F059FF002000F0F3FE01900198C0F3FB
:101FC0004320207065490198084008B92846D9E7A0
:101FD000019800F0004008B11C20D3E7019800F000
:101FE000804008B10920CDE7019800F0005008B109
:101FF0000A20C7E7019800F0805008B10B20C1E724
:10200000019800F0006008B10C20BBE7019800F0D7
:10201000806008B10D20B5E7019800F0807008B12C
:102020000E20AFE7019800F4000008B10F20A9E7E7
:10203000019800F4800008B11020A3E7019800F493
:10204000001008B111209DE7019800F4801008B13C
:10205000122097E7019800F4002008B1132091E7BF
:10206000019800F4802008B114208BE7019800F457
:10207000003008B1152085E7019800F4803008B1E0
:1020800016207FE7019800F4004008B1172079E797
:10209000019800F4804008B1182073E7019800F41B
:1020A000005008B119206DE7019800F0080008B150
:1020B0001A2067E7284665E72DE9FC4105460E46EC
:1020C000002400270020019000902548406820212E
:1020D00001EA105018B925242046BDE8FC811C48AF
:1020E0004068C0B2801C1F49B1FBF0F00190002095
:1020F00000F056FE00F0007010B10E242046ECE710
:1021000014480068022801D16D0A760A1148006857
:1021100038B110480068012803D00E480068022832
:1021200042D106480560202004494860402088606C
:102130000020C8604FF48060086115E0141600208C
:102140002816002010000020140000200C000020A1
:1021500000800140040000200800002008E0FFFD8E
:102160007C150020C0D40100084600F0FBFD2020B3
:10217000FEF7FBFD04460CB12046AEE7384806608A
:10218000212037494860402088600020C8604FF413
:1021900080600861084600F0E5FD2120FEF7E5FDBE
:1021A00004460CB1204698E700202D4908602620FF
:1021B0004860402088600020C8604FF4806008615B
:1021C000084600F0CFFD2620FEF7CFFD04460CB1F7
:1021D000204682E7002700E07F1C01988742FBD35E
:1021E0006846FFF7A3FE044603E06846FFF79EFE3D
:1021F00004463CB99DF800000728F6D09DF8000081
:102200000628F2D0204668E710B516480068012875
:102210000BD100201449886040F24C40C8600C206B
:10222000FEF7A3FD1149087002E000200F49087075
:102230004FF4807000F024FE00214FF4807000F015
:1022400081FD01200A4908600848007810BD014658
:10225000002002E04910421CD0B20129FAD1704797
:10226000141600200C000020008001401000002007
:10227000140000200648804706480047FEE7FEE7B6
:10228000FEE7FEE7FEE7FEE7FEE7FEE7FEE7FEE726
:102290008F3600083101000831490143314A11608D
:1022A000704770B5002100230F22C47804B32D4C71
:1022B000246804F4E064C4F5E064210AC1F1040375
:1022C000CA40447804FA03F1847814402143090198
:1022D000254C0678A155047804F01F050124AC4074
:1022E00005786D11AD0005F1E025C5F8004109E064
:1022F000047804F01F050124AC401C4D06787611CB
:1023000045F8264070BD1A4A0A400243154B1B1F70
:102310001A60704739B1134A121D12680243114BFB
:102320001B1D1A6006E00F4A121D126882430D4BF6
:102330001B1D1A607047042808D14FF0E02109697D
:1023400041F004014FF0E022116107E04FF0E0217D
:10235000096921F004014FF0E0221161704700008B
:102360000000FA050CED00E000E400E080E100E090
:1023700080FFFF1F01684FF6FE72114001600021CF
:10238000016041608160C1608D49884208D18C49FB
:102390000839496841F00F01894A083A51608AE0DA
:1023A00087491431884208D185490839496841F084
:1023B000F001834A083A51607DE081492831884222
:1023C00008D17F490839496841F470617C4A083A6C
:1023D000516070E07A493C31884208D17849083927
:1023E000496841F47041764A083A516063E07449A3
:1023F0005031884208D172490839496841F4702146
:102400006F4A083A516056E06D496431884208D1FC
:102410006B490839496841F47001694A083A5160CA
:1024200049E067497831884208D1654908394968E7
:1024300041F07061624A083A51603CE0614988426B
:1024400006D1011F096841F00F01021F116032E03F
:102450005C491431884208D15A49091F096841F082
:10246000F001584A121F116025E056492831884270
:1024700008D15449091F096841F47061514A121F7B
:10248000116018E04F493C31884208D14D49091F7D
:10249000096841F470414B4A121F11600BE0494931
:1024A0005031884207D14749091F096841F470211A
:1024B000444A121F1160704710B50022026847F6A7
:1024C000F0739A430C6A8B6823430C6923434C696D
:1024D00023438C692343CC6923434C6A23438C6A8E
:1024E00023431A430260CB6843600B6883604B68E8
:1024F000C36010BD0021016041608160C160016165
:1025000041618161C161016241628162704721B1B3
:10251000026842F00102026004E002684FF6FE73B6
:102520001A40026070471AB103680B43036002E06F
:1025300003688B43036070474160704701464868F9
:1025400080B2704701460020002201F080531BB189
:102550001C4B083B1A6802E0194B083B1A6802EA58
:1025600001030BB1012000E00020704700F0805112
:1025700019B11449091F086002E01149083948607F
:10258000704701460020002201F080531BB10D4B23
:10259000083B1A6802E00A4B083B1A6802EA01038A
:1025A0000BB1012000E00020704700F0805119B10C
:1025B0000449091F086002E0014908394860704772
:1025C000080002400804024010B50446CC4884428A
:1025D00008D10121042000F02DFB0021042000F08F
:1025E00029FB46E0C748844208D10121082000F0B9
:1025F00021FB0021082000F01DFB3AE0C248844284
:1026000008D10121102000F015FB0021102000F05E
:1026100011FB2EE0BD48844208D10121202000F0AA
:1026200009FB0021202000F005FB22E0B84884428D
:1026300008D10121402000F0FDFA0021402000F0E7
:10264000F9FA16E0B348844208D10121802000F055
:10265000F1FA0021802000F0EDFA0AE0AE48844251
:1026600007D10121801500F0E5FA0021A01500F046
:10267000E1FA10BD10B50121084600F0DBFA002197
:10268000012000F0D7FA10BD2DE9F04102460025E7
:102690000026002000230024002791F803C00CF03E
:1026A0000F0591F803C00CF0100CBCF1000F03D023
:1026B00091F802C04CEA050591F800C0BCF1000F8A
:1026C00031D0146800202BE04FF0010C0CFA00F31D
:1026D000B1F800C00CEA03069E4220D183004FF0FF
:1026E0000F0C0CFA03F7BC4305FA03FC4CEA040494
:1026F00091F803C0BCF1280F06D14FF0010C0CFA81
:1027000000FCC2F814C00AE091F803C0BCF1480F05
:1027100005D14FF0010C0CFA00FCC2F810C0401CAF
:102720000828D1D31460B1F800C0BCF1FF0F34DD2C
:10273000546800202EE000F1080C4FF0010808FA60
:102740000CF3B1F800C00CEA03069E4221D18300CD
:102750004FF00F0C0CFA03F7BC4305FA03FC4CEAEC
:10276000040491F803C0BCF1280F05D100F1080C56
:1027700008FA0CF8C2F8148091F803C0BCF1480FB5
:1027800007D100F1080C4FF0010808FA0CF8C2F864
:102790001080401C0828CED35460BDE8F0814FF66D
:1027A000FF710180022181700421C17070470246CF
:1027B000002093680B400BB1012000E0002070471F
:1027C0000146886880B2704702460020D3680B40FB
:1027D0000BB1012000E0002070470146C86880B2BC
:1027E000704701617047416170470AB1016100E0C3
:1027F00041617047C16070474FF480320A43826183
:102800008161826182698269704702460020434B80
:1028100018684FF68073184040EA021008433F4B97
:10282000186070473E49C8617047F0B50A460023FA
:1028300000240021002500F00046B6F1004F02D12F
:10284000364EF16901E0354E7168C0F3034583B23D
:1028500000F44016B6F5401F08D121F070612F4EEC
:10286000766826F070662D4F7E6012E000F48016C8
:10287000B6F5801F06D1032606FA05F4A14341F000
:10288000706106E0460D360103FA06F6B14341F0E9
:10289000706122B1460D360103FA06F6314300F0AD
:1028A0000046B6F1004F02D11C4EF16101E01B4E13
:1028B0007160F0BD30B500228B071C0F0F2303FAA7
:1028C00004F2164B08338C1053F824309343134C06
:1028D00008348D1044F8253023468C1053F82430EA
:1028E0008C07240F00FA04F423430C4C08348D1099
:1028F00044F8253030BD0A49DC31086070470000DB
:1029000000080140000C014000100140001401408B
:1029100000180140001C014000200140000001405F
:1029200000002042DF48006840F00100DD490860F7
:1029300008464068DC490840DA49486008460068B3
:10294000DA490840D74908600846006820F480202A
:1029500008600846406820F4FE0048604FF41F00FD
:1029600088607047CF49096821F48031CD4A1160F1
:102970001146096821F480211160B0F5803F03D031
:10298000B0F5802F0ED106E0C649096841F48031C8
:10299000C44A116007E0C349096841F4A021C14A53
:1029A000116000E000BF00BF704710B50146002273
:1029B000002300204A11012A02D1BA4C236806E004
:1029C000022A02D1B74C236A01E0B64C636A01F0D7
:1029D0001F02012494401C400CB1012000E00020A3
:1029E00010BD38B5002000900024002500BF312024
:1029F000FFF7DBFF05460098401C00900098B0F5FB
:102A0000A06F01D0002DF2D03120FFF7CEFF08B12A
:102A1000012400E00024204638BD01460020A14AE0
:102A2000106820F0F80040EAC10010607047A0492B
:102A300008607047024600209A4B586820F47C10CA
:102A400042EA01031843974B58607047984908665B
:102A5000704701460020934A506820F00300084365
:102A6000506070478F48406800F00C007047014686
:102A700000208C4A506820F0F000084350607047F6
:102A800001460020874A506820F4E0600843506007
:102A9000704701460020834A506820F4605040EAA5
:102AA000C1005060704729B17E4A527A02437D4B83
:102AB0005A7204E07B4A527A82437A4B5A727047C8
:102AC0007B49D8310860704701460020754A50683C
:102AD00020F440400843506070470021714A203282
:102AE0001170704A82F82010012802D004280AD1FF
:102AF00004E001216B4A2032117005E00521694A8A
:102B00002032117000E000BF00BF704769490860C3
:102B100070476449096A0143624A11627047654916
:102B200044390860704730B500210022002400239A
:102B30005C4D6D6805F00C0121B1042905D0082910
:102B400023D105E05C4D056022E05B4D05601FE090
:102B5000544D6D6805F47012524D6D6805F4803463
:102B6000022505EB92421CB9544D554305600BE01C
:102B70004C4D6D6805F400351DB1504D5543056051
:102B800002E04D4D5543056002E04B4D056000BF2E
:102B900000BF444D6D6805F0F0010909484D6B5CBC
:102BA0000568DD4045603F4D6D6805F4E061090A48
:102BB000434D6B5C4568DD4085603A4D6D6805F4BA
:102BC0006051C90A3E4D6B5C4568DD40C560354DBE
:102BD0006D6805F44041890B3A4D6B5CC568B5FBE7
:102BE000F3F5056130BD29B12E4A526902432D4BE0
:102BF0005A6104E02B4A526982432A4B5A6170475A
:102C000029B1284A92690243264B9A6104E0254A79
:102C100092698243234B9A61704729B1214AD26954
:102C20000243204BDA6104E01E4AD26982431D4B05
:102C3000DA61704729B11B4AD2680243194BDA6046
:102C400004E0184AD2688243164BDA60704729B113
:102C5000144A12690243134B1A6104E0114A1269C3
:102C60008243104B1A61704712494039086070471F
:102C70000F49C86470470B49C87170470948406ADA
:102C800040F0807007494862704701460020054ABD
:102C900092680A400AB1012000E000207047014913
:102CA00088727047001002400000FFF8FFFFF6FE38
:102CB000000042428004424200127A0000093D00B6
:102CC000180000202800002000206F49086048609C
:102CD0008860C86048628862C8626C488863002067
:102CE000C86370470021684A516847F6FF62914304
:102CF000027D83681A4343681A43C3681A43036812
:102D00001A4303691A4311435F4A51607047002117
:102D10000175016041608160C160016170475C497B
:102D2000086070475849096821F00301564A11604C
:102D3000114609680143116070475348006800F06C
:102D40000300704729B1504AD26B02434E4BDA63FD
:102D500004E04D4AD26B82434B4BDA6370474D49D6
:102D6000086070470021484B02689A601A46D16893
:102D70006FF30A01D0E901231A43C3681A430369B8
:102D80001A431143404AD1607047002101604160FD
:102D90008160C160016170473B480069C0B2704703
:102DA00008B50146002000903748143008440090D0
:102DB0000098006808BD0021334B02685A624268DF
:102DC0009A621A46D16A21F0F701D0E902231A4328
:102DD00003691A4343691A4311432B4AD16270476E
:102DE0004FF0FF310160002141608160C1600161ED
:102DF000416170472448006B704723488030006869
:102E0000704721498031086070471F48806C7047C7
:102E100020491431086070471E4918310860704716
:102E20001C491C31086070471A49203108607047FE
:102E30001949086070471849091D08607047012149
:102E40008143154A08321160704713490C310860FC
:102E50007047014600200C4A526B0A400AB101201B
:102E600000E0002070470849886370470146002051
:102E7000054A526B0A400AB1012000E00020704769
:102E8000014988637047000000800140FF07C000CF
:102E9000A00030428C053042AC01304210B50446EF
:102EA000FB48844209D101218803FFF7C3FE0021BA
:102EB0004FF48040FFF7BEFE32E0F648844209D16D
:102EC00001214804FFF7C3FE00214FF40030FFF753
:102ED000BEFE25E0F048844209D101218804FFF7B5
:102EE000B6FE00214FF48020FFF7B1FE18E0EB485A
:102EF000844209D10121C804FFF7A9FE00214FF443
:102F00000020FFF7A4FE0BE0E548844208D1012130
:102F10000805FFF79CFE00214FF48010FFF797FE95
:102F200010BD2DE9F04786B005460E460024A246A6
:102F300000BFA1460027B08900B100BF2F462C8AF0
:102F40004CF6FF700440F08804432C82AC894EF6A6
:102F5000F3100440B0883189084371890843044361
:102F6000AC81AC8A4FF6FF400440B0890443AC8288
:102F700001A8FFF7D8FDC648874202D1DDF810A0AE
:102F800001E0DDF80CA0A88900F4004040B10AEB94
:102F9000CA0000EB0A1031684900B0FBF1F807E005
:102FA0000AEBCA0000EB0A1031688900B0FBF1F8A7
:102FB0006420B8FBF0F004012009642101FB1089B2
:102FC000A88900F4004040B1322000EBC900B0FBFA
:102FD000F1F000F00700044308E0322000EB091094
:102FE0006421B0FBF1F000F00F0004432C8106B027
:102FF000BDE8F0874FF41651016000218180C18047
:1030000001810C21418100218181704710B5024668
:103010000020108A4FF2FF0318400B884C8823438E
:103020008C882343CC8823431843108210BD002191
:10303000018041808180C180704721B1828942F442
:103040000052828104E082894DF6FF731A4082812A
:103050007047F0B50346002400260025002040F606
:103060006A17B94200D100BF1846C1F3421401F0FB
:103070001F06012707FA06F5012C01D10C3004E0E8
:10308000022C01D1103000E014301AB107682F4330
:10309000076002E00768AF430760F0BD1AB1838A9A
:1030A0000B43838202E0838A8B4383827047028AC8
:1030B0004FF6F0731A400282028A0A430282704776
:1030C00082894FF2FF731A40828182890A4382818A
:1030D000704721B1828942F00202828104E0828934
:1030E0004FF6FD731A4082817047028A4FF6DF73F4
:1030F0001A400282028A0A430282704721B1028A80
:1031000042F48042028204E0028A4BF6FF731A40C6
:1031100002827047C1F308028280704701468888A6
:10312000C0F308007047818941F001018181704737
:10313000028BD2B20283028B42EA012202837047E1
:10314000028B02F47F420283028B0A4302837047A0
:1031500021B1828A42F02002828204E0828A4FF604
:10316000DF731A408282704721B1828A42F01002D6
:10317000828204E0828A4FF6EF731A40828270479F
:1031800021B1828A42F00802828204E0828A4FF6EC
:10319000F7731A408282704721B1828942F400425B
:1031A000828103E08289C2F30E028281704721B1DD
:1031B000828A42F40062828204E0828A4FF2FF73C4
:1031C0001A4082827047828A4FF6FB731A408282CD
:1031D000828A0A438282704721B1828A42F00202C7
:1031E000828204E0828A4FF6FD731A408282704721
:1031F00002460020B1F5007F00D100BF13880B40CC
:103200000BB1012000E00020704701F40072B2F51C
:10321000007F00D100BFCA430280704770B50246EC
:10322000002400230025002040F66A16B14200D198
:1032300000BFC1F3421501F01F03012606FA03F394
:10324000012D02D19689334006E0022D02D1168A63
:10325000334001E0968A33400C12012606FA04F44A
:103260001688344013B10CB1012000E0002070BD7D
:1032700010B50022002340F66A14A14200D100BF1D
:103280000A1201249440A3B2DC43048010BD000064
:10329000003801400044004000480040004C00401D
:1032A0000050004010B50446BE48844208D10121B8
:1032B0008014FFF7BFFC0021A014FFF7BBFC16E051
:1032C000B948844208D101210014FFF7C0FC002155
:1032D0002014FFF7BCFC0AE0B448844207D1012166
:1032E000C013FFF7B4FC0021E013FFF7B0FC10BDE2
:1032F00010B50022028802F441520B884C88234307
:103300008C882343CC8823430C8923434C89234353
:103310008C892343CC8923431A430280838B4FF249
:10332000FF74234083830B8A038210BD2DE9F04F85
:1033300085B005460C464FF0000902274FF0000803
:103340004FF0010B0026B246A88B4FF24001084017
:10335000A88302202884B5F81C90A068022801D117
:1033600000BF38E0A08810B94FF0010B01E04FF02A
:10337000020B8D48854200D100E000BF6846FFF790
:10338000D2FBDDF800A0E088B0F5007F0AD14FEA5B
:103390001A2000EB80004000A168B0FBF1F0401D56
:1033A00086B20BE04FEA4B10BAFBF0F000EB800066
:1033B0004000A168B0FBF1F0401D86B20A20B6FBC8
:1033C000F0F606F00108A6EB0800C0F34F074FF631
:1033D000FF7000EA0828022F01DBFF2F02DD022721
:1033E0004FF00008E08840EA080038432884A088AD
:1033F000A1890843618808432188084340F400609C
:1034000040EA0909A5F81C9005B0BDE8F08F00213D
:10341000018041808180C180018141818181C181A0
:103420000721018270470021018041808180C18095
:103430000221816000218181704721B1028842F020
:103440004002028004E002884FF6BF731A400280F7
:10345000704721B1828B42F48062828304E0828BC8
:103460004FF6FF331A408283704730B500240023A3
:103470000C110125A540ABB21AB185881D4385808A
:1034800002E085889D43858030BD1AB183880B4357
:10349000838002E083888B438380704781817047FB
:1034A0000146888970474FF6FF62914204D0028836
:1034B00042F48072028004E002884FF6FF631A40F3
:1034C0000280704721B1828842F00402828004E0C9
:1034D00082884FF6FB731A408280704702884FF251
:1034E000FF731A40028002880A43028070470188F5
:1034F00041F480510180704721B1028842F40052AA
:10350000028004E002884DF6FF731A400280704783
:1035100002460020012901D0108B00E0908A7047FC
:103520000146088A7047B1F5804F04D1028842F401
:103530008042028004E002884BF6FF731A4002804A
:1035400070470246002013890B400BB1012000E0B8
:1035500000207047CA4302817047F0B50246002040
:1035600000240023002501F00F070126BE40B4B25D
:103570000B1101269E40B3B2968806EA0305168910
:10358000264016B10DB1012000E00020F0BD10B5BD
:10359000002201F00F040123A3409AB2D343038118
:1035A00010BD00000030014000380040003C0040E9
:1035B0000CB50020019000906C48006840F4803009
:1035C0006A49086000BF6948006800F40030009054
:1035D0000198401C0190009818B90198B0F5A06FAF
:1035E000F1D16248006800F4003010B10120009071
:1035F00001E0002000900098012843D15C48006859
:1036000040F010005A4908600846006820F00300A6
:1036100008600846006840F00200086053484068AF
:10362000524948600846406848600846406840F48F
:10363000806048600846406820F47C104860084676
:10364000406840F4E81048600846006840F0807028
:10365000086000BF4548006800F000700028F9D0FD
:103660004248406820F003004049486008464068EE
:1036700040F00200486000BF3C48406800F00C0089
:103680000828F9D10CBD10B5FFF792FF10BD10B599
:103690003648006840F00100344908600846406838
:1036A00034490840314948600846006832490840BA
:1036B0002E4908600846006820F48020086008460B
:1036C000406820F4FE0048604FF41F008860FFF758
:1036D000DAFF4FF000602949086010BD10B50021E5
:1036E00000200022214B5B6803F00C0121B104296A
:1036F00006D0082928D107E0214B224C236027E07F
:103700001F4B204C236023E0184B5B6803F47010C0
:10371000164B5B6803F48032022303EB904022B91E
:10372000194B4343174C23600DE0104B5B6803F4C7
:10373000003323B1144B4343124C236003E0104B7E
:103740004343104C236003E00D4B0E4C236000BF3D
:1037500000BF064B5B68C3F303130C4CE15C094BE1
:103760001B68CB40074C236010BD000000100240D6
:10377000002002400000FFF8FFFFF6FE08ED00E029
:1037800000127A002C00002000093D0030000020CB
:103790002DE9F04102460F46802A01DA10462FE05B
:1037A0001FB1244B45F2205602E0234B45F2205630
:1037B0000025102416E0A6EB050C0CEBDC7805EBDD
:1037C00068014FEA410C33F81CC0944500D10BE06E
:1037D0004FEA410C33F81CC0944501DA0D4600E075
:1037E0000E46641E002CE6D100BF34B14FF0010C30
:1037F0000CEB410C33F81CC001E04FF0000C6046AC
:10380000BDE8F0810246002100E0491C0B4830F879
:10381000110020B1094830F811009042F5D1074855
:1038200030F8110018B1064830F811007047104602
:10383000FCE7000030AD0108AC580008B4010308F3
:103840009403030870B505460DB1012070BDFDF766
:10385000DDFF04460CB10120F8E70020F6E7014641
:10386000002070472DE9F04107460D4614461E46DC
:10387000012E0EDD610233464FF400722846FEF73A
:10388000A7F9FEF70AFA00BFFEF72AF80028FBD1D5
:103890000CE061024FF400722846FEF739F9FEF79A
:1038A000FCF900BFFEF71CF80028FBD10020BDE8A2
:1038B000F0812DE9F04107460D4614461E46012EC3
:1038C0000EDD610233464FF400722846FEF76BFAB4
:1038D000FEF7FCFA00BFFEF703F80028FBD10CE06E
:1038E00061024FF400722846FEF7ECF9FEF7EEFA9B
:1038F00000BFFDF7F5FF0028FBD10020BDE8F081F7
:1039000003460020704700207047000070B5034652
:103910000C4603E014F8015B03F8015B1500A2F10B
:103920000102F7D170BD30B5034601E003F8011B79
:103930001400A2F10102F9D130BDF0B503461C46D6
:103940000D46002000BF1600A2F1010207D014F8B6
:10395000017B15F801CBA7EB0C063000F3D0F0BDCE
:10396000024600E0521C107810B110788842F9D15C
:10397000107870472DE9F04104460D46E66AAE42E4
:103980002FD0207908B360780123324604F130014A
:10399000FFF78FFF10B10120BDE8F08100202071FA
:1039A000D4E907100844B0420FD9E7780AE0E0698B
:1039B000064460780123324604F13001FFF779FFB5
:1039C000781EC7B2012FF2DC00BF55B16078012329
:1039D0002A4604F13001FFF745FF08B10120DBE77B
:1039E000E5620020D8E770B5044600212046FFF7C5
:1039F000C1FF0546002D59D1207803284FD16079A9
:103A000000284CD00020E0624FF40072002104F145
:103A10003000FFF788FF552184F82E12AA2184F880
:103A20002F12522084F8300052213120015561219B
:103A300032200155412133200155722184F814129E
:103A400084F81512412184F81612612184F81712A6
:103A5000217C84F81812208A010A84F8191220693E
:103A6000010C84F81A122069010E84F81B12217BC4
:103A700084F81C12A089010A84F81D12E068010C68
:103A800084F81E12E068010E84F81F12607801238A
:103A900004F130016269FFF70CFF0020607160786B
:103AA00000221146FFF72CFF00B10125284670BD0A
:103AB0000246891E9069801E884201D80020704706
:103AC0009378906A01FB0300F9E72DE9F041054680
:103AD0000C46022C02D3A869A04202D80120BDE8FE
:103AE000F0812878012804D002282CD003285AD14C
:103AF0003DE0274607EB5707286A00EB5721284689
:103B0000FFF738FF00B14EE0C7F3080105F13000C0
:103B100010F801807F1C286A00EB57212846FFF728
:103B200029FF00B13FE0C7F3080105F13000405C18
:103B300048EA002804F0010010B14FEA1810CEE75F
:103B4000C8F30B00CBE7286A00EB14212846FFF7E7
:103B500011FF00B127E040F2FF1000EA440105F137
:103B600030000E183078717840EA0120B7E7286AF3
:103B700000EBD4112846FFF7FDFE00B113E040F240
:103B8000FF1000EA840105F130000E18F0780006FD
:103B9000B17840EA0140717840EA01203178084369
:103BA00020F070409BE700BF4FF0FF3097E72DE912
:103BB000F04705460E461746022E02D3A869B042CA
:103BC00002D84FF002088AE02878012804D00228A1
:103BD00041D003287DD154E0B14609EB5909286A48
:103BE00000EB59212846FFF7C5FE8046B8F1000FCB
:103BF00000D071E0C9F3080105F130000C1806F09F
:103C0000010020B1F9B2207861F31F1000E03846BE
:103C1000207009F1010901202871286A00EB59215F
:103C20002846FFF7A7FE8046B8F1000F00D053E00A
:103C3000C9F3080105F130000C1806F0010010B1BD
:103C4000C7F3071005E0207800F0F000C7F3032168
:103C50000843207040E0286A00EB16212846FFF751
:103C600089FE8046B8F1000F00D035E040F2FF1029
:103C700000EA460105F130000C182770380A607020
:103C80002AE0286A00EBD6112846FFF773FE80462B
:103C9000B8F1000F00D01FE040F2FF1000EA8601EB
:103CA00005F130000C18E0780006A17840EA0140E8
:103CB000617840EA01202178084300F07040074312
:103CC0002770380A6070380CA070380EE07003E07E
:103CD000FFE74FF0020800BF00BF012028714046F7
:103CE000BDE8F0872DE9F04104460E46022E02D3CE
:103CF000A069B04201D8022725E000271FE0314625
:103D00002046FFF7E2FE054605B91BE0012D01D173
:103D1000022717E0681C08B9012713E0002231468A
:103D20002046FFF744FF074607B10BE02069401C1F
:103D300020B12069401C2061012060712E46A069DD
:103D4000B042DCD800BF3846BDE8F0812DE9F0472D
:103D500004468946B9F1000F06D1E76817B1A0699A
:103D6000B84211D801270FE049462046FFF7ADFEC3
:103D70000646022E02D20120BDE8F087A069B042BB
:103D800001D93046F8E74F463D4600BF6D1CA0699B
:103D9000A84204D80225BD4201D90020ECE72946FB
:103DA0002046FFF792FE064606B909E0701C08B1EE
:103DB000012E01D13046DFE7BD42E7D10020DBE72D
:103DC00000BF6FF0704229462046FFF7F0FE8046A4
:103DD000B8F1000F08D1B9F1000F05D02A464946C5
:103DE0002046FFF7E4FE8046B8F1000F09D1E560F8
:103DF0002069401C68B12069401E2061012060716B
:103E000007E0B8F1010F02D14FF0FF3000E00120D0
:103E100005462846B0E72DE9F04104460E46E68007
:103E2000A568012D03D020688069A84202D802202D
:103E3000BDE8F0812DB920680078032801D1206801
:103E4000456A65B9E56020680089B04201DC02205E
:103E5000EEE72068406A00EB1610206120E0206841
:103E60008078070112E029462068FFF72EFE0546FC
:103E7000681C08B90120DBE7022D03D320688069A4
:103E8000A84201D80220D3E7F01B86B2BE42EADA8C
:103E9000E56029462068FFF70BFE00EB1610206155
:103EA0002068303006F00F0100EB41106061002007
:103EB000BEE72DE9F0410446884600BFE088401C7B
:103EC00086B20EB1206910B90420BDE8F08106F079
:103ED0000F0000286FD12069401C2061E06828B9DC
:103EE00020680089B04266DC0420EEE72068807814
:103EF000401E00EA161000285DD1E1682068FFF737
:103F0000E4FD0546012D01D80220DEE7681C08B952
:103F10000120DAE720688069A84246D8B8F1000F8E
:103F200001D10420D1E7E1682068FFF70FFF0546C3
:103F30000DB90720C9E7012D01D10220C5E7681C92
:103F400008B90120C1E700212068FFF713FD08B17F
:103F50000120BAE7216801F130004FF4007200211E
:103F6000FFF7E1FC29462068FFF7A2FD2168C8623F
:103F7000002710E001202168087100212068FFF768
:103F8000F9FC08B10120A0E72068C06A401C216844
:103F9000C862781CC7B220688078B842EADC206822
:103FA000C06AC01B2168C86200BFE560294620685E
:103FB000FFF77EFD2061E6802068303006F00F01BB
:103FC00000EB4110606100207FE72DE9F0470546D6
:103FD0000C46207820F04000401E00EB800101EBF1
:103FE000C00600274FF0010800BFFE48C05D205CFE
:103FF000FC49C95D2144497840EA0129B8F1000F24
:1040000010D04846FFF7FEFB8046FF2E07D2314610
:10401000761C35F81100FFF7F5FB404508D000206D
:10402000BDE8F0874FF6FF70814501D00020F7E72B
:10403000781C07460D28D8D3207800F0400038B10E
:10404000B8F1000F04D035F8160008B10020E7E7FA
:104050000120E5E7F0B50346087800F03F00401E78
:1040600000EB800707EBC0020025012600BFDD48FA
:10407000405D085CDB4F7F5D0F447F7840EA07249A
:104080004EB1FF2A01D30020F0BD26461046521C37
:1040900023F8104005E04FF6FF70844201D0002065
:1040A000F2E7681C05460D28E1D3087800F04000CF
:1040B00030B1FF2A01D30020E6E7002023F81200E8
:1040C0000120E1E7F0B504461D464D730F27CF727E
:1040D00000270F738F76BC4681F81BC0571E07EB75
:1040E000870C0CEBC706002738463B4600BF4FF64F
:1040F000FF77B84203D03746761C34F81700DFF854
:10410000E4C21CF803C001F80C000712DFF8D4C2A7
:104110001CF803C08C448CF8017008B94FF6FF708E
:104120005F1C3B460D2FE2D34FF6FF77B84202D01B
:1041300034F816700FB942F040020A70F0BD2DE954
:10414000FC4707468A4690461C460B225146384695
:10415000FFF7DCFB052C0BDD00BF601000EBC4316A
:1041600038F8022B881884B2B8F800000028F4D17F
:10417000072600BF2046E11704EB11710911A4EBDB
:104180000111303101F0FF09B9F1390F03DD09F1F7
:10419000070000F0FF093046761E0DF8009020461B
:1041A000E11704EB1171C1F30F14002CE2D17E2052
:1041B0000DF8060000250BE0785D812807DB785DAF
:1041C000FE2804DC701EA84200D106E06D1C6D1CA8
:1041D000B54202D2785D2028EED100BF00BF082E84
:1041E00004D23046761C1DF8000000E0202029464D
:1041F0006D1C7854082DF2D3BDE8FC8730B501461C
:1042000000200B2200BF431003EBC01411F8015B28
:104210006319D8B2531E1A00F5D130BD2DE9F0470D
:10422000044600212046FFF7F6FD074617B1384641
:10423000BDE8F0874FF0FF09CA4600BF216920683A
:10424000FFF798FB074607B154E065692E780EB971
:1042500004274FE0E87A00F03F08E52E05D008F08B
:10426000080028B1B8F10F0F02D04FF0FF093AE073
:10427000B8F10F0F1CD1E069A0B306F0400030B1D7
:1042800095F80DA026F04006B146E08820844E4502
:104290000AD1687B504507D12946E069FFF795FEB2
:1042A00010B1A9F1010000E0FF2000F0FF091AE0C1
:1042B000B9F1000F05D12846FFF7A0FF504500D106
:1042C00018E04FF0FF094FF6FF702084A069C07A14
:1042D00000F0010030B90B222846A169FFF72DFB41
:1042E00000B907E0FFE700212046FFF7E2FD07469F
:1042F000002FA3D000BF38469AE72DE9F0470446C7
:104300004FF0FF09CA4604274CE021692068FFF7F7
:1043100031FB074607B148E0666935780DB90427D7
:1043200043E0F07A00F03F08E52D07D02E2D05D0B0
:1043300008F0080028B1B8F10F0F02D04FF0FF09C4
:1043400029E0B8F10F0F1AD105F0400030B196F80E
:104350000DA025F04005A946E08820844D450AD1EE
:10436000707B504507D13146E069FFF773FE10B10D
:10437000A9F1010000E0FF2000F0FF090BE0B9F116
:10438000000F04D13046FFF739FF504502D04FF6F9
:10439000FF70208409E000212046FFF78AFD0746D0
:1043A00007B102E020690028AFD100BF0FB10020A3
:1043B00020613846BDE8F0872DE9F04F85B004460E
:1043C000D4F81880D4F81CB00C22414601A8FFF79D
:1043D0009DFA00BF9DF80F0000F0010050B30020CF
:1043E00002E000007405030888F80B00E061012773
:1043F0000DE03B465A4601A94046FFF7A0FE204685
:10440000FFF70CFF054605B103E0781C87B2642F67
:10441000EFDB00BF642F03D1072005B0BDE8F08FAC
:10442000042D01D02846F8E79DF80F0088F80B000E
:10443000C4F81CB09DF80F0000F0020070B1002617
:1044400001E0701C86B23BF816000028F9D106F195
:1044500019000D2190FBF1F086B200E00126002149
:104460002046FFF7D8FC05460DB12846D5E70020C9
:104470000746049000BF21692068FFF77BFA0546D4
:1044800005B119E0606990F80090B9F1E50F02D02C
:10449000B9F1000F08D10FB9E0880490781C80B200
:1044A0000746B04201D107E0002701212046FFF76F
:1044B00000FD0546002DDED000BF4DBB012E27DDDF
:1044C00020460499FFF7A7FC05460DBBA069FFF73E
:1044D00095FE0090701E86B200BF21692068FFF72C
:1044E00049FA054605B112E0F2B26169E069009B44
:1044F000FFF7E8FD01202168087100212046FFF741
:10450000D8FC05461DB9701E80B20600E5D100BF7B
:10451000D5B921692068FFF72DFA0546A5B9D4F869
:1045200014A0202200215046FFF7FDF90B2250462F
:10453000A169FFF7EBF9A069C07A00F018008AF8CA
:104540000C00012021680871284666E72DE9F34F29
:1045500083B0814604980068019002E00198401CF5
:104560000190019800782F28F8D0019800785C28F5
:10457000F4D0D9F81CA000252F4600BF38467F1C78
:1045800001990C5C202C03DB2F2C01D05C2C00D17A
:1045900032E0FF2D03D3062005B0BDE8F08FE4B272
:1045A000812C13DBE0B2FE2810DC38467F1C019919
:1045B0000E5C402E01DB7E2E05DD802E01DBFE2E03
:1045C00001DD0620E8E706EB042084B20121204645
:1045D000FFF7DEF804460CB90620DDE7802C06DA8A
:1045E0002146FEA0FFF7BCF908B10620D4E7284613
:1045F0006D1C2AF81040C1E700BF0198C11904984A
:104600000160202C01DA042000E00020804608E050
:10461000681E3AF81040202C02D02E2C00D002E068
:104620006D1E002DF4D100BF0DB90620B4E70020A7
:104630002AF815000B222021D9F81800FFF773F98A
:10464000002700E07F1C3AF817002028FAD03AF83B
:1046500017002E28F6D00FB148F0030800E06D1EB9
:1046600025B1681E3AF810002E28F8D10020064621
:1046700002904FF0080B00BF38467F1C3AF81040FC
:1046800004B963E0202C03D02E2C04D1AF4202D019
:1046900048F00308F0E70298584501D2AF4214D120
:1046A000BBF10B0F02D148F003084FE0AF4201D03D
:1046B00048F00308AF4200D948E02F460820029096
:1046C0004FF00B0BB006060ED6E7802C09DB204618
:1046D000FFF798F800210090FFF75AF8044648F0D9
:1046E0000208FF2C11DDABF101000299884204D8C9
:1046F00048F00308CDF808B0BEE72212D9F8183008
:104700000298411C02911A5419E024B12146B6A026
:10471000FFF726F918B15F2448F003080FE0412C99
:1047200004DB5A2C02DC46F0020608E0612C06DBB2
:104730007A2C04DC46F00106A4F1200084B2D9F8FA
:1047400018300298411C02911C5495E700BFD9F81B
:1047500018000078E52803D10520D9F81810087052
:10476000BBF1080F01D1B006060E06F00C000C28B4
:1047700003D006F00300032801D148F0020808F036
:10478000020058B906F00300012801D148F01008D2
:1047900006F00C00042801D148F00808D9F81800E8
:1047A00080F80B800020F7E62DE9FC5F81460F467C
:1047B00007F10908D9F81000002851D0D9F81440A1
:1047C000207B0190002514E0665D202E00D112E0D0
:1047D000052E00D1E526019800F0080030B1412EE9
:1047E00004DB5A2E02DC06F12000C6B208F8016B89
:1047F0006D1C082DE8D300BF207A202819D02E2068
:1048000008F8010B082511E0665D202E00D10FE0AD
:10481000019800F0100030B1412E04DB5A2E02DC6A
:1048200006F12000C6B208F8016B6D1C0B2DEBD30E
:1048300000BFE07A3872E07F0106A07F41EA0041C4
:10484000607F41EA0020217F08433860217E607E3E
:1048500041EA0020B880A17DE07D41EA0020F88097
:10486000002088F80000B869D0B3F869C0B3D7F861
:1048700018B00025D9F8100070B3B9F820004FF631
:10488000FF71884228D0D9F81C0000901CE000215C
:104890005046FEF77DFF8246BAF1000F01D1002598
:1048A00019E0BAF1FF0F05DD4FEA2A2228466D1CF8
:1048B0000BF80020F869401EA84201D800250AE044
:1048C00028466D1C0BF800A0009830F8021B5FEA28
:1048D000010A0090DBD100BF00200BF8050000BFEB
:1048E000BDE8FC9F2DE9F3410446019800782F288C
:1048F00003D0019800785C2802D10198401C0190F7
:104900000020A06001980078202807D200212046CE
:10491000FFF781FA0646002060612FE000BF01A981
:104920002046FFF713FE064606B126E02046FFF7B5
:1049300075FC0646A069C77A46B1042E00D01CE07B
:1049400000BF07F0040000B9052616E007F00400D8
:1049500000B112E06569E87A00F0100008B9052698
:104960000BE0A97EE87E41EA00212A7D687D42EACB
:10497000002041EA0040A060D1E700BF3046BDE81A
:10498000FC8170B504460D46607801232A4604F187
:104990003001FEF767FF08B1032070BD94F82E12B6
:1049A00094F82F0241EA00204AF65521884201D0AE
:1049B0000220F2E794F86900010694F8680041EAE1
:1049C000004194F8670041EA002094F8661008431B
:1049D00020F07F40064988420ED10BE0222A3A3C63
:1049E0003E3F7C7F000000002B2C3B3D5B5D0000C8
:1049F000464154000020D0E794F88500010694F861
:104A0000840041EA004194F8830041EA002094F8D0
:104A10008210084320F07F40F749884201D10020EE
:104A2000BBE70120B9E72DE9F74F88B00898006887
:104A300001900198007830380790079809280AD823
:104A4000019840783A2806D10198801C0190089975
:104A50000198086001E000200790079818B10B202A
:104A60000BB0BDE8F08FE549079851F82040099850
:104A700004600CB90C20F3E7207878B16078FEF779
:104A8000EEFE804608F0010040B90A9820B108F017
:104A9000040008B10A20E3E70020E1E700202070CD
:104AA000079860706078FEF7CDFE804608F0010040
:104AB00008B10320D4E70A9820B108F0040008B137
:104AC0000A20CDE74FF0000B59462046FFF759FF6B
:104AD000054600BF012D21D14FF0000ABAF1000FA9
:104AE00003D0AAF1010000F0FF0A4FF4DF7000EBE1
:104AF0000A1104F130000F18387978B1F87A0106FC
:104B0000B87A41EA0041787A41EA0020397A40EAED
:104B1000010B59462046FFF734FF0546032D01D10E
:104B200001209DE70DB10D209AE73B20015D94F82F
:104B30003C0041EA0020B0F5007F01D00D208FE756
:104B40004620015D94F8470041EA0029B9F1000FC1
:104B50000ED194F85700010694F8560041EA00413E
:104B600094F8550041EA002094F8541040EA0109F5
:104B7000C4F81C904020065DE670012E03D0022E82
:104B800001D00D206CE709FB06F93D20005D0646CB
:104B9000A07016B1701E304008B10D2060E74120B2
:104BA000015D94F8420041EA00202081207A00F063
:104BB0000F0008B10D2053E74320015D94F8440035
:104BC00041EA00200690069870B994F85300010657
:104BD00094F8520041EA004194F8510041EA002063
:104BE00094F85010084306903E20015D94F83F0071
:104BF00041EA00200290029808B90D2030E702989F
:104C00004844218900EB11100590DDE9050181423E
:104C100001D20D2024E7DDE90510401AA178B0FB90
:104C2000F1F00490049808B90D2019E7012540F629
:104C3000F6710498884200D302254FF6F671049865
:104C4000884200D303250498801CA061059858442D
:104C5000A062029858442062032D16D1208908B121
:104C60000D20FDE694F85F00010694F85E0041EA2D
:104C7000004194F85D0041EA002094F85C1008437C
:104C80006062A0698000039014E0208908B90D20BB
:104C9000E6E6206A48446062022D02D1A069400025
:104CA00007E0207E00F00100A16901EB410100EB6B
:104CB00051000390E169039800F2FF10B1EB502F0F
:104CC00001D20D20CCE64FF0FF3020610020E060E3
:104CD000032D5CD1607194F8601094F8610041EA92
:104CE0000020584460616078012304F1300162695A
:104CF000FEF7B8FDF0BB94F82E1294F82F0241EAAB
:104D000000204AF65521884241D13320005D01063A
:104D10003220005D41EA00413120005D41EA00207F
:104D200094F8301008433649884230D194F817027D
:104D3000010694F8160241EA004194F8150241EA8E
:104D4000002094F8141208432E4988421FD194F889
:104D50001F02010694F81E0241EA004194F81D0268
:104D600041EA002094F81C120843E06094F81B020A
:104D7000010600E00BE094F81A0241EA004194F8C1
:104D8000190241EA002094F81812084320612570A6
:104D90001D480088401C80B21B490880E08000202C
:104DA000E062207100BF5BE670B504460D4624B199
:104DB000207810B1E088A84201D0092070BD607849
:104DC000FEF74DFD00F0010008B10320F6E70020DA
:104DD000F4E70246012A01DB0B207047074850F830
:104DE00022300BB10020187009B100200870034870
:104DF00040F822100020F0E7464154004000002017
:104E00005252614172724161440000202DE9F74322
:104E1000ADF50C7D054616460020286006F01F06FD
:104E200026F0010283A98DA8FFF7FDFD074680A8A3
:104E30008990CDF828D227B983A88D99FFF752FD24
:104E40000746889C0FB904B9062706F01C00002805
:104E500058D04FB1042F03D183A8FFF7ADFA07460E
:104E600046F00806889C09E0E07A00F0110008B1DD
:104E7000072703E006F0040000B10827002F40D107
:104E800006F0080000283CD0FEF73DFD804684F87F
:104E90000E804FEA1821E1734FEA184121744FEA5E
:104EA000186161740020E072207700216177A1779A
:104EB000E177A17EE07E41EA0021227D607D42EA29
:104EC000002041EA00490020A0760021E17620750B
:104ED0006175012083990871B9F1000F11D0839891
:104EE000D0F82C8049468398FEF7FCFE074647B968
:104EF000A9F101008399C86041468398FEF73AFD05
:104F000007460EE06FB9E07A00F0100008B1042700
:104F100007E006F0020020B1E07A00F0010000B1E5
:104F2000072747B906F0080008B146F02006839825
:104F3000C06AE8612C62F7B9AE71A17EE07E41EAF9
:104F40000021227D607D42EA002041EA0040286184
:104F5000E07F0106A07F41EA0041607F41EA002036
:104F6000217F0843E8600020A860A861839828603A
:104F70008398C088A88038460DF50F7DBDE8F08382
:104F80002DE9FF4F83B0044615469A46DDF810B070
:104F90000020CAF80000A1882068FFF705FF0290F2
:104FA000029818B1029807B0BDE8F08FA07900F020
:104FB000800008B10220F6E7A07900F0010008B9EE
:104FC0000720F0E7D4E90210401A009000988542CB
:104FD00000D9009DB6E02089C0F3080000287DD1EB
:104FE00020688078401EA16800EA512000F0FF0987
:104FF000B9F1000F1DD1A06810B92069019004E03B
:1050000061692068FEF761FD01900198022805D2D0
:10501000A07940F08000A0710220C4E70198401CF4
:1050200028B9A07940F08000A0710120BBE7019869
:10503000606161692068FEF73BFD06462EB9A079E4
:1050400040F08000A0710220ADE74E444FEA5528A1
:10505000B8F1000F2DD009EB08002168897888424B
:1050600003D920688078A0EB090808F0FF032168C5
:10507000487832465946FEF7F5FB28B1A07940F052
:105080008000A07101208EE7A07900F0400068B197
:10509000A069801B404509D2A169891B0BEB412007
:1050A0004FF4007204F12401FEF730FC4FEA482768
:1050B0003EE0A069B04227D0A07900F04000A0B146
:1050C00021684878012304F12401A269FEF7F1FB6D
:1050D00038B1A07940F08000A07100E015E0012017
:1050E00061E7A07920F04000A07121684878012391
:1050F000324604F12401FEF7B5FB28B1A07940F057
:105100008000A07101204EE7A6612089C0F308004D
:10511000C0F50077AF4200D92F462089C0F30802BE
:1051200004F1240011183A465846FEF7EFFB00BF81
:10513000BB44A0683844A060DAF800003844CAF8DC
:105140000000ED1B002D7FF446AF00202BE72DE97A
:10515000FF4F83B0044615469B46049801900020FB
:10516000CBF80000A1882068FFF71EFE029002988D
:1051700018B1029807B0BDE8F08FA07900F0800068
:1051800008B10220F6E7A07900F0020008B9072074
:10519000F0E7E0682844E168884200D20025CDE0CD
:1051A0002089C0F30800002877D120688078401E4D
:1051B000A16800EA512000F0FF0ABAF1000F2AD1DD
:1051C000A06858B9D4F81080B8F1000F0BD10021B5
:1051D0002068FEF7BBFD8046206104E0616920681D
:1051E000FEF7B4FD8046B8F1000F00D1A9E0B8F198
:1051F000010F05D1A07940F08000A0710220B9E72D
:1052000008F1010028B9A07940F08000A0710120C8
:10521000B0E7C4F81480A07900F0400090B1216894
:105220004878012304F12401A269FEF742FB28B16A
:10523000A07940F08000A07101209BE7A07920F0C8
:105240004000A07161692068FEF732FC06462EB965
:10525000A07940F08000A07102208BE756444FEA0D
:105260005529B9F1000F2FD00AEB09002168897880
:10527000884203D920688078A0EB0A0909F0FF036F
:105280002168487832460199FEF713FB30B1A079C6
:1052900040F08000A07101206CE72CE0A069801B29
:1052A00048450ED2A069801B019A02EB40214FF4C1
:1052B000007204F12400FEF729FBA07920F04000E1
:1052C000A0714FEA49272DE0A069B04212D0D4E97D
:1052D000020188420ED2216848780123324604F147
:1052E0002401FEF7BFFA28B1A07940F08000A07138
:1052F00001203FE7A6612089C0F30800C0F50077D0
:10530000AF4200D92F462189C1F3080204F12401DC
:1053100050183A460199FEF7F9FAA07940F040009A
:10532000A07100BF019838440190A0683844A06083
:10533000DBF800003844CBF80000ED1B002D7FF4B3
:105340002FAF00BFD4E90201884201D9A068E06014
:10535000A07940F02000A07100200BE72DE9F0417A
:105360000446A1882068FFF71FFD0746002F4FD194
:10537000A07900F0200000284AD0A07900F0400079
:1053800078B121684878012304F12401A269FEF76D
:1053900090FA10B10120BDE8F081A07920F0400022
:1053A000A071E1692068FEF7E5FA0746002F2FD1CA
:1053B000256AE87A40F02000E872207B2877A089EF
:1053C000010A6977E068010CA977E068010EE977C6
:1053D000207CA876208A010AE9762069000C2875CD
:1053E0002069010E6975FEF78EFA0646AE75310A20
:1053F000E975310C2976310E6976A07920F020000C
:10540000A0710120216808712068FEF7ECFA0746B8
:105410003846C0E770B504462046FFF79FFF0546B3
:105420000DB900202060284670BD2DE9F0470446E4
:105430000E46A1882068FFF7B7FC8246BAF1000F3C
:1054400002D05046BDE8F087A07900F0800008B196
:105450000220F7E7E068B04204D2A07900F0020031
:1054600000B9E668D4F808904FF00008C4F8088046
:10547000002E77D0206880784702B9F1000F11D054
:10548000701EB0FBF7F1A9F10100B0FBF7F081420B
:1054900008D3A9F10100791E8843A060A068361ADC
:1054A000656918E02569ADB900212068FEF74EFC5A
:1054B0000546012D05D1A07940F08000A0710220A1
:1054C000C0E7681C28B9A07940F08000A0710120D5
:1054D000B8E725616561002D44D029E0A07900F08E
:1054E000020038B129462068FEF730FC054635B980
:1054F0003E461FE029462068FEF7E7FA0546681C8D
:1055000028B9A07940F08000A07101209AE7012D10
:1055100003D920688069A84205D8A07940F08000AE
:10552000A07102208EE76561A0683844A060F61B78
:10553000BE42D3D800BFA0683044A060C6F30800C4
:1055400068B129462068FEF7B3FA8046B8F1000F2B
:1055500006D1A07940F08000A071022072E701E03E
:1055600008EB56282089C0F3080050B3A0694045D5
:1055700027D0A07900F0400090B12168487801233D
:1055800004F12401A269FEF794F928B1A07940F052
:105590008000A071012055E7A07920F04000A071A3
:1055A000216848780123424604F12401FEF75AF9A4
:1055B00028B1A07940F08000A071012042E7C4F832
:1055C0001880D4E90201884205D9A068E060A0797A
:1055D00040F02000A071504634E733B5ADF5037DAF
:1055E00004460022214684A8FFF71DFA05465DBB4C
:1055F00080A8A061C4F81CD020468499FFF772F9F6
:105600000546F5B9606998B16069C07A00F010008C
:1056100068B16069817EC07E41EA00216069027DD7
:10562000407D42EA002041EA0040A06000E00525FC
:105630003DB92068C088A08000212046FEF7EBFB22
:105640000546042D00D1052528460DF5057D30BD04
:1056500070B5ADF5047D04460E46A1882068FFF7BD
:10566000A3FB054615BB2EB900212046FEF7D3FB50
:1056700005461BE081A8A06101A8E0612046FEF775
:105680003CFE0546042D02D10020206100256DB9A5
:1056900031462046FFF788F800212046FEF709FC36
:1056A0000546042D02D100202061002528460DF575
:1056B000047D70BD10B5431A934209D2831888182F
:1056C00003E010F8011D03F8011D521EF9D210BDB0
:1056D00040EA01039B0703D009E008C9121F08C074
:1056E000042AFAD203E011F8013B00F8013B521EF4
:1056F000F9D210BDD2B201E000F8012B491EFBD255
:1057000070470022F6E710B513460A4604461946CC
:10571000FFF7F0FF204610BD30B505462A460B4680
:1057200012F8010B13F8014B08B1A042F8D01CB1DC
:10573000002802D06D1CF1E7284630BD10B50446A4
:1057400004E00B7800F8013B03B1491C521EF8D26B
:10575000204610BD30B505460020034600E05B1C26
:10576000934205D2EC5CC85C201A01D1002CF6D122
:1057700030BD0000064C074D06E0E06840F0010334
:1057800094E8070098471034AC42F6D3FAF7D4FCFB
:1057900084050308A40503080FB4054B10B503A93D
:1057A000044A029800F017F810BC5DF814FB0000E2
:1057B000B70200084800002002E008C8121F08C114
:1057C000002AFAD170477047002001E001C1121F82
:1057D000002AFBD170472DE9F84F9946924688463A
:1057E0000546002706E025280AD051464A4690473C
:1057F0006D1C7F1C28780028F5D13846BDE8F88F4D
:10580000002315F8011F18462E2915D115F8011F80
:1058100004232A290DD06FF02F022978A1F130043A
:10582000092C09D800EB800002EB400008446D1CF5
:10583000F3E758F8040B6D1C2A78002ADDD0632AA0
:1058400007D0732A0FD0104651464A4690477F1C16
:105850002AE018F8042B8DF8002000218DF80110A3
:105860006E46012103E058F8046B4FF0FF315A07F0
:105870004FF0000401D409E0641C84420BDA8C422E
:10588000FADB325D002AF7D105E0641C8C42FCDBB8
:10589000305D0028F9D1274404E016F8010B514689
:1058A0004A469047641EF8D26D1CA3E7A400E8A105
:1058B000A700ECA1A800A7A1B000E3A1B100C0A17E
:1058C000B700A4A1D700C1A1E000A4A8E100A2A84C
:1058D000E800A8A8E900A6A8EA00BAA8EC00ACA8CD
:1058E000ED00AAA8F200B0A8F300AEA8F700C2A18C
:1058F000F900B4A8FA00B2A8FC00B9A80101A1A857
:105900001301A5A81B01A7A82B01A9A84401BDA8A4
:105910004801BEA84D01ADA86B01B1A8CE01A3A856
:10592000D001ABA8D201AFA8D401B3A8D601B5A8C5
:10593000D801B6A8DA01B7A8DC01B8A85102BBA803
:105940006102C0A8C702A6A1C902A5A1CA0240A8B7
:10595000CB0241A8D90242A89103A1A69203A2A614
:105960009303A3A69403A4A69503A5A69603A6A6AF
:105970009703A7A69803A8A69903A9A69A03AAA67F
:105980009B03ABA69C03ACA69D03ADA69E03AEA64F
:105990009F03AFA6A003B0A6A103B1A6A303B2A61E
:1059A000A403B3A6A503B4A6A603B5A6A703B6A6EB
:1059B000A803B7A6A903B8A6B103C1A6B203C2A69D
:1059C000B303C3A6B403C4A6B503C5A6B603C6A64F
:1059D000B703C7A6B803C8A6B903C9A6BA03CAA61F
:1059E000BB03CBA6BC03CCA6BD03CDA6BE03CEA6EF
:1059F000BF03CFA6C003D0A6C103D1A6C303D2A6BE
:105A0000C403D3A6C503D4A6C603D5A6C703D6A68A
:105A1000C803D7A6C903D8A60104A7A71004A1A745
:105A20001104A2A71204A3A71304A4A71404A5A7F2
:105A30001504A6A71604A8A71704A9A71804AAA7BF
:105A40001904ABA71A04ACA71B04ADA71C04AEA78E
:105A50001D04AFA71E04B0A71F04B1A72004B2A75E
:105A60002104B3A72204B4A72304B5A72404B6A72E
:105A70002504B7A72604B8A72704B9A72804BAA7FE
:105A80002904BBA72A04BCA72B04BDA72C04BEA7CE
:105A90002D04BFA72E04C0A72F04C1A73004D1A78F
:105AA0003104D2A73204D3A73304D4A73404D5A732
:105AB0003504D6A73604D8A73704D9A73804DAA7FF
:105AC0003904DBA73A04DCA73B04DDA73C04DEA7CE
:105AD0003D04DFA73E04E0A73F04E1A74004E2A79E
