:020000040800F2
:1000000040250020B1220008890100088B0100086A
:100010008F0100089301000897010008000000000C
:100020000000000000000000000000009B0100082C
:100030009D010008000000009F010008A1010008C8
:10004000CB220008CB220008CB220008CB220008DC
:10005000CB220008CB220008CB220008CB220008CC
:10006000CB220008CB220008CB220008CB220008BC
:10007000CB220008CB220008CB220008CB220008AC
:10008000CB220008CB220008CB220008CB2200089C
:10009000CB220008CB220008CB220008CB2200088C
:1000A000CB220008CB220008CB220008CB2200087C
:1000B000CB220008CB220008CB220008CB2200086C
:1000C000CB220008CB220008CB220008CB2200085C
:1000D000CB220008CB220008CB220008CB2200084C
:1000E000CB220008CB220008CB220008CB2200083C
:1000F000CB220008CB220008CB220008CB2200082C
:10010000CB220008A9010008CB220008CB2200085E
:10011000CB220008CB220008CB220008CB2200080B
:10012000CB220008CB220008CB220008CB220008FB
:10013000DFF80CD005F0E4FB00480047450100085B
:100140004025002010B500F033F800F077F800F0FB
:1001500090FD05A005F0E6FB00F06EF900F04FFA07
:1001600000F0EFFB00BFFEE7200D0A20D5E2CAC772
:10017000D2BBB8F64D5033B2E2CAD4C0FDB3CC20E6
:10018000210D0A2000000000704700BFFEE700BFFD
:10019000FEE700BFFEE700BFFEE77047704770470D
:1001A00010B500F038F810BD10B502F044F810BDDD
:1001B0001D4909681D4AB1FBF2F0B0F1807F01D3FF
:1001C00001211CE020F07F41491E4FF0E0225161E7
:1001D00000BF5117002905DA0F210901144A0B232A
:1001E000D15404E00F210901124A5317D15400BF22
:1001F00000214FF0E022916107211161002109B136
:1002000000BFFEE770470C49086000BF0A49096853
:100210000029FBD170470848006820B106480068F3
:10022000401E0549086070472C000020A086010090
:1002300018ED00E000E400E00000002000B585B00B
:10024000012144F2040002F0EDFC4FF40070ADF81F
:10025000100018208DF8130003208DF8120004A957
:10026000734802F035FA4FF48060ADF810000420B6
:100270008DF8130004A96E4802F02AFA4FF4E13019
:1002800000900020ADF80400ADF80600ADF80800BD
:10029000ADF80C000C20ADF80A006946654802F084
:1002A0004CFE0121634802F0D3FE05B000BD70B5DD
:1002B00004460D46E1B25F4802F039FF00BF5D48D9
:1002C000008810F0800FFAD0204670BDF0B50346CC
:1002D00000270E460A2A03D0002030700846F0BDE1
:1002E00033B9302006F8010B002030700846F6E7DD
:1002F000002B03DA2D2006F8010B5B4242F210744A
:100300000DE093FBF4F505B937B105F1300006F8BF
:10031000010B05FB143301270A2094FBF0F4002C99
:10032000EFDC002030700846D9E70FB470B586B016
:1003300004460CA8019073E00B9800785C281CD14F
:100340000B98401C0B9000786E2809D072280FD1B2
:100350000D21204602F0EBFE0B98401C0B900BE0A9
:100360000A21204602F0E3FE0B98401C0B9003E0AC
:100370000B98401C0B9000BF4BE00B980078252891
:1003800040D10B98401C0B900078642818D073283B
:1003900033D1019820C801900BE02978204602F063
:1003A000C6FE00BF4021204602F02FFF0028F9D0F2
:1003B0006D1C28780028F0D10B98401C0B9020E091
:1003C000019840C801900A2202A93046FFF77EFF3B
:1003D00002AD0BE02978204602F0A9FE00BF4021C3
:1003E000204602F012FF0028F9D06D1C2878002862
:1003F000F0D10B98401C0B9003E00B98401C0B9025
:1004000000BF06E00B9810F8011B0B90204602F08D
:100410008EFE00BF4021204602F0F7FE0028F9D0F2
:100420000B980078002887D106B070BC5DF814FBEB
:10043000000801400038014000B587B001211C20B0
:1004400002F0F0FB0121880302F0F9FB4FF4604059
:10045000ADF8040003208DF8060018208DF8070081
:1004600001A98F4802F034F94FF48050ADF8040030
:1004700003208DF8060010208DF8070001A9884898
:1004800002F026F94FF40060ADF8040001A9844899
:1004900002F01EF94020ADF8040001A9814802F0E5
:1004A00017F948208DF807008020ADF8040001A955
:1004B0007C4802F00DF90020ADF808004FF482707E
:1004C000ADF80A000020ADF80C00ADF80E00ADF854
:1004D00010004FF40070ADF812002020ADF81400A9
:1004E0000020ADF816000720ADF8180002A96E48EC
:1004F00002F00AFF01216C4802F0A6FF07B000BD20
:1005000010B5044600BF0221674803F026F8002812
:10051000F9D02146644802F0CDFF00BF01216248B6
:1005200003F01BF80028F9D05F4802F0C5FFC0B205
:1005300010BD10B500BF02215B4803F00EF8002883
:10054000F9D00021584802F0B5FF00BF01215648FC
:1005500003F003F80028F9D0534802F0ADFFC0B211
:1005600010BD70B504460D4616464E48C06840F0B2
:1005700040004C49C8604A480C30006820F4805064
:100580004A49C1F80C0C0220FFF7BAFF2046FFF7DA
:10059000B7FF2846FFF7B4FF3046FFF7B1FF4048EA
:1005A0000C30006840F480504049C1F80C0C70BD1C
:1005B00070B5044600253B48C06840F0400039490A
:1005C000C86037480C30006820F480503749C1F8C3
:1005D0000C0C0320FFF794FF2046FFF791FFFFF775
:1005E000A8FF0502FFF7A5FF05432D480C30006862
:1005F00040F480502D49C1F80C0C284670BD70B5F0
:100600000024002526480C30006820F400602749AB
:10061000C1F80C0C4FF47A70FFF7F5FDFF20FFF7DF
:100620006FFF2048C06840F040001E49C8601C4869
:100630000C30006840F480501C49C1F80C0C18487C
:100640000C30006840F40060C1F80C0C4FF47A7074
:10065000FFF7D9FD002208211046FFF782FF002294
:1006600098210320FFF77DFF8122BB210520FFF7A2
:1006700078FF224629460220FFF773FF0022114629
:100680000B20FFF76EFF4FF47A70FFF7BCFD00BF41
:100690008021044802F0AAF80028F9D070BD0000BB
:1006A000000C0140001001400038004000000140F3
:1006B0002DE9FC5F04460D4600260021204604F08B
:1006C00074FF01AB4FF4A052FF49204604F00AFD2D
:1006D0000322FD49FDA005F004F900287ED1FA4867
:1006E00080794005F849C97940EA8130F649097AAC
:1006F00040EAC110F449497A40EA0107C5F894700C
:10070000F14890F80390B9F1030F02DB4FF00A0AA9
:1007100001E04FF0060A0A2006460090D5E0B9F144
:10072000030F15DBE8490098001D085C0106E64A46
:100730000098401D105C41EA00410098801D105C4B
:1007400041EA00210098C01D105C41EA00080FE05A
:10075000DD490098C01C085C8103DB4A0098001D3D
:10076000105C41EAC0110098401D105C41EA00088D
:100770000098404450445044B0F5A05F2DD308EB9E
:100780000A00B0F5A05F14D9A0683044404400EBE3
:100790000A01204604F009FF01AB4FF4A052CA49F8
:1007A000204604F09FFC08EB0A000644002000905D
:1007B0008BE00098C0F5A05BC348009A81185A46A8
:1007C00005F03AF8C04800EB0B0101AB2046009A57
:1007D00004F088FC0020009000BF00E079E0BA4AF5
:1007E000009811180322BAA005F07BF840B1B64A70
:1007F000009811180422B7A005F073F8002822D140
:10080000A8F10100272800D200E027200246AE48C8
:10081000009B18445044411C284605F056F828789F
:10082000FE2802D16878FF2805D02878FF2843D118
:100830006878FE2840D12821284605F024F8A7A092
:1008400005F070F838E0A04A009811180322ACA017
:1008500005F047F840B19C48009A81180422A9A0ED
:1008600005F03FF8002827D1A8F10100272800D281
:1008700000E0272002469448009B18445044411C45
:1008800005F1280005F021F895F82800FE2803D18D
:100890002920405DFF2807D095F82800FF280BD1BC
:1008A0002920405DFE2807D1282105F1280004F009
:1008B000EAFF96A005F036F808EB0A00064408EBBC
:1008C0000A0100980844009000BFBE42FFF427AF21
:1008D00000BFBDE8FC9F30B5A1B005460C46E868F6
:1008E000A0F18001284604F060FE20AB802269461A
:1008F000284604F0F7FB032269468DA004F0F1FFBF
:10090000E8B91E220DF10301204604F0DEFF1E228D
:100910000DF1210104F1280004F0D7FF1E220DF192
:100920003F0104F1500004F0D0FF04220DF15D01FD
:1009300004F1780004F0C9FF012021B030BD00208F
:10094000FBE72DE9F047ADF5E96D002500266421B0
:1009500080A804F098FF99A8BA904620BB900DF5A6
:10096000A361002004F0F1FA80A9ABA804F0F6FE20
:1009700000287ED14DE19DF8D80210F0200FF9D06B
:10098000BA98007818B90DF2D92000B1BA90BA9887
:10099000007800B944E167A0BA9904F0C3FF6AA1E6
:1009A000BA9804F07CFF074669A1BA9804F077FF73
:1009B000804669A1BA9804F072FF814668A1BA988E
:1009C00004F06DFF824647B9B8F1000F05D1B9F1C7
:1009D000000F02D1BAF1000FCCD0002F2CD0012291
:1009E000BCA8BA9904F0C6FA04465F49BCA8FFF750
:1009F00072FF01280ED15C495CA004F093FF5A49B4
:100A000028315FA004F08EFF5749503161A004F0F7
:100A100089FF11E00021BCA804F0C7FD044662492B
:100A2000BCA8FFF745FE604950A004F07BFF5E497B
:100A3000283153A004F076FF0122BCA8BA9904F033
:100A400099FA04460021BCA804F0AFFD0446012039
:100A5000CDF814055548C06820F040005349C860DF
:100A600053A004F05FFF00BF0DF214534FF4007267
:100A700000E0D6E06946BCA804F034FB0446CCB9DB
:100A800000254FF47A70FFF7BEFB10E08021474845
:100A900001F0ACFE58B1002607E01DF80500FFF795
:100AA0002FFD681C85B2701CC6B2202EF5DBB5F593
:100AB000007FEBDB1CB9DDF814050028D4D100BFA2
:100AC00000BF3FA084E000004C00002049443300F8
:100AD0005454320054495432000000002D2D204D52
:100AE0005033207469746C65206E6F20737570705C
:100AF0006F727420756E69636F6465200D0A000063
:100B00005450310054504531000000002D2D204D2F
:100B1000503320617274697374206E6F2073757026
:100B2000706F727420756E69636F6465200D0A00C2
:100B300054414700200D0A20CEC4BCFEC3FBCEAA00
:100B40003A202573200D0A002E6D7033000000003E
:100B50002E6D6964000000002E77617600000000B1
:100B60002E776D61000000004C1400200D0A20C794
:100B7000FAC4BF20202020A3BA2573200D0A00004C
:100B80000D0A20D2D5CAF5BCD22020A3BA257320E5
:100B90000D0A00000D0A20D7A8BCAD20202020A3FC
:100BA000BA2573200D0A0000E41400200010014053
:100BB000200D0A20BFAACABCB2A5B7C5200D0A00E5
:100BC000200D0A20B2A5B7C5BDE1CAF8200D0A0064
:100BD00004F0A8FE00250FE08021144801F006FE75
:100BE00050B1002606E00020FFF78AFC681C85B2A1
:100BF000701CC6B2202EF6DBB5F5006FECDB0025CD
:100C00000A48C06840F040000849C860BCA804F029
:100C1000C1FCB4A9ABA804F0DDFD00283FF4ABAEE5
:100C200000BF0DF5E96DBDE8F08700000010014040
:100C300008B5002002F083F8002002F083F802F0EB
:100C400053F800214FF4806001F0DFFF4FF4F850BB
:100C5000ADF8000004208DF803006946FC4801F05F
:100C600037FD0420ADF800006946FA4801F030FD78
:100C700008BD08B54FF4C06001F02CFB31208DF8A1
:100C8000000000208DF801008DF8020001208DF891
:100C90000300684601F023FB08BD10B5EE4801F0E3
:100CA00077FC10BD30B58BB004460D46EB4801F023
:100CB00082FC0021EA4801F050FCEA4800900194CF
:100CC00000200290A8080390002004908020059046
:100CD0008000069080000790002008904FF400509C
:100CE000099000200A906946DD4801F00BFC0121C3
:100CF000DB4801F032FC0BB030BD30B58BB00446A0
:100D00000D46D64801F057FC0021D54801F025FCDE
:100D1000D4480090019410200290A808039000206D
:100D200004908020059080000690800007900020AD
:100D300008904FF40050099000200A906946C84876
:100D400001F0E0FB0121C64801F007FC0BB030BD0B
:100D500008B50121302001F065FF4FF4F850ADF8DF
:100D6000000003208DF8020018208DF8030069466A
:100D7000B74801F0ADFC0420ADF800006946B54865
:100D800001F0A6FC0121880201F03FFF01210220B1
:100D900001F03BFF08BD014600BFB2488038406B00
:100DA00010F0450FF9D040F2FF50AE4A803A906300
:100DB0001046406908221040C0B270472DE9FC413E
:100DC00007460C46002500266846002213460CC044
:100DD0000820A54908601020486040208860002055
:100DE000C8604FF480600861084601F0CBFF102016
:100DF000FFF7D1FF064616B13046BDE8FC819B489F
:100E000000680004984908603720486040208860E6
:100E10000020C8604FF480600861084601F0B2FF0E
:100E20003720FFF7B8FF06460EB13046E5E74FF032
:100E3000FF308F4908600820486030208860022019
:100E4000C8600020086101204861084601F0BFFF2A
:100E500000208549086033204860402088600020D9
:100E6000C8604FF480600861084601F08BFF3320B2
:100E7000FFF791FF06460EB13046BEE70CE04FF497
:100E8000001001F0F2FF38B101F0C3FF4DF825006A
:100E90006D1C012D00D906E072488038406B40F28D
:100EA0002A610842EBD000BF082001F0DEFF28B124
:100EB000082001F0E4FF042630469EE7022001F0FE
:100EC000D4FF28B1022001F0DAFF0226304694E771
:100ED000202001F0CAFF28B1202001F0D0FF062613
:100EE00030468AE74FF4007001F0BFFF30B14FF495
:100EF000007001F0C4FF072630467EE740F2FF5045
:100F000001F0BDFF00980006009901F47F4140EA1E
:100F10000120009901F47F0140EA1120009940EA84
:100F20001160606001980006019901F47F4140EA78
:100F30000120019901F47F0140EA1120019940EA62
:100F400011602060304658E77CB5044600256846AD
:100F500000210A4606C0002001F032FF10F0007F99
:100F600002D00E2528467CBD69464048006880B204
:100F7000FFF724FF05460DB12846F4E7012C35D1D3
:100F8000019810F4802F2ED03848006800043649AC
:100F9000086037204860402088600020C860A002B8
:100FA0000861084601F0EEFE3720FFF7F4FE054623
:100FB0000DB12846D7E702202B490860062048607B
:100FC000402088600020C8604FF4806008610846B7
:100FD00001F0D8FE0620FFF7DEFE05460DB12846DB
:100FE000C1E72846BFE725252846BCE7019810F44D
:100FF000803F41D01D48006800041B49086037202D
:101000004860402088600020C8604FF4806008611C
:10101000084601F0B7FE3720FFF7BDFE05460DB1CB
:101020002846A0E7002010490860062048604020BC
:1010300088600020C8604FF480600861084601F0B5
:10104000A1FE0620FFF7A7FE05469DB128468AE7C8
:1010500000100140001401400020001000F00010BA
:101060004404024080800140141600200800002043
:1010700028160020284676E72525284673E770B510
:1010800004460025F8480068032802D12725284691
:1010900070BDF548006838B1F3480068012803D0F6
:1010A000F148006802282FD1B4F5805F02D12725CE
:1010B0002846EDE7B4F5006F15D10120FFF744FF96
:1010C0000546002D20D10120E84908750020086060
:1010D000486088604FF40060C860002008610846DE
:1010E00001F010FE10E00020FFF72EFF05465DB96D
:1010F0000120DE4908750020086048608860C860EB
:101100000861084601F0FEFD2846C1E770B50446B7
:101110000025D74804600720D549486040208860F2
:101120000020C8604FF480600861084601F02AFE84
:101130000720FFF730FE0546284670BD30B5014652
:1011400000200022C84B1B6881F84E30C64B1B1D87
:101150001B68A1F84C30C74B1B681A0E93090B7023
:10116000C2F383034B7002F003038B70C14B1B6807
:10117000C3F30742CA70BF4B1B68C3F307220A714F
:10118000BC4B1B68DAB24A71BA4B5B681A0E13018A
:10119000CB80B84B5B68C3F30742CB8843EA12139A
:1011A000CB8002F00F030B72B24B5B68C3F30722D4
:1011B000D3094B72C2F380138B72C2F34013CB720C
:1011C000C2F300130B7300234B73A74B1B681BB1B7
:1011D000A54B1B68012B3DD193071B0D0B61A54B44
:1011E0005B68DAB20B6943EA82030B61A14B9B682F
:1011F0001A0E0B6943EA92130B61C2F3C2030B751B
:1012000002F007034B759B4B9B68C3F307425309DE
:101210008B75C2F38203CB7593075B0F0B76954BEF
:101220009B68C3F307220B7E43EAD2130B760B694C
:101230005B1C4B640C7E4D6CA41C0123A3405D43DE
:101240004D640C7A0123A3408B64D1E911346343CC
:101250004B6422E0844B1B68022B1ED1854B5B68DC
:10126000DAB293069B0A0B61824B9B681A0E0B69DC
:1012700043EA02230B617F4B9B68C3F307420B6970
:1012800013430B617B4B9B68C3F307220B695B1C09
:10129000DB044B644FF400738B64C2F3801301F8DA
:1012A000193F93065B0E4B70724B9B68DAB24B781A
:1012B00043EAD2134B7002F07F038B706D4BDB68F7
:1012C0001A0ED309CB70C2F341130B71C2F3820320
:1012D0004B7193071B0F8B71664BDB68C3F307429F
:1012E0008B7943EA92138B71C2F34013CB710023C5
:1012F0000B7202F001034B725E4BDB68C3F30722F3
:10130000D3098B72C2F38013CB72C2F340130B73F9
:10131000C2F300134B73C2F381038B7302F0030318
:10132000CB73544BDB68DAB253080B7401234B7454
:10133000504B10331B681A0ECA7419394D4B1033B9
:101340001B68C3F307421402CC854A4B10331B6859
:10135000C3F30722CC8D1443CC85464B10331B6856
:10136000DAB214060C63434B10335B681A0E0B6B36
:1013700043EA02440C633F4B10335B68C3F30742FC
:101380000B6B43EA02240C633A4B10335B68C3F3E4
:1013900007220C6B14430C63364B10335B68DAB2D4
:1013A00034235A54334B10339B681A0E35235A5446
:1013B000304B10339B68C3F3074214068C632D4BEC
:1013C00010339B68C3F307228B6B43EA02448C63A0
:1013D000284B10339B68DAB28B6B43EA02248C6390
:1013E000244B1033DB681A0E8C6B14438C63214B37
:1013F0001033DB68C3F307423C235C5C44EA1214FD
:101400005C5413071C0DCC871A4B1033DB68C3F3F5
:101410000722CC8F1443CC87164B1033DB68DAB22B
:10142000540840235C54012441235C5430BD70B502
:1014300000251148446B01E00F48446B14F0450F40
:10144000FAD014F0040F05D00325042001F017FD95
:10145000284670BD14F0010F10D00125012001F0C5
:101460000EFD2846F5E7000004000020FC150020D2
:10147000141600207C1500200080014040F2FF502F
:1014800001F0FDFC2846E4E72DE9F04104460D4655
:101490000026FB48D0F8348002E0F948D0F83480C8
:1014A00018F0450FF9D018F0040F06D003260420D9
:1014B00001F0E5FC3046BDE8F08118F0010F05D0E1
:1014C0000126012001F0DBFC3046F4E701F074FC5A
:1014D000A04202D010263046EDE740F2FF5001F066
:1014E000CEFC002001F06CFC074617F4604F03D1DE
:1014F000380C28803046DEE717F4005F01D0132057
:10150000D9E717F4804F01D01020D4E717F4004F2B
:1015100001D00F20CFE73046CDE738B500240120B9
:10152000009001F01AFC10B92524204638BDD5489A
:101530000068042828D00020D349086002204860B1
:10154000C02088600020C8604FF4806008610846B1
:1015500001F018FCFFF76BFF04460CB12046E5E7ED
:10156000002001F02DFCC9490860042001F028FC8E
:10157000C6494860082001F023FCC44988600C205B
:1015800001F01EFCC149C860BE48006858B1BD48A2
:101590000068012807D0BB480068062803D0B94876
:1015A0000068022816D10020B7490860032048606F
:1015B000402088600020C8604FF4806008610846C1
:1015C00001F0E0FB69460320FFF75EFF04460CB123
:1015D0002046ABE7AB480068042833D0BDF80000D4
:1015E000A849091D0860BDF800000004A64908606C
:1015F00009204860C02088600020C8604FF48060E7
:101600000861084601F0BEFBFFF711FF04460CB16C
:1016100020468BE7002001F0D3FB9C49103908607D
:10162000042001F0CDFB994910394860082001F0F1
:10163000C7FB9649103988600C2001F0C1FB934923
:101640001039C8600024204670E770B500258C482A
:10165000446B01E08A48446B14F0450FFAD014F053
:10166000040F05D00325042001F009FC284670BDB5
:1016700040F2FF5001F003FC2846F8E770B5002463
:101680004FF480357E48466B02E06D1E7C48466B09
:1016900016F0450F01D1002DF7D115B116F0040F4A
:1016A00005D00324042001F0EAFB204670BD16F0AB
:1016B000400F05D00024402001F0E1FB2046F5E773
:1016C0002046F3E770B500244FF4803500E06D1E2E
:1016D00025B1802001F0C9FB0028F8D015B90324FA
:1016E000204670BD40F2FF5001F0C9FB2046F8E7EC
:1016F0002DE9F0410024002500260027A046B22055
:10170000634908750020086048608860C860086107
:10171000084601F0F7FA032001F014FB012001F064
:101720000EFB00205849086048608860C8604FF48C
:1017300080600861084601F025FBFFF7C3FF0446FF
:1017400014B12046BDE8F0814FF4D5704E490860D1
:1017500008204860402088600020C8604FF4806006
:101760000861084601F00EFBFFF788FF04462CB91C
:101770000120444908604FF0804812E000204249AF
:10178000086037204860402088600020C8604FF41F
:1017900080600861084601F0F5FA3720FFF7FBFA90
:1017A000044600203849086037204860402088609F
:1017B0000020C8604FF480600861084601F0E2FA3A
:1017C0003720FFF7E8FA0446002C4AD136E0002023
:1017D0002D49086037204860402088600020C8609C
:1017E0004FF480600861084601F0CCFA3720FFF71B
:1017F000D2FA04460CB12046A4E7264848EA000085
:101800002149086029204860402088600020C86085
:101810004FF480600861084601F0B4FAFFF715FF45
:1018200004460CB120468DE7002001F0C9FA0546B8
:10183000012080EAD57080F00107761C1FB94FF6B1
:10184000FF708642C3D34FF6FF70864202D31B243B
:10185000204677E705F08040050002D002200949C4
:10186000086020466EE710B50024FFF771FA01F01A
:101870003BFAFFF73DFF044674B1204610BD00005F
:101880000080014004000020141600208C15002068
:10189000FC15002000001080FFF73FFE04460CB14D
:1018A0002046EBE70120FF490875002008604860EA
:1018B0008860C8600861084601F024FA1CB9FA483B
:1018C000FFF73CFC044634B9F749B1F84C10080462
:1018D000FFF71CFC044624B94FF40060FFF7CFFB70
:1018E00004462046CAE770B504460025EF48006864
:1018F0000004EF49886040F24D40C8600D20FFF7BA
:101900004AFA05460DB1284670BDE9484069206095
:101910002846F9E708B5002000906846FFF7E3FF86
:1019200008B1FF2008BD0098C0F34320FAE710B5C6
:101930000424FFF7EFFF0446042C01D1002010BD62
:10194000FF2C01D10220FAE70120F8E710B50024AE
:10195000002001F0F7F9204610BD70B504460025BF
:101960000026002001F02CFA10F0007F02D00E2596
:10197000284670BD4020CF490860102048604020B4
:1019800088600020C8604FF480600861084601F05C
:10199000F9F91020FFF7FFF905460DB12846E8E7F1
:1019A000C24800680004C3490860372048604020EE
:1019B00088600020C8604FF480600861084601F02C
:1019C000E1F93720FFF7E7F905460DB12846D0E7E2
:1019D0004FF0FF30B84908604020486060208860C0
:1019E0000220C8600020086101204861084601F01B
:1019F000EEF90020AF4908600D2048604020886063
:101A00000020C8604FF480600861084601F0BAF910
:101A10000D20FFF7C0F905460DB12846A9E70EE0F5
:101A20004FF4004001F021FA48B1002604E001F033
:101A3000F0F944F82600761C082EF8D320349C4890
:101A4000406B40F22A610842EAD0082001F00DFA0A
:101A500028B1082001F013FA0425284689E702205E
:101A600001F003FA28B1022001F009FA0225284604
:101A70007FE7202001F0F9F928B1202001F0FFF9DB
:101A80000625284675E74FF4007001F0EEF930B1F5
:101A90004FF4007001F0F3F90725284669E703E0E9
:101AA00001F0B7F92060241D4FF4001001F0DDF9BA
:101AB0000028F5D140F2FF5001F0E1F9284658E73F
:101AC00070B50446002500267C48FFF746FF054612
:101AD0000DB1284670BD7948007886092670774890
:101AE0000078C0F3401666707448867830026080D3
:101AF0007248C67860883043608070480679300646
:101B000060606E484679606840EA064060606B48F5
:101B10008679606840EA062060606848C679606837
:101B2000304360606548067A2672467A6672807A2B
:101B30000609A6726148C67A3002A0815F48067B1A
:101B4000A0893043A0815D48407B8608A6735B482E
:101B5000407B00F00306E6732846BBE72DE9F04121
:101B600004460D4616460027002055490870554981
:101B70000860554908604E49C8624C48001F00681B
:101B8000022801D106026D0A4A4806601020494920
:101B90004860402088600020C8604FF48060086181
:101BA000084601F0EFF81020FFF7F5F8074617B1E7
:101BB0003846BDE8F0814FF0FF303F4908600846E5
:101BC0004660902088600220C860002008610120E3
:101BD0004861084601F0FBF8364805601120354998
:101BE0004860402088600020C8604FF48060086131
:101BF000084601F0C7F81120FFF7CDF807460FB1EE
:101C00003846D6E70121080201F0ACF8012001F0C6
:101C1000B6F831462046FFF745F83846C9E72DE9C2
:101C2000F04104460D4617461E464FF000080020BE
:101C300023490870234908600120234908600020D7
:101C40001B49C8621948001F0068022801D1070219
:101C50006D0A1848076010201649486040208860C7
:101C60000020C8604FF480600861084601F08AF8DF
:101C70001020FFF790F88046B8F1000F02D04046E0
:101C8000BDE8F0814FF0FF300B49086006FB07F01C
:101C90004860902088600220C86000200861012010
:101CA000486113E0FC150020AC150020080000205E
:101CB0000080014014160020281600209C150020EA
:101CC00010000020140000200C000020084601F045
:101CD0007EF8F94805601220F74948604020886086
:101CE0000020C8604FF480600861084601F04AF89F
:101CF0001220FFF750F88046B8F1000F01D040469F
:101D0000BEE70121080201F02DF8012001F037F8AB
:101D100006FB07F12046FEF7C5FF4046B0E710B5C9
:101D2000002400BFFEF7B9FF30B9E448006818B9D5
:101D3000E34800780028F5D0E148007810B1E04889
:101D4000007810BD2046FCE72DE9F04104460D4621
:101D5000164600270020DA490870D8490860D9499A
:101D60000860D949C862D9480068022801D1060232
:101D70006D0AD14806601020CF4948604020886035
:101D80000020C8604FF480600861084600F0FAFF48
:101D90001020FFF700F8074617B13846BDE8F0817C
:101DA000C54805601820C44948604020886000206C
:101DB000C8604FF480600861084600F0E3FF182017
:101DC000FEF7E9FF07460FB13846E7E74FF0FF306F
:101DD000BF49086008464660902088600020C860BF
:101DE000086101204861084600F0F1FF0121080266
:101DF00000F0B8FF31462046FEF77FFF012000F0DB
:101E0000BEFF3846CAE72DE9F04704460D4617469F
:101E10001E464FF00008C1460020A9490870A74996
:101E200008600120A74908600020A749C862A748A8
:101E30000068022801D107026D0A9F480760102040
:101E40009D494860402088600020C8604FF4806051
:101E50000861084600F096FF1020FEF79CFF8046C0
:101E6000B8F1000F02D04046BDE8F0879748001D4A
:101E7000006800049049086037204860402088606E
:101E80000020C8604FF480600861084600F07AFFC7
:101E90003720FEF780FF8046B8F1000F01D04046A2
:101EA000E2E7854806601720834948604020886043
:101EB0000020C8604FF480600861084600F062FFAF
:101EC0001720FEF768FF8046B8F1000F01D04046AA
:101ED000CAE7794805601920774948604020886042
:101EE0000020C8604FF480600861084600F04AFF97
:101EF0001920FEF750FF8046B8F1000F01D0404690
:101F0000B2E74FF0FF307249086006FB07F0486007
:101F1000902088600020C860086101204861084660
:101F200000F055FF0121080200F01CFF012000F025
:101F300026FF06FB07F12046FEF7DFFE404693E74B
:101F400010B5002400BFFEF7A8FE30B95B4800685A
:101F500018B95B4800780028F5D05948007810B1CE
:101F60005748007810BD40F2FF5000F088FF20462F
:101F7000F8E75548406B10F4405F01D001207047EE
:101F80000020FCE710B5002400204F49886040F293
:101F90004C40C8600C20FEF7FEFE0446204610BDF3
:101FA0002DE9F04104460025002600274748001D82
:101FB00000680004404908600D20486040208860A7
:101FC0000020C8604FF480600861084600F0DAFE27
:101FD0003D48476B01E03C48476B17F0450FFAD08E
:101FE00017F0040F06D00325042000F048FF284610
:101FF000BDE8F08117F0010F05D00125012000F0A8
:102000003EFF2846F4E700F0D7FE07460D2F02D02A
:1020100010252846ECE740F2FF5000F030FF00208A
:1020200000F0CEFE0646C6F3432020702948064243
:1020300001D12846DCE716F0004F01D01C20D7E77D
:1020400016F0804F01D00920D2E716F0005F01D0D2
:102050000A20CDE716F0805F01D00B20C8E716F00C
:10206000006F01D00C20C3E716F0806F01D00D2067
:10207000BEE716F0807F01D00E20B9E716F4000FFE
:1020800001D00F20B4E716F4800F01D01020AFE785
:1020900016F4001F01D01120AAE716F4801F01D00A
:1020A0001220A5E716F4002F01D01320A0E716F4A4
:1020B000802F11D014209BE714160020140000205C
:1020C000100000200C0000200080014004000020CF
:1020D0002816002008E0FFFD16F4003F01D015206F
:1020E00086E716F4803F01D0162081E716F4004FF2
:1020F00001D017207CE716F4804F01D0182077E735
:1021000016F4005F01D0192072E716F0080F01D015
:102110001A206DE728466BE72DE9F84304460D4683
:1021200000260027B0460020009059484068202132
:1021300011EA105F03D125263046BDE8F8835548E3
:102140004068C0B2801C5449B1FBF0F8002000F098
:1021500037FE10F0007F02D00E263046EDE74F48E4
:102160000068022801D1640A6D0A4C48006838B141
:102170004A480068012803D04848006802282BD14B
:10218000474804602020464948604020886000207D
:10219000C8604FF480600861084600F0F3FD20201D
:1021A000FEF7F9FD06460EB13046C6E73C4805602D
:1021B00021203B494860402088600020C8604FF4DF
:1021C00080600861084600F0DDFD2120FEF7E3FD98
:1021D00006460EB13046B0E700203149086026209F
:1021E0004860402088600020C8604FF4806008612B
:1021F000084600F0C7FD2620FEF7CDFD06460EB1CD
:1022000030469AE7002700E07F1C4745FCD368462C
:10221000FFF7C6FE064603E06846FFF7C1FE064626
:102220003EB99DF800000728F6D09DF8000006286A
:10223000F2D0304681E710B51A48006801280BD16A
:1022400000201449886040F24C40C8600C20FEF722
:10225000A2FD1549087002E00020134908704FF4F0
:10226000807000F019FE00214FF4807000F07AFDBC
:1022700001200E4908600C48007810BD014600207E
:1022800002E04910421CD0B20129FAD17047000087
:102290007C15002000800140C0D401000400002013
:1022A000141600200C000020100000201400002054
:1022B0000648804706480047FEE7FEE7FEE7FEE7E0
:1022C000FEE7FEE7FEE7FEE7FEE7FEE791360008E1
:1022D0003101000832490143324A1160704770B53C
:1022E000002100230F22C4780CB32E4C246804F480
:1022F000E064C4F5E064210AC1F10403CA404478F3
:1023000004FA03F18478144021430901264C06782D
:10231000A155047804F01F050124AC4005786D1127
:102320004FF0E02606EB8505C5F8004109E004788A
:1023300004F01F040125A5401C4C0678761144F8D2
:10234000265070BD1A4A0A400243164B1B1F1A60E2
:10235000704741B1134A121D126802434FF0E02347
:10236000C3F8102D07E00F4A121D126882434FF088
:10237000E023C3F8102D7047042808D14FF0E02166
:10238000096941F004014FF0E022116107E04FF0CC
:10239000E021096921F004014FF0E022116170474A
:1023A0000000FA050CED00E000E400E080E100E050
:1023B00080FFFF1F01684FF6FE721140016000218F
:1023C000016041608160C1608F49884208D18E49B7
:1023D0000839496841F00F018B4A083A516090E092
:1023E00089491431884208D187490839496841F040
:1023F000F001854A083A516083E0834928318842D8
:1024000008D181490839496841F470617E4A083A27
:10241000516076E07C493C31884208D17A490839DC
:10242000496841F47041784A083A516069E0764958
:102430005031884208D174490839496841F4702103
:10244000714A083A51605CE06F496431884208D1B2
:102450006D490839496841F470016B4A083A516086
:102460004FE069497831884208D16749083949689D
:1024700041F07061644A083A516042E06349884221
:1024800008D1011F096841F00F015F4A083AC2F8FC
:10249000041436E05D491431884209D15B49091FB3
:1024A000096841F0F001584A083AC2F8041428E0DB
:1024B00056492831884209D15449091F096841F415
:1024C0007061514A083AC2F804141AE04F493C318D
:1024D000884209D14D49091F096841F470414A4AAF
:1024E000083AC2F804140CE048495031884208D137
:1024F0004649091F096841F47021434A083AC2F865
:102500000414704710B50022026847F6F0739A432E
:102510000C6A8B6823430C6923434C6923438C6901
:102520002343CC6923434C6A23438C6A23431A43D5
:102530000260CB6843600B6883604B68C36010BD6A
:102540000021016041608160C16001614161816180
:10255000C161016241628162704721B1026842F04B
:102560000102026004E002684FF6FE731A40026046
:1025700070471AB103680B43036002E003688B43A2
:1025800003607047416070470146486880B27047F9
:1025900002460020002112F0805F03D01B4B083B55
:1025A000196802E0184B083B1968114201D001205C
:1025B00000E00020704710F0805F03D01349091F2E
:1025C000086002E010490839486070470246002060
:1025D000002112F0805F03D00C4B083B196802E029
:1025E000094B083B1968114201D0012000E000208E
:1025F000704710F0805F03D00449091F086002E0B3
:102600000149083948607047080002400804024048
:1026100010B50446C748844208D10121042000F0C7
:102620001BFB0021042000F017FB46E0C248844257
:1026300008D10121082000F00FFB0021082000F044
:102640000BFB3AE0BD48844208D10121102000F084
:1026500003FB0021102000F0FFFA2EE0B84884426E
:1026600008D10121202000F0F7FA0021202000F0FD
:10267000F3FA22E0B348844208D10121402000F05F
:10268000EBFA0021402000F0E7FA16E0AE48844261
:1026900008D10121802000F0DFFA0021802000F025
:1026A000DBFA0AE0A948844207D10121801500F035
:1026B000D3FA0021A01500F0CFFA10BD10B501210A
:1026C000084600F0C9FA0021012000F0C5FA10BD4B
:1026D000F0B500220023002400250026002791F8F1
:1026E00003C00CF00F0291F803C01CF0100F03D0D0
:1026F00091F802C04CEA0202B1F800C01CF0FF0FD2
:1027000031D0066800242BE04FF0010C0CFA04F5E0
:10271000B1F800C00CEA0503AB4220D1A5004FF090
:102720000F0C0CFA05F7BE4302FA05FC4CEA06064C
:1027300091F803C0BCF1280F06D14FF0010C0CFA40
:1027400004FCC0F814C00AE091F803C0BCF1480FC3
:1027500005D14FF0010C0CFA04FCC0F810C0641C49
:10276000082CD1D30660B1F800C0BCF1FF0F34DDF6
:10277000466800242EE004F1080C4FF0010E0EFA1A
:102780000CF5B1F800C00CEA0503AB4221D1A5005D
:102790004FF00F0C0CFA05F7BE4302FA05FC4CEAA9
:1027A000060691F803C0BCF1280F05D104F1080C0E
:1027B0000EFA0CFEC0F814E091F803C0BCF1480F0B
:1027C00007D104F1080C4FF0010E0EFA0CFEC0F810
:1027D00010E0641C082CCED34660F0BD4FF6FF71AC
:1027E0000180022181700421C170704702460020DF
:1027F00093680B4201D0012000E0002070470146A1
:10280000886880B2704702460020D3680B4201D02E
:10281000012000E0002070470146C86880B2704780
:1028200001617047416170470AB1016100E0416197
:102830007047C16070474FF480320A438261816102
:1028400082618269826970470022414B1A684FF6A3
:1028500080731A4042EA00120A433D4B1A607047E7
:102860003C49C8617047F0B50022002300240025D0
:1028700000F00046B6F1004F02D1354EF46901E098
:10288000334E7468C0F3034582B200F44016B6F5C7
:10289000401F08D124F070642D4E766826F07066D3
:1028A0002B4F7E6012E000F48016B6F5801F06D133
:1028B000032606FA05F39C4344F0706406E0460DD7
:1028C000360102FA06F6B44344F0706421B1460DB5
:1028D000360102FA06F6344300F00046B6F1004F26
:1028E00002D11B4EF46101E0194E7460F0BD30B5A9
:1028F00000228B071C0F0F2303FA04F2144B08333A
:102900008C1053F8244094438D1043F825408C10CC
:1029100053F824308C07240F00FA04F423430C4CA2
:1029200008348D1044F8253030BD0A49DC31086088
:102930007047000000080140000C014000100140F9
:102940000014014000180140001C0140002001401B
:102950000000014000002042DB48006840F0010018
:10296000D949086008464068D8490840D6494860B7
:1029700008460068D6490840D34908600846006800
:1029800020F4802008600846406820F4FE0048607B
:102990004FF41F0088607047CB49096821F48031EB
:1029A000C94A11601146096821F480211160B0F50F
:1029B000803F03D0B0F5802F0ED106E0C2490968F0
:1029C00041F48031C04A116007E0BF49096841F411
:1029D000A021BD4A116000E000BF00BF704710B5E4
:1029E00001460022002300204A11012A02D1B64CE0
:1029F000236806E0022A02D1B34C236A01E0B24CFC
:102A0000636A01F01F02012494401C4201D001209E
:102A100000E0002010BD70B500240025002600BF96
:102A20003120FFF7DCFF0646641CB4F5A06F01D02F
:102A3000002EF5D03120FFF7D2FF08B1012500E0CC
:102A40000025284670BD00219F4A116821F0F80139
:102A500041EAC001116070479E490860704700223A
:102A6000994B5A6822F47C1240EA01031A43964BB0
:102A70005A6070479749086670470021924A51682A
:102A800021F003010143516070478F48406800F016
:102A90000C00704700218C4A516821F0F00101437D
:102AA000516070470021884A516821F4E061014378
:102AB000516070470021844A516821F4605141EA15
:102AC000C0015160704729B17F4A527A02437E4B60
:102AD0005A7206E07C4A527AC343DBB21A407A4B00
:102AE0005A7270477B49D831086070470021764A96
:102AF000516821F440410143516070470021724AFE
:102B000020321170704A82F82010012802D0042867
:102B10000AD104E001216C4A2032117005E0052140
:102B2000694A2032117000E000BF00BF70476A4957
:102B3000086070476449096A0143634A116270473B
:102B4000654944390860704730B5002100220023F0
:102B500000245D4D6D6805F00C0121B1042905D0FC
:102B6000082923D105E05D4D056022E05B4D05603D
:102B70001FE0554D6D6805F47012534D6D6805F4F6
:102B80008033022505EB92421BB9554D5543056034
:102B90000BE04D4D6D6815F4003F03D0504D55438B
:102BA000056002E04D4D5543056002E04B4D056068
:102BB00000BF00BF444D6D6805F0F0010909494DA3
:102BC0006C5C0568E54045603F4D6D6805F4E0616B
:102BD000090A444D6C5C4568E54085603A4D6D6876
:102BE00005F46051C90A3F4D6C5C4568E540C5601D
:102BF000354D6D6805F44041890B3A4D10356C5CDC
:102C0000C568B5FBF4F5056130BD29B12E4A52699E
:102C100002432D4B5A6104E02B4A526982432A4BEE
:102C20005A61704729B1284A92690243264B9A613A
:102C300004E0254A92698243234B9A61704729B187
:102C4000214AD2690243204BDA6104E01E4AD2696C
:102C500082431D4BDA61704729B11B4AD268024397
:102C6000194BDA6004E0184AD2688243164BDA60E6
:102C7000704729B1144A12690243134B1A6104E0E8
:102C8000114A12698243104B1A6170471249403948
:102C9000086070470F49C86470470B49C871704796
:102CA0000948406A40F08070074948627047014611
:102CB0000020054A92680A4201D0012000E000206D
:102CC0007047014988727047001002400000FFF809
:102CD000FFFFF6FE000042428004424200127A00EA
:102CE00000093D001800002000206D490860486080
:102CF0008860C86048628862C8626A488863002049
:102D0000C86370470021664A516847F6FF629143E5
:102D1000027D83681A4343681A43C3681A430368F1
:102D20001A4303691A4311435D4A516070470021F9
:102D30000175016041608160C160016170475A495D
:102D4000086070475649096821F00301544A116030
:102D5000114609680143116070475148006800F04E
:102D60000300704729B14E4AD26B02434C4BDA63E1
:102D700004E04B4AD26B8243494BDA6370474B49BC
:102D8000086070470021464B02689A601A46D16875
:102D90006FF30A01D0E901231A43C3681A43036998
:102DA0001A4311433E4AD1607047002101604160DF
:102DB0008160C1600161704739480069C0B27047E5
:102DC00001460022364814300A1810687047002166
:102DD000334B02685A6242689A621A46D16A21F0FD
:102DE000F701D0E902231A4303691A4343691A43DE
:102DF00011432B4AD16270474FF0FF31016000212F
:102E000041608160C1600161416170472448006B8D
:102E1000704723488030006870472149803108603E
:102E200070471F48806C7047204914310860704714
:102E30001E491831086070471C491C3108607047F2
:102E40001A492031086070471949086070471849CD
:102E5000091D0860704701218143154A083211603D
:102E6000704713490C3108607047014600200C4A36
:102E7000526B0A4201D0012000E00020704708494F
:102E80008863704701460020054A526B0A4201D010
:102E9000012000E00020704701498863704700006E
:102EA00000800140FF07C000A00030428C05304286
:102EB000AC01304210B50446FB48844209D10121DF
:102EC0008803FFF7C9FE00214FF48040FFF7C4FEDE
:102ED00032E0F648844209D101214804FFF7C9FED7
:102EE00000214FF40030FFF7C4FE25E0F048844293
:102EF00009D101218804FFF7BCFE00214FF4802096
:102F0000FFF7B7FE18E0EB48844209D10121C8045D
:102F1000FFF7AFFE00214FF40020FFF7AAFE0BE001
:102F2000E548844208D101210805FFF7A2FE0021EF
:102F30004FF48010FFF79DFE10BD2DE9F04786B0DD
:102F400004460D460026002700BFB146B246A889B8
:102F500000B100BFA246268A4CF6FF700640E88802
:102F600006432682A6894EF6F3100640A8882989D2
:102F70000843698908430643A681A68A4FF6FF40A5
:102F80000640A8890643A68201A8FFF7DDFD544646
:102F9000C548824501D1049F00E0039FA08910F439
:102FA000004F08D007EBC70000EB07102968490065
:102FB000B0FBF1F807E007EBC70000EB071029684A
:102FC0008900B0FBF1F86420B8FBF0F0060130098D
:102FD000642101FB1089A08910F4004F09D032212F
:102FE00001EBC9006421B0FBF1F000F007000643DB
:102FF00008E0322101EB09106421B0FBF1F000F090
:103000000F000643268106B0BDE8F0874FF4165145
:10301000016000218180C18001810C21418100215A
:103020008181704710B50022028A4FF2FF031A40D7
:103030000B884C8823438C882343CC8823431A4332
:10304000028210BD0021018041808180C1807047D3
:1030500021B1828942F40052828104E082894DF6D6
:10306000FF731A4082817047F0B5002400250026C6
:103070000023A1F510676A3F00D100BF0346C1F3EA
:10308000421401F01F05012707FA05F6012C01D1B2
:103090000C3304E0022C01D1103300E014331AB1D8
:1030A0001F6837431F6002E01F68B7431F60F0BD11
:1030B00010B51AB1838A0B43838204E0838ACC4320
:1030C000A4B22340838210BD028A4FF6F0731A40E7
:1030D0000282028A0A430282704782894FF2FF739A
:1030E0001A40828182890A438281704721B1828994
:1030F00042F00202828104E082894FF6FD731A4099
:1031000082817047028A4FF6DF731A400282028A78
:103110000A430282704721B1028A42F4804202824D
:1031200004E0028A4BF6FF731A4002827047C1F333
:1031300008028280704701468888C0F30800704703
:10314000818941F0010181817047028BD2B20283F3
:10315000028B42EA012202837047028B02F47F4213
:103160000283028B0A430283704721B1828A42F0B4
:103170002002828204E0828A4FF6DF731A40828244
:10318000704721B1828A42F01002828204E0828A72
:103190004FF6EF731A408282704721B1828A42F063
:1031A0000802828204E0828A4FF6F7731A40828214
:1031B000704721B1828942F40042828103E0828912
:1031C000C2F30E028281704721B1828A42F400620A
:1031D000828204E0828A4FF2FF731A408282704733
:1031E000828A4FF6FB731A408282828A0A43828265
:1031F000704721B1828A42F00202828204E0828A10
:103200004FF6FD731A408282704702460020B1F5E6
:10321000007F00D100BF13880B4201D0012000E0E5
:103220000020704701F40072B2F5007F00D100BFAA
:10323000CA430280704770B502460023002400256F
:103240000020A1F510666A3E00D100BFC1F342150F
:1032500001F01F04012606FA04F4012D02D196891B
:10326000344006E0022D02D1168A344001E0968AED
:1032700034400B12012606FA03F31688334014B1CA
:103280000BB1012000E0002070BD10B5002200232A
:10329000A1F510646A3C00D100BF0A1201249440D9
:1032A000A3B2DC43048010BD00380140004400405C
:1032B00000480040004C00400050004010B504465B
:1032C000BE48844208D101218014FFF7C5FC0021CB
:1032D000A014FFF7C1FC16E0B948844208D10121CF
:1032E0000014FFF7C6FC00212014FFF7C2FC0AE01F
:1032F000B448844207D10121C013FFF7BAFC002172
:10330000E013FFF7B6FC10BD10B50022028802F4EE
:1033100041520B884C8823438C882343CC88234319
:103320000C8923434C8923438C892343CC89234331
:103330001A430280838B4FF2FF74234083830B8AEE
:10334000038210BD2DE9F04F85B004460D460026DE
:103350000227B0464FF00109B246B346A08B4FF2A8
:1033600040010840A08302202084A68BA868022880
:1033700001D100BF38E0A88810B94FF0010901E081
:103380004FF002098E48844200D100E000BF684639
:10339000FFF7DAFBDDF800B0E888B0F5007F0BD16D
:1033A0004FEA1B2000EB80004000A968B0FBF1F061
:1033B000401D1FFA80FA0CE04FEA4910BBFBF0F009
:1033C00000EB80004000A968B0FBF1F0401D1FFA3F
:1033D00080FA0A20BAFBF0FA0AF00108AAEB08000A
:1033E000C0F34F074FEA0828022F01DBFF2F02DD51
:1033F00002274FF00008E88840EA0800384320849C
:10340000A888A9890843698808432988084340F4A3
:1034100000600643A68305B0BDE8F08F002101805F
:1034200041808180C180018141818181C1810721E9
:10343000018270470021018041808180C18002218A
:10344000816000218181704721B1028842F04002F1
:10345000028004E002884FF6BF731A400280704772
:1034600021B1828B42F48062828304E0828B4FF62A
:10347000FF331A408283704770B5002300240B117C
:1034800001259D40ACB21AB185882543858004E0B2
:103490008588E643B6B23540858070BD10B51AB157
:1034A00083880B43838004E08388CC43A4B2234009
:1034B000838010BD81817047014688897047A1F5DE
:1034C0007E42FF3A04D0028842F48072028004E017
:1034D00002884FF6FF631A400280704721B182884C
:1034E00042F00402828004E082884FF6FB731A40A7
:1034F0008280704702884FF2FF731A400280028870
:103500000A4302807047018841F48051018070476E
:1035100021B1028842F40052028004E002884DF694
:10352000FF731A400280704702460020012901D033
:10353000108B00E0908A70470146088A7047B1F509
:10354000804F04D1028842F48042028004E0028865
:103550004BF6FF731A400280704702460020138921
:103560000B4201D0012000E000207047CA430281D5
:103570007047F0B50246002000230024002501F02A
:103580000F070126BE40B3B20C110126A640B4B20B
:10359000968806EA040516891E4202D00DB1012064
:1035A00000E00020F0BD10B5002201F00F0401235F
:1035B000A3409AB2D343038110BD00000030014004
:1035C00000380040003C004000200021674A12689B
:1035D00042F48032654B1A6000BF644A126802F4FC
:1035E0000031401C11B9B0F5A06FF6D15F4A1268E6
:1035F00012F4003F01D0012100E00021012942D155
:103600005B4A126842F01002594B1A601A4612685F
:1036100022F003021A601A46126842F002021A608F
:10362000524A5268514B5A601A4652685A601A46BA
:10363000526842F480625A601A46526822F47C1240
:103640005A601A46526842F4E8125A601A461268E2
:1036500042F080721A6000BF444A126812F0007F84
:10366000FAD0424A526822F00302404B5A601A468E
:10367000526842F002025A6000BF3C4A526802F0AF
:103680000C02082AF9D1704710B5FFF79DFF10BD55
:1036900010B53648006840F001003449086008461B
:1036A000406834490840314948600846006832495A
:1036B00008402E4908600846006820F48020086011
:1036C0000846406820F4FE0048604FF41F00886000
:1036D000FFF7DAFF4FF000602849086010BD10B511
:1036E000002000210022214B5B6803F00C0020B178
:1036F000042806D0082828D107E0214B214C23605C
:1037000027E01F4B1F4C236023E0184B5B6803F43A
:103710007011164B5B6803F48032022303EB914176
:1037200022B9194B4B43174C23600DE00F4B5B68DC
:1037300013F4003F04D0144B4B43124C236003E0BE
:103740000F4B4B430F4C236003E00D4B0D4C23609C
:1037500000BF00BF054B5B68C3F303130B4CE05C79
:10376000084B1B68C340074C236010BD001002408B
:10377000002002400000FFF8FFFFF6FE08ED00E029
:1037800000127A002C00002000093D0030000020CB
:10379000F0B50246802A01DA104630E019B1244B18
:1037A00045F2205702E0234B45F220570026102512
:1037B00016E0A7EB060C0CEBDC7E06EB6E044FEA82
:1037C000440C33F81CC0944500D10BE04FEA440C84
:1037D00033F81CC0944501DA264600E027466D1EEA
:1037E000002DE6D100BF35B14FF0010E0EEB440CB9
:1037F00033F81CC001E04FF0000C1FFA8CF0F0BD54
:103800000246002100E0491C0B4830F8110020B1AD
:10381000094830F811009042F5D1074830F81100FE
:1038200018B1064830F8110000E0104680B2704729
:10383000B0AE01082C5A000834030308140503082D
:1038400070B505460DB1012070BDFEF70CF80446B9
:103850000CB10120F8E70020F6E701460020704790
:103860002DE9F04107460C4615461E46012E0EDD99
:10387000690233464FF400722046FEF7D0F9FEF796
:103880004EFA00BFFEF753F80028FBD10CE06902A6
:103890004FF400722046FEF761F9FEF740FA00BFD0
:1038A000FEF745F80028FBD10020BDE8F0812DE9A6
:1038B000F04107460C4615461E46012E0EDD6902F4
:1038C00033464FF400722046FEF79DFAFEF738FBB0
:1038D00000BFFEF72CF80028FBD10CE069024FF482
:1038E00000722046FEF730FAFEF72AFB00BFFEF713
:1038F0001EF80028FBD10020BDE8F081034600201F
:10390000704700207047000070B504460B4603E086
:1039100013F8015B04F8015B1500A2F10102F7D175
:1039200070BD30B5034601E003F8011B1400A2F19D
:103930000102F9D130BDF0B5044625460B46002002
:1039400000BF1600A2F1010207D015F8017B13F8A1
:1039500001CBA7EB0C063000F3D0F0BD024600E02F
:10396000521C107810B110788842F9D11078704745
:103970002DE9F04104460D46E66AAE422FD020798B
:1039800008B360780123324604F13001FFF78FFF5E
:1039900010B10120BDE8F08100202071D4E90710AA
:1039A0000844B0420FD9E7780AE0E069064460783D
:1039B0000123324604F13001FFF779FF781EC7B2C8
:1039C000012FF2DC00BF55B1607801232A4604F1D3
:1039D0003001FFF745FF08B10120DBE7E562002079
:1039E000D8E770B5044600212046FFF7C1FF054621
:1039F000002D58D1207803284ED1607900284BD073
:103A00000020E0624FF40072002104F13000FFF763
:103A100088FF552184F82E12AA2184F82F125221F2
:103A200030200155312001556121322001554121BD
:103A300033200155722184F8141284F815124121A3
:103A400084F81612612184F81712206984F818028C
:103A50002069010A84F819122069010C84F81A12ED
:103A60002069010E84F81B12E06884F81C02E068EB
:103A7000010A84F81D12E068010C84F81E12E06847
:103A8000010E84F81F126078012304F1300162698D
:103A9000FFF70DFF00206071607800221146FFF7EC
:103AA0002DFF00B10125284670BD0246891E906990
:103AB000801E884201D8002070479378906A01FBED
:103AC0000300F9E72DE9F04104460D46022D02D32B
:103AD000A069A84202D80120BDE8F0812078012821
:103AE00004D002282BD0032861D13FE02F463D4669
:103AF00007EB5707206A00EB57212046FFF738FFF6
:103B000000B154E0C7F3080104F13000465C7F1CAB
:103B1000206A00EB57212046FFF72AFF00B146E05C
:103B2000C7F3080104F13000405C46EA002615F0B6
:103B3000010F01D03009CFE7C6F30B00CCE7206AB4
:103B400000EB15212046FFF713FF00B12FE040F2F4
:103B5000FF1101EA450104F1300001EB000898F87B
:103B6000000098F8011040EA0120B5E7206A00EB58
:103B7000D5112046FFF7FCFE00B118E040F2FF111E
:103B800001EA850104F1300001EB000898F8030018
:103B9000000698F8021040EA014098F8011040EA47
:103BA000012098F80010084320F0704094E700BF0F
:103BB0004FF0FF3090E72DE9F04704460D461646DA
:103BC000022D02D3A069A84202D84FF002099DE05D
:103BD0002078012804D0022847D003287DD15DE059
:103BE0002F463D4607EB5707206A00EB572120463A
:103BF000FFF7BEFE8146B9F1000F00D083E0C7F3A6
:103C0000080104F1300001EB000815F0010F05D0A8
:103C1000F1B298F8000061F31F1000E0F0B288F8EC
:103C200000007F1C01202071206A00EB57212046F4
:103C3000FFF79EFE8146B9F1000F00D063E0C7F3A5
:103C4000080104F1300001EB000815F0010F02D06B
:103C5000C6F3071006E098F8000000F0F000C6F385
:103C60000321084388F800004DE0206A00EB15218D
:103C70002046FFF77DFE8146B9F1000F00D042E0FB
:103C800040F2FF1101EA450104F1300001EB0008A8
:103C900088F80060300A88F8010034E0206A00EB00
:103CA000D5112046FFF764FE8146B9F1000F00D020
:103CB00029E040F2FF1101EA850104F1300001EB37
:103CC000000898F80300000698F8021040EA014046
:103CD00098F8011040EA012000E011E098F8001087
:103CE000084300F07040064388F80060300A88F806
:103CF0000100300C88F80200300E88F8030002E062
:103D00004FF0020900BF00BF012020714846BDE806
:103D1000F0872DE9F04104460D46022D02D3A0693B
:103D2000A84201D8022725E000271FE029462046A7
:103D3000FFF7C8FE064606B91BE0012E01D1022797
:103D400017E0701C01D1012713E00022294620460C
:103D5000FFF731FF074607B10BE02069401C04D094
:103D60002069401C2061012060713546A069A8428D
:103D7000DCD800BF3846BDE8F0812DE9F0470446A5
:103D80000D4655B9D4F80C80B8F1000F02D0A069E7
:103D9000404512D84FF001080FE029462046FFF7B2
:103DA00091FE0646022E02D20120BDE8F087A069EE
:103DB000B04201D93046F8E7A846474600BF7F1C0D
:103DC000A069B84204D80227474501D90020ECE792
:103DD00039462046FFF776FE064606B909E0701C14
:103DE00001D0012E01D13046DFE74745E7D1002061
:103DF000DBE700BF6FF0704239462046FFF7DBFE7D
:103E00008146B9F1000F06D12DB13A462946204628
:103E1000FFF7D1FE8146B9F1000F09D1E7602069B3
:103E2000401C0DD02069401E20610120607107E018
:103E3000B9F1010F02D14FF0FF3000E00120074639
:103E40003846B2E72DE9F04106460C46F480B768E3
:103E5000012F03D030688069B84202D80220BDE843
:103E6000F0812FB930680078032801D13068476AA3
:103E700067B9F76030680089A04201DC0220EEE7F4
:103E80003068406A00EB1410306120E030688078C0
:103E9000050112E039463068FFF714FE0746781C2A
:103EA00001D10120DBE7022F03D330688069B842DB
:103EB00001D80220D3E7601B84B2AC42EADAF76093
:103EC00039463068FFF7F1FD00EB141030613068BF
:103ED000303004F00F0100EB411070610020BEE7AC
:103EE0002DE9F04104460D4600BFE088401C87B232
:103EF0000FB1206910B90420BDE8F08117F00F0F51
:103F000070D12069401C2061E06828B920680089D0
:103F1000B84267DC0420EFE720688078401E10EA92
:103F2000171F5FD1E1682068FFF7CCFD0646012E20
:103F300001D80220E0E7701C01D10120DCE72068F5
:103F40008069B04248D80DB90420D5E7E1682068FF
:103F5000FFF713FF06460EB90720CDE7012E01D16A
:103F60000220C9E7701C01D10120C5E700212068AB
:103F7000FFF7FEFC08B10120BEE7216801F1300027
:103F80004FF400720021FFF7CCFC31462068FFF7A8
:103F90008CFD2168C8624FF0000812E00120216802
:103FA000087100212068FFF7E3FC08B10120A3E7B6
:103FB0002068C06A401C2168C86208F1010000F056
:103FC000FF08206880784045E8DC2068C06AA0EBE4
:103FD00008002168C86200BFE66031462068FFF72C
:103FE00064FD2061E7802068303007F00F0100EBAE
:103FF0004110606100207FE72DE9F04704460D463F
:10400000287820F04000401E00EB800101EBC00644
:1040100000274FF0010800BFF848C05D285CF74951
:10402000C95D2944497840EA0129B8F1000F10D050
:104030004846FFF7E5FB8046FF2E07D23146761C47
:1040400034F81100FFF7DCFB404508D00020BDE844
:10405000F087A9F57F40FF3801D00020F7E7781CF2
:1040600007460D28D8D3287810F0400F07D0B8F1B4
:10407000000F04D034F8160008B10020E7E7012053
:10408000E5E7F0B50246087800F03F00401E00EB7F
:10409000800707EBC0030025012600BFD748405D1D
:1040A000085CD64F7F5D0F447F7840EA07244EB10D
:1040B000FF2B01D30020F0BD264618465B1C22F8DA
:1040C000104005E0A4F57F40FF3801D00020F2E762
:1040D000681C05460D28E1D3087810F0400F06D083
:1040E000FF2B01D30020E6E7002022F81300012077
:1040F000E1E7F0B54B730F27CF7200270F738F7670
:10410000BC4681F81BC0571E07EB870C0CEBC7049D
:1041100000273E463D4600BFA6F57F47FF3F03D040
:104120002746641C30F81760DFF8D0C21CF805C0C1
:1041300001F80C603712DFF8C4C21CF805C08C44CB
:104140008CF801700EB94FF6FF766F1C3D460D2FAF
:10415000E2D3A6F57F47FF3F02D030F814700FB9C5
:1041600042F040020A70F0BD2DE9FC4704460D46BE
:1041700016461F460B2229462046FFF7C5FB052F92
:104180000ADD00BF781000EBC73136F8022B881823
:1041900087B230880028F5D14FF0070900BF3846B4
:1041A000F91707EB11710911A7EB0111303101F07B
:1041B000FF08B8F1390F03DD08F1070000F0FF0830
:1041C0004846A9F101090DF800803846F91707EBB8
:1041D00011710F11002FE2D17E200DF809004FF070
:1041E000000A10E014F80A0081280ADB14F80A001B
:1041F000FE2806DCA9F10100504500D109E00AF1D2
:10420000010A0AF1010ACA4503D214F80A0020285B
:10421000E8D100BF00BFB9F1080F05D2484609F147
:1042200001091DF8000000E02020C2B250460AF14A
:10423000010A2254BAF1080FEDD3BDE8FC8730B56E
:10424000014600200B2200BF431003EBC01411F8FD
:10425000015B6319D8B2531E1A00F5D130BD2DE9A8
:10426000F047044600212046FFF7ECFD054615B156
:104270002846BDE8F0874FF0FF09CA4600BF216914
:104280002068FFF775FB054605B154E067693E7885
:104290000EB904254FE0F87A00F03F08E52E05D06E
:1042A00018F0080F05D0B8F10F0F02D04FF0FF093A
:1042B0003AE0B8F10F0F1DD1E069002834D016F0B4
:1042C000400F06D097F80DA026F04006B146E088D2
:1042D00020844E450AD1787B504507D13946E069A4
:1042E000FFF78AFE10B1A9F1010000E0FF2000F005
:1042F000FF0919E0B9F1000F05D13846FFF79FFF1C
:10430000504500D117E04FF0FF094FF6FF702084B1
:10431000A069C07A10F0010F06D10B223846A169BE
:10432000FFF709FB00B906E000212046FFF7D8FDA2
:104330000546002DA3D000BF28469AE72DE9F04797
:1043400004464FF0FF09CA4604254DE02169206864
:10435000FFF70EFB054605B149E067693E780EB9E7
:10436000042544E0F87A00F03F08E52E08D000BFAD
:104370002E2E05D018F0080F05D0B8F10F0F02D07F
:104380004FF0FF0929E0B8F10F0F1AD116F0400FD6
:1043900006D097F80DA026F04006B146E0882084AC
:1043A0004E450AD1787B504507D13946E069FFF781
:1043B00068FE10B1A9F1010000E0FF2000F0FF0944
:1043C0000BE0B9F1000F04D13846FFF738FF504534
:1043D00002D04FF6FF70208409E000212046FFF74D
:1043E0007FFD054605B102E020690028AED100BF7F
:1043F0000DB1002020612846BDE8F087F4060308CF
:104400002DE9F04F85B00446A0690190D4F81CB0A6
:104410000C2202A80199FFF777FA00BF9DF813005C
:1044200010F0010F2CD000210198C1720020E06132
:104430004FF001080FE043465A4602A90198FFF7E2
:1044400093FE2046FFF70BFF054605B106E008F195
:1044500001001FFA80F8B8F1640FECDB00BFB8F17F
:10446000640F03D1072005B0BDE8F08F042D01D003
:104470002846F8E79DF813100198C172C4F81CB0E3
:104480009DF8130010F0020F12D04FF0000903E066
:1044900009F101001FFA80F93BF819000028F7D153
:1044A00009F119000D2190FBF1F01FFA80F901E0EC
:1044B0004FF0010900212046FFF7C4FC05460DB16D
:1044C0002846D0E74FF0000AD04600BF2169206897
:1044D000FFF74EFA054605B119E060690678E52E4A
:1044E00000D05EB9B8F1000F01D1B4F806A008F110
:1044F000010080B28046484502D108E04FF0000834
:1045000001212046FFF7ECFC0546002DDED000BF60
:10451000002D2FD1B9F1010F2CDD51462046FFF7B8
:1045200091FC054635BBA069FFF789FE0090A9F113
:1045300001001FFA80F900BF21692068FFF718FA0F
:10454000054605B115E06169E06909F0FF02009BCD
:10455000FFF7CFFD01202168087100212046FFF7F9
:10456000BFFC05462DB9A9F1010080B25FEA000940
:10457000E2D100BFC5B921692068FFF7F9F9054606
:1045800095B96769202200213846FFF7CAF90B2246
:104590003846A169FFF7B8F9A069C07A00F01800A1
:1045A000387301202168087128465CE72DE9FF5F18
:1045B00004460D462868019002E00198401C0190D5
:1045C000019800782F28F8D0019800785C28F4D062
:1045D000D4F81C904FF0000BCDF808B000BF58463F
:1045E0000BF1010B019911F80080B8F1200F05DBE8
:1045F000B8F12F0F02D0B8F15C0F00D13CE0029867
:10460000FF2803D3062004B0BDE8F09F08F0FF08A0
:10461000B8F1810F16DB08F0FF00FE2812DC5846C7
:104620000BF1010B01990E5C402E01DB7E2E05DDA6
:10463000802E01DBFE2E01DD0620E4E706EB0820DC
:104640001FFA80F801214046FFF7A2F88046B8F132
:10465000000F01D10620D6E7B8F1800F06DA4146F7
:10466000FCA0FFF77BF908B10620CCE70298411CBB
:10467000029129F81080B2E700BF019858442860E1
:10468000B8F1200F01DA042000E00020C7B20DE0ED
:104690000298401E39F81080B8F1200F03D0B8F10D
:1046A0002E0F00D005E00298401E029002980028CC
:1046B000EED100BF029808B90620A4E700210298B5
:1046C00029F810100B222021A069FFF72AF94FF0DA
:1046D000000B01E00BF1010B39F81B002028F9D089
:1046E00039F81B002E28F5D0BBF1000F01D047F0A0
:1046F000030702E00298401E0290029828B1029837
:10470000401E39F810002E28F4D14FF0000A56460A
:104710000820039000BF58460BF1010B39F81080B8
:10472000B8F1000F00D174E0B8F1200F05D0B8F156
:104730002E0F05D10298834502D047F00307EAE720
:104740000398824502D20298834517D103980B281B
:1047500002D147F003075CE00298834501D047F09F
:1047600003070298834500D953E0DDF808B04FF005
:10477000080A0B200390B006060ECCE7B8F1800FB4
:1047800009DB4046FFF73CF800210090FFF700F8F6
:10479000804647F0020700BFB8F1FF0F10DD039815
:1047A000401E504504D847F00307DDF80CA0B2E7DF
:1047B0004FEA282250460AF1010AA3691A5421E05F
:1047C000B8F1000F04D04146A5A0FFF7C7F820B10B
:1047D0004FF05F0847F0030714E0B8F1410F05DB25
:1047E000B8F15A0F02DC46F002060BE0B8F1610F97
:1047F00008DBB8F17A0F05DC46F00106A8F12000CD
:104800001FFA80F850460AF1010AA36903F80080F4
:1048100081E700BFA0690078E52802D10520A169E1
:1048200008700398082801D1B006060E06F00C00A7
:104830000C2803D006F00300032801D147F002073B
:1048400017F0020F0BD106F00300012801D147F049
:10485000100706F00C00042801D147F00807A069F2
:10486000C7720020CFE62DE9FC5F04460D4605F136
:104870000908206900285ED06769387B019000260E
:104880001CE017F80690B9F1200F00D118E0B9F13B
:10489000050F01D14FF0E50900BF019810F0080F96
:1048A00009D0B9F1410F06DBB9F15A0F03DC09F168
:1048B000200000F0FF0908F8019B761C082EE0D3C9
:1048C00000BF387A20281FD02E2008F8010B0826B8
:1048D00017E017F80690B9F1200F00D113E000BFE0
:1048E000019810F0100F09D0B9F1410F06DBB9F1B2
:1048F0005A0F03DC09F1200000F0FF0908F8019BC2
:10490000761C0B2EE5D300BFF87A2872F87F0106DB
:10491000B87F41EA0041787F41EA0020397F0843AF
:104920002860397E787E41EA0020A880B97DF87D34
:1049300041EA0020E880002088F80000A8690028EB
:104940003AD0E869002837D0D5F818A000262069A9
:1049500000282DD0208CA0F57F41FF3928D0E069B8
:1049600000901DE000215846FEF712FF8346BBF180
:10497000000F01D100261AE000BFBBF1FF0F05DDDB
:104980004FEA2B223046761C0AF80020E869401EC8
:10499000B04201D800260AE03046761C0AF800B082
:1049A000009830F8021B5FEA010B0090DAD100BFDB
:1049B00000200AF8060000BFBDE8FC9F2DE9F34186
:1049C0000446019800782F2803D0019800785C28CD
:1049D00002D10198401C01900020A060019800784D
:1049E000202807D200212046FFF72CFA0546002098
:1049F00060613AE000BF01A92046FFF7D7FD0546F8
:104A000005B131E02046FFF72AFC0546A069C77AC8
:104A100045B1042D00D027E000BF17F0040F00D1EE
:104A2000052521E017F0040F00D01DE06669F07A3B
:104A300010F0100F01D1052516E0B17EF07E41EA9D
:104A40000021327D707D42EA002041EA0040A060F2
:104A5000D1E70000222A3A3C3E3F7C7F0000000064
:104A60002B2C3B3D5B5D000000BF2846BDE8FC8170
:104A700070B504460D46607801232A4604F13001E2
:104A8000FEF7EEFE08B1032070BD94F82E1294F8E4
:104A90002F0241EA0020A0F52A41553901D0022019
:104AA000F2E794F86900010694F8680041EA0041D1
:104AB00094F8670041EA002194F86600014321F070
:104AC0007F40FF49884201D10020DDE794F885004E
:104AD000010694F8840041EA004194F8830041EA19
:104AE000002194F88200014321F07F40F44988427C
:104AF00001D10020C8E70120C6E72DE9F74F88B0B3
:104B000008980068029002980078A0F13008B8F187
:104B1000090F0AD8029840783A2806D10298801CDA
:104B2000029008990298086001E04FF00008B8F17F
:104B3000000F03D00B200BB0BDE8F08FE14850F818
:104B40002800019009990860019808B90C20F2E743
:104B50000198007888B101994878FEF77EFE814679
:104B600019F0010F09D100BF0A9820B119F0040F04
:104B700001D00A20DFE70020DDE700210198017065
:104B8000019981F8018001994878FEF759FE814624
:104B900019F0010F01D00320CDE700BF0A9820B122
:104BA00019F0040F01D00A20C5E700200146079044
:104BB0000198FFF75DFF044600BF012C1CD10026C1
:104BC0000EB1701EC6B24FF4DF7101EB06110198F1
:104BD00030300F18387978B1F87A0106B87A41EA9E
:104BE0000041787A41EA0020397A08430790079912
:104BF0000198FFF73DFF0446032C01D101209AE7FD
:104C00000CB10D2097E7019890F83B1090F83C000C
:104C100041EA0020B0F5007F01D00D208BE701981C
:104C200090F8461090F8470041EA00200690069858
:104C300090B9019890F857000106019890F8560035
:104C400041EA0041019890F8550041EA002101989D
:104C500090F854000143069101990698C8610198A3
:104C600090F84050C570012D03D0022D01D00D20C9
:104C700061E7069868430690019890F83D00054664
:104C80000199887015B1681E284201D00D2052E7A5
:104C9000019890F8411090F8420041EA00200199F3
:104CA00008810198008910F00F0F01D00D2042E714
:104CB000019890F8431090F8440041EA00200590D4
:104CC000059890B9019890F853000106019890F862
:104CD000520041EA0041019890F8510041EA002158
:104CE000019890F8500001430591019890F83E100A
:104CF00090F83F0041EA002BBBF1000F01D10D20DD
:104D000019E7069858440199098900EB111004909D
:104D1000DDE90401814201D20D200CE7DDE9041038
:104D2000401A01998978B0FBF1FABAF1000F01D16C
:104D30000D2000E7012440F6F670824500D30224DE
:104D40004FF6F670824500D303240AF10200019960
:104D5000886104990798084401998862079800EBD4
:104D60000B0101980162032C1DD10198008908B143
:104D70000D20E0E6019890F85F000106019890F898
:104D80005E0041EA0041019890F85D0041EA00218F
:104D9000019890F85C000143019841620198806994
:104DA000800003901BE00198008908B90D20C2E63D
:104DB0000198006A0699084401994862022C03D1BF
:104DC00001988069400009E00198806900F00100C5
:104DD0000199896901EB410100EB510003900198B1
:104DE000C169039800F2FF10B1EB502F01D20D20E2
:104DF000A1E64FF0FF300199086100200199C860D9
:104E0000032C7CD1002101984171019890F8601029
:104E100090F8610041EA002007990144019841613E
:104E20000199487801234A693031FEF719FD0028BD
:104E300065D1019890F82E1290F82F0241EA0020D7
:104E4000A0F52A4155395AD1019890F8330001064E
:104E5000019890F8320041EA0041019890F8310041
:104E600041EA0020019991F8301008431649884220
:104E700045D1019890F817020106019890F81602A2
:104E800041EA0041019890F8150241EA0021019899
:104E900090F8140201430D48814230D1019890F8F6
:104EA0001F020106019890F81E0241EA0041019894
:104EB00090F81D0241EA0021019890F81C0207E0D9
:104EC00046415400400000205252614172724161DB
:104ED00001430198C160019890F81B0201060198F6
:104EE00090F81A0241EA0041019890F8190241EA4B
:104EF0000021019890F8180201430198016101987E
:104F00000470F9480088401C80B2F7490880019974
:104F1000C88000210198C1620198017100200AE651
:104F200070B504460D4624B1207810B1E088A8423F
:104F300001D0092070BD6078FEF78FFC10F0010FE2
:104F400001D00320F6E70020F4E70346012B01DB44
:104F50000B207047E448001F50F823200AB10020BE
:104F6000107009B100200870DF48001F40F82310BE
:104F70000020EEE72DE9F743ADF50C7D044615461C
:104F80000020206005F01F0525F0010283A98DA8EF
:104F9000FFF7B3FD064680A88990CDF828D226B940
:104FA00083A88D99FFF70AFD0646889F0EB907B9B9
:104FB000062615F01C0F57D04EB1042E03D183A83E
:104FC000FFF71EFA064645F00805889F09E0F87AC3
:104FD00010F0110F01D0072603E015F0040F00D0E8
:104FE0000826002E3FD115F0080F3CD0FEF789FCB3
:104FF000804687F80E804FEA1821F9734FEA18416E
:1050000039744FEA186179740020F87238770021FA
:105010007977B977F977B97EF87E41EA00213A7D50
:10502000787D42EA002041EA00490020B87600215C
:10503000F97638757975012083990871B9F1000FF7
:1050400011D08398D0F82C8049468398FEF761FEF2
:10505000064646B9A9F101008399C8604146839884
:10506000FEF786FC06460EE06EB9F87A10F0100FD7
:1050700001D0042607E015F0020F04D0F87A10F0F2
:10508000010F00D0072646B915F0080F01D045F0F2
:1050900020058398C06AE0612762F6B9A571B97EE0
:1050A000F87E41EA00213A7D787D42EA002041EA1B
:1050B00000402061F87F0106B87F41EA0041787F17
:1050C00041EA0020397F0843E0600020A060A06131
:1050D000839820608398C088A08030460DF50F7DAE
:1050E000BDE8F0832DE9FF4F83B004460D461E4610
:1050F000009500203060A1882068FFF711FF029022
:10510000029818B1029807B0BDE8F08FA07910F0AE
:10511000800F01D00220F6E7A07910F0010F01D135
:105120000720F0E7D4E90210A0EB010905984845F3
:1051300001D9CDF81490BFE0A068C005C00D7ED1A4
:1051400020688078401EA16800EA5120C0B201901A
:105150000198C8B9A06808B9276904E061692068A6
:10516000FEF7B0FC0746022F05D2A07940F0800080
:10517000A0710220C7E7781C05D1A07940F080001B
:10518000A0710120BFE7676161692068FEF78DFCAF
:105190008046B8F1000F05D1A07940F08000A071E1
:1051A0000220B0E70198804405984FEA502BBBF1EC
:1051B000000F32D00198584421688978884204D978
:1051C000206880780199A0EB010B216848780BF0EA
:1051D000FF0342460099FEF743FB28B1A07940F057
:1051E0008000A07101208EE7A07910F0400F11D04F
:1051F000A069A0EB080058450CD2A169A1EB0801F9
:105200000A46009901EB42204FF4007204F1240198
:10521000FEF77AFB4FEA4B2A41E0A069404527D0D0
:10522000A07910F0400F14D021684878012304F1D0
:105230002401A269FEF73BFB38B1A07900E019E038
:1052400040F08000A07101205DE7A07920F04000CF
:10525000A071216848780123424604F12401FEF739
:10526000FFFA28B1A07940F08000A07101204AE740
:10527000C4F81880A068C0F30800C0F5007A05984B
:10528000824501D9DDF814A0A068C0F3080204F13A
:105290002400111852460098FEF736FB00BF009814
:1052A00050440090A0685044A06030685044306082
:1052B0000598A0EB0A000590059800287FF43CAF04
:1052C00021E72DE9FE4F04460D4616461F46AA4625
:1052D00000203860A1882068FFF722FE0290029823
:1052E00020B10298BDE8FE8F44000020A07910F0A4
:1052F000800F01D00220F5E7A07910F0020F01D154
:105300000720EFE7E0683044E168884200D20026D9
:10531000D5E0A068C005C00D7AD120688078401E15
:10532000A16800EA512000F0FF0BBBF1000F2AD169
:10533000A06858B9D4F81080B8F1000F0BD1002143
:105340002068FEF71AFD8046206104E0616920684C
:10535000FEF713FD8046B8F1000F00D1B2E0B8F1BE
:10536000010F05D1A07940F08000A0710220B9E7BB
:1053700018F1010005D1A07940F08000A071012052
:10538000B0E7C4F81480A07910F0400F12D0216863
:105390004878012304F12401A269FEF788FA28B1B4
:1053A000A07940F08000A07101209BE7A07920F057
:1053B0004000A07161692068FEF777FB01900198B9
:1053C00028B9A07940F08000A07102208AE70198F6
:1053D000584401904FEA5629B9F1000F31D00BEB38
:1053E000090021688978884203D920688078A0EB79
:1053F0000B092168487809F0FF035146019AFEF72E
:1054000056FA30B1A07940F08000A071012069E720
:1054100030E0A1690198081A48450ED2A2690198A6
:10542000101A0AEB40214FF4007204F12400FEF739
:105430006BFAA07920F04000A0714FEA492000905B
:1054400031E0A1690198814212D0D4E90201884279
:105450000ED221684878012304F12401019AFEF755
:10546000FFF928B1A07940F08000A071012039E750
:105470000198A061A068C0F30800C0F5007000901A
:105480000098B04200D90096A168C1F3080204F167
:10549000240150185146009AFEF736FAA07940F0E0
:1054A0004000A07100BF00988244A16800980844A1
:1054B000A06039680098084438600098361A002EB9
:1054C0007FF427AF00BFD4E90201884201D9A06868
:1054D000E060A07940F02000A071002002E72DE9F3
:1054E000F0410446A1882068FFF71AFD0546002D0B
:1054F0004ED1A07910F0200F4AD0A07910F0400FC3
:105500000FD021684878012304F12401A269FEF735
:10551000CEF910B10120BDE8F081A07920F0400063
:10552000A071E1692068FEF723FA0546002D2FD10E
:10553000276AF87A40F02000F872E0683877E0686F
:10554000010A7977E068010CB977E068000EF87716
:105550002069B8762069000AF8762069000C387551
:105560002069010E7975FEF7CCF90646BE75310A41
:10557000F975310C3976310E7976A07920F020005A
:10558000A0710120216808712068FEF72AFA0546FB
:105590002846C0E770B504462046FFF7A0FF054641
:1055A0000DB900202060284670BD2DE9F047044663
:1055B0000D46A1882068FFF7B3FC064616B13046B9
:1055C000BDE8F087A07910F0800F01D00220F7E746
:1055D000E068A84204D2A07910F0020F00D1E5687B
:1055E000D4F808A04FF00009C4F80890002D7AD034
:1055F000206880784FEA4028BAF1000F12D0681E68
:10560000B0FBF8F0AAF10101B1FBF8F1884209D32F
:10561000AAF10100A8F101018843A060A0682D1A39
:10562000676918E02769AFB900212068FEF7A5FB7C
:105630000746012F05D1A07940F08000A07102201B
:10564000BEE7781C05D1A07940F08000A071012050
:10565000B6E727616761002F45D02AE0A07910F0F6
:10566000020F07D039462068FEF787FB074637B997
:10567000454620E039462068FEF724FA0746781CA4
:1056800005D1A07940F08000A071012098E7012F9A
:1056900003D920688069B84205D8A07940F080001D
:1056A000A07102208CE76761A0684044A060A5EB70
:1056B00008054545D2D800BFA0682844A060E80589
:1056C000C00D10D039462068FEF7EFF98146B9F1D8
:1056D000000F06D1A07940F08000A07102206FE792
:1056E00001E009EB5529A068C005C00D2AD0A069CA
:1056F000484527D0A07910F0400F12D02168487893
:10570000012304F12401A269FEF7D1F828B1A079A0
:1057100040F08000A071012052E7A07920F0400005
:10572000A0712168487801234A4604F12401FEF75C
:1057300097F828B1A07940F08000A07101203FE7E0
:10574000C4F81890D4E90201884205D9A068E06045
:10575000A07940F02000A071304631E733B5ADF5B7
:10576000037D04460022214684A8FFF7C6F90546BA
:10577000002D2BD180A8A061C4F81CD020468499AC
:10578000FFF71CF90546F5B9606998B16069C07A00
:1057900010F0100F0DD06069817EC07E41EA0021BB
:1057A0006069027D407D42EA002041EA0040A0603D
:1057B00000E005253DB92068C088A0800021204672
:1057C000FEF740FB0546042D00D1052528460DF5C2
:1057D000057D30BD70B5ADF5047D04460D46A1884C
:1057E0002068FFF79DFB064616BB2DB90021204619
:1057F000FEF728FB06461BE081A8A06101A8E06136
:105800002046FEF79BFD0646042E02D100202061B3
:1058100000266EB929462046FFF725F800212046CC
:10582000FEF75EFB0646042E02D100202061002612
:1058300030460DF5047D70BD10B5431A934209D270
:105840008318881803E010F8011D03F8011D521E8B
:10585000F9D210BD40EA01039B070AD102E008C952
:10586000121F08C0042AFAD203E011F8013B00F825
:10587000013B521EF9D210BDD2B201E000F8012B5B
:10588000491EFBD270470022F6E710B504460846D1
:10589000114602462046FFF7EFFF204610BD30B507
:1058A0000EE003460A4601E05B1C521C1C7815788A
:1058B000AC4201D1002CF7D11278002A04D0401C50
:1058C0000278002AEDD1002030BD10B5044604E076
:1058D0000B7800F8013B03B1491C521EF8D2204658
:1058E00010BD30B500252B4600E05B1C934205D26D
:1058F000C45CCD5C651B01D1002CF6D1284630BDBF
:10590000064C074D06E0E06840F0010394E807000C
:1059100098471034AC42F6D3FAF70EFC040703089C
:10592000240703080FB410B503A9044B044A0298D6
:1059300000F017F810BC5DF814FB0000AF0200087F
:105940004800002002E008C8121F08C1002AFAD14E
:1059500070477047002001E001C1121F002AFBD1EF
:1059600070472DE9F84F054692469946884600272C
:1059700051E0252855D1002215F8010F11462E2897
:1059800016D115F8010F04222A280AD158F8041B51
:105990006D1C0DE001EB810103EB410101446D1C25
:1059A00001E06FF02F032878A0F13004092CF1D921
:1059B000287898B363280AD0732832D158F8046B3A
:1059C0004FF0FF3052074FF0000413D50AE058F8AB
:1059D000043B8DF8003000208DF801006E46012058
:1059E000F0E7641C8C420CDA8442FADB325D002A58
:1059F000F7D106E000E0641C8442FCDB315D002945
:105A0000F9D1274404E016F8010B51464A46904765
:105A1000641EF8D26D1C28780028AAD13846BDE84B
:105A2000F88F51464A4690477F1CF3E7A400E8A14F
:105A3000A700ECA1A800A7A1B000E3A1B100C0A1FC
:105A4000B700A4A1D700C1A1E000A4A8E100A2A8CA
:105A5000E800A8A8E900A6A8EA00BAA8EC00ACA84B
:105A6000ED00AAA8F200B0A8F300AEA8F700C2A10A
:105A7000F900B4A8FA00B2A8FC00B9A80101A1A8D5
:105A80001301A5A81B01A7A82B01A9A84401BDA823
:105A90004801BEA84D01ADA86B01B1A8CE01A3A8D5
:105AA000D001ABA8D201AFA8D401B3A8D601B5A844
:105AB000D801B6A8DA01B7A8DC01B8A85102BBA882
:105AC0006102C0A8C702A6A1C902A5A1CA0240A836
:105AD000CB0241A8D90242A89103A1A69203A2A693
