:020000040800F2
:100000003006002045010008191000081B100008E8
:100010001D1000081F10000821100008000000003B
:100020000000000000000000000000002310000895
:100030002510000800000000271000082910000803
:100040005F0100085F0100085F0100085F01000810
:100050005F0100085F0100085F0100085F01000800
:100060005F0100085F0100085F0100085F010008F0
:100070005F0100085F0100085F0100085F010008E0
:100080005F0100085F0100085F0100085F010008D0
:100090005F0100085F0100085F0100085F010008C0
:1000A0005F0100085F0100085F0100085F010008B0
:1000B0005F0100085F0100085F0100085F010008A0
:1000C0005F0100085F0100085F0100085F01000890
:1000D0005F0100085F0100085F0100085F01000880
:1000E0005F0100085F0100085F0100085F01000870
:1000F0005F0100085F0100085F0100085F01000860
:100100005F0100085F0100085F0100085F0100084F
:100110005F0100085F0100085F0100085F0100083F
:100120005F0100085F0100085F0100085F0100082F
:10013000DFF80CD001F0AEF900480047CB0E000804
:10014000300600200648804706480047FEE7FEE7E5
:10015000FEE7FEE7FEE7FEE7FEE7FEE7FEE7FEE777
:1001600009020008310100080CB500214B4801913B
:100170000091026842F4803202604FF4A06302688A
:1001800002F400320092019A521C0192009A12B9B4
:10019000019A9A42F3D10268920333D5012100916A
:1001A0003F490A6842F010020A600A6822F003021E
:1001B0000A600A6842F002020A60416841604168D0
:1001C0004160416841F480614160416821F47C11E3
:1001D0004160416841F4E8114160016841F080717B
:1001E000016001688901FCD5416821F0030141608B
:1001F000416841F0020141604168C1F38101022977
:10020000FAD10CBD00910CBD244810B5016841F035
:10021000010101604168234A114041600168224A9E
:1002200011400160016821F480210160416821F4DE
:10023000FE0141604FF41F018160FFF795FF1B49EC
:100240004FF00060086010BD144910B54868184AA6
:1002500010F00C03174803D0042B01D0082B0AD050
:1002600002604968134AC1F30311121D515C026810
:10027000CA40026010BD4A684B6802F470124FF029
:10028000020413F4803F04EB924202D04B689B03BC
:1002900001D5094B00E0064B5A43E1E7001002404C
:1002A000002002400000FFF8FFFFF6FE08ED00E02E
:1002B00000127A000000002000093D00914910B5AD
:1002C000884206D10121042000F0DFFB0021042038
:1002D0003BE08D49884206D10121082000F0D5FB82
:1002E0000021082031E08949884206D101211020EF
:1002F00000F0CBFB0021102027E08549884206D181
:100300000121202000F0C1FB002120201DE08149B7
:10031000884206D10121402000F0B7FB0021402097
:1003200013E07D49884206D10121802000F0ADFB19
:100330000021802009E0794988420AD184150121F1
:10034000204600F0A2FB00212046BDE8104000F04E
:100350009CBB10BD10B50121084600F096FB0021A2
:10036000BDE81040012000F090BBF0B5CA78002530
:1003700002F00F03D20601D58A7813430A784FF0B2
:100380000F0E12F0FF0F4FF001021DD0D0F8004009
:100390000F8802FA05F63740B74211D14FEA850CB3
:1003A0000EFA0CF724EA070703FA0CF43C43CF7863
:1003B000282F02D0482F02D002E0466100E00661FB
:1003C0006D1C082DE4D304600C88FF2C1ED94468F2
:1003D0005FF0000606F1080702FA07F50F882F40C4
:1003E000AF420FD14FEA860C0EFA0CF7BC4303FA6A
:1003F0000CF73C43CF78282F00D14561CF78482FA8
:1004000000D10561761C082EE4D34460F0BD4FF6A0
:10041000FF710180022181700421C1707047024682
:10042000002092680A4200D001207047806880B2A4
:10043000704702460020D2680A4200D0012070476F
:10044000C06880B2704701617047416170470AB16E
:100450000161704741617047C160704741F480326B
:100460008261816182618169806970472C4B10B51E
:100470001A684FF68074224042EA00100843186060
:1004800010BD2849C8617047F0B5254C002801DA35
:10049000E36900E06368420D120185B2C0F30157C1
:1004A0009540C0F30346032F05D0C2020AD50322AC
:1004B000B240934307E023F07062636823F07063F7
:1004C000636002E0AB4343F0706201B12A4300284D
:1004D00001DAE261F0BD6260F0BD10B58A0721F07B
:1004E00003040F49130F21440F228C689A40944350
:1004F0008C608A68984002438A6010BD0949C1F83F
:10050000DC00704700080140000C01400010014071
:100510000014014000180140001C0140002001406F
:100520000000014000002042C64910B588424FF04B
:10053000010101D14C0501E04FF48004204600F098
:10054000ADFA2046BDE81040002100F0A7BA70B512
:100550000446808886B00D4620F03F06684600F0CD
:1005600039FAB9490298B0FBF1F189B20E43A6807D
:10057000228822F001022280B44B2A689A421CD8B9
:100580005200B0FBF2F080B2042800D20420491CD3
:100590002184A083208840F00100208021884FF62C
:1005A000F5300140A8886A89104308432080A88953
:1005B00029890843208106B070BDEB88A3F53F462A
:1005C000FF3E0BD002EBC20303EB0212B0FBF2F0D2
:1005D00080B240F48040020506D007E002EB420200
:1005E000B0FBF2F080B2F6E740F001004FF49672F3
:1005F00051434FF47A72B1FBF2F140F40040C6E788
:1006000041F288310160002181804BF6FF72C28087
:10061000018141814FF48041818170470029018827
:1006200002D041F0010101E021F001010180704799
:100630000029818802D041F4006101E021F40061C9
:10064000818070470029818802D041F4805101E007
:1006500021F48051818070470029018802D041F443
:10066000807101E021F480710180704700290188C8
:1006700002D041F4007101E021F400710180704763
:100680000029018802D041F4806101E021F48061F9
:1006900001807047828901F0FE0122F0FE021143C1
:1006A000818170470029818902D041F0010101E078
:1006B00021F00101818170470029018802D041F0B9
:1006C000400101E021F0400101807047002A82884A
:1006D00001D00A4300E08A4382807047018270475C
:1006E000008AC0B2704712B141F0010101E001F08F
:1006F000FE010182704708B508440090008808BDDB
:100700000029018802D041F4004101E0C1F30E014B
:1007100001807047B1F5006F018803D021F40061BA
:100720000180704741F40061FAE7B1F5005F01888C
:1007300003D021F400510180704741F40051FAE7E1
:100740000029018802D041F4805101E021F4805158
:1007500001807047B1F5006F018803D021F400617A
:100760000180704741F40061FAE70029018802D056
:1007700041F0200101E021F0200101807047008B51
:10078000000A70470029018802D041F0100101E001
:1007900021F01001018070470029018803D021F069
:1007A00080010180704741F08001FAE7B1F5804F88
:1007B000818B02D021F4804101E041F480418183AA
:1007C000704702460020938A128B43EA024323F0CB
:1007D0007F42914300D101207047818A008B41EA1A
:1007E000004121F07F4070470CB502460020009286
:1007F0000A0F21F07F41019202D0009A143202E0E8
:10080000009A090C1832009212680A4200D00120A6
:100810000CBDC9438182704710B5034600209A88F9
:100820004FF4E06404EA11449B8A224021F07F41A6
:100830000B4202D0002A00D0012010BDC9438182A2
:10084000704700000054004040420F00A0860100A5
:10085000A448016841F0010101604168A24A1140C9
:1008600041600168A14A11400160016821F48021C2
:100870000160416821F4FE0141604FF41F01816075
:10088000704798490A6822F480320A600A6822F4A4
:1008900080220A60B0F5803F07D0B0F5802F03D1E9
:1008A000086840F4A02008607047086840F4803071
:1008B000F9E70246002053098A49012B0AD0022B8E
:1008C0000AD0496A02F01F02012393400B4200D074
:1008D000012070470968F5E7096AF3E718B50020B9
:1008E0004FF4A06400903120FFF7E3FF0099491C0A
:1008F0000091A14201D00028F5D03120FFF7D9FFA7
:10090000002800D0012018BD76490A6822F0F802BC
:1009100042EAC00008607047754908607047714A34
:100920005368084323F47C131843506070477049A0
:10093000086670476B4A516821F00301014351601A
:1009400070476848406800F00C007047654A51687D
:1009500021F0F001014351607047624A516821F46F
:10096000E0610143516070475E494A6822F4605279
:1009700042EAC000486070475A4A0029517A01D0C3
:10098000014300E08143517270475949C1F8D800D2
:100990007047544A516821F4404101435160704707
:1009A0005049002281F8202081F82020012802D01F
:1009B000042802D1052081F8200070474D490860C5
:1009C000704748490A6A02430A62704749494439F4
:1009D0000860704730B543494A6812F00C03464A34
:1009E00003D0042B01D0082B21D002604A680F23CA
:1009F000424C03EA1212A35C0268DA4042604B6880
:100A0000072505EA1323E35C22FA03F383604B68AE
:100A100005EAD323E35CDA40C2604968032303EAB2
:100A20009131231F595CB2FBF1F1016130BD4A687D
:100A30004B6802F470124FF0020413F4803F04EB91
:100A4000924202D04B689B0301D52D4B00E02A4B0C
:100A50005A43CAE7234A0029516901D0014300E003
:100A60008143516170471F4A0029916901D00143B8
:100A700000E08143916170471A4A0029D16901D091
:100A8000014300E08143D1617047164A0029D168D3
:100A900001D0014300E08143D1607047114A002931
:100AA000116901D0014300E0814311617047114990
:100AB0004039086070470E49C86470470949C871D9
:100AC00070470848416A41F0807141627047054AA9
:100AD0000146002092680A4200D001207047014977
:100AE00088727047001002400000FFF8FFFFF6FE1A
:100AF000000042428004424200127A0018000020A6
:100B000000093D00C44910B588420AD101218C0377
:100B10002046FFF7BAFF2046BDE810400021FFF74E
:100B2000B4BFBE49884202D101214C0410E0BC4947
:100B3000884202D101218C040AE0BA49884202D1DC
:100B40000121CC0404E0B84988420AD101210C05F6
:100B50002046FFF7A3FF2046BDE810400021FFF725
:100B60009DBF10BD30B50446008A85B00D464CF6D9
:100B7000FF710840E98801432182A1894EF6F310F4
:100B80000140A8882A8910436A890A431043A0813A
:100B9000A08A4FF6FF410840A9890143A182684617
:100BA000FFF718FF9C48844201D1039800E00298A7
:100BB000A189090400EBC00101EB0010296801D5EF
:100BC000490000E08900B0FBF1F06422B0FBF2F1D3
:100BD00009010B096FF018056B4300EB8300A38933
:100BE0001D044FF0320306D503EBC000B0FBF2F05A
:100BF00000F0070005E003EB0010B0FBF2F000F09E
:100C00000F000843208105B030BD4FF4165101603C
:100C100000218180C18001810C2242818181704745
:100C200010B5038A4FF2FF0213400A884C88224312
:100C30008C88C9880C4322431A43028210BD0021CC
:100C4000018041808180C18070470029818902D064
:100C500041F4005101E021F400518181704710B549
:100C6000C1F3421301F01F040121A140012B07D061
:100C7000022B07D01430002A026805D00A4304E092
:100C80000C30F8E71030F6E78A43026010BD002A06
:100C9000828A01D00A4300E08A4382827047028A36
:100CA00022F00F020282028A0A430282704782897E
:100CB00022F40062828182890A438281704700297E
:100CC000818902D041F0020101E021F0020181811D
:100CD0007047028A22F020020282028A0A430282BC
:100CE00070470029018A02D041F4804101E021F4DB
:100CF000804101827047C1F308018180704780887C
:100D0000C0F308007047818941F00101818170477B
:100D1000028BD2B20283028B42EA01210183704727
:100D2000028B02F47F420283028B0A4302837047E4
:100D30000029818A02D041F0200101E021F0200148
:100D4000818270470029818A02D041F0100101E0C0
:100D500021F01001818270470029818A02D041F080
:100D6000080101E021F00801818270470029818992
:100D700002D041F4004101E0C1F30E0181817047CE
:100D80000029818A02D041F4006101E021F4006170
:100D900081827047828A22F004028282828A0A4318
:100DA000828270470029818A02D041F0020101E06D
:100DB00021F00201818270470246002012880A4217
:100DC00000D001207047C9430180704730B501F061
:100DD0001F0201240025C1F3421304FA02F2012B81
:100DE0000FD0022B0FD0838A4FEA112100881342C3
:100DF00004FA01F400EA040001D000B101252846FC
:100E000030BD8389F0E7038AEEE70A0A01219140A9
:100E1000C943018070470000003801400044004091
:100E200000480040004C00400050004070B52DA02C
:100E300000F062FB304D0024E1B229552FA000F0F4
:100E40005BFBE043000702D12EA000F055FB641CC1
:100E5000A4B2FF2CF0D92CA000F04EFB4FF480740C
:100E600022460021244800F0DDF92FA000F044FBC9
:100E70002FA000F041FB36A000F03EFB22460021EF
:100E80003C4800F053FA3CA000F036FB3CA000F0D8
:100E900033FB384E0024315D285D814217A006D017
:100EA00000F02AFB3CA0BDE8704000F025BB00F03C
:100EB00023FBE043000702D112A000F01DFB641CDD
:100EC000A4B2FF2CE7D93CA0EDE700F0AFF847A0B3
:100ED00000F012FB00F004F94AA000F00DFBFFF750
:100EE000A5FFFEE74461746120746F207772697416
:100EF000653A0A0D000000003000002030782530EF
:100F0000325820000A0D00004E6F77207772697406
:100F1000696E6720746F204275666665722045456C
:100F200050524F4D2E2E2E00446F6E652E0A0D002E
:100F3000436865636B206461746120776F20776913
:100F40006C6C2072656164206E6578742E0A0A00EC
:100F50004E6F772072656164696E672066726F6D8F
:100F60002042756666657220454550524F4D2E2EC3
:100F70002E00000030010020446F6E650A00000062
:100F8000446174612066726F6D20454550524F4D2B
:100F9000206172653A0A00004552524F52212120C9
:100FA000646966666572656E7420646574656374F1
:100FB0006564210A0D000000436F6D706C657465F7
:100FC0002C206E6F20616E7920646966666572659B
:100FD0006E6365206265747765656E2074756F2039
:100FE00061727261792E0A0D00000000696E6974E9
:100FF00069616C697A65642055534152542E200D05
:101000000A000000696E697469616C697A65642020
:101010004932432E200D0A007047FEE7FEE7FEE747
:10102000FEE77047704770477047000010B586B004
:10103000012144F20400FFF716FD4FF40070ADF8F3
:10104000100018208DF813000320234C8DF8120097
:1010500004A92046FFF789F92015ADF810000420F7
:101060008DF8130004A92046FFF77FF94FF4E13013
:1010700000900020ADF80400ADF80600ADF80800BF
:10108000ADF80C000C20154CADF80A00694620465E
:10109000FFF768FD01212046FFF7D7FD06B010BD20
:1010A00070B50E4D0446C1B22846FFF724FE8021DC
:1010B0002846FFF781FE0028F9D0204670BD10B504
:1010C000064C20212046FFF777FE0028F9D0204665
:1010D000BDE81040FFF713BE000801400038014092
:1010E0001FB501210820FFF7BEFC01214805FFF7CD
:1010F000C3FCC020ADF8000003208DF802001C20C6
:101100008DF803006946C348FFF72FF90020ADF8BA
:1011100004004BF6FF70ADF806000A20ADF8080099
:101120004FF48060ADF80A000001ADF80C00BA4839
:10113000BA4C009069462046FFF709FA0121204683
:10114000FFF76CFAB649A02008801FBD38B5002013
:10115000ADF80000B14CB24D01212046FFF77CFAFA
:1011600014212046FFF7C7FAADF8000029780022C5
:101170002046FFF7B8FA14212046FFF7BCFA800793
:10118000EAD5A8492046FFF744FB2046BDE8384091
:101190000121FFF76BBA2DE9F041A04C15468846B6
:1011A00006464FF4003739462046FFF71DFB00285E
:1011B000F9D101212046FFF74FFA9B4F20463946CF
:1011C000FFF7FFFA0028F9D0954800220178204661
:1011D000FFF789FA954F20463946FFF7F2FA0028C3
:1011E000F9D041462046FFF779FA904FBF1C3946A7
:1011F0002046FFF7E6FA0028F9D00AE031782046C9
:10120000FFF76CFA761C39462046FFF7DAFA002819
:10121000F9D06D1EEDB2F1D22046BDE8F0410121BA
:10122000FFF724BA2DE9F041064611F007000C46FD
:1012300002F00701C0F10807C2F3C705884611D0C4
:101240008DB1D01BC0F3C70500F007087FB33A4645
:1012500021463046FFF79FFFFFF778FFE019C4B241
:101260003E4424E05DB90A4610E00822214630469B
:10127000FFF791FFFFF76AFF0834E4B208366D1EEE
:10128000EDB2F2D25FEA080015D0024621463046A0
:10129000FFF781FFBDE8F04158E7082221463046BC
:1012A000FFF779FFFFF752FF0834E4B208366D1EEE
:1012B000EDB2F2D2E6E7BDE8F0812DE9F041574CFE
:1012C0000D46064601212046FFF7C6F9564F204637
:1012D0003946FFF776FA0028F9D051480022017804
:1012E0002046FFF700FA514F20463946FFF769FACA
:1012F0000028F9D029462046FFF7F0F94B4DAD1CE8
:1013000029462046FFF75DFA0028F9D031782046BB
:10131000FFF7E4F929462046FFF753FA0028F9D0F1
:101320002046BDE8F0410121FFF7A0B92DE9F047C3
:101330003A4C15468A4606464FF400373946204651
:10134000FFF752FA0028F9D101212046FFF784F96E
:10135000354F20463946FFF734FA0028F9D0DFF838
:10136000C0800022204698F80010FFF7BCF9DFF893
:10137000BC9020464946FFF724FA0028F9D0012105
:101380002046FFF74BF951462046FFF7A7F9DFF853
:101390009C9009F1020949462046FFF712FA0028FD
:1013A000F9D001212046FFF757F939462046FFF7CB
:1013B00008FA0028F9D098F8001001222046FFF71B
:1013C00092F9194F7F1C39462046FFF7FAF9002899
:1013D000F9D0154F3F37BDB1012D07D1002120466F
:1013E000FFF74EF901212046FFF740F93946204624
:1013F000FFF7E7F90028EED02046FFF771F96D1EE0
:1014000006F8010BADB2E6E72046BDE8F047012142
:10141000FFF736B9000C0140801A06000054004066
:1014200028000020000400100100030082000700D3
:101430002DE9F05F0546002092469B468846064609
:10144000814640241BE0284641464746224600F09C
:1014500042F853465A46C01A914110D311461846D5
:10146000224600F029F82D1A67EB01084F46224664
:101470000120002100F020F817EB00094E41201E4A
:10148000A4F10104DFDC484631462A464346BDE864
:10149000F09F0000064C074D06E0E06840F00103B5
:1014A00094E8070098471034AC42F6D3FEF744FEA8
:1014B0009C190008BC190008202A04DB203A00FA15
:1014C00002F1002070479140C2F1200320FA03F39B
:1014D000194390407047202A04DB203A21FA02F099
:1014E0000021704721FA02F3D040C2F1200291405E
:1014F00008431946704700000FB4054B10B503A907
:10150000044A029800F018F810BC5DF814FB0000C3
:10151000A11000082C00002002E008C8121F08C11A
:10152000002AFAD170477047002001E001C1121F64
:10153000002AFBD1704700002DE9FF4F8DB00F4608
:101540000546002606E025280BD0DDE90F1290475E
:101550006D1C761C28780028F5D111B03046BDE806
:10156000F08F0024A246A1460122EC4900E004438A
:1015700015F8013F203B02FA03F00842F7D1287822
:101580002A2810D06FF02F022878A0F13001092905
:1015900014D80AEB8A0102EB410144F0020400EB8B
:1015A000010A6D1CF0E701CF5FEA000A03D544F49D
:1015B0000054CAF1000A44F002046D1C28782E2859
:1015C00017D115F8010F44F004042A280ED06FF04B
:1015D0002F022878A0F1300109290AD809EB8901E6
:1015E00002EB410100EB01096D1CF2E757F8049B87
:1015F0006D1C28786C280FD006DC4C2817D0682882
:101600000DD06A2814D104E0742810D07A280FD1A4
:101610000DE044F400140AE044F4801401E044F4C2
:1016200040146978814202D104F580146D1C6D1C50
:101630002A786E2A1FD00CDC632A31D004DC002A01
:101640008BD0582A11D1A3E0642A68D0692A0CD122
:1016500065E0732A2ED004DC6F2A73D0702A04D17F
:101660009BE0752A6FD0782A6ED01046DDE90F1204
:101670009047761C50E1C4F30250022806D003289C
:1016800009D0042801CF09D0066045E101CFF11748
:10169000C0E9006140E101CF06803DE106703BE119
:1016A00017F8040B8DF8000000208DF80100EB46C0
:1016B000012003E057F804BB4FF0FF3061074FF003
:1016C000000102D40DE008F10101884649450FDA16
:1016D0008045F8DB1BF808100029F4D108E008F178
:1016E000010188468142FADB1BF808100029F6D177
:1016F000DDE90F23AAEB08008146214600F036F908
:10170000304400EB080604E0DDE90F121BF8010B82
:101710009047B8F10108F7D221464846F7E00A2180
:10172000C4F302534FF0000B0891022B04D001CFF9
:10173000C117032B09D00AE0FF1D27F00707F7E8C0
:10174000020108E032E01FE020E000B2C117042BE4
:1017500001D140B2C117031E71F1000307DA4FF047
:10176000000CD0EB0C006CEB01012D2302E02305F3
:1017700004D52B238DF82430012303E0E30701D0A7
:101780002023F7E7984658E00A2110E010210EE0E8
:1017900010204FF0000B08900CE010214FF0000BD0
:1017A00044F004044FF00809089103E008214FF0C9
:1017B000000B0891C4F30253022B04D001CF002187
:1017C000032B06D006E0FF1D27F00707F7E802010C
:1017D00003E080B2042B00D1C0B24FF00008230711
:1017E0002BD5702A07D0DDF820C08CF0100C5CEAF5
:1017F0000B0C05D00EE040238DF82430012308E0C7
:1018000050EA010306D030238DF824308DF82520CE
:1018100002239846DDF820C08CF0080C5CEA0B0C23
:101820000BD150EA010301D1630706D530238DF8AF
:1018300024304FF00108A9F10109582A04D038A238
:101840000B9208AA0A920BE03AA2F9E75B46089AC3
:10185000FFF7EEFD0B9B9B5C0A9A521E0A921370D7
:1018600050EA0102F2D10A98ADEB000000F1200B22
:10187000600702D524F4803401E04FF00109D94516
:1018800002DDA9EB0B0000E0002000EB0B0141445E
:101890000890AAEB010AE00306D4DDE90F232146F4
:1018A000504600F063F806444FF0000908E009A92B
:1018B00011F80900DDE90F12904709F10109761CC2
:1018C000C145F4DBE0030CD5DDE90F23214650468A
:1018D00000F04CF8064404E0DDE90F123020904798
:1018E000761C0899481E08900029F5DC08E00A9843
:1018F0000A990078491C0A91DDE90F129047761C7D
:10190000BBF10001ABF1010BF1DC21465046DDE9F2
:101910000F2300F019F806446D1C1BE6092801008E
:101920003031323334353637383961626364656655
:101930000000000030313233343536373839414217
:1019400043444546000000002DE9F04104460025CF
:101950001E461746880404D405E039462020B047C7
:101960006D1C641EF9D52846BDE8F0812DE9F041D3
:10197000044600251E469046C80301D5302700E0E6
:101980002027880404D505E041463846B0476D1C41
:10199000641EF9D52846BDE8F0810000BC19000896
:1019A000000000203000000018150008EC190008A5
:1019B00030000020000600002815000800A24A049C
:1019C00000000000000000000102030406070809EF
:1019D00002040608000000000102030401020304DF
:0C19E000060708090000000000000000DD
:0400000508000131BD
:00000001FF
