:020000040800F2
:1000000000040020450100089B010008930100083E
:10001000970100088D010008E902000800000000B7
:100020000000000000000000000000009F01000828
:1000300091010008000000009D01000885020008F1
:100040005F0100085F0100085F0100085F01000810
:100050005F0100085F0100085F0100085F01000800
:100060005F0100085F0100085F0100085F010008F0
:100070005F0100085F0100085F0100085F010008E0
:100080005F0100085F0100085F0100085F010008D0
:100090005F0100085F0100085F0100085F010008C0
:1000A0005F0100085F0100085F0100085F010008B0
:1000B0005F0100085F0100085F0100085F010008A0
:1000C0005F0100085F0100085F0100085F01000890
:1000D0005F0100085F0100085F0100085F01000880
:1000E0005F0100085F0100085F0100085F01000870
:1000F0005F0100085F0100085F0100085F01000860
:100100005F0100085F0100085F0100085F0100084F
:100110005F0100085F0100085F0100085F0100083F
:100120005F0100085F0100085F0100085F0100082F
:10013000DFF80CD000F018F8004800470B03000867
:10014000000400200648804706480047FEE7FEE717
:10015000FEE7FEE7FEE7FEE7FEE7FEE7FEE7FEE777
:100160008902000831010008064C074D06E0E068EE
:1001700040F0010394E8070098471034AC42F6D3EE
:10018000FFF7DAFF100300082003000800BFFEE7B6
:10019000704700BFFEE700BFFEE77047704770473B
:1001A00010B500F001F810BD0CB5002001900090D2
:1001B0003248006840F480303049086000BF2F4862
:1001C000006800F4003000900198401C01900098F5
:1001D00018B90198B0F5A06FF1D12848006810F463
:1001E000003F02D00120009001E000200090009824
:1001F000012842D12248006840F0100020490860E0
:100200000846006820F0030008600846006840F0D7
:10021000020008601948406818494860084640686C
:1002200048600846406840F480604860084640687E
:1002300020F47C1048600846406840F4E8104860AC
:100240000846006840F08070086000BF0B480068F6
:1002500010F0007FFAD00948406820F003000749F9
:1002600048600846406840F00200486000BF03480C
:10027000406800F00C000828F9D10CBD00100240C5
:10028000002002407047000010B51348006840F09D
:1002900001001149086008464068104908400E49AD
:1002A0004860084600680E4908400B490860084647
:1002B000006820F4802008600846406820F4FE00B2
:1002C00048604FF41F008860FFF76AFF4FF000603E
:1002D0000449086010BD0000001002400000FFF853
:1002E000FFFFF6FE08ED00E000BFFEE702E008C8F1
:1002F000121F08C1002AFAD170477047002001E0A0
:1003000001C1121F002AFBD1704700BFFEE70000A9
:10031000200300080000002000040000FC02000888
:0400000508000131BD
:00000001FF
